{
  "contractName": "AdminValidatorSet",
  "abi": [
    {
      "inputs": [
        {
          "name": "owner1",
          "type": "address"
        },
        {
          "name": "owner2",
          "type": "address"
        }
      ],
      "payable": false,
      "stateMutability": "nonpayable",
      "type": "constructor"
    },
    {
      "anonymous": false,
      "inputs": [
        {
          "indexed": false,
          "name": "by",
          "type": "address"
        },
        {
          "indexed": false,
          "name": "vfor",
          "type": "address"
        }
      ],
      "name": "votedfor",
      "type": "event"
    },
    {
      "anonymous": false,
      "inputs": [
        {
          "indexed": false,
          "name": "by",
          "type": "address"
        },
        {
          "indexed": false,
          "name": "vfor",
          "type": "address"
        }
      ],
      "name": "votedagainst",
      "type": "event"
    },
    {
      "anonymous": false,
      "inputs": [
        {
          "indexed": false,
          "name": "_address",
          "type": "address"
        }
      ],
      "name": "ownerAdded",
      "type": "event"
    },
    {
      "anonymous": false,
      "inputs": [
        {
          "indexed": false,
          "name": "_address",
          "type": "address"
        }
      ],
      "name": "ownerRemoved",
      "type": "event"
    },
    {
      "constant": false,
      "inputs": [
        {
          "name": "_address",
          "type": "address"
        }
      ],
      "name": "proposalToRemoveAdmin",
      "outputs": [
        {
          "name": "res",
          "type": "bool"
        }
      ],
      "payable": false,
      "stateMutability": "nonpayable",
      "type": "function"
    },
    {
      "constant": false,
      "inputs": [
        {
          "name": "_address",
          "type": "address"
        }
      ],
      "name": "proposalToAddAdmin",
      "outputs": [
        {
          "name": "res",
          "type": "bool"
        }
      ],
      "payable": false,
      "stateMutability": "nonpayable",
      "type": "function"
    },
    {
      "constant": false,
      "inputs": [
        {
          "name": "_address",
          "type": "address"
        }
      ],
      "name": "voteForAddingAdmin",
      "outputs": [
        {
          "name": "res",
          "type": "bool"
        }
      ],
      "payable": false,
      "stateMutability": "nonpayable",
      "type": "function"
    },
    {
      "constant": false,
      "inputs": [
        {
          "name": "_address",
          "type": "address"
        }
      ],
      "name": "voteForRemovingAdmin",
      "outputs": [
        {
          "name": "res",
          "type": "bool"
        }
      ],
      "payable": false,
      "stateMutability": "nonpayable",
      "type": "function"
    },
    {
      "constant": false,
      "inputs": [
        {
          "name": "_address",
          "type": "address"
        }
      ],
      "name": "voteAgainstAddingAdmin",
      "outputs": [
        {
          "name": "res",
          "type": "bool"
        }
      ],
      "payable": false,
      "stateMutability": "nonpayable",
      "type": "function"
    },
    {
      "constant": false,
      "inputs": [
        {
          "name": "_address",
          "type": "address"
        }
      ],
      "name": "voteAgainstRemovingAdmin",
      "outputs": [
        {
          "name": "res",
          "type": "bool"
        }
      ],
      "payable": false,
      "stateMutability": "nonpayable",
      "type": "function"
    },
    {
      "constant": false,
      "inputs": [
        {
          "name": "_address",
          "type": "address"
        }
      ],
      "name": "changeVote",
      "outputs": [
        {
          "name": "res",
          "type": "bool"
        }
      ],
      "payable": false,
      "stateMutability": "nonpayable",
      "type": "function"
    },
    {
      "constant": true,
      "inputs": [
        {
          "name": "_address",
          "type": "address"
        }
      ],
      "name": "isActiveAdmin",
      "outputs": [
        {
          "name": "",
          "type": "bool"
        }
      ],
      "payable": false,
      "stateMutability": "view",
      "type": "function"
    },
    {
      "constant": true,
      "inputs": [],
      "name": "getAllAdmins",
      "outputs": [
        {
          "name": "res",
          "type": "address[]"
        }
      ],
      "payable": false,
      "stateMutability": "view",
      "type": "function"
    },
    {
      "constant": true,
      "inputs": [
        {
          "name": "_address",
          "type": "address"
        }
      ],
      "name": "checkVotes",
      "outputs": [
        {
          "name": "res",
          "type": "uint32[2]"
        }
      ],
      "payable": false,
      "stateMutability": "view",
      "type": "function"
    },
    {
      "constant": true,
      "inputs": [
        {
          "name": "_address",
          "type": "address"
        }
      ],
      "name": "checkProposal",
      "outputs": [
        {
          "name": "res",
          "type": "string"
        }
      ],
      "payable": false,
      "stateMutability": "view",
      "type": "function"
    },
    {
      "constant": true,
      "inputs": [
        {
          "name": "_address",
          "type": "address"
        }
      ],
      "name": "getVoted",
      "outputs": [
        {
          "name": "",
          "type": "address[]"
        }
      ],
      "payable": false,
      "stateMutability": "view",
      "type": "function"
    },
    {
      "constant": true,
      "inputs": [],
      "name": "getTotalCount",
      "outputs": [
        {
          "name": "",
          "type": "uint32"
        }
      ],
      "payable": false,
      "stateMutability": "view",
      "type": "function"
    }
  ],
  "bytecode": "0x608060405234801561001057600080fd5b50604051604080612f3c833981018060405281019080805190602001909291908051906020019092919050505060018060003373ffffffffffffffffffffffffffffffffffffffff1673ffffffffffffffffffffffffffffffffffffffff16815260200190815260200160002060006101000a81548160ff02191690831515021790555060018060008473ffffffffffffffffffffffffffffffffffffffff1673ffffffffffffffffffffffffffffffffffffffff16815260200190815260200160002060006101000a81548160ff02191690831515021790555060018060008373ffffffffffffffffffffffffffffffffffffffff1673ffffffffffffffffffffffffffffffffffffffff16815260200190815260200160002060006101000a81548160ff02191690831515021790555060033390806001815401808255809150509060018203906000526020600020016000909192909190916101000a81548173ffffffffffffffffffffffffffffffffffffffff021916908373ffffffffffffffffffffffffffffffffffffffff1602179055505060038290806001815401808255809150509060018203906000526020600020016000909192909190916101000a81548173ffffffffffffffffffffffffffffffffffffffff021916908373ffffffffffffffffffffffffffffffffffffffff1602179055505060038190806001815401808255809150509060018203906000526020600020016000909192909190916101000a81548173ffffffffffffffffffffffffffffffffffffffff021916908373ffffffffffffffffffffffffffffffffffffffff160217905550506001600460003373ffffffffffffffffffffffffffffffffffffffff1673ffffffffffffffffffffffffffffffffffffffff16815260200190815260200160002060006101000a81548160ff0219169083151502179055506001600460008473ffffffffffffffffffffffffffffffffffffffff1673ffffffffffffffffffffffffffffffffffffffff16815260200190815260200160002060006101000a81548160ff0219169083151502179055506001600460008373ffffffffffffffffffffffffffffffffffffffff1673ffffffffffffffffffffffffffffffffffffffff16815260200190815260200160002060006101000a81548160ff0219169083151502179055506003600260006101000a81548163ffffffff021916908363ffffffff1602179055505050612b8d806103af6000396000f3006080604052600436106100c5576000357c0100000000000000000000000000000000000000000000000000000000900463ffffffff1680631e301eef146100ca5780632c9f55ed14610125578063362ee2a9146101e157806356d42bb31461023c5780635aa82fbe146102735780635caea9cb1461030b57806366af4d641461038a57806367b996f1146103e5578063a06a206014610440578063b81955561461049b578063d118019c146104f6578063e35cc88f14610551578063e9523c97146105ac575b600080fd5b3480156100d657600080fd5b5061010b600480360381019080803573ffffffffffffffffffffffffffffffffffffffff169060200190929190505050610618565b604051808215151515815260200191505060405180910390f35b34801561013157600080fd5b50610166600480360381019080803573ffffffffffffffffffffffffffffffffffffffff1690602001909291905050506107a1565b6040518080602001828103825283818151815260200191508051906020019080838360005b838110156101a657808201518184015260208101905061018b565b50505050905090810190601f1680156101d35780820380516001836020036101000a031916815260200191505b509250505060405180910390f35b3480156101ed57600080fd5b50610222600480360381019080803573ffffffffffffffffffffffffffffffffffffffff16906020019092919050505061080b565b604051808215151515815260200191505060405180910390f35b34801561024857600080fd5b50610251610b4c565b604051808263ffffffff1663ffffffff16815260200191505060405180910390f35b34801561027f57600080fd5b506102b4600480360381019080803573ffffffffffffffffffffffffffffffffffffffff169060200190929190505050610b66565b6040518080602001828103825283818151815260200191508051906020019060200280838360005b838110156102f75780820151818401526020810190506102dc565b505050509050019250505060405180910390f35b34801561031757600080fd5b5061034c600480360381019080803573ffffffffffffffffffffffffffffffffffffffff169060200190929190505050610bd0565b6040518082600260200280838360005b8381101561037757808201518184015260208101905061035c565b5050505090500191505060405180910390f35b34801561039657600080fd5b506103cb600480360381019080803573ffffffffffffffffffffffffffffffffffffffff169060200190929190505050610c40565b604051808215151515815260200191505060405180910390f35b3480156103f157600080fd5b50610426600480360381019080803573ffffffffffffffffffffffffffffffffffffffff169060200190929190505050610d8e565b604051808215151515815260200191505060405180910390f35b34801561044c57600080fd5b50610481600480360381019080803573ffffffffffffffffffffffffffffffffffffffff169060200190929190505050610fbd565b604051808215151515815260200191505060405180910390f35b3480156104a757600080fd5b506104dc600480360381019080803573ffffffffffffffffffffffffffffffffffffffff169060200190929190505050611013565b604051808215151515815260200191505060405180910390f35b34801561050257600080fd5b50610537600480360381019080803573ffffffffffffffffffffffffffffffffffffffff1690602001909291905050506113a9565b604051808215151515815260200191505060405180910390f35b34801561055d57600080fd5b50610592600480360381019080803573ffffffffffffffffffffffffffffffffffffffff169060200190929190505050611531565b604051808215151515815260200191505060405180910390f35b3480156105b857600080fd5b506105c161167f565b6040518080602001828103825283818151815260200191508051906020019060200280838360005b838110156106045780820151818401526020810190506105e9565b505050509050019250505060405180910390f35b6000600160003373ffffffffffffffffffffffffffffffffffffffff1673ffffffffffffffffffffffffffffffffffffffff16815260200190815260200160002060009054906101000a900460ff16151561067257600080fd5b6001600281111561067f57fe5b6000808473ffffffffffffffffffffffffffffffffffffffff1673ffffffffffffffffffffffffffffffffffffffff16815260200190815260200160002060000160009054906101000a900460ff1660028111156106d957fe5b1415156106e557600080fd5b6106ef823361170d565b15156106fa57600080fd5b600160028060009054906101000a900463ffffffff1663ffffffff1681151561071f57fe5b040163ffffffff166000808473ffffffffffffffffffffffffffffffffffffffff1673ffffffffffffffffffffffffffffffffffffffff16815260200190815260200160002060000160059054906101000a900463ffffffff1663ffffffff161015156107985761078f82611a74565b151561079757fe5b5b60019050919050565b6060600160003373ffffffffffffffffffffffffffffffffffffffff1673ffffffffffffffffffffffffffffffffffffffff16815260200190815260200160002060009054906101000a900460ff1615156107fb57600080fd5b61080482611d9c565b9050919050565b6000600160003373ffffffffffffffffffffffffffffffffffffffff1673ffffffffffffffffffffffffffffffffffffffff16815260200190815260200160002060009054906101000a900460ff16151561086557600080fd5b6001600281111561087257fe5b6000808473ffffffffffffffffffffffffffffffffffffffff1673ffffffffffffffffffffffffffffffffffffffff16815260200190815260200160002060000160009054906101000a900460ff1660028111156108cc57fe5b1415156108d857600080fd5b6108e28233611f2f565b15156108ed57600080fd5b600160028060009054906101000a900463ffffffff1663ffffffff1681151561091257fe5b040163ffffffff166000808473ffffffffffffffffffffffffffffffffffffffff1673ffffffffffffffffffffffffffffffffffffffff16815260200190815260200160002060000160019054906101000a900463ffffffff1663ffffffff16101515610b435760018060008473ffffffffffffffffffffffffffffffffffffffff1673ffffffffffffffffffffffffffffffffffffffff16815260200190815260200160002060006101000a81548160ff0219169083151502179055506109fc6001600260009054906101000a900463ffffffff1663ffffffff1661229690919063ffffffff16565b600260006101000a81548163ffffffff021916908363ffffffff160217905550600460008373ffffffffffffffffffffffffffffffffffffffff1673ffffffffffffffffffffffffffffffffffffffff16815260200190815260200160002060009054906101000a900460ff161515610ac8576001600460008473ffffffffffffffffffffffffffffffffffffffff1673ffffffffffffffffffffffffffffffffffffffff16815260200190815260200160002060006101000a81548160ff0219169083151502179055505b60038290806001815401808255809150509060018203906000526020600020016000909192909190916101000a81548173ffffffffffffffffffffffffffffffffffffffff021916908373ffffffffffffffffffffffffffffffffffffffff16021790555050610b3782611a74565b1515610b4257600080fd5b5b60019050919050565b6000600260009054906101000a900463ffffffff16905090565b6060600160003373ffffffffffffffffffffffffffffffffffffffff1673ffffffffffffffffffffffffffffffffffffffff16815260200190815260200160002060009054906101000a900460ff161515610bc057600080fd5b610bc9826122c0565b9050919050565b610bd8612a72565b600160003373ffffffffffffffffffffffffffffffffffffffff1673ffffffffffffffffffffffffffffffffffffffff16815260200190815260200160002060009054906101000a900460ff161515610c3057600080fd5b610c3982612394565b9050919050565b6000600160003373ffffffffffffffffffffffffffffffffffffffff1673ffffffffffffffffffffffffffffffffffffffff16815260200190815260200160002060009054906101000a900460ff161515610c9a57600080fd5b60006002811115610ca757fe5b6000808473ffffffffffffffffffffffffffffffffffffffff1673ffffffffffffffffffffffffffffffffffffffff16815260200190815260200160002060000160009054906101000a900460ff166002811115610d0157fe5b141515610d0d57600080fd5b60026000808473ffffffffffffffffffffffffffffffffffffffff1673ffffffffffffffffffffffffffffffffffffffff16815260200190815260200160002060000160006101000a81548160ff02191690836002811115610d6b57fe5b0217905550610d7a8233611f2f565b1515610d8557600080fd5b60019050919050565b6000600160003373ffffffffffffffffffffffffffffffffffffffff1673ffffffffffffffffffffffffffffffffffffffff16815260200190815260200160002060009054906101000a900460ff161515610de857600080fd5b600280811115610df457fe5b6000808473ffffffffffffffffffffffffffffffffffffffff1673ffffffffffffffffffffffffffffffffffffffff16815260200190815260200160002060000160009054906101000a900460ff166002811115610e4e57fe5b141515610e5a57600080fd5b610e648233611f2f565b1515610e6f57600080fd5b600160028060009054906101000a900463ffffffff1663ffffffff16811515610e9457fe5b040163ffffffff166000808473ffffffffffffffffffffffffffffffffffffffff1673ffffffffffffffffffffffffffffffffffffffff16815260200190815260200160002060000160019054906101000a900463ffffffff1663ffffffff16101515610fb4576000600160008473ffffffffffffffffffffffffffffffffffffffff1673ffffffffffffffffffffffffffffffffffffffff16815260200190815260200160002060006101000a81548160ff021916908315150217905550610f7f6001600260009054906101000a900463ffffffff1663ffffffff1661249d90919063ffffffff16565b600260006101000a81548163ffffffff021916908363ffffffff160217905550610fa882611a74565b1515610fb357600080fd5b5b60019050919050565b6000600160008373ffffffffffffffffffffffffffffffffffffffff1673ffffffffffffffffffffffffffffffffffffffff16815260200190815260200160002060009054906101000a900460ff169050919050565b6000806000600160003373ffffffffffffffffffffffffffffffffffffffff1673ffffffffffffffffffffffffffffffffffffffff16815260200190815260200160002060009054906101000a900460ff16151561107057600080fd5b611079846124c2565b151561108457600080fd5b6000808573ffffffffffffffffffffffffffffffffffffffff1673ffffffffffffffffffffffffffffffffffffffff16815260200190815260200160002060000160019054906101000a900463ffffffff1691506000808573ffffffffffffffffffffffffffffffffffffffff1673ffffffffffffffffffffffffffffffffffffffff16815260200190815260200160002060000160059054906101000a900463ffffffff1690506001600281111561113957fe5b6000808673ffffffffffffffffffffffffffffffffffffffff1673ffffffffffffffffffffffffffffffffffffffff16815260200190815260200160002060010160003373ffffffffffffffffffffffffffffffffffffffff1673ffffffffffffffffffffffffffffffffffffffff16815260200190815260200160002060009054906101000a900460ff1660028111156111d057fe5b141561122b57600160028060009054906101000a900463ffffffff1663ffffffff168115156111fb57fe5b040163ffffffff168163ffffffff161015156112265761121a84611a74565b151561122557600080fd5b5b61139e565b600160028060009054906101000a900463ffffffff1663ffffffff1681151561125057fe5b040163ffffffff168263ffffffff1610151561139d576001600281111561127357fe5b6000808673ffffffffffffffffffffffffffffffffffffffff1673ffffffffffffffffffffffffffffffffffffffff16815260200190815260200160002060000160009054906101000a900460ff1660028111156112cd57fe5b141561132f5760018060008673ffffffffffffffffffffffffffffffffffffffff1673ffffffffffffffffffffffffffffffffffffffff16815260200190815260200160002060006101000a81548160ff021916908315150217905550611388565b6000600160008673ffffffffffffffffffffffffffffffffffffffff1673ffffffffffffffffffffffffffffffffffffffff16815260200190815260200160002060006101000a81548160ff0219169083151502179055505b61139184611a74565b151561139c57600080fd5b5b5b600192505050919050565b6000600160003373ffffffffffffffffffffffffffffffffffffffff1673ffffffffffffffffffffffffffffffffffffffff16815260200190815260200160002060009054906101000a900460ff16151561140357600080fd5b60028081111561140f57fe5b6000808473ffffffffffffffffffffffffffffffffffffffff1673ffffffffffffffffffffffffffffffffffffffff16815260200190815260200160002060000160009054906101000a900460ff16600281111561146957fe5b14151561147557600080fd5b61147f823361170d565b151561148a57600080fd5b600160028060009054906101000a900463ffffffff1663ffffffff168115156114af57fe5b040163ffffffff166000808473ffffffffffffffffffffffffffffffffffffffff1673ffffffffffffffffffffffffffffffffffffffff16815260200190815260200160002060000160059054906101000a900463ffffffff1663ffffffff161015156115285761151f82611a74565b151561152757fe5b5b60019050919050565b6000600160003373ffffffffffffffffffffffffffffffffffffffff1673ffffffffffffffffffffffffffffffffffffffff16815260200190815260200160002060009054906101000a900460ff16151561158b57600080fd5b6000600281111561159857fe5b6000808473ffffffffffffffffffffffffffffffffffffffff1673ffffffffffffffffffffffffffffffffffffffff16815260200190815260200160002060000160009054906101000a900460ff1660028111156115f257fe5b1415156115fe57600080fd5b60016000808473ffffffffffffffffffffffffffffffffffffffff1673ffffffffffffffffffffffffffffffffffffffff16815260200190815260200160002060000160006101000a81548160ff0219169083600281111561165c57fe5b021790555061166b8233611f2f565b151561167657600080fd5b60019050919050565b6060600380548060200260200160405190810160405280929190818152602001828054801561170357602002820191906000526020600020905b8160009054906101000a900473ffffffffffffffffffffffffffffffffffffffff1673ffffffffffffffffffffffffffffffffffffffff16815260200190600101908083116116b9575b5050505050905090565b6000806000600281111561171d57fe5b6000808673ffffffffffffffffffffffffffffffffffffffff1673ffffffffffffffffffffffffffffffffffffffff16815260200190815260200160002060010160008573ffffffffffffffffffffffffffffffffffffffff1673ffffffffffffffffffffffffffffffffffffffff16815260200190815260200160002060009054906101000a900460ff1660028111156117b457fe5b1415156117c057600080fd5b61182b60016000808773ffffffffffffffffffffffffffffffffffffffff1673ffffffffffffffffffffffffffffffffffffffff16815260200190815260200160002060000160059054906101000a900463ffffffff1663ffffffff1661229690919063ffffffff16565b9050806000808673ffffffffffffffffffffffffffffffffffffffff1673ffffffffffffffffffffffffffffffffffffffff16815260200190815260200160002060000160056101000a81548163ffffffff021916908363ffffffff16021790555060026000808673ffffffffffffffffffffffffffffffffffffffff1673ffffffffffffffffffffffffffffffffffffffff16815260200190815260200160002060010160008573ffffffffffffffffffffffffffffffffffffffff1673ffffffffffffffffffffffffffffffffffffffff16815260200190815260200160002060006101000a81548160ff0219169083600281111561192857fe5b02179055506000808573ffffffffffffffffffffffffffffffffffffffff1673ffffffffffffffffffffffffffffffffffffffff1681526020019081526020016000206002018390806001815401808255809150509060018203906000526020600020016000909192909190916101000a81548173ffffffffffffffffffffffffffffffffffffffff021916908373ffffffffffffffffffffffffffffffffffffffff160217905550507f7a6650c3cb47c42e983c1b1d41edba2961f4e6515feac915850cc410e6c716488385604051808373ffffffffffffffffffffffffffffffffffffffff1673ffffffffffffffffffffffffffffffffffffffff1681526020018273ffffffffffffffffffffffffffffffffffffffff1673ffffffffffffffffffffffffffffffffffffffff1681526020019250505060405180910390a1600191505092915050565b600060608060008060008673ffffffffffffffffffffffffffffffffffffffff1673ffffffffffffffffffffffffffffffffffffffff168152602001908152602001600020600201805480602002602001604051908101604052809291908181526020018280548015611b3c57602002820191906000526020600020905b8160009054906101000a900473ffffffffffffffffffffffffffffffffffffffff1673ffffffffffffffffffffffffffffffffffffffff1681526020019060010190808311611af2575b5050505050925060008060008773ffffffffffffffffffffffffffffffffffffffff1673ffffffffffffffffffffffffffffffffffffffff16815260200190815260200160002060000160016101000a81548163ffffffff021916908363ffffffff16021790555060008060008773ffffffffffffffffffffffffffffffffffffffff1673ffffffffffffffffffffffffffffffffffffffff16815260200190815260200160002060000160056101000a81548163ffffffff021916908363ffffffff160217905550600090505b8251811015611cd75760008060008773ffffffffffffffffffffffffffffffffffffffff1673ffffffffffffffffffffffffffffffffffffffff16815260200190815260200160002060010160008584815181101515611c6657fe5b9060200190602002015173ffffffffffffffffffffffffffffffffffffffff1673ffffffffffffffffffffffffffffffffffffffff16815260200190815260200160002060006101000a81548160ff02191690836002811115611cc557fe5b02179055508080600101915050611c0a565b60008060008773ffffffffffffffffffffffffffffffffffffffff1673ffffffffffffffffffffffffffffffffffffffff16815260200190815260200160002060000160006101000a81548160ff02191690836002811115611d3557fe5b0217905550816000808773ffffffffffffffffffffffffffffffffffffffff1673ffffffffffffffffffffffffffffffffffffffff1681526020019081526020016000206002019080519060200190611d8f929190612a94565b5060019350505050919050565b606060016002811115611dab57fe5b6000808473ffffffffffffffffffffffffffffffffffffffff1673ffffffffffffffffffffffffffffffffffffffff16815260200190815260200160002060000160009054906101000a900460ff166002811115611e0557fe5b1415611e48576040805190810160405280600381526020017f61646400000000000000000000000000000000000000000000000000000000008152509050611f2a565b600280811115611e5457fe5b6000808473ffffffffffffffffffffffffffffffffffffffff1673ffffffffffffffffffffffffffffffffffffffff16815260200190815260200160002060000160009054906101000a900460ff166002811115611eae57fe5b1415611ef1576040805190810160405280600681526020017f72656d6f766500000000000000000000000000000000000000000000000000008152509050611f2a565b6040805190810160405280601481526020017f70726f706f73616c206e6f74206372656174656400000000000000000000000081525090505b919050565b60008060006002811115611f3f57fe5b6000808673ffffffffffffffffffffffffffffffffffffffff1673ffffffffffffffffffffffffffffffffffffffff16815260200190815260200160002060010160008573ffffffffffffffffffffffffffffffffffffffff1673ffffffffffffffffffffffffffffffffffffffff16815260200190815260200160002060009054906101000a900460ff166002811115611fd657fe5b141515611fe257600080fd5b61204d60016000808773ffffffffffffffffffffffffffffffffffffffff1673ffffffffffffffffffffffffffffffffffffffff16815260200190815260200160002060000160019054906101000a900463ffffffff1663ffffffff1661229690919063ffffffff16565b9050806000808673ffffffffffffffffffffffffffffffffffffffff1673ffffffffffffffffffffffffffffffffffffffff16815260200190815260200160002060000160016101000a81548163ffffffff021916908363ffffffff16021790555060016000808673ffffffffffffffffffffffffffffffffffffffff1673ffffffffffffffffffffffffffffffffffffffff16815260200190815260200160002060010160008573ffffffffffffffffffffffffffffffffffffffff1673ffffffffffffffffffffffffffffffffffffffff16815260200190815260200160002060006101000a81548160ff0219169083600281111561214a57fe5b02179055506000808573ffffffffffffffffffffffffffffffffffffffff1673ffffffffffffffffffffffffffffffffffffffff1681526020019081526020016000206002018390806001815401808255809150509060018203906000526020600020016000909192909190916101000a81548173ffffffffffffffffffffffffffffffffffffffff021916908373ffffffffffffffffffffffffffffffffffffffff160217905550507f7a189becc9d33281e69ff3784545bbabdf6de5b0c3dc9a1478ca39d8ebe2dd718385604051808373ffffffffffffffffffffffffffffffffffffffff1673ffffffffffffffffffffffffffffffffffffffff1681526020018273ffffffffffffffffffffffffffffffffffffffff1673ffffffffffffffffffffffffffffffffffffffff1681526020019250505060405180910390a1600191505092915050565b60008082840190508363ffffffff168163ffffffff16101515156122b657fe5b8091505092915050565b6060806000808473ffffffffffffffffffffffffffffffffffffffff1673ffffffffffffffffffffffffffffffffffffffff16815260200190815260200160002060020180548060200260200160405190810160405280929190818152602001828054801561238457602002820191906000526020600020905b8160009054906101000a900473ffffffffffffffffffffffffffffffffffffffff1673ffffffffffffffffffffffffffffffffffffffff168152602001906001019080831161233a575b5050505050905080915050919050565b61239c612a72565b6123a4612a72565b6000808473ffffffffffffffffffffffffffffffffffffffff1673ffffffffffffffffffffffffffffffffffffffff16815260200190815260200160002060000160019054906101000a900463ffffffff1681600060028110151561240557fe5b602002019063ffffffff16908163ffffffff16815250506000808473ffffffffffffffffffffffffffffffffffffffff1673ffffffffffffffffffffffffffffffffffffffff16815260200190815260200160002060000160059054906101000a900463ffffffff1681600160028110151561247d57fe5b602002019063ffffffff16908163ffffffff168152505080915050919050565b60008263ffffffff168263ffffffff16111515156124b757fe5b818303905092915050565b60008060008060028111156124d357fe5b6000808673ffffffffffffffffffffffffffffffffffffffff1673ffffffffffffffffffffffffffffffffffffffff16815260200190815260200160002060010160003373ffffffffffffffffffffffffffffffffffffffff1673ffffffffffffffffffffffffffffffffffffffff16815260200190815260200160002060009054906101000a900460ff16600281111561256a57fe5b1415151561257757600080fd5b6000600281111561258457fe5b6000808673ffffffffffffffffffffffffffffffffffffffff1673ffffffffffffffffffffffffffffffffffffffff16815260200190815260200160002060000160009054906101000a900460ff1660028111156125de57fe5b141515156125eb57600080fd5b6000808573ffffffffffffffffffffffffffffffffffffffff1673ffffffffffffffffffffffffffffffffffffffff16815260200190815260200160002060000160019054906101000a900463ffffffff1691506000808573ffffffffffffffffffffffffffffffffffffffff1673ffffffffffffffffffffffffffffffffffffffff16815260200190815260200160002060000160059054906101000a900463ffffffff169050600160028111156126a057fe5b6000808673ffffffffffffffffffffffffffffffffffffffff1673ffffffffffffffffffffffffffffffffffffffff16815260200190815260200160002060010160003373ffffffffffffffffffffffffffffffffffffffff1673ffffffffffffffffffffffffffffffffffffffff16815260200190815260200160002060009054906101000a900460ff16600281111561273757fe5b14156128d45761275760018363ffffffff1661249d90919063ffffffff16565b6000808673ffffffffffffffffffffffffffffffffffffffff1673ffffffffffffffffffffffffffffffffffffffff16815260200190815260200160002060000160016101000a81548163ffffffff021916908363ffffffff1602179055506127d060018263ffffffff1661229690919063ffffffff16565b6000808673ffffffffffffffffffffffffffffffffffffffff1673ffffffffffffffffffffffffffffffffffffffff16815260200190815260200160002060000160056101000a81548163ffffffff021916908363ffffffff16021790555060026000808673ffffffffffffffffffffffffffffffffffffffff1673ffffffffffffffffffffffffffffffffffffffff16815260200190815260200160002060010160003373ffffffffffffffffffffffffffffffffffffffff1673ffffffffffffffffffffffffffffffffffffffff16815260200190815260200160002060006101000a81548160ff021916908360028111156128ca57fe5b0217905550612a67565b6128ee60018363ffffffff1661229690919063ffffffff16565b6000808673ffffffffffffffffffffffffffffffffffffffff1673ffffffffffffffffffffffffffffffffffffffff16815260200190815260200160002060000160016101000a81548163ffffffff021916908363ffffffff16021790555061296760018263ffffffff1661249d90919063ffffffff16565b6000808673ffffffffffffffffffffffffffffffffffffffff1673ffffffffffffffffffffffffffffffffffffffff16815260200190815260200160002060000160056101000a81548163ffffffff021916908363ffffffff16021790555060016000808673ffffffffffffffffffffffffffffffffffffffff1673ffffffffffffffffffffffffffffffffffffffff16815260200190815260200160002060010160003373ffffffffffffffffffffffffffffffffffffffff1673ffffffffffffffffffffffffffffffffffffffff16815260200190815260200160002060006101000a81548160ff02191690836002811115612a6157fe5b02179055505b600192505050919050565b6040805190810160405280600290602082028038833980820191505090505090565b828054828255906000526020600020908101928215612b0d579160200282015b82811115612b0c5782518260006101000a81548173ffffffffffffffffffffffffffffffffffffffff021916908373ffffffffffffffffffffffffffffffffffffffff16021790555091602001919060010190612ab4565b5b509050612b1a9190612b1e565b5090565b612b5e91905b80821115612b5a57600081816101000a81549073ffffffffffffffffffffffffffffffffffffffff021916905550600101612b24565b5090565b905600a165627a7a7230582087adccc36e91b3a4b0c3273afc99389bc00a716476c3103780ac602b127ae2880029",
  "source": "pragma solidity ^0.4.24;\nimport \"./SafeMath.sol\";\nimport \"./Ownable.sol\";\nimport \"./Voteable.sol\";\n\n/**\n * The AdminSet contract maintains the list of all the admin with their vote\n * to add or remove a particular member as admin\n */\ncontract AdminValidatorSet is Voteable, Ownable {\n\n\tusing SafeMath for uint32;\n\n\taddress[] admins;\n\tmapping (address => bool) exists;\n\n\tmodifier isOwner() {\n\t\t// make sure only owner can add or remove admins\n        require(owners[msg.sender]);\n        _;\n    }\n\n\tconstructor (address owner1,address owner2) public {\n\t\t// make sure that there are minimum of 3 admins to vote for/against\n\t\towners[msg.sender] = true;\n\t\towners[owner1] = true;\n\t\towners[owner2] = true;\n\t\tadmins.push(msg.sender);\n\t\tadmins.push(owner1);\n\t\tadmins.push(owner2);\n\t\texists[msg.sender] = true;\n\t\texists[owner1] = true;\n\t\texists[owner2] = true;\n\t\ttotalCount = 3;\n\t}\n\n\tevent votedfor(address by,address vfor);\n\tevent votedagainst(address by,address vfor);\n\n\tfunction proposalToRemoveAdmin (address _address) public isOwner returns(bool res){\n\t\trequire(votes[_address].proposal == Proposal.NOT_CREATED);\n\t\tvotes[_address].proposal = Proposal.REMOVE;\n\t\trequire (voteFor(_address,msg.sender));\n\t\treturn true;\n\t}\n\n\tfunction proposalToAddAdmin (address _address) public isOwner returns(bool res){\n\t\trequire(votes[_address].proposal == Proposal.NOT_CREATED);\n\t\tvotes[_address].proposal = Proposal.ADD;\n\t\trequire (voteFor(_address,msg.sender));\n\t\treturn true;\n\t}\n\n\tfunction voteForAddingAdmin (address _address) public isOwner returns(bool res){\n\t\trequire(votes[_address].proposal == Proposal.ADD);\n\t\trequire(voteFor(_address,msg.sender));\n\t\tif(votes[_address].countFor >= totalCount / 2 + 1){\n\t\t\towners[_address] = true;\n\t\t\ttotalCount = totalCount.add(1);\n\t\t\tif(!exists[_address])\n\t\t\t\texists[_address] = true;\n\t\t\tadmins.push(_address);\n\t\t\trequire(clearVotes(_address));\n\t\t}\n\t\treturn true;\n\t}\n\n\tfunction voteForRemovingAdmin (address _address) public isOwner returns(bool res){\n\t\trequire(votes[_address].proposal == Proposal.REMOVE);\n\t\trequire(voteFor(_address,msg.sender));\n\t\tif(votes[_address].countFor >= totalCount / 2 + 1){\n\t\t\towners[_address] = false;\n\t\t\ttotalCount = totalCount.sub(1);\n\t\t\trequire(clearVotes(_address));\n\t\t}\n\t\treturn true;\n\t}\n\n\tfunction voteAgainstAddingAdmin (address _address) public isOwner returns(bool res){\n\t\trequire(votes[_address].proposal == Proposal.ADD);\n\t\trequire(voteAgainst(_address,msg.sender));\n\t\tif(votes[_address].countAgainst >= totalCount / 2 + 1){\n\t\t\tassert(clearVotes(_address));\n\t\t}\n\t\treturn true;\n\t}\n\n\tfunction voteAgainstRemovingAdmin (address _address) public isOwner returns(bool res){\n\t\trequire(votes[_address].proposal == Proposal.REMOVE);\n\t\trequire(voteAgainst(_address,msg.sender));\n\t\tif(votes[_address].countAgainst >= totalCount / 2 + 1){\n\t\t\tassert(clearVotes(_address));\n\t\t}\n\t\treturn true;\n\t}\n\n\tfunction changeVote (address _address) public isOwner returns(bool res){\n\t\trequire(internalChangeVote(_address));\n\t\tuint32 cfor = votes[_address].countFor;\n\t\tuint32 cagainst = votes[_address].countAgainst;\n\t\tif(votes[_address].vote[msg.sender] == Decision.FOR){\n\t\t\tif(cagainst >= totalCount / 2 + 1){\n\t\t\t\trequire(clearVotes(_address));\n\t\t\t}\n\t\t}\n\t\telse{\n\t\t\tif(cfor >= totalCount / 2 + 1){\n\t\t\t\tif(votes[_address].proposal == Proposal.ADD){\n\t\t\t\t\towners[_address] = true;\n\t\t\t\t}else{\n\t\t\t\t\towners[_address] = false;\n\t\t\t\t}\n\t\t\t\trequire(clearVotes(_address));\n\t\t\t}\n\t\t}\n\t\treturn true;\n\t}\n\n\tfunction isActiveAdmin(address _address) public view returns(bool){\n\t    return owners[_address];\n\t}\n\n\tfunction getAllAdmins () public view returns(address[] res){\n\t\treturn admins;\n\t}\n\n\tfunction checkVotes (address _address) public view isOwner returns(uint32[2] res){\n\t\treturn internalCheckVotes(_address);\n\t}\n\n\tfunction checkProposal (address _address) public view isOwner returns(string res){\n\t\treturn internalCheckProposal(_address);\n\t}\n\n\tfunction getVoted(address _address)public view isOwner returns(address[]){\n\t    return internalGetVoted(_address);\n\t}\n\t\n\tfunction getTotalCount()public view returns(uint32){\n\t    return totalCount;\n\t}\n\t\n}\n",
  "sourcePath": "/Users/rahulgolash/Rahul/Ledgerium/CoreLedgerium/governanceApp/contracts/AdminValidatorSet.sol",
  "compiler": {
    "name": "solc",
    "version": "0.4.24+commit.e67f0147.Emscripten.clang"
  },
  "schemaVersion": "2.0.0",
  "updatedAt": "2018-10-24T01:25:04.731Z"
}