{
  "contractName": "AdminValidatorSet",
  "abi": [
    {
      "inputs": [],
      "payable": false,
      "stateMutability": "nonpayable",
      "type": "constructor"
    },
    {
      "anonymous": false,
      "inputs": [
        {
          "indexed": false,
          "name": "minNoOfAdmin",
          "type": "uint8"
        }
      ],
      "name": "minAdminNeeded",
      "type": "event"
    },
    {
      "anonymous": false,
      "inputs": [
        {
          "indexed": true,
          "name": "validator",
          "type": "address"
        },
        {
          "indexed": false,
          "name": "_admin",
          "type": "address"
        }
      ],
      "name": "addAdmin",
      "type": "event"
    },
    {
      "anonymous": false,
      "inputs": [
        {
          "indexed": true,
          "name": "validator",
          "type": "address"
        },
        {
          "indexed": false,
          "name": "_admin",
          "type": "address"
        }
      ],
      "name": "removeAdmin",
      "type": "event"
    },
    {
      "anonymous": false,
      "inputs": [
        {
          "indexed": true,
          "name": "by",
          "type": "address"
        },
        {
          "indexed": false,
          "name": "vfor",
          "type": "address"
        }
      ],
      "name": "votedfor",
      "type": "event"
    },
    {
      "anonymous": false,
      "inputs": [
        {
          "indexed": true,
          "name": "by",
          "type": "address"
        },
        {
          "indexed": false,
          "name": "vfor",
          "type": "address"
        }
      ],
      "name": "votedagainst",
      "type": "event"
    },
    {
      "anonymous": false,
      "inputs": [
        {
          "indexed": true,
          "name": "_address",
          "type": "address"
        }
      ],
      "name": "alreadyProposalForAddingAdmin",
      "type": "event"
    },
    {
      "anonymous": false,
      "inputs": [
        {
          "indexed": true,
          "name": "_address",
          "type": "address"
        }
      ],
      "name": "alreadyProposalForRemovingAdmin",
      "type": "event"
    },
    {
      "anonymous": false,
      "inputs": [
        {
          "indexed": true,
          "name": "_address",
          "type": "address"
        }
      ],
      "name": "noProposalForAddingAdmin",
      "type": "event"
    },
    {
      "anonymous": false,
      "inputs": [
        {
          "indexed": true,
          "name": "_address",
          "type": "address"
        }
      ],
      "name": "noProposalForRemovingAdmin",
      "type": "event"
    },
    {
      "anonymous": false,
      "inputs": [
        {
          "indexed": true,
          "name": "_address",
          "type": "address"
        }
      ],
      "name": "alreadyActiveAdmin",
      "type": "event"
    },
    {
      "anonymous": false,
      "inputs": [
        {
          "indexed": true,
          "name": "_address",
          "type": "address"
        }
      ],
      "name": "alreadyInActiveAdmin",
      "type": "event"
    },
    {
      "anonymous": false,
      "inputs": [
        {
          "indexed": false,
          "name": "_address",
          "type": "address"
        }
      ],
      "name": "ownerAdded",
      "type": "event"
    },
    {
      "anonymous": false,
      "inputs": [
        {
          "indexed": false,
          "name": "_address",
          "type": "address"
        }
      ],
      "name": "ownerRemoved",
      "type": "event"
    },
    {
      "constant": false,
      "inputs": [],
      "name": "init",
      "outputs": [],
      "payable": false,
      "stateMutability": "nonpayable",
      "type": "function"
    },
    {
      "constant": false,
      "inputs": [
        {
          "name": "_address",
          "type": "address"
        }
      ],
      "name": "proposalToAddAdmin",
      "outputs": [
        {
          "name": "res",
          "type": "bool"
        }
      ],
      "payable": false,
      "stateMutability": "nonpayable",
      "type": "function"
    },
    {
      "constant": false,
      "inputs": [
        {
          "name": "_address",
          "type": "address"
        }
      ],
      "name": "voteForAddingAdmin",
      "outputs": [
        {
          "name": "res",
          "type": "bool"
        }
      ],
      "payable": false,
      "stateMutability": "nonpayable",
      "type": "function"
    },
    {
      "constant": false,
      "inputs": [
        {
          "name": "_address",
          "type": "address"
        }
      ],
      "name": "voteAgainstAddingAdmin",
      "outputs": [
        {
          "name": "res",
          "type": "bool"
        }
      ],
      "payable": false,
      "stateMutability": "nonpayable",
      "type": "function"
    },
    {
      "constant": false,
      "inputs": [
        {
          "name": "_address",
          "type": "address"
        }
      ],
      "name": "proposalToRemoveAdmin",
      "outputs": [
        {
          "name": "res",
          "type": "bool"
        }
      ],
      "payable": false,
      "stateMutability": "nonpayable",
      "type": "function"
    },
    {
      "constant": false,
      "inputs": [
        {
          "name": "_address",
          "type": "address"
        }
      ],
      "name": "voteForRemovingAdmin",
      "outputs": [
        {
          "name": "res",
          "type": "bool"
        }
      ],
      "payable": false,
      "stateMutability": "nonpayable",
      "type": "function"
    },
    {
      "constant": false,
      "inputs": [
        {
          "name": "_address",
          "type": "address"
        }
      ],
      "name": "voteAgainstRemovingAdmin",
      "outputs": [
        {
          "name": "res",
          "type": "bool"
        }
      ],
      "payable": false,
      "stateMutability": "nonpayable",
      "type": "function"
    },
    {
      "constant": false,
      "inputs": [
        {
          "name": "_address",
          "type": "address"
        }
      ],
      "name": "changeVote",
      "outputs": [
        {
          "name": "res",
          "type": "bool"
        }
      ],
      "payable": false,
      "stateMutability": "nonpayable",
      "type": "function"
    },
    {
      "constant": true,
      "inputs": [
        {
          "name": "_address",
          "type": "address"
        }
      ],
      "name": "isActiveAdmin",
      "outputs": [
        {
          "name": "",
          "type": "bool"
        }
      ],
      "payable": false,
      "stateMutability": "view",
      "type": "function"
    },
    {
      "constant": true,
      "inputs": [],
      "name": "getAllAdmins",
      "outputs": [
        {
          "name": "res",
          "type": "address[]"
        }
      ],
      "payable": false,
      "stateMutability": "view",
      "type": "function"
    },
    {
      "constant": true,
      "inputs": [
        {
          "name": "_address",
          "type": "address"
        }
      ],
      "name": "checkVotes",
      "outputs": [
        {
          "name": "res",
          "type": "uint32[2]"
        }
      ],
      "payable": false,
      "stateMutability": "view",
      "type": "function"
    },
    {
      "constant": true,
      "inputs": [
        {
          "name": "_address",
          "type": "address"
        }
      ],
      "name": "checkProposal",
      "outputs": [
        {
          "name": "res",
          "type": "string"
        }
      ],
      "payable": false,
      "stateMutability": "view",
      "type": "function"
    },
    {
      "constant": true,
      "inputs": [
        {
          "name": "_address",
          "type": "address"
        }
      ],
      "name": "getVoted",
      "outputs": [
        {
          "name": "",
          "type": "address[]"
        }
      ],
      "payable": false,
      "stateMutability": "view",
      "type": "function"
    },
    {
      "constant": true,
      "inputs": [],
      "name": "getTotalActiveCount",
      "outputs": [
        {
          "name": "",
          "type": "uint32"
        }
      ],
      "payable": false,
      "stateMutability": "view",
      "type": "function"
    },
    {
      "constant": false,
      "inputs": [
        {
          "name": "_address",
          "type": "address"
        }
      ],
      "name": "clearProposal",
      "outputs": [
        {
          "name": "res",
          "type": "bool"
        }
      ],
      "payable": false,
      "stateMutability": "nonpayable",
      "type": "function"
    }
  ],
  "bytecode": "0x608060405234801561001057600080fd5b5061382d806100206000396000f3006080604052600436106100db576000357c0100000000000000000000000000000000000000000000000000000000900463ffffffff1680631e301eef146100e05780632c9f55ed1461013b578063362ee2a9146101f75780635aa82fbe146102525780635caea9cb146102ea57806366af4d641461036957806367b996f1146103c457806373d305441461041f578063a06a206014610456578063b8195556146104b1578063c162bc031461050c578063d118019c14610567578063e1c7392a146105c2578063e35cc88f146105d9578063e9523c9714610634575b600080fd5b3480156100ec57600080fd5b50610121600480360381019080803573ffffffffffffffffffffffffffffffffffffffff1690602001909291905050506106a0565b604051808215151515815260200191505060405180910390f35b34801561014757600080fd5b5061017c600480360381019080803573ffffffffffffffffffffffffffffffffffffffff169060200190929190505050610888565b6040518080602001828103825283818151815260200191508051906020019080838360005b838110156101bc5780820151818401526020810190506101a1565b50505050905090810190601f1680156101e95780820380516001836020036101000a031916815260200191505b509250505060405180910390f35b34801561020357600080fd5b50610238600480360381019080803573ffffffffffffffffffffffffffffffffffffffff1690602001909291905050506108f2565b604051808215151515815260200191505060405180910390f35b34801561025e57600080fd5b50610293600480360381019080803573ffffffffffffffffffffffffffffffffffffffff169060200190929190505050610d0c565b6040518080602001828103825283818151815260200191508051906020019060200280838360005b838110156102d65780820151818401526020810190506102bb565b505050509050019250505060405180910390f35b3480156102f657600080fd5b5061032b600480360381019080803573ffffffffffffffffffffffffffffffffffffffff169060200190929190505050610d76565b6040518082600260200280838360005b8381101561035657808201518184015260208101905061033b565b5050505090500191505060405180910390f35b34801561037557600080fd5b506103aa600480360381019080803573ffffffffffffffffffffffffffffffffffffffff169060200190929190505050610de6565b604051808215151515815260200191505060405180910390f35b3480156103d057600080fd5b50610405600480360381019080803573ffffffffffffffffffffffffffffffffffffffff16906020019092919050505061119e565b604051808215151515815260200191505060405180910390f35b34801561042b57600080fd5b506104346114a6565b604051808263ffffffff1663ffffffff16815260200191505060405180910390f35b34801561046257600080fd5b50610497600480360381019080803573ffffffffffffffffffffffffffffffffffffffff1690602001909291905050506114c0565b604051808215151515815260200191505060405180910390f35b3480156104bd57600080fd5b506104f2600480360381019080803573ffffffffffffffffffffffffffffffffffffffff169060200190929190505050611516565b604051808215151515815260200191505060405180910390f35b34801561051857600080fd5b5061054d600480360381019080803573ffffffffffffffffffffffffffffffffffffffff1690602001909291905050506118c4565b604051808215151515815260200191505060405180910390f35b34801561057357600080fd5b506105a8600480360381019080803573ffffffffffffffffffffffffffffffffffffffff169060200190929190505050611983565b604051808215151515815260200191505060405180910390f35b3480156105ce57600080fd5b506105d7611b6a565b005b3480156105e557600080fd5b5061061a600480360381019080803573ffffffffffffffffffffffffffffffffffffffff169060200190929190505050611f4c565b604051808215151515815260200191505060405180910390f35b34801561064057600080fd5b5061064961229e565b6040518080602001828103825283818151815260200191508051906020019060200280838360005b8381101561068c578082015181840152602081019050610671565b505050509050019250505060405180910390f35b6000600160003373ffffffffffffffffffffffffffffffffffffffff1673ffffffffffffffffffffffffffffffffffffffff16815260200190815260200160002060009054906101000a900460ff1615156106fa57600080fd5b600260049054906101000a900460ff1615610883576001600281111561071c57fe5b6000808473ffffffffffffffffffffffffffffffffffffffff1673ffffffffffffffffffffffffffffffffffffffff16815260200190815260200160002060000160009054906101000a900460ff16600281111561077657fe5b1415156107c9578173ffffffffffffffffffffffffffffffffffffffff167ffae6a88943d80dc04f144f903114302478e32c15f3d55646234d91d637e132e760405160405180910390a260009050610882565b6107d3823361232c565b15156107de57600080fd5b60016002600560009054906101000a900463ffffffff1663ffffffff1681151561080457fe5b040163ffffffff166000808473ffffffffffffffffffffffffffffffffffffffff1673ffffffffffffffffffffffffffffffffffffffff16815260200190815260200160002060000160199054906101000a900463ffffffff1663ffffffff1610151561087d5761087482612693565b151561087c57fe5b5b600190505b5b919050565b6060600160003373ffffffffffffffffffffffffffffffffffffffff1673ffffffffffffffffffffffffffffffffffffffff16815260200190815260200160002060009054906101000a900460ff1615156108e257600080fd5b6108eb82612a3c565b9050919050565b6000600160003373ffffffffffffffffffffffffffffffffffffffff1673ffffffffffffffffffffffffffffffffffffffff16815260200190815260200160002060009054906101000a900460ff16151561094c57600080fd5b600260049054906101000a900460ff1615610d07576001600281111561096e57fe5b6000808473ffffffffffffffffffffffffffffffffffffffff1673ffffffffffffffffffffffffffffffffffffffff16815260200190815260200160002060000160009054906101000a900460ff1660028111156109c857fe5b141515610a1b578173ffffffffffffffffffffffffffffffffffffffff167ffae6a88943d80dc04f144f903114302478e32c15f3d55646234d91d637e132e760405160405180910390a260009050610d06565b610a258233612bcf565b1515610a3057600080fd5b60016002600560009054906101000a900463ffffffff1663ffffffff16811515610a5657fe5b040163ffffffff166000808473ffffffffffffffffffffffffffffffffffffffff1673ffffffffffffffffffffffffffffffffffffffff16815260200190815260200160002060000160159054906101000a900463ffffffff1663ffffffff16101515610d015760018060008473ffffffffffffffffffffffffffffffffffffffff1673ffffffffffffffffffffffffffffffffffffffff16815260200190815260200160002060006101000a81548160ff021916908315150217905550610b406001600560009054906101000a900463ffffffff1663ffffffff16612f3690919063ffffffff16565b600560006101000a81548163ffffffff021916908363ffffffff160217905550600460008373ffffffffffffffffffffffffffffffffffffffff1673ffffffffffffffffffffffffffffffffffffffff16815260200190815260200160002060009054906101000a900460ff161515610c0c576001600460008473ffffffffffffffffffffffffffffffffffffffff1673ffffffffffffffffffffffffffffffffffffffff16815260200190815260200160002060006101000a81548160ff0219169083151502179055505b60038290806001815401808255809150509060018203906000526020600020016000909192909190916101000a81548173ffffffffffffffffffffffffffffffffffffffff021916908373ffffffffffffffffffffffffffffffffffffffff16021790555050610c7b82612693565b1515610c8657600080fd5b8173ffffffffffffffffffffffffffffffffffffffff167f8a19b4d24757b6808706e7a7cb80394a7f12de83ea3bf09d4c1ee64381365f2d33604051808273ffffffffffffffffffffffffffffffffffffffff1673ffffffffffffffffffffffffffffffffffffffff16815260200191505060405180910390a25b600190505b5b919050565b6060600160003373ffffffffffffffffffffffffffffffffffffffff1673ffffffffffffffffffffffffffffffffffffffff16815260200190815260200160002060009054906101000a900460ff161515610d6657600080fd5b610d6f82612f60565b9050919050565b610d7e613712565b600160003373ffffffffffffffffffffffffffffffffffffffff1673ffffffffffffffffffffffffffffffffffffffff16815260200190815260200160002060009054906101000a900460ff161515610dd657600080fd5b610ddf82613034565b9050919050565b6000600160003373ffffffffffffffffffffffffffffffffffffffff1673ffffffffffffffffffffffffffffffffffffffff16815260200190815260200160002060009054906101000a900460ff161515610e4057600080fd5b600260049054906101000a900460ff1615611199576003600560009054906101000a900463ffffffff1663ffffffff16111515610ebb577f6302209c317f71e21f06b5790e6e5f2c6ad095fb737a1698a6067a3fc741b2956003604051808260ff16815260200191505060405180910390a160009050611198565b60006002811115610ec857fe5b6000808473ffffffffffffffffffffffffffffffffffffffff1673ffffffffffffffffffffffffffffffffffffffff16815260200190815260200160002060000160009054906101000a900460ff166002811115610f2257fe5b14151561109b5760016002811115610f3657fe5b6000808473ffffffffffffffffffffffffffffffffffffffff1673ffffffffffffffffffffffffffffffffffffffff16815260200190815260200160002060000160009054906101000a900460ff166002811115610f9057fe5b1415610fe2578173ffffffffffffffffffffffffffffffffffffffff167f2390df64324daff9dce13ebb0f1e24b20504ddb08679446461da5b0d10bbc3db60405160405180910390a260009050611198565b600280811115610fee57fe5b6000808473ffffffffffffffffffffffffffffffffffffffff1673ffffffffffffffffffffffffffffffffffffffff16815260200190815260200160002060000160009054906101000a900460ff16600281111561104857fe5b141561109a578173ffffffffffffffffffffffffffffffffffffffff167fb3f654a36519dd105713fae4f2e0346d34dbade0a94182de6326cf443f474b5d60405160405180910390a260009050611198565b5b60026000808473ffffffffffffffffffffffffffffffffffffffff1673ffffffffffffffffffffffffffffffffffffffff16815260200190815260200160002060000160006101000a81548160ff021916908360028111156110f957fe5b02179055506111088233612bcf565b151561111357600080fd5b336000808473ffffffffffffffffffffffffffffffffffffffff1673ffffffffffffffffffffffffffffffffffffffff16815260200190815260200160002060000160016101000a81548173ffffffffffffffffffffffffffffffffffffffff021916908373ffffffffffffffffffffffffffffffffffffffff160217905550600190505b5b919050565b6000600160003373ffffffffffffffffffffffffffffffffffffffff1673ffffffffffffffffffffffffffffffffffffffff16815260200190815260200160002060009054906101000a900460ff1615156111f857600080fd5b600260049054906101000a900460ff16156114a15760028081111561121957fe5b6000808473ffffffffffffffffffffffffffffffffffffffff1673ffffffffffffffffffffffffffffffffffffffff16815260200190815260200160002060000160009054906101000a900460ff16600281111561127357fe5b1415156112c6578173ffffffffffffffffffffffffffffffffffffffff167fe640eb2f30c2610402cb9ae51c65cedee6909a8ac0fa7a5cc9b66d534ab90de060405160405180910390a2600090506114a0565b6112d08233612bcf565b15156112db57600080fd5b60016002600560009054906101000a900463ffffffff1663ffffffff1681151561130157fe5b040163ffffffff166000808473ffffffffffffffffffffffffffffffffffffffff1673ffffffffffffffffffffffffffffffffffffffff16815260200190815260200160002060000160159054906101000a900463ffffffff1663ffffffff1610151561149b576000600160008473ffffffffffffffffffffffffffffffffffffffff1673ffffffffffffffffffffffffffffffffffffffff16815260200190815260200160002060006101000a81548160ff0219169083151502179055506113ec6001600560009054906101000a900463ffffffff1663ffffffff1661313d90919063ffffffff16565b600560006101000a81548163ffffffff021916908363ffffffff16021790555061141582612693565b151561142057600080fd5b8173ffffffffffffffffffffffffffffffffffffffff167f268959e5827b8d8eee8881555b393c5db1ee2a2bbd704f0e73a5d69c0bc4f76733604051808273ffffffffffffffffffffffffffffffffffffffff1673ffffffffffffffffffffffffffffffffffffffff16815260200191505060405180910390a25b600190505b5b919050565b6000600560009054906101000a900463ffffffff16905090565b6000600160008373ffffffffffffffffffffffffffffffffffffffff1673ffffffffffffffffffffffffffffffffffffffff16815260200190815260200160002060009054906101000a900460ff169050919050565b6000806000600160003373ffffffffffffffffffffffffffffffffffffffff1673ffffffffffffffffffffffffffffffffffffffff16815260200190815260200160002060009054906101000a900460ff16151561157357600080fd5b600260049054906101000a900460ff16156118bd5761159184613162565b151561159c57600080fd5b6000808573ffffffffffffffffffffffffffffffffffffffff1673ffffffffffffffffffffffffffffffffffffffff16815260200190815260200160002060000160159054906101000a900463ffffffff1691506000808573ffffffffffffffffffffffffffffffffffffffff1673ffffffffffffffffffffffffffffffffffffffff16815260200190815260200160002060000160199054906101000a900463ffffffff1690506001600281111561165157fe5b6000808673ffffffffffffffffffffffffffffffffffffffff1673ffffffffffffffffffffffffffffffffffffffff16815260200190815260200160002060010160003373ffffffffffffffffffffffffffffffffffffffff1673ffffffffffffffffffffffffffffffffffffffff16815260200190815260200160002060009054906101000a900460ff1660028111156116e857fe5b14156117445760016002600560009054906101000a900463ffffffff1663ffffffff1681151561171457fe5b040163ffffffff168163ffffffff1610151561173f5761173384612693565b151561173e57600080fd5b5b6118b8565b60016002600560009054906101000a900463ffffffff1663ffffffff1681151561176a57fe5b040163ffffffff168263ffffffff161015156118b7576001600281111561178d57fe5b6000808673ffffffffffffffffffffffffffffffffffffffff1673ffffffffffffffffffffffffffffffffffffffff16815260200190815260200160002060000160009054906101000a900460ff1660028111156117e757fe5b14156118495760018060008673ffffffffffffffffffffffffffffffffffffffff1673ffffffffffffffffffffffffffffffffffffffff16815260200190815260200160002060006101000a81548160ff0219169083151502179055506118a2565b6000600160008673ffffffffffffffffffffffffffffffffffffffff1673ffffffffffffffffffffffffffffffffffffffff16815260200190815260200160002060006101000a81548160ff0219169083151502179055505b6118ab84612693565b15156118b657600080fd5b5b5b600192505b5050919050565b6000600160003373ffffffffffffffffffffffffffffffffffffffff1673ffffffffffffffffffffffffffffffffffffffff16815260200190815260200160002060009054906101000a900460ff16151561191e57600080fd5b600260049054906101000a900460ff161561197e57600073ffffffffffffffffffffffffffffffffffffffff168273ffffffffffffffffffffffffffffffffffffffff161415611971576000905061197d565b61197a82612693565b90505b5b919050565b6000600160003373ffffffffffffffffffffffffffffffffffffffff1673ffffffffffffffffffffffffffffffffffffffff16815260200190815260200160002060009054906101000a900460ff1615156119dd57600080fd5b600260049054906101000a900460ff1615611b65576002808111156119fe57fe5b6000808473ffffffffffffffffffffffffffffffffffffffff1673ffffffffffffffffffffffffffffffffffffffff16815260200190815260200160002060000160009054906101000a900460ff166002811115611a5857fe5b141515611aab578173ffffffffffffffffffffffffffffffffffffffff167fe640eb2f30c2610402cb9ae51c65cedee6909a8ac0fa7a5cc9b66d534ab90de060405160405180910390a260009050611b64565b611ab5823361232c565b1515611ac057600080fd5b60016002600560009054906101000a900463ffffffff1663ffffffff16811515611ae657fe5b040163ffffffff166000808473ffffffffffffffffffffffffffffffffffffffff1673ffffffffffffffffffffffffffffffffffffffff16815260200190815260200160002060000160199054906101000a900463ffffffff1663ffffffff16101515611b5f57611b5682612693565b1515611b5e57fe5b5b600190505b5b919050565b6000806000600260049054906101000a900460ff161515611f47577344643353444f4b42b46ed28e668c204db6dbb7c392507343a69edd54e07b95113fed92e8c9ba004500ce12915073d44b2838207a46f1007b3f296a599fadfb20978c905060018060008573ffffffffffffffffffffffffffffffffffffffff1673ffffffffffffffffffffffffffffffffffffffff16815260200190815260200160002060006101000a81548160ff02191690831515021790555060018060008473ffffffffffffffffffffffffffffffffffffffff1673ffffffffffffffffffffffffffffffffffffffff16815260200190815260200160002060006101000a81548160ff02191690831515021790555060018060008373ffffffffffffffffffffffffffffffffffffffff1673ffffffffffffffffffffffffffffffffffffffff16815260200190815260200160002060006101000a81548160ff02191690831515021790555060038390806001815401808255809150509060018203906000526020600020016000909192909190916101000a81548173ffffffffffffffffffffffffffffffffffffffff021916908373ffffffffffffffffffffffffffffffffffffffff1602179055505060038290806001815401808255809150509060018203906000526020600020016000909192909190916101000a81548173ffffffffffffffffffffffffffffffffffffffff021916908373ffffffffffffffffffffffffffffffffffffffff1602179055505060038190806001815401808255809150509060018203906000526020600020016000909192909190916101000a81548173ffffffffffffffffffffffffffffffffffffffff021916908373ffffffffffffffffffffffffffffffffffffffff160217905550506001600460008573ffffffffffffffffffffffffffffffffffffffff1673ffffffffffffffffffffffffffffffffffffffff16815260200190815260200160002060006101000a81548160ff0219169083151502179055506001600460008473ffffffffffffffffffffffffffffffffffffffff1673ffffffffffffffffffffffffffffffffffffffff16815260200190815260200160002060006101000a81548160ff0219169083151502179055506001600460008373ffffffffffffffffffffffffffffffffffffffff1673ffffffffffffffffffffffffffffffffffffffff16815260200190815260200160002060006101000a81548160ff0219169083151502179055506003600560006101000a81548163ffffffff021916908363ffffffff1602179055506001600260046101000a81548160ff0219169083151502179055505b505050565b6000600160003373ffffffffffffffffffffffffffffffffffffffff1673ffffffffffffffffffffffffffffffffffffffff16815260200190815260200160002060009054906101000a900460ff161515611fa657600080fd5b600260049054906101000a900460ff16156122995760006002811115611fc857fe5b6000808473ffffffffffffffffffffffffffffffffffffffff1673ffffffffffffffffffffffffffffffffffffffff16815260200190815260200160002060000160009054906101000a900460ff16600281111561202257fe5b14151561219b576001600281111561203657fe5b6000808473ffffffffffffffffffffffffffffffffffffffff1673ffffffffffffffffffffffffffffffffffffffff16815260200190815260200160002060000160009054906101000a900460ff16600281111561209057fe5b14156120e2578173ffffffffffffffffffffffffffffffffffffffff167f2390df64324daff9dce13ebb0f1e24b20504ddb08679446461da5b0d10bbc3db60405160405180910390a260009050612298565b6002808111156120ee57fe5b6000808473ffffffffffffffffffffffffffffffffffffffff1673ffffffffffffffffffffffffffffffffffffffff16815260200190815260200160002060000160009054906101000a900460ff16600281111561214857fe5b141561219a578173ffffffffffffffffffffffffffffffffffffffff167fb3f654a36519dd105713fae4f2e0346d34dbade0a94182de6326cf443f474b5d60405160405180910390a260009050612298565b5b60016000808473ffffffffffffffffffffffffffffffffffffffff1673ffffffffffffffffffffffffffffffffffffffff16815260200190815260200160002060000160006101000a81548160ff021916908360028111156121f957fe5b02179055506122088233612bcf565b151561221357600080fd5b336000808473ffffffffffffffffffffffffffffffffffffffff1673ffffffffffffffffffffffffffffffffffffffff16815260200190815260200160002060000160016101000a81548173ffffffffffffffffffffffffffffffffffffffff021916908373ffffffffffffffffffffffffffffffffffffffff160217905550600190505b5b919050565b6060600380548060200260200160405190810160405280929190818152602001828054801561232257602002820191906000526020600020905b8160009054906101000a900473ffffffffffffffffffffffffffffffffffffffff1673ffffffffffffffffffffffffffffffffffffffff16815260200190600101908083116122d8575b5050505050905090565b6000806000600281111561233c57fe5b6000808673ffffffffffffffffffffffffffffffffffffffff1673ffffffffffffffffffffffffffffffffffffffff16815260200190815260200160002060010160008573ffffffffffffffffffffffffffffffffffffffff1673ffffffffffffffffffffffffffffffffffffffff16815260200190815260200160002060009054906101000a900460ff1660028111156123d357fe5b1415156123df57600080fd5b61244a60016000808773ffffffffffffffffffffffffffffffffffffffff1673ffffffffffffffffffffffffffffffffffffffff16815260200190815260200160002060000160199054906101000a900463ffffffff1663ffffffff16612f3690919063ffffffff16565b9050806000808673ffffffffffffffffffffffffffffffffffffffff1673ffffffffffffffffffffffffffffffffffffffff16815260200190815260200160002060000160196101000a81548163ffffffff021916908363ffffffff16021790555060026000808673ffffffffffffffffffffffffffffffffffffffff1673ffffffffffffffffffffffffffffffffffffffff16815260200190815260200160002060010160008573ffffffffffffffffffffffffffffffffffffffff1673ffffffffffffffffffffffffffffffffffffffff16815260200190815260200160002060006101000a81548160ff0219169083600281111561254757fe5b02179055506000808573ffffffffffffffffffffffffffffffffffffffff1673ffffffffffffffffffffffffffffffffffffffff1681526020019081526020016000206002018390806001815401808255809150509060018203906000526020600020016000909192909190916101000a81548173ffffffffffffffffffffffffffffffffffffffff021916908373ffffffffffffffffffffffffffffffffffffffff160217905550507f7a6650c3cb47c42e983c1b1d41edba2961f4e6515feac915850cc410e6c716488385604051808373ffffffffffffffffffffffffffffffffffffffff1673ffffffffffffffffffffffffffffffffffffffff1681526020018273ffffffffffffffffffffffffffffffffffffffff1673ffffffffffffffffffffffffffffffffffffffff1681526020019250505060405180910390a1600191505092915050565b600060608060008060008673ffffffffffffffffffffffffffffffffffffffff1673ffffffffffffffffffffffffffffffffffffffff16815260200190815260200160002060020180548060200260200160405190810160405280929190818152602001828054801561275b57602002820191906000526020600020905b8160009054906101000a900473ffffffffffffffffffffffffffffffffffffffff1673ffffffffffffffffffffffffffffffffffffffff1681526020019060010190808311612711575b5050505050925060008060008773ffffffffffffffffffffffffffffffffffffffff1673ffffffffffffffffffffffffffffffffffffffff16815260200190815260200160002060000160156101000a81548163ffffffff021916908363ffffffff16021790555060008060008773ffffffffffffffffffffffffffffffffffffffff1673ffffffffffffffffffffffffffffffffffffffff16815260200190815260200160002060000160196101000a81548163ffffffff021916908363ffffffff160217905550600090505b82518110156128f65760008060008773ffffffffffffffffffffffffffffffffffffffff1673ffffffffffffffffffffffffffffffffffffffff1681526020019081526020016000206001016000858481518110151561288557fe5b9060200190602002015173ffffffffffffffffffffffffffffffffffffffff1673ffffffffffffffffffffffffffffffffffffffff16815260200190815260200160002060006101000a81548160ff021916908360028111156128e457fe5b02179055508080600101915050612829565b60008060008773ffffffffffffffffffffffffffffffffffffffff1673ffffffffffffffffffffffffffffffffffffffff16815260200190815260200160002060000160006101000a81548160ff0219169083600281111561295457fe5b0217905550816000808773ffffffffffffffffffffffffffffffffffffffff1673ffffffffffffffffffffffffffffffffffffffff16815260200190815260200160002060020190805190602001906129ae929190613734565b5060008060008773ffffffffffffffffffffffffffffffffffffffff1673ffffffffffffffffffffffffffffffffffffffff16815260200190815260200160002060000160016101000a81548173ffffffffffffffffffffffffffffffffffffffff021916908373ffffffffffffffffffffffffffffffffffffffff16021790555060019350505050919050565b606060016002811115612a4b57fe5b6000808473ffffffffffffffffffffffffffffffffffffffff1673ffffffffffffffffffffffffffffffffffffffff16815260200190815260200160002060000160009054906101000a900460ff166002811115612aa557fe5b1415612ae8576040805190810160405280600381526020017f61646400000000000000000000000000000000000000000000000000000000008152509050612bca565b600280811115612af457fe5b6000808473ffffffffffffffffffffffffffffffffffffffff1673ffffffffffffffffffffffffffffffffffffffff16815260200190815260200160002060000160009054906101000a900460ff166002811115612b4e57fe5b1415612b91576040805190810160405280600681526020017f72656d6f766500000000000000000000000000000000000000000000000000008152509050612bca565b6040805190810160405280601481526020017f70726f706f73616c206e6f74206372656174656400000000000000000000000081525090505b919050565b60008060006002811115612bdf57fe5b6000808673ffffffffffffffffffffffffffffffffffffffff1673ffffffffffffffffffffffffffffffffffffffff16815260200190815260200160002060010160008573ffffffffffffffffffffffffffffffffffffffff1673ffffffffffffffffffffffffffffffffffffffff16815260200190815260200160002060009054906101000a900460ff166002811115612c7657fe5b141515612c8257600080fd5b612ced60016000808773ffffffffffffffffffffffffffffffffffffffff1673ffffffffffffffffffffffffffffffffffffffff16815260200190815260200160002060000160159054906101000a900463ffffffff1663ffffffff16612f3690919063ffffffff16565b9050806000808673ffffffffffffffffffffffffffffffffffffffff1673ffffffffffffffffffffffffffffffffffffffff16815260200190815260200160002060000160156101000a81548163ffffffff021916908363ffffffff16021790555060016000808673ffffffffffffffffffffffffffffffffffffffff1673ffffffffffffffffffffffffffffffffffffffff16815260200190815260200160002060010160008573ffffffffffffffffffffffffffffffffffffffff1673ffffffffffffffffffffffffffffffffffffffff16815260200190815260200160002060006101000a81548160ff02191690836002811115612dea57fe5b02179055506000808573ffffffffffffffffffffffffffffffffffffffff1673ffffffffffffffffffffffffffffffffffffffff1681526020019081526020016000206002018390806001815401808255809150509060018203906000526020600020016000909192909190916101000a81548173ffffffffffffffffffffffffffffffffffffffff021916908373ffffffffffffffffffffffffffffffffffffffff160217905550507f7a189becc9d33281e69ff3784545bbabdf6de5b0c3dc9a1478ca39d8ebe2dd718385604051808373ffffffffffffffffffffffffffffffffffffffff1673ffffffffffffffffffffffffffffffffffffffff1681526020018273ffffffffffffffffffffffffffffffffffffffff1673ffffffffffffffffffffffffffffffffffffffff1681526020019250505060405180910390a1600191505092915050565b60008082840190508363ffffffff168163ffffffff1610151515612f5657fe5b8091505092915050565b6060806000808473ffffffffffffffffffffffffffffffffffffffff1673ffffffffffffffffffffffffffffffffffffffff16815260200190815260200160002060020180548060200260200160405190810160405280929190818152602001828054801561302457602002820191906000526020600020905b8160009054906101000a900473ffffffffffffffffffffffffffffffffffffffff1673ffffffffffffffffffffffffffffffffffffffff1681526020019060010190808311612fda575b5050505050905080915050919050565b61303c613712565b613044613712565b6000808473ffffffffffffffffffffffffffffffffffffffff1673ffffffffffffffffffffffffffffffffffffffff16815260200190815260200160002060000160159054906101000a900463ffffffff168160006002811015156130a557fe5b602002019063ffffffff16908163ffffffff16815250506000808473ffffffffffffffffffffffffffffffffffffffff1673ffffffffffffffffffffffffffffffffffffffff16815260200190815260200160002060000160199054906101000a900463ffffffff1681600160028110151561311d57fe5b602002019063ffffffff16908163ffffffff168152505080915050919050565b60008263ffffffff168263ffffffff161115151561315757fe5b818303905092915050565b600080600080600281111561317357fe5b6000808673ffffffffffffffffffffffffffffffffffffffff1673ffffffffffffffffffffffffffffffffffffffff16815260200190815260200160002060010160003373ffffffffffffffffffffffffffffffffffffffff1673ffffffffffffffffffffffffffffffffffffffff16815260200190815260200160002060009054906101000a900460ff16600281111561320a57fe5b1415151561321757600080fd5b6000600281111561322457fe5b6000808673ffffffffffffffffffffffffffffffffffffffff1673ffffffffffffffffffffffffffffffffffffffff16815260200190815260200160002060000160009054906101000a900460ff16600281111561327e57fe5b1415151561328b57600080fd5b6000808573ffffffffffffffffffffffffffffffffffffffff1673ffffffffffffffffffffffffffffffffffffffff16815260200190815260200160002060000160159054906101000a900463ffffffff1691506000808573ffffffffffffffffffffffffffffffffffffffff1673ffffffffffffffffffffffffffffffffffffffff16815260200190815260200160002060000160199054906101000a900463ffffffff1690506001600281111561334057fe5b6000808673ffffffffffffffffffffffffffffffffffffffff1673ffffffffffffffffffffffffffffffffffffffff16815260200190815260200160002060010160003373ffffffffffffffffffffffffffffffffffffffff1673ffffffffffffffffffffffffffffffffffffffff16815260200190815260200160002060009054906101000a900460ff1660028111156133d757fe5b1415613574576133f760018363ffffffff1661313d90919063ffffffff16565b6000808673ffffffffffffffffffffffffffffffffffffffff1673ffffffffffffffffffffffffffffffffffffffff16815260200190815260200160002060000160156101000a81548163ffffffff021916908363ffffffff16021790555061347060018263ffffffff16612f3690919063ffffffff16565b6000808673ffffffffffffffffffffffffffffffffffffffff1673ffffffffffffffffffffffffffffffffffffffff16815260200190815260200160002060000160196101000a81548163ffffffff021916908363ffffffff16021790555060026000808673ffffffffffffffffffffffffffffffffffffffff1673ffffffffffffffffffffffffffffffffffffffff16815260200190815260200160002060010160003373ffffffffffffffffffffffffffffffffffffffff1673ffffffffffffffffffffffffffffffffffffffff16815260200190815260200160002060006101000a81548160ff0219169083600281111561356a57fe5b0217905550613707565b61358e60018363ffffffff16612f3690919063ffffffff16565b6000808673ffffffffffffffffffffffffffffffffffffffff1673ffffffffffffffffffffffffffffffffffffffff16815260200190815260200160002060000160156101000a81548163ffffffff021916908363ffffffff16021790555061360760018263ffffffff1661313d90919063ffffffff16565b6000808673ffffffffffffffffffffffffffffffffffffffff1673ffffffffffffffffffffffffffffffffffffffff16815260200190815260200160002060000160196101000a81548163ffffffff021916908363ffffffff16021790555060016000808673ffffffffffffffffffffffffffffffffffffffff1673ffffffffffffffffffffffffffffffffffffffff16815260200190815260200160002060010160003373ffffffffffffffffffffffffffffffffffffffff1673ffffffffffffffffffffffffffffffffffffffff16815260200190815260200160002060006101000a81548160ff0219169083600281111561370157fe5b02179055505b600192505050919050565b6040805190810160405280600290602082028038833980820191505090505090565b8280548282559060005260206000209081019282156137ad579160200282015b828111156137ac5782518260006101000a81548173ffffffffffffffffffffffffffffffffffffffff021916908373ffffffffffffffffffffffffffffffffffffffff16021790555091602001919060010190613754565b5b5090506137ba91906137be565b5090565b6137fe91905b808211156137fa57600081816101000a81549073ffffffffffffffffffffffffffffffffffffffff0219169055506001016137c4565b5090565b905600a165627a7a72305820bee1915d27c54c76a6f43426aa36d04ee366b47879f45aaf861c074884bbd8fa0029",
  "source": "pragma solidity ^0.4.24;\nimport \"./SafeMath.sol\";\nimport \"./Ownable.sol\";\nimport \"./Voteable.sol\";\n\n/**\n * The AdminSet contract maintains the list of all the admin with their vote\n * to add or remove a particular member as admin\n */\ncontract AdminValidatorSet is Voteable, Ownable {\n\n\tusing SafeMath for uint32;\n\n\tbool isInit; \n\taddress[] admins;\n\tmapping (address => bool) exists;\n\tuint32 totalActiveCount; //\n\n\tmodifier isOwner() {\n\t\t// make sure only owner can add or remove admins\n        require(owners[msg.sender]);\n        _;\n    }\n\n\tmodifier isInitalised() {\n\t\t// make sure isInit is set before any logical execution on the contract\n        if(isInit){_;}\n    }\n\n\tmodifier ifNotInitalised() {\n\t\t// make sure isInit is set before any logical execution on the contract\n        if(!isInit){_;}\n    }\n\n\t/**\n    * @dev Function to deploy and construct adminvalidatorset. msg.sender will be added as one of admin too\n\t* msg.sender address to be added as active admin\n\t* @return A success flag\n    */\n\tconstructor () public {\n\t}\n\n\tfunction init () public ifNotInitalised{\n\t\t\n\t\taddress msg_sender = address(0x44643353444f4b42b46ED28e668C204db6Dbb7c3);\n\t\taddress _owner1 = address(0x43a69eDD54e07B95113FEd92e8c9ba004500Ce12);\n\t\taddress _owner2 = address(0xd44b2838207A46F1007B3F296a599fADfb20978c);\n\t\t\n\t\t// make sure that there are minimum of 3 admins to vote for/against\n\t\towners[msg_sender] = true;\n\t\towners[_owner1] = true;\n\t\towners[_owner2] = true;\n\t\tadmins.push(msg_sender);\n\t\tadmins.push(_owner1);\n\t\tadmins.push(_owner2);\n\t\texists[msg_sender] = true;\n\t\texists[_owner1] = true;\n\t\texists[_owner2] = true;\n\t\ttotalActiveCount = 3;\n\n\t\tisInit = true;\n\t}\n\n\tevent minAdminNeeded(uint8 minNoOfAdmin);\n\n\tevent addAdmin(address indexed validator,address _admin);\n\tevent removeAdmin(address indexed validator,address _admin);\n\n\tevent votedfor(address indexed by,address vfor);\n\tevent votedagainst(address indexed by,address vfor);\n\t\n\tevent alreadyProposalForAddingAdmin(address indexed _address);\n\tevent alreadyProposalForRemovingAdmin(address indexed _address);\n\n\tevent noProposalForAddingAdmin(address indexed _address);\n\tevent noProposalForRemovingAdmin(address indexed _address);\n\n\tevent alreadyActiveAdmin(address indexed _address);\n\tevent alreadyInActiveAdmin(address indexed _address);\n\n\t/**\n    * @dev Function to propose adding new admin. It checks validity of msg.sender with isOwner modifier\n    * msg.sender address should be one of the active admin\n\t* @return Emits event alreadyProposalForAddingAdmin() in case the ADD admin proposal is started already\n\t* @return Emits event alreadyProposalForRemovingAdmin() in case the REMOVE admin proposal is started already\n\t* @param _address address, which is to be added as new active admin\n    * @return A success flag\n    */\n\tfunction proposalToAddAdmin (address _address) public isOwner isInitalised returns(bool res){\n\t\t//require(votes[_address].proposal == Proposal.NOT_CREATED);\n\t\tif(votes[_address].proposal != Proposal.NOT_CREATED){\n\t\t\tif(votes[_address].proposal == Proposal.ADD){\n\t\t\t\temit alreadyProposalForAddingAdmin(_address);\n\t\t\t\treturn false;\n\t\t\t}\n\t\t\tif(votes[_address].proposal == Proposal.REMOVE){\n\t\t\t\temit alreadyProposalForRemovingAdmin(_address);\n\t\t\t\treturn false;\n\t\t\t}\n\t\t}\n\t\tvotes[_address].proposal = Proposal.ADD;\n\t\trequire (voteFor(_address,msg.sender));\n\t\tvotes[_address].proposer = msg.sender;\n\t\treturn true;\n\t}\n\n\t/**\n    * @dev Function to vote FOR adding new admin. It checks validity of msg.sender with isOwner modifier\n    * msg.sender address should be one of the active admin\n\t* @param _address address, which is to be added as new active admin\n\t* @return Emits event noProposalForAddingAdmin() in case the ADD admin proposal is not started already\n\t* @return Emits event addAdmin() in case the ADD admin is successfully completed\n    * @return A success flag\n    */\n\tfunction voteForAddingAdmin (address _address) public isOwner isInitalised returns(bool res){\n\t\t//require(votes[_address].proposal == Proposal.ADD);\n\t\tif(votes[_address].proposal != Proposal.ADD){\n\t\t\temit noProposalForAddingAdmin(_address);\n\t\t\treturn false;\n\t\t}\n\t\trequire(voteFor(_address,msg.sender));\n\t\tif(votes[_address].countFor >= totalActiveCount / 2 + 1){\n\t\t\towners[_address] = true;\n\t\t\ttotalActiveCount = totalActiveCount.add(1);\n\t\t\tif(!exists[_address])\n\t\t\t\texists[_address] = true;\n\t\t\tadmins.push(_address);\n\t\t\trequire(clearVotes(_address));\n\t\t\temit addAdmin(_address,msg.sender);\n\t\t}\n\t\treturn true;\n\t}\n\n\t/**\n    * @dev Function to vote AGAINST adding new admin. It checks validity of msg.sender with isOwner modifier\n    * msg.sender address should be one of the active admin\n\t* @param _address address, which is to be proposed as new active admin\n    * @return Emits event noProposalForAddingAdmin() in case the ADD admin proposal is not started already\n\t* @return A success flag\n    */\n\tfunction voteAgainstAddingAdmin (address _address) public isOwner isInitalised returns(bool res){\n\t\t//require(votes[_address].proposal == Proposal.ADD);\n\t\tif(votes[_address].proposal != Proposal.ADD){\n\t\t\temit noProposalForAddingAdmin(_address);\n\t\t\treturn false;\n\t\t}\n\t\trequire(voteAgainst(_address,msg.sender));\n\t\tif(votes[_address].countAgainst >= totalActiveCount / 2 + 1){\n\t\t\tassert(clearVotes(_address));\n\t\t}\n\t\treturn true;\n\t}\n\n\t/**\n    * @dev Function to propose to remove one of the existing active admin. It checks validity with isOwner modifier\n\t* msg.sender address should be one of the active admin\n\t* System needs min 3 active admins for voting mechanism to function\n    * @param _address address The address which is one of the admin.\n    * @return A success flag\n\t* @return Emits event alreadyProposalForAddingAdmin() in case the ADD admin proposal is started already\n\t* @return Emits event alreadyProposalForRemovingAdmin() in case the REMOVE admin proposal is started already\n\t* @return Emits event minAdminNeeded in case the no of existing active admins are less than 3\n    */\n  \tfunction proposalToRemoveAdmin (address _address) public isOwner isInitalised returns(bool res){\n\t\tif(totalActiveCount <= 3){\n\t\t\temit minAdminNeeded(3);\n\t\t\treturn false;\n\t\t}\t\n\t\t//require(votes[_address].proposal == Proposal.NOT_CREATED);\n\t\tif(votes[_address].proposal != Proposal.NOT_CREATED){\n\t\t\tif(votes[_address].proposal == Proposal.ADD){\n\t\t\t\temit alreadyProposalForAddingAdmin(_address);\n\t\t\t\treturn false;\n\t\t\t}\n\t\t\tif(votes[_address].proposal == Proposal.REMOVE){\n\t\t\t\temit alreadyProposalForRemovingAdmin(_address);\n\t\t\t\treturn false;\n\t\t\t}\n\t\t}\n\t\tvotes[_address].proposal = Proposal.REMOVE;\n\t\trequire (voteFor(_address,msg.sender));\n\t\tvotes[_address].proposer = msg.sender;\n\t\treturn true;\n\t}\n\n\t/**\n    * @dev Function to vote FOR remving one active admin. It checks validity of msg.sender with isOwner modifier\n    * msg.sender address should be one of the active admin\n\t* @param _address address, which is to be proposed to remove as active admin\n    * @return Emits event noProposalForRemovingAdmin() in case the REMOVE admin proposal is not started already\n\t* @return Emits event removeAdmin() in case the REMOVE admin is successfully completed\n\t* @return A success flag\n    */\n\tfunction voteForRemovingAdmin (address _address) public isOwner isInitalised returns(bool res){\n\t\t//require(votes[_address].proposal == Proposal.REMOVE);\n\t\tif(votes[_address].proposal != Proposal.REMOVE){\n\t\t\temit noProposalForRemovingAdmin(_address);\n\t\t\treturn false;\n\t\t}\n\t\trequire(voteFor(_address,msg.sender));\n\t\tif(votes[_address].countFor >= totalActiveCount / 2 + 1){\n\t\t\towners[_address] = false;\n\t\t\ttotalActiveCount = totalActiveCount.sub(1);\n\t\t\trequire(clearVotes(_address));\n\t\t\temit removeAdmin(_address,msg.sender);\n\t\t}\n\t\treturn true;\n\t}\n\n\t/**\n    * @dev Function to vote AGAINST one active admin. It checks validity of msg.sender with isOwner modifier\n    * msg.sender address should be one of the active admin\n\t* @param _address address, which is to be proposed to remove as active admin\n    * @return Emits event noProposalForRemovingAdmin() in case the REMOVE admin proposal is not started already\n\t* @return A success flag\n    */\n\tfunction voteAgainstRemovingAdmin (address _address) public isOwner isInitalised returns(bool res){\n\t\t//require(votes[_address].proposal == Proposal.REMOVE);\n\t\tif(votes[_address].proposal != Proposal.REMOVE){\n\t\t\temit noProposalForRemovingAdmin(_address);\n\t\t\treturn false;\n\t\t}\n\t\trequire(voteAgainst(_address,msg.sender));\n\t\tif(votes[_address].countAgainst >= totalActiveCount / 2 + 1){\n\t\t\tassert(clearVotes(_address));\n\t\t}\n\t\treturn true;\n\t}\n\n\t/**\n    * @dev Function to change vote \n    * msg.sender address should be one of the active admin\n\t* @param _address address, which is to be proposed to remove as active admin\n    * @return A success flag\n    */\n\tfunction changeVote (address _address) public isOwner isInitalised returns(bool res){\n\t\trequire(internalChangeVote(_address));\n\t\tuint32 cfor = votes[_address].countFor;\n\t\tuint32 cagainst = votes[_address].countAgainst;\n\t\tif(votes[_address].vote[msg.sender] == Decision.FOR){\n\t\t\tif(cagainst >= totalActiveCount / 2 + 1){\n\t\t\t\trequire(clearVotes(_address));\n\t\t\t}\n\t\t}\n\t\telse{\n\t\t\tif(cfor >= totalActiveCount / 2 + 1){\n\t\t\t\tif(votes[_address].proposal == Proposal.ADD){\n\t\t\t\t\towners[_address] = true;\n\t\t\t\t}else{\n\t\t\t\t\towners[_address] = false;\n\t\t\t\t}\n\t\t\t\trequire(clearVotes(_address));\n\t\t\t}\n\t\t}\n\t\treturn true;\n\t}\n\n\t/**\n    * @dev Function to check whether _address is active admin or not\n\t* @param _address address\n\t* @return returns bool as active or non-active admin/owner\n    */\n\tfunction isActiveAdmin(address _address) public view returns(bool){\n\t    return owners[_address];\n\t}\n\n\t/**\n    * @dev Function to return list of all admins\n\t* @return returns the list\n    */\n\tfunction getAllAdmins () public view returns(address[] res){\n\t\treturn admins;\n\t}\n\n\t/**\n    * @dev Function to check current voting status. It checks validity of msg.sender with isOwner modifier\n\t* @param _address address\n\t* @return returns the bool\n    */\n\tfunction checkVotes (address _address) public view isOwner returns(uint32[2] res){\n\t\treturn internalCheckVotes(_address);\n\t}\n\n\t/**\n    * @dev Function to check current proposal for the _address. It checks validity of msg.sender with isOwner modifier\n\t* @param _address address\n\t* @return returns the array of no of votes FOR and AGAINST\n    */\n\tfunction checkProposal (address _address) public view isOwner returns(string res){\n\t\treturn internalCheckProposal(_address);\n\t}\n\n\t/**\n    * @dev Function to get who all have voted for current proposal. It checks validity of msg.sender with isOwner modifier\n\t* @return returns the array of no of votes FOR and AGAINST\n    */\n\tfunction getVoted(address _address)public view isOwner returns(address[]){\n\t    return internalGetVoted(_address);\n\t}\n\t\n\t/**\n    * @dev Function to get total active admin\n\t* @return returns the number\n    */\n\tfunction getTotalActiveCount()public view returns(uint32){\n\t    return totalActiveCount;\n\t}\n\n\t/**\n    * @dev Function to clear votes/proposal for the given address\n\t* @param _address address of the admin\n\t* @return returns the status true/false\n    */\n\tfunction clearProposal(address _address)public isOwner isInitalised returns(bool res){\n\t    if(_address==address(0))\n\t\t\treturn false;\n\t\treturn clearVotes(_address);\n\t}\n}\n",
  "sourcePath": "/Users/rahulgolash/Rahul/Ledgerium/CoreLedgerium/governanceApp/contracts/AdminValidatorSet.sol",
  "compiler": {
    "name": "solc",
    "version": "0.4.24+commit.e67f0147.Emscripten.clang"
  },
  "schemaVersion": "2.0.1",
  "updatedAt": "2018-11-22T04:32:54.918Z"
}