{
  "contractName": "AdminValidatorSet",
  "abi": [
    {
      "anonymous": false,
      "inputs": [
        {
          "indexed": true,
          "name": "proposer",
          "type": "address"
        },
        {
          "indexed": true,
          "name": "admin",
          "type": "address"
        }
      ],
      "name": "AddAdmin",
      "type": "event"
    },
    {
      "anonymous": false,
      "inputs": [
        {
          "indexed": true,
          "name": "proposer",
          "type": "address"
        },
        {
          "indexed": true,
          "name": "admin",
          "type": "address"
        }
      ],
      "name": "RemoveAdmin",
      "type": "event"
    },
    {
      "anonymous": false,
      "inputs": [
        {
          "indexed": true,
          "name": "_address",
          "type": "address"
        }
      ],
      "name": "AlreadyProposalForAddingAdmin",
      "type": "event"
    },
    {
      "anonymous": false,
      "inputs": [
        {
          "indexed": true,
          "name": "_address",
          "type": "address"
        }
      ],
      "name": "AlreadyProposalForRemovingAdmin",
      "type": "event"
    },
    {
      "anonymous": false,
      "inputs": [
        {
          "indexed": true,
          "name": "_address",
          "type": "address"
        }
      ],
      "name": "NoProposalForAddingAdmin",
      "type": "event"
    },
    {
      "anonymous": false,
      "inputs": [
        {
          "indexed": true,
          "name": "_address",
          "type": "address"
        }
      ],
      "name": "NoProposalForRemovingAdmin",
      "type": "event"
    },
    {
      "anonymous": false,
      "inputs": [
        {
          "indexed": true,
          "name": "_address",
          "type": "address"
        }
      ],
      "name": "AlreadyActiveAdmin",
      "type": "event"
    },
    {
      "anonymous": false,
      "inputs": [
        {
          "indexed": true,
          "name": "_address",
          "type": "address"
        }
      ],
      "name": "AlreadyInActiveAdmin",
      "type": "event"
    },
    {
      "anonymous": false,
      "inputs": [
        {
          "indexed": false,
          "name": "minNoOfAdmin",
          "type": "uint8"
        }
      ],
      "name": "MinAdminNeeded",
      "type": "event"
    },
    {
      "anonymous": false,
      "inputs": [
        {
          "indexed": false,
          "name": "_address",
          "type": "address"
        }
      ],
      "name": "ownerAdded",
      "type": "event"
    },
    {
      "anonymous": false,
      "inputs": [
        {
          "indexed": false,
          "name": "_address",
          "type": "address"
        }
      ],
      "name": "ownerRemoved",
      "type": "event"
    },
    {
      "anonymous": false,
      "inputs": [
        {
          "indexed": true,
          "name": "admin",
          "type": "address"
        },
        {
          "indexed": true,
          "name": "voted",
          "type": "address"
        }
      ],
      "name": "VotedForAdd",
      "type": "event"
    },
    {
      "anonymous": false,
      "inputs": [
        {
          "indexed": true,
          "name": "admin",
          "type": "address"
        },
        {
          "indexed": true,
          "name": "voted",
          "type": "address"
        }
      ],
      "name": "VotedForRemove",
      "type": "event"
    },
    {
      "anonymous": false,
      "inputs": [
        {
          "indexed": true,
          "name": "admin",
          "type": "address"
        },
        {
          "indexed": true,
          "name": "voted",
          "type": "address"
        }
      ],
      "name": "VotedAgainstAdd",
      "type": "event"
    },
    {
      "anonymous": false,
      "inputs": [
        {
          "indexed": true,
          "name": "admin",
          "type": "address"
        },
        {
          "indexed": true,
          "name": "voted",
          "type": "address"
        }
      ],
      "name": "VotedAgainstRemove",
      "type": "event"
    },
    {
      "constant": false,
      "inputs": [],
      "name": "init",
      "outputs": [],
      "payable": false,
      "stateMutability": "nonpayable",
      "type": "function"
    },
    {
      "constant": false,
      "inputs": [
        {
          "name": "_address",
          "type": "address"
        }
      ],
      "name": "proposalToAddAdmin",
      "outputs": [
        {
          "name": "",
          "type": "bool"
        }
      ],
      "payable": false,
      "stateMutability": "nonpayable",
      "type": "function"
    },
    {
      "constant": false,
      "inputs": [
        {
          "name": "_address",
          "type": "address"
        }
      ],
      "name": "voteForAddingAdmin",
      "outputs": [
        {
          "name": "",
          "type": "bool"
        }
      ],
      "payable": false,
      "stateMutability": "nonpayable",
      "type": "function"
    },
    {
      "constant": false,
      "inputs": [
        {
          "name": "_address",
          "type": "address"
        }
      ],
      "name": "voteAgainstAddingAdmin",
      "outputs": [
        {
          "name": "",
          "type": "bool"
        }
      ],
      "payable": false,
      "stateMutability": "nonpayable",
      "type": "function"
    },
    {
      "constant": false,
      "inputs": [
        {
          "name": "_address",
          "type": "address"
        }
      ],
      "name": "proposalToRemoveAdmin",
      "outputs": [
        {
          "name": "",
          "type": "bool"
        }
      ],
      "payable": false,
      "stateMutability": "nonpayable",
      "type": "function"
    },
    {
      "constant": false,
      "inputs": [
        {
          "name": "_address",
          "type": "address"
        }
      ],
      "name": "voteForRemovingAdmin",
      "outputs": [
        {
          "name": "",
          "type": "bool"
        }
      ],
      "payable": false,
      "stateMutability": "nonpayable",
      "type": "function"
    },
    {
      "constant": false,
      "inputs": [
        {
          "name": "_address",
          "type": "address"
        }
      ],
      "name": "voteAgainstRemovingAdmin",
      "outputs": [
        {
          "name": "",
          "type": "bool"
        }
      ],
      "payable": false,
      "stateMutability": "nonpayable",
      "type": "function"
    },
    {
      "constant": false,
      "inputs": [
        {
          "name": "_address",
          "type": "address"
        }
      ],
      "name": "changeVote",
      "outputs": [
        {
          "name": "",
          "type": "bool"
        }
      ],
      "payable": false,
      "stateMutability": "nonpayable",
      "type": "function"
    },
    {
      "constant": true,
      "inputs": [
        {
          "name": "_address",
          "type": "address"
        }
      ],
      "name": "isActiveAdmin",
      "outputs": [
        {
          "name": "",
          "type": "bool"
        }
      ],
      "payable": false,
      "stateMutability": "view",
      "type": "function"
    },
    {
      "constant": true,
      "inputs": [],
      "name": "getAllAdmins",
      "outputs": [
        {
          "name": "",
          "type": "address[]"
        }
      ],
      "payable": false,
      "stateMutability": "view",
      "type": "function"
    },
    {
      "constant": true,
      "inputs": [
        {
          "name": "_address",
          "type": "address"
        }
      ],
      "name": "checkVotes",
      "outputs": [
        {
          "name": "",
          "type": "uint32[2]"
        }
      ],
      "payable": false,
      "stateMutability": "view",
      "type": "function"
    },
    {
      "constant": true,
      "inputs": [
        {
          "name": "_address",
          "type": "address"
        }
      ],
      "name": "checkProposal",
      "outputs": [
        {
          "name": "",
          "type": "string"
        }
      ],
      "payable": false,
      "stateMutability": "view",
      "type": "function"
    },
    {
      "constant": true,
      "inputs": [
        {
          "name": "_address",
          "type": "address"
        }
      ],
      "name": "getVoted",
      "outputs": [
        {
          "name": "",
          "type": "address[]"
        }
      ],
      "payable": false,
      "stateMutability": "view",
      "type": "function"
    },
    {
      "constant": true,
      "inputs": [],
      "name": "getTotalActiveCount",
      "outputs": [
        {
          "name": "",
          "type": "uint32"
        }
      ],
      "payable": false,
      "stateMutability": "view",
      "type": "function"
    },
    {
      "constant": false,
      "inputs": [
        {
          "name": "_address",
          "type": "address"
        }
      ],
      "name": "clearProposal",
      "outputs": [
        {
          "name": "",
          "type": "bool"
        }
      ],
      "payable": false,
      "stateMutability": "nonpayable",
      "type": "function"
    },
    {
      "constant": true,
      "inputs": [
        {
          "name": "_address",
          "type": "address"
        }
      ],
      "name": "getProposer",
      "outputs": [
        {
          "name": "",
          "type": "address"
        }
      ],
      "payable": false,
      "stateMutability": "view",
      "type": "function"
    }
  ],
  "bytecode": "0x608060405234801561001057600080fd5b50613daf806100206000396000f3006080604052600436106100e6576000357c0100000000000000000000000000000000000000000000000000000000900463ffffffff1680631e301eef146100eb5780632c9f55ed14610146578063362ee2a9146102025780635aa82fbe1461025d5780635caea9cb146102f557806366af4d641461037457806367b996f1146103cf57806373d305441461042a578063851a974c14610461578063a06a2060146104e4578063b81955561461053f578063c162bc031461059a578063d118019c146105f5578063e1c7392a14610650578063e35cc88f14610667578063e9523c97146106c2575b600080fd5b3480156100f757600080fd5b5061012c600480360381019080803573ffffffffffffffffffffffffffffffffffffffff16906020019092919050505061072e565b604051808215151515815260200191505060405180910390f35b34801561015257600080fd5b50610187600480360381019080803573ffffffffffffffffffffffffffffffffffffffff169060200190929190505050610916565b6040518080602001828103825283818151815260200191508051906020019080838360005b838110156101c75780820151818401526020810190506101ac565b50505050905090810190601f1680156101f45780820380516001836020036101000a031916815260200191505b509250505060405180910390f35b34801561020e57600080fd5b50610243600480360381019080803573ffffffffffffffffffffffffffffffffffffffff169060200190929190505050610980565b604051808215151515815260200191505060405180910390f35b34801561026957600080fd5b5061029e600480360381019080803573ffffffffffffffffffffffffffffffffffffffff169060200190929190505050610ddb565b6040518080602001828103825283818151815260200191508051906020019060200280838360005b838110156102e15780820151818401526020810190506102c6565b505050509050019250505060405180910390f35b34801561030157600080fd5b50610336600480360381019080803573ffffffffffffffffffffffffffffffffffffffff169060200190929190505050610e45565b6040518082600260200280838360005b83811015610361578082015181840152602081019050610346565b5050505090500191505060405180910390f35b34801561038057600080fd5b506103b5600480360381019080803573ffffffffffffffffffffffffffffffffffffffff169060200190929190505050610eb5565b604051808215151515815260200191505060405180910390f35b3480156103db57600080fd5b50610410600480360381019080803573ffffffffffffffffffffffffffffffffffffffff1690602001909291905050506112c8565b604051808215151515815260200191505060405180910390f35b34801561043657600080fd5b5061043f6116bc565b604051808263ffffffff1663ffffffff16815260200191505060405180910390f35b34801561046d57600080fd5b506104a2600480360381019080803573ffffffffffffffffffffffffffffffffffffffff1690602001909291905050506116d6565b604051808273ffffffffffffffffffffffffffffffffffffffff1673ffffffffffffffffffffffffffffffffffffffff16815260200191505060405180910390f35b3480156104f057600080fd5b50610525600480360381019080803573ffffffffffffffffffffffffffffffffffffffff1690602001909291905050506117ee565b604051808215151515815260200191505060405180910390f35b34801561054b57600080fd5b50610580600480360381019080803573ffffffffffffffffffffffffffffffffffffffff169060200190929190505050611844565b604051808215151515815260200191505060405180910390f35b3480156105a657600080fd5b506105db600480360381019080803573ffffffffffffffffffffffffffffffffffffffff169060200190929190505050611bf2565b604051808215151515815260200191505060405180910390f35b34801561060157600080fd5b50610636600480360381019080803573ffffffffffffffffffffffffffffffffffffffff169060200190929190505050611cb1565b604051808215151515815260200191505060405180910390f35b34801561065c57600080fd5b50610665611e98565b005b34801561067357600080fd5b506106a8600480360381019080803573ffffffffffffffffffffffffffffffffffffffff16906020019092919050505061227a565b604051808215151515815260200191505060405180910390f35b3480156106ce57600080fd5b506106d7612626565b6040518080602001828103825283818151815260200191508051906020019060200280838360005b8381101561071a5780820151818401526020810190506106ff565b505050509050019250505060405180910390f35b6000600160003373ffffffffffffffffffffffffffffffffffffffff1673ffffffffffffffffffffffffffffffffffffffff16815260200190815260200160002060009054906101000a900460ff16151561078857600080fd5b600260049054906101000a900460ff161561091157600160028111156107aa57fe5b6000808473ffffffffffffffffffffffffffffffffffffffff1673ffffffffffffffffffffffffffffffffffffffff16815260200190815260200160002060000160009054906101000a900460ff16600281111561080457fe5b141515610857578173ffffffffffffffffffffffffffffffffffffffff167f31e9e0191c7907fe4876812d289a21ab25f1cb1795e60ad1489343b85cefda1160405160405180910390a260009050610910565b61086182336126b4565b151561086c57600080fd5b60016002600560009054906101000a900463ffffffff1663ffffffff1681151561089257fe5b040163ffffffff166000808473ffffffffffffffffffffffffffffffffffffffff1673ffffffffffffffffffffffffffffffffffffffff16815260200190815260200160002060000160199054906101000a900463ffffffff1663ffffffff1610151561090b5761090282612b18565b151561090a57fe5b5b600190505b5b919050565b6060600160003373ffffffffffffffffffffffffffffffffffffffff1673ffffffffffffffffffffffffffffffffffffffff16815260200190815260200160002060009054906101000a900460ff16151561097057600080fd5b61097982612ec1565b9050919050565b6000600160003373ffffffffffffffffffffffffffffffffffffffff1673ffffffffffffffffffffffffffffffffffffffff16815260200190815260200160002060009054906101000a900460ff1615156109da57600080fd5b600260049054906101000a900460ff1615610dd657600160028111156109fc57fe5b6000808473ffffffffffffffffffffffffffffffffffffffff1673ffffffffffffffffffffffffffffffffffffffff16815260200190815260200160002060000160009054906101000a900460ff166002811115610a5657fe5b141515610aa9578173ffffffffffffffffffffffffffffffffffffffff167f31e9e0191c7907fe4876812d289a21ab25f1cb1795e60ad1489343b85cefda1160405160405180910390a260009050610dd5565b610ab38233613054565b1515610abe57600080fd5b60016002600560009054906101000a900463ffffffff1663ffffffff16811515610ae457fe5b040163ffffffff166000808473ffffffffffffffffffffffffffffffffffffffff1673ffffffffffffffffffffffffffffffffffffffff16815260200190815260200160002060000160159054906101000a900463ffffffff1663ffffffff16101515610dd05760018060008473ffffffffffffffffffffffffffffffffffffffff1673ffffffffffffffffffffffffffffffffffffffff16815260200190815260200160002060006101000a81548160ff021916908315150217905550610bce6001600560009054906101000a900463ffffffff1663ffffffff166134b890919063ffffffff16565b600560006101000a81548163ffffffff021916908363ffffffff160217905550600460008373ffffffffffffffffffffffffffffffffffffffff1673ffffffffffffffffffffffffffffffffffffffff16815260200190815260200160002060009054906101000a900460ff161515610c9a576001600460008473ffffffffffffffffffffffffffffffffffffffff1673ffffffffffffffffffffffffffffffffffffffff16815260200190815260200160002060006101000a81548160ff0219169083151502179055505b60038290806001815401808255809150509060018203906000526020600020016000909192909190916101000a81548173ffffffffffffffffffffffffffffffffffffffff021916908373ffffffffffffffffffffffffffffffffffffffff160217905550508173ffffffffffffffffffffffffffffffffffffffff166000808473ffffffffffffffffffffffffffffffffffffffff1673ffffffffffffffffffffffffffffffffffffffff16815260200190815260200160002060000160019054906101000a900473ffffffffffffffffffffffffffffffffffffffff1673ffffffffffffffffffffffffffffffffffffffff167f99ad91c72e4fcc0a37d0481b982aec5c0c78491d30d39e65338bec15fa9cc4b760405160405180910390a3610dc482612b18565b1515610dcf57600080fd5b5b600190505b5b919050565b6060600160003373ffffffffffffffffffffffffffffffffffffffff1673ffffffffffffffffffffffffffffffffffffffff16815260200190815260200160002060009054906101000a900460ff161515610e3557600080fd5b610e3e826134e2565b9050919050565b610e4d613c94565b600160003373ffffffffffffffffffffffffffffffffffffffff1673ffffffffffffffffffffffffffffffffffffffff16815260200190815260200160002060009054906101000a900460ff161515610ea557600080fd5b610eae826135b6565b9050919050565b6000600160003373ffffffffffffffffffffffffffffffffffffffff1673ffffffffffffffffffffffffffffffffffffffff16815260200190815260200160002060009054906101000a900460ff161515610f0f57600080fd5b600260049054906101000a900460ff16156112c357610f2d826117ee565b1515610f7f578173ffffffffffffffffffffffffffffffffffffffff167f9c7cadd46fbd30740917780f635ee53049ed6be79715b6023ea06087c334c5c660405160405180910390a2600090506112c2565b6003600560009054906101000a900463ffffffff1663ffffffff16111515610fe5577fe6fcbc3c985ed3070063f0c0f9cb0e7640bbd75cb195ee2642bf970f5e15b2a26003604051808260ff16815260200191505060405180910390a1600090506112c2565b60006002811115610ff257fe5b6000808473ffffffffffffffffffffffffffffffffffffffff1673ffffffffffffffffffffffffffffffffffffffff16815260200190815260200160002060000160009054906101000a900460ff16600281111561104c57fe5b1415156111c5576001600281111561106057fe5b6000808473ffffffffffffffffffffffffffffffffffffffff1673ffffffffffffffffffffffffffffffffffffffff16815260200190815260200160002060000160009054906101000a900460ff1660028111156110ba57fe5b141561110c578173ffffffffffffffffffffffffffffffffffffffff167f985746acdce980f7399f809486aa97eecb67bba69e51c5810544e283895789f660405160405180910390a2600090506112c2565b60028081111561111857fe5b6000808473ffffffffffffffffffffffffffffffffffffffff1673ffffffffffffffffffffffffffffffffffffffff16815260200190815260200160002060000160009054906101000a900460ff16600281111561117257fe5b14156111c4578173ffffffffffffffffffffffffffffffffffffffff167f68827c5b6c10d4fef27a21d0464cdaadecd877c28574c7ee177ec3118787870060405160405180910390a2600090506112c2565b5b60026000808473ffffffffffffffffffffffffffffffffffffffff1673ffffffffffffffffffffffffffffffffffffffff16815260200190815260200160002060000160006101000a81548160ff0219169083600281111561122357fe5b02179055506112328233613054565b151561123d57600080fd5b336000808473ffffffffffffffffffffffffffffffffffffffff1673ffffffffffffffffffffffffffffffffffffffff16815260200190815260200160002060000160016101000a81548173ffffffffffffffffffffffffffffffffffffffff021916908373ffffffffffffffffffffffffffffffffffffffff160217905550600190505b5b919050565b6000600160003373ffffffffffffffffffffffffffffffffffffffff1673ffffffffffffffffffffffffffffffffffffffff16815260200190815260200160002060009054906101000a900460ff16151561132257600080fd5b600260049054906101000a900460ff16156116b75760028081111561134357fe5b6000808473ffffffffffffffffffffffffffffffffffffffff1673ffffffffffffffffffffffffffffffffffffffff16815260200190815260200160002060000160009054906101000a900460ff16600281111561139d57fe5b1415156113f0578173ffffffffffffffffffffffffffffffffffffffff167fa66a745af57a4c1c4dfcf7401663660ece37592d35076a01326f1ebb117dfe3760405160405180910390a2600090506116b6565b6113fa8233613054565b151561140557600080fd5b60016002600560009054906101000a900463ffffffff1663ffffffff1681151561142b57fe5b040163ffffffff166000808473ffffffffffffffffffffffffffffffffffffffff1673ffffffffffffffffffffffffffffffffffffffff16815260200190815260200160002060000160159054906101000a900463ffffffff1663ffffffff161015156116b1576000600160008473ffffffffffffffffffffffffffffffffffffffff1673ffffffffffffffffffffffffffffffffffffffff16815260200190815260200160002060006101000a81548160ff0219169083151502179055506115166001600560009054906101000a900463ffffffff1663ffffffff166136bf90919063ffffffff16565b600560006101000a81548163ffffffff021916908363ffffffff160217905550600460008373ffffffffffffffffffffffffffffffffffffffff1673ffffffffffffffffffffffffffffffffffffffff16815260200190815260200160002060009054906101000a900460ff16156115e1576000600460008473ffffffffffffffffffffffffffffffffffffffff1673ffffffffffffffffffffffffffffffffffffffff16815260200190815260200160002060006101000a81548160ff0219169083151502179055505b8173ffffffffffffffffffffffffffffffffffffffff166000808473ffffffffffffffffffffffffffffffffffffffff1673ffffffffffffffffffffffffffffffffffffffff16815260200190815260200160002060000160019054906101000a900473ffffffffffffffffffffffffffffffffffffffff1673ffffffffffffffffffffffffffffffffffffffff167f148da362aaafc6bbf0e0b77d62428bcd324bcf9785839aa07881d6c78d295df160405160405180910390a36116a582612b18565b15156116b057600080fd5b5b600190505b5b919050565b6000600560009054906101000a900463ffffffff16905090565b6000600160003373ffffffffffffffffffffffffffffffffffffffff1673ffffffffffffffffffffffffffffffffffffffff16815260200190815260200160002060009054906101000a900460ff16151561173057600080fd5b600260049054906101000a900460ff16156117e957600073ffffffffffffffffffffffffffffffffffffffff168273ffffffffffffffffffffffffffffffffffffffff16141561178357600090506117e8565b6000808373ffffffffffffffffffffffffffffffffffffffff1673ffffffffffffffffffffffffffffffffffffffff16815260200190815260200160002060000160019054906101000a900473ffffffffffffffffffffffffffffffffffffffff1690505b5b919050565b6000600160008373ffffffffffffffffffffffffffffffffffffffff1673ffffffffffffffffffffffffffffffffffffffff16815260200190815260200160002060009054906101000a900460ff169050919050565b6000806000600160003373ffffffffffffffffffffffffffffffffffffffff1673ffffffffffffffffffffffffffffffffffffffff16815260200190815260200160002060009054906101000a900460ff1615156118a157600080fd5b600260049054906101000a900460ff1615611beb576118bf846136e4565b15156118ca57600080fd5b6000808573ffffffffffffffffffffffffffffffffffffffff1673ffffffffffffffffffffffffffffffffffffffff16815260200190815260200160002060000160159054906101000a900463ffffffff1691506000808573ffffffffffffffffffffffffffffffffffffffff1673ffffffffffffffffffffffffffffffffffffffff16815260200190815260200160002060000160199054906101000a900463ffffffff1690506001600281111561197f57fe5b6000808673ffffffffffffffffffffffffffffffffffffffff1673ffffffffffffffffffffffffffffffffffffffff16815260200190815260200160002060010160003373ffffffffffffffffffffffffffffffffffffffff1673ffffffffffffffffffffffffffffffffffffffff16815260200190815260200160002060009054906101000a900460ff166002811115611a1657fe5b1415611a725760016002600560009054906101000a900463ffffffff1663ffffffff16811515611a4257fe5b040163ffffffff168163ffffffff16101515611a6d57611a6184612b18565b1515611a6c57600080fd5b5b611be6565b60016002600560009054906101000a900463ffffffff1663ffffffff16811515611a9857fe5b040163ffffffff168263ffffffff16101515611be55760016002811115611abb57fe5b6000808673ffffffffffffffffffffffffffffffffffffffff1673ffffffffffffffffffffffffffffffffffffffff16815260200190815260200160002060000160009054906101000a900460ff166002811115611b1557fe5b1415611b775760018060008673ffffffffffffffffffffffffffffffffffffffff1673ffffffffffffffffffffffffffffffffffffffff16815260200190815260200160002060006101000a81548160ff021916908315150217905550611bd0565b6000600160008673ffffffffffffffffffffffffffffffffffffffff1673ffffffffffffffffffffffffffffffffffffffff16815260200190815260200160002060006101000a81548160ff0219169083151502179055505b611bd984612b18565b1515611be457600080fd5b5b5b600192505b5050919050565b6000600160003373ffffffffffffffffffffffffffffffffffffffff1673ffffffffffffffffffffffffffffffffffffffff16815260200190815260200160002060009054906101000a900460ff161515611c4c57600080fd5b600260049054906101000a900460ff1615611cac57600073ffffffffffffffffffffffffffffffffffffffff168273ffffffffffffffffffffffffffffffffffffffff161415611c9f5760009050611cab565b611ca882612b18565b90505b5b919050565b6000600160003373ffffffffffffffffffffffffffffffffffffffff1673ffffffffffffffffffffffffffffffffffffffff16815260200190815260200160002060009054906101000a900460ff161515611d0b57600080fd5b600260049054906101000a900460ff1615611e9357600280811115611d2c57fe5b6000808473ffffffffffffffffffffffffffffffffffffffff1673ffffffffffffffffffffffffffffffffffffffff16815260200190815260200160002060000160009054906101000a900460ff166002811115611d8657fe5b141515611dd9578173ffffffffffffffffffffffffffffffffffffffff167fa66a745af57a4c1c4dfcf7401663660ece37592d35076a01326f1ebb117dfe3760405160405180910390a260009050611e92565b611de382336126b4565b1515611dee57600080fd5b60016002600560009054906101000a900463ffffffff1663ffffffff16811515611e1457fe5b040163ffffffff166000808473ffffffffffffffffffffffffffffffffffffffff1673ffffffffffffffffffffffffffffffffffffffff16815260200190815260200160002060000160199054906101000a900463ffffffff1663ffffffff16101515611e8d57611e8482612b18565b1515611e8c57fe5b5b600190505b5b919050565b6000806000600260049054906101000a900460ff161515612275577344643353444f4b42b46ed28e668c204db6dbb7c392507343a69edd54e07b95113fed92e8c9ba004500ce12915073d44b2838207a46f1007b3f296a599fadfb20978c905060018060008573ffffffffffffffffffffffffffffffffffffffff1673ffffffffffffffffffffffffffffffffffffffff16815260200190815260200160002060006101000a81548160ff02191690831515021790555060018060008473ffffffffffffffffffffffffffffffffffffffff1673ffffffffffffffffffffffffffffffffffffffff16815260200190815260200160002060006101000a81548160ff02191690831515021790555060018060008373ffffffffffffffffffffffffffffffffffffffff1673ffffffffffffffffffffffffffffffffffffffff16815260200190815260200160002060006101000a81548160ff02191690831515021790555060038390806001815401808255809150509060018203906000526020600020016000909192909190916101000a81548173ffffffffffffffffffffffffffffffffffffffff021916908373ffffffffffffffffffffffffffffffffffffffff1602179055505060038290806001815401808255809150509060018203906000526020600020016000909192909190916101000a81548173ffffffffffffffffffffffffffffffffffffffff021916908373ffffffffffffffffffffffffffffffffffffffff1602179055505060038190806001815401808255809150509060018203906000526020600020016000909192909190916101000a81548173ffffffffffffffffffffffffffffffffffffffff021916908373ffffffffffffffffffffffffffffffffffffffff160217905550506001600460008573ffffffffffffffffffffffffffffffffffffffff1673ffffffffffffffffffffffffffffffffffffffff16815260200190815260200160002060006101000a81548160ff0219169083151502179055506001600460008473ffffffffffffffffffffffffffffffffffffffff1673ffffffffffffffffffffffffffffffffffffffff16815260200190815260200160002060006101000a81548160ff0219169083151502179055506001600460008373ffffffffffffffffffffffffffffffffffffffff1673ffffffffffffffffffffffffffffffffffffffff16815260200190815260200160002060006101000a81548160ff0219169083151502179055506003600560006101000a81548163ffffffff021916908363ffffffff1602179055506001600260046101000a81548160ff0219169083151502179055505b505050565b6000600160003373ffffffffffffffffffffffffffffffffffffffff1673ffffffffffffffffffffffffffffffffffffffff16815260200190815260200160002060009054906101000a900460ff1615156122d457600080fd5b600260049054906101000a900460ff1615612621576122f2826117ee565b15612343578173ffffffffffffffffffffffffffffffffffffffff167f0720aeaf875158936fcd8297eba492c9c4f272e5c01014a1d7e09550dd68c18760405160405180910390a260009050612620565b6000600281111561235057fe5b6000808473ffffffffffffffffffffffffffffffffffffffff1673ffffffffffffffffffffffffffffffffffffffff16815260200190815260200160002060000160009054906101000a900460ff1660028111156123aa57fe5b14151561252357600160028111156123be57fe5b6000808473ffffffffffffffffffffffffffffffffffffffff1673ffffffffffffffffffffffffffffffffffffffff16815260200190815260200160002060000160009054906101000a900460ff16600281111561241857fe5b141561246a578173ffffffffffffffffffffffffffffffffffffffff167f985746acdce980f7399f809486aa97eecb67bba69e51c5810544e283895789f660405160405180910390a260009050612620565b60028081111561247657fe5b6000808473ffffffffffffffffffffffffffffffffffffffff1673ffffffffffffffffffffffffffffffffffffffff16815260200190815260200160002060000160009054906101000a900460ff1660028111156124d057fe5b1415612522578173ffffffffffffffffffffffffffffffffffffffff167f68827c5b6c10d4fef27a21d0464cdaadecd877c28574c7ee177ec3118787870060405160405180910390a260009050612620565b5b60016000808473ffffffffffffffffffffffffffffffffffffffff1673ffffffffffffffffffffffffffffffffffffffff16815260200190815260200160002060000160006101000a81548160ff0219169083600281111561258157fe5b02179055506125908233613054565b151561259b57600080fd5b336000808473ffffffffffffffffffffffffffffffffffffffff1673ffffffffffffffffffffffffffffffffffffffff16815260200190815260200160002060000160016101000a81548173ffffffffffffffffffffffffffffffffffffffff021916908373ffffffffffffffffffffffffffffffffffffffff160217905550600190505b5b919050565b606060038054806020026020016040519081016040528092919081815260200182805480156126aa57602002820191906000526020600020905b8160009054906101000a900473ffffffffffffffffffffffffffffffffffffffff1673ffffffffffffffffffffffffffffffffffffffff1681526020019060010190808311612660575b5050505050905090565b600080600060028111156126c457fe5b6000808673ffffffffffffffffffffffffffffffffffffffff1673ffffffffffffffffffffffffffffffffffffffff16815260200190815260200160002060010160008573ffffffffffffffffffffffffffffffffffffffff1673ffffffffffffffffffffffffffffffffffffffff16815260200190815260200160002060009054906101000a900460ff16600281111561275b57fe5b14151561276757600080fd5b6127d260016000808773ffffffffffffffffffffffffffffffffffffffff1673ffffffffffffffffffffffffffffffffffffffff16815260200190815260200160002060000160199054906101000a900463ffffffff1663ffffffff166134b890919063ffffffff16565b9050806000808673ffffffffffffffffffffffffffffffffffffffff1673ffffffffffffffffffffffffffffffffffffffff16815260200190815260200160002060000160196101000a81548163ffffffff021916908363ffffffff16021790555060026000808673ffffffffffffffffffffffffffffffffffffffff1673ffffffffffffffffffffffffffffffffffffffff16815260200190815260200160002060010160008573ffffffffffffffffffffffffffffffffffffffff1673ffffffffffffffffffffffffffffffffffffffff16815260200190815260200160002060006101000a81548160ff021916908360028111156128cf57fe5b02179055506000808573ffffffffffffffffffffffffffffffffffffffff1673ffffffffffffffffffffffffffffffffffffffff1681526020019081526020016000206002018390806001815401808255809150509060018203906000526020600020016000909192909190916101000a81548173ffffffffffffffffffffffffffffffffffffffff021916908373ffffffffffffffffffffffffffffffffffffffff160217905550506001600281111561298657fe5b6000808673ffffffffffffffffffffffffffffffffffffffff1673ffffffffffffffffffffffffffffffffffffffff16815260200190815260200160002060000160009054906101000a900460ff1660028111156129e057fe5b1415612a45578373ffffffffffffffffffffffffffffffffffffffff168373ffffffffffffffffffffffffffffffffffffffff167fff22649b12028e209785fa09d0e114875661e8e34b1d1d72252a3877e2306b2e60405160405180910390a3612b0d565b600280811115612a5157fe5b6000808673ffffffffffffffffffffffffffffffffffffffff1673ffffffffffffffffffffffffffffffffffffffff16815260200190815260200160002060000160009054906101000a900460ff166002811115612aab57fe5b1415612b0c578373ffffffffffffffffffffffffffffffffffffffff168373ffffffffffffffffffffffffffffffffffffffff167f029f3d5cffc072e4402a1675412a9bcd246eef3b529c394a407f0ae389e2167660405160405180910390a35b5b600191505092915050565b600060608060008060008673ffffffffffffffffffffffffffffffffffffffff1673ffffffffffffffffffffffffffffffffffffffff168152602001908152602001600020600201805480602002602001604051908101604052809291908181526020018280548015612be057602002820191906000526020600020905b8160009054906101000a900473ffffffffffffffffffffffffffffffffffffffff1673ffffffffffffffffffffffffffffffffffffffff1681526020019060010190808311612b96575b5050505050925060008060008773ffffffffffffffffffffffffffffffffffffffff1673ffffffffffffffffffffffffffffffffffffffff16815260200190815260200160002060000160156101000a81548163ffffffff021916908363ffffffff16021790555060008060008773ffffffffffffffffffffffffffffffffffffffff1673ffffffffffffffffffffffffffffffffffffffff16815260200190815260200160002060000160196101000a81548163ffffffff021916908363ffffffff160217905550600090505b8251811015612d7b5760008060008773ffffffffffffffffffffffffffffffffffffffff1673ffffffffffffffffffffffffffffffffffffffff16815260200190815260200160002060010160008584815181101515612d0a57fe5b9060200190602002015173ffffffffffffffffffffffffffffffffffffffff1673ffffffffffffffffffffffffffffffffffffffff16815260200190815260200160002060006101000a81548160ff02191690836002811115612d6957fe5b02179055508080600101915050612cae565b60008060008773ffffffffffffffffffffffffffffffffffffffff1673ffffffffffffffffffffffffffffffffffffffff16815260200190815260200160002060000160006101000a81548160ff02191690836002811115612dd957fe5b0217905550816000808773ffffffffffffffffffffffffffffffffffffffff1673ffffffffffffffffffffffffffffffffffffffff1681526020019081526020016000206002019080519060200190612e33929190613cb6565b5060008060008773ffffffffffffffffffffffffffffffffffffffff1673ffffffffffffffffffffffffffffffffffffffff16815260200190815260200160002060000160016101000a81548173ffffffffffffffffffffffffffffffffffffffff021916908373ffffffffffffffffffffffffffffffffffffffff16021790555060019350505050919050565b606060016002811115612ed057fe5b6000808473ffffffffffffffffffffffffffffffffffffffff1673ffffffffffffffffffffffffffffffffffffffff16815260200190815260200160002060000160009054906101000a900460ff166002811115612f2a57fe5b1415612f6d576040805190810160405280600381526020017f6164640000000000000000000000000000000000000000000000000000000000815250905061304f565b600280811115612f7957fe5b6000808473ffffffffffffffffffffffffffffffffffffffff1673ffffffffffffffffffffffffffffffffffffffff16815260200190815260200160002060000160009054906101000a900460ff166002811115612fd357fe5b1415613016576040805190810160405280600681526020017f72656d6f76650000000000000000000000000000000000000000000000000000815250905061304f565b6040805190810160405280601481526020017f70726f706f73616c206e6f74206372656174656400000000000000000000000081525090505b919050565b6000806000600281111561306457fe5b6000808673ffffffffffffffffffffffffffffffffffffffff1673ffffffffffffffffffffffffffffffffffffffff16815260200190815260200160002060010160008573ffffffffffffffffffffffffffffffffffffffff1673ffffffffffffffffffffffffffffffffffffffff16815260200190815260200160002060009054906101000a900460ff1660028111156130fb57fe5b14151561310757600080fd5b61317260016000808773ffffffffffffffffffffffffffffffffffffffff1673ffffffffffffffffffffffffffffffffffffffff16815260200190815260200160002060000160159054906101000a900463ffffffff1663ffffffff166134b890919063ffffffff16565b9050806000808673ffffffffffffffffffffffffffffffffffffffff1673ffffffffffffffffffffffffffffffffffffffff16815260200190815260200160002060000160156101000a81548163ffffffff021916908363ffffffff16021790555060016000808673ffffffffffffffffffffffffffffffffffffffff1673ffffffffffffffffffffffffffffffffffffffff16815260200190815260200160002060010160008573ffffffffffffffffffffffffffffffffffffffff1673ffffffffffffffffffffffffffffffffffffffff16815260200190815260200160002060006101000a81548160ff0219169083600281111561326f57fe5b02179055506000808573ffffffffffffffffffffffffffffffffffffffff1673ffffffffffffffffffffffffffffffffffffffff1681526020019081526020016000206002018390806001815401808255809150509060018203906000526020600020016000909192909190916101000a81548173ffffffffffffffffffffffffffffffffffffffff021916908373ffffffffffffffffffffffffffffffffffffffff160217905550506001600281111561332657fe5b6000808673ffffffffffffffffffffffffffffffffffffffff1673ffffffffffffffffffffffffffffffffffffffff16815260200190815260200160002060000160009054906101000a900460ff16600281111561338057fe5b14156133e5578373ffffffffffffffffffffffffffffffffffffffff168373ffffffffffffffffffffffffffffffffffffffff167febc988472527ec1732923b9d1750043cff1382249121f66679288a34fde8988860405160405180910390a36134ad565b6002808111156133f157fe5b6000808673ffffffffffffffffffffffffffffffffffffffff1673ffffffffffffffffffffffffffffffffffffffff16815260200190815260200160002060000160009054906101000a900460ff16600281111561344b57fe5b14156134ac578373ffffffffffffffffffffffffffffffffffffffff168373ffffffffffffffffffffffffffffffffffffffff167f2995e417ac365fa1ee0bdc63da1f60d473ae104e73c33da5f58957b3dfa6c6bb60405160405180910390a35b5b600191505092915050565b60008082840190508363ffffffff168163ffffffff16101515156134d857fe5b8091505092915050565b6060806000808473ffffffffffffffffffffffffffffffffffffffff1673ffffffffffffffffffffffffffffffffffffffff1681526020019081526020016000206002018054806020026020016040519081016040528092919081815260200182805480156135a657602002820191906000526020600020905b8160009054906101000a900473ffffffffffffffffffffffffffffffffffffffff1673ffffffffffffffffffffffffffffffffffffffff168152602001906001019080831161355c575b5050505050905080915050919050565b6135be613c94565b6135c6613c94565b6000808473ffffffffffffffffffffffffffffffffffffffff1673ffffffffffffffffffffffffffffffffffffffff16815260200190815260200160002060000160159054906101000a900463ffffffff1681600060028110151561362757fe5b602002019063ffffffff16908163ffffffff16815250506000808473ffffffffffffffffffffffffffffffffffffffff1673ffffffffffffffffffffffffffffffffffffffff16815260200190815260200160002060000160199054906101000a900463ffffffff1681600160028110151561369f57fe5b602002019063ffffffff16908163ffffffff168152505080915050919050565b60008263ffffffff168263ffffffff16111515156136d957fe5b818303905092915050565b60008060008060028111156136f557fe5b6000808673ffffffffffffffffffffffffffffffffffffffff1673ffffffffffffffffffffffffffffffffffffffff16815260200190815260200160002060010160003373ffffffffffffffffffffffffffffffffffffffff1673ffffffffffffffffffffffffffffffffffffffff16815260200190815260200160002060009054906101000a900460ff16600281111561378c57fe5b1415151561379957600080fd5b600060028111156137a657fe5b6000808673ffffffffffffffffffffffffffffffffffffffff1673ffffffffffffffffffffffffffffffffffffffff16815260200190815260200160002060000160009054906101000a900460ff16600281111561380057fe5b1415151561380d57600080fd5b6000808573ffffffffffffffffffffffffffffffffffffffff1673ffffffffffffffffffffffffffffffffffffffff16815260200190815260200160002060000160159054906101000a900463ffffffff1691506000808573ffffffffffffffffffffffffffffffffffffffff1673ffffffffffffffffffffffffffffffffffffffff16815260200190815260200160002060000160199054906101000a900463ffffffff169050600160028111156138c257fe5b6000808673ffffffffffffffffffffffffffffffffffffffff1673ffffffffffffffffffffffffffffffffffffffff16815260200190815260200160002060010160003373ffffffffffffffffffffffffffffffffffffffff1673ffffffffffffffffffffffffffffffffffffffff16815260200190815260200160002060009054906101000a900460ff16600281111561395957fe5b1415613af65761397960018363ffffffff166136bf90919063ffffffff16565b6000808673ffffffffffffffffffffffffffffffffffffffff1673ffffffffffffffffffffffffffffffffffffffff16815260200190815260200160002060000160156101000a81548163ffffffff021916908363ffffffff1602179055506139f260018263ffffffff166134b890919063ffffffff16565b6000808673ffffffffffffffffffffffffffffffffffffffff1673ffffffffffffffffffffffffffffffffffffffff16815260200190815260200160002060000160196101000a81548163ffffffff021916908363ffffffff16021790555060026000808673ffffffffffffffffffffffffffffffffffffffff1673ffffffffffffffffffffffffffffffffffffffff16815260200190815260200160002060010160003373ffffffffffffffffffffffffffffffffffffffff1673ffffffffffffffffffffffffffffffffffffffff16815260200190815260200160002060006101000a81548160ff02191690836002811115613aec57fe5b0217905550613c89565b613b1060018363ffffffff166134b890919063ffffffff16565b6000808673ffffffffffffffffffffffffffffffffffffffff1673ffffffffffffffffffffffffffffffffffffffff16815260200190815260200160002060000160156101000a81548163ffffffff021916908363ffffffff160217905550613b8960018263ffffffff166136bf90919063ffffffff16565b6000808673ffffffffffffffffffffffffffffffffffffffff1673ffffffffffffffffffffffffffffffffffffffff16815260200190815260200160002060000160196101000a81548163ffffffff021916908363ffffffff16021790555060016000808673ffffffffffffffffffffffffffffffffffffffff1673ffffffffffffffffffffffffffffffffffffffff16815260200190815260200160002060010160003373ffffffffffffffffffffffffffffffffffffffff1673ffffffffffffffffffffffffffffffffffffffff16815260200190815260200160002060006101000a81548160ff02191690836002811115613c8357fe5b02179055505b600192505050919050565b6040805190810160405280600290602082028038833980820191505090505090565b828054828255906000526020600020908101928215613d2f579160200282015b82811115613d2e5782518260006101000a81548173ffffffffffffffffffffffffffffffffffffffff021916908373ffffffffffffffffffffffffffffffffffffffff16021790555091602001919060010190613cd6565b5b509050613d3c9190613d40565b5090565b613d8091905b80821115613d7c57600081816101000a81549073ffffffffffffffffffffffffffffffffffffffff021916905550600101613d46565b5090565b905600a165627a7a7230582022141dfd56ded95da16e9e69d88d3c4e14a7cf73e0260bef7a0533e3630969db0029",
  "source": "pragma solidity ^0.4.24;\nimport \"./SafeMath.sol\";\nimport \"./Ownable.sol\";\nimport \"./Voteable.sol\";\n\n/**\n * The AdminSet contract maintains the list of all the admin with their vote\n * to add or remove a particular member as admin\n */\ncontract AdminValidatorSet is Voteable, Ownable {\n\n\tusing SafeMath for uint32;\n\n\tbool isInit; \n\taddress[] admins;\n\tmapping (address => bool) exists;\n\tuint32 totalActiveCount;\n\n\tevent AddAdmin(address indexed proposer, address indexed admin);\n\tevent RemoveAdmin(address indexed proposer, address indexed admin);\n\n\tevent AlreadyProposalForAddingAdmin(address indexed _address);\n\tevent AlreadyProposalForRemovingAdmin(address indexed _address);\n\n\tevent NoProposalForAddingAdmin(address indexed _address);\n\tevent NoProposalForRemovingAdmin(address indexed _address);\n\n\tevent AlreadyActiveAdmin(address indexed _address);\n\tevent AlreadyInActiveAdmin(address indexed _address);\n\n\tevent MinAdminNeeded(uint8 minNoOfAdmin);\n\n\tmodifier isOwner() {\n\t\t// make sure only owner can add or remove admins\n        require(owners[msg.sender]);\n        _;\n    }\n\n\tmodifier isInitalised() {\n\t\t// make sure isInit is set before any logical execution on the contract\n        if(isInit){_;}\n    }\n\n\tmodifier ifNotInitalised() {\n\t\t// make sure isInit is set before any logical execution on the contract\n        if(!isInit){_;}\n    }\n\n\t/**\n    * @dev Function to initiate contract with adding first 3 valid admins. The pre-deployed contract will be the owner\n    * @return A success flag\n    */\n\tfunction init() public ifNotInitalised {\n\t\t\n\t\taddress msg_sender = address(0x44643353444f4b42b46ED28e668C204db6Dbb7c3);\n\t\taddress _owner1 = address(0x43a69eDD54e07B95113FEd92e8c9ba004500Ce12);\n\t\taddress _owner2 = address(0xd44b2838207A46F1007B3F296a599fADfb20978c);\n\t\t\n\t\t// make sure that there are minimum of 3 admins to vote for/against\n\t\towners[msg_sender] = true;\n\t\towners[_owner1] = true;\n\t\towners[_owner2] = true;\n\t\tadmins.push(msg_sender);\n\t\tadmins.push(_owner1);\n\t\tadmins.push(_owner2);\n\t\texists[msg_sender] = true;\n\t\texists[_owner1] = true;\n\t\texists[_owner2] = true;\n\t\ttotalActiveCount = 3;\n\n\t\tisInit = true;\n\t}\n\n\t/**\n    * @dev Function to propose adding new admin. It checks validity of msg.sender with isOwner modifier\n    * msg.sender address should be one of the active admin\n\t* @return Emits event alreadyProposalForAddingAdmin() in case the ADD admin proposal is started already\n\t* @return Emits event alreadyProposalForRemovingAdmin() in case the REMOVE admin proposal is started already\n\t* @param _address address, which is to be added as new active admin\n    * @return A success flag\n    */\n\tfunction proposalToAddAdmin(address _address) public isOwner isInitalised returns (bool) {\n\t\t\n\t\t//Lets check if the _address is already active!\n\t\tif(isActiveAdmin(_address)){\n\t\t\temit AlreadyActiveAdmin(_address);\n\t\t\treturn false;\n\t\t}\n\n\t\tif(votes[_address].proposal != Proposal.NOT_CREATED) {\n\t\t\tif(votes[_address].proposal == Proposal.ADD){\n\t\t\t\temit AlreadyProposalForAddingAdmin(_address);\n\t\t\t\treturn false;\n\t\t\t}\n\t\t\tif(votes[_address].proposal == Proposal.REMOVE) {\n\t\t\t\temit AlreadyProposalForRemovingAdmin(_address);\n\t\t\t\treturn false;\n\t\t\t}\n\t\t}\n\t\tvotes[_address].proposal = Proposal.ADD;\n\t\trequire (voteFor(_address,msg.sender));\n\t\tvotes[_address].proposer = msg.sender;\n\t\treturn true;\n\t}\n\n\t/**\n    * @dev Function to vote FOR adding new admin. It checks validity of msg.sender with isOwner modifier\n    * msg.sender address should be one of the active admin\n\t* @param _address address, which is to be added as new active admin\n\t* @return Emits event noProposalForAddingAdmin() in case the ADD admin proposal is not started already\n\t* @return Emits event addAdmin() in case the ADD admin is successfully completed\n    * @return A success flag\n    */\n\tfunction voteForAddingAdmin(address _address) public isOwner isInitalised returns (bool) {\n\t\t//require(votes[_address].proposal == Proposal.ADD);\n\t\tif(votes[_address].proposal != Proposal.ADD) {\n\t\t\temit NoProposalForAddingAdmin(_address);\n\t\t\treturn false;\n\t\t}\n\t\trequire(voteFor(_address,msg.sender));\n\t\tif(votes[_address].countFor >= totalActiveCount / 2 + 1) {\n\t\t\towners[_address] = true;\n\t\t\ttotalActiveCount = totalActiveCount.add(1);\n\t\t\tif(!exists[_address])\n\t\t\t\texists[_address] = true;\n\t\t\tadmins.push(_address);\n\t\t\temit AddAdmin(votes[_address].proposer, _address);\n\t\t\trequire(clearVotes(_address));\n\t\t}\n\t\treturn true;\n\t}\n\n\t/**\n    * @dev Function to vote AGAINST adding new admin. It checks validity of msg.sender with isOwner modifier\n    * msg.sender address should be one of the active admin\n\t* @param _address address, which is to be proposed as new active admin\n    * @return Emits event noProposalForAddingAdmin() in case the ADD admin proposal is not started already\n\t* @return A success flag\n    */\n\tfunction voteAgainstAddingAdmin(address _address) public isOwner isInitalised returns (bool) {\n\t\t//require(votes[_address].proposal == Proposal.ADD);\n\t\tif(votes[_address].proposal != Proposal.ADD) {\n\t\t\temit NoProposalForAddingAdmin(_address);\n\t\t\treturn false;\n\t\t}\n\t\trequire(voteAgainst(_address,msg.sender));\n\t\tif(votes[_address].countAgainst >= totalActiveCount / 2 + 1) {\n\t\t\tassert(clearVotes(_address));\n\t\t}\n\t\treturn true;\n\t}\n\n\t/**\n    * @dev Function to propose to remove one of the existing active admin. It checks validity with isOwner modifier\n\t* msg.sender address should be one of the active admin\n\t* System needs min 3 active admins for voting mechanism to function\n    * @param _address address The address which is one of the admin.\n    * @return A success flag\n\t* @return Emits event alreadyProposalForAddingAdmin() in case the ADD admin proposal is started already\n\t* @return Emits event alreadyProposalForRemovingAdmin() in case the REMOVE admin proposal is started already\n\t* @return Emits event minAdminNeeded in case the no of existing active admins are less than 3\n    */\n  \tfunction proposalToRemoveAdmin(address _address) public isOwner isInitalised returns (bool) {\n\t\t\n\t\t//Lets check if the _address is already inActive!\n\t\tif(!isActiveAdmin(_address)){\n\t\t\temit AlreadyInActiveAdmin(_address);\n\t\t\treturn false;\n\t\t}\n\t\t\n\t\tif(totalActiveCount <= 3){\n\t\t\temit MinAdminNeeded(3);\n\t\t\treturn false;\n\t\t}\t\n\t\t//require(votes[_address].proposal == Proposal.NOT_CREATED);\n\t\tif(votes[_address].proposal != Proposal.NOT_CREATED) {\n\t\t\tif(votes[_address].proposal == Proposal.ADD){\n\t\t\t\temit AlreadyProposalForAddingAdmin(_address);\n\t\t\t\treturn false;\n\t\t\t}\n\t\t\tif(votes[_address].proposal == Proposal.REMOVE) {\n\t\t\t\temit AlreadyProposalForRemovingAdmin(_address);\n\t\t\t\treturn false;\n\t\t\t}\n\t\t}\n\t\tvotes[_address].proposal = Proposal.REMOVE;\n\t\trequire (voteFor(_address,msg.sender));\n\t\tvotes[_address].proposer = msg.sender;\n\t\treturn true;\n\t}\n\n\t/**\n    * @dev Function to vote FOR remving one active admin. It checks validity of msg.sender with isOwner modifier\n    * msg.sender address should be one of the active admin\n\t* @param _address address, which is to be proposed to remove as active admin\n    * @return Emits event noProposalForRemovingAdmin() in case the REMOVE admin proposal is not started already\n\t* @return Emits event removeAdmin() in case the REMOVE admin is successfully completed\n\t* @return A success flag\n    */\n\tfunction voteForRemovingAdmin(address _address) public isOwner isInitalised returns (bool) {\n\t\t//require(votes[_address].proposal == Proposal.REMOVE);\n\t\tif(votes[_address].proposal != Proposal.REMOVE){\n\t\t\temit NoProposalForRemovingAdmin(_address);\n\t\t\treturn false;\n\t\t}\n\t\trequire(voteFor(_address,msg.sender));\n\t\tif(votes[_address].countFor >= totalActiveCount / 2 + 1) {\n\t\t\towners[_address] = false;\n\t\t\ttotalActiveCount = totalActiveCount.sub(1);\n\t\t\tif(exists[_address])\n\t\t\t\texists[_address] = false;\n\t\t\temit RemoveAdmin(votes[_address].proposer, _address);\n\t\t\trequire(clearVotes(_address));\n\t\t}\n\t\treturn true;\n\t}\n\n\t/**\n    * @dev Function to vote AGAINST one active admin. It checks validity of msg.sender with isOwner modifier\n    * msg.sender address should be one of the active admin\n\t* @param _address address, which is to be proposed to remove as active admin\n    * @return Emits event noProposalForRemovingAdmin() in case the REMOVE admin proposal is not started already\n\t* @return A success flag\n    */\n\tfunction voteAgainstRemovingAdmin(address _address) public isOwner isInitalised returns (bool) {\n\t\t//require(votes[_address].proposal == Proposal.REMOVE);\n\t\tif(votes[_address].proposal != Proposal.REMOVE) {\n\t\t\temit NoProposalForRemovingAdmin(_address);\n\t\t\treturn false;\n\t\t}\n\t\trequire(voteAgainst(_address,msg.sender));\n\t\tif(votes[_address].countAgainst >= totalActiveCount / 2 + 1) {\n\t\t\tassert(clearVotes(_address));\n\t\t}\n\t\treturn true;\n\t}\n\n\t/**\n    * @dev Function to change vote \n    * msg.sender address should be one of the active admin\n\t* @param _address address, which is to be proposed to remove as active admin\n    * @return A success flag\n    */\n\tfunction changeVote(address _address) public isOwner isInitalised returns (bool) {\n\t\trequire(internalChangeVote(_address));\n\t\tuint32 cfor = votes[_address].countFor;\n\t\tuint32 cagainst = votes[_address].countAgainst;\n\t\tif(votes[_address].vote[msg.sender] == Decision.FOR){\n\t\t\tif(cagainst >= totalActiveCount / 2 + 1){\n\t\t\t\trequire(clearVotes(_address));\n\t\t\t}\n\t\t}\n\t\telse{\n\t\t\tif(cfor >= totalActiveCount / 2 + 1){\n\t\t\t\tif(votes[_address].proposal == Proposal.ADD){\n\t\t\t\t\towners[_address] = true;\n\t\t\t\t}else{\n\t\t\t\t\towners[_address] = false;\n\t\t\t\t}\n\t\t\t\trequire(clearVotes(_address));\n\t\t\t}\n\t\t}\n\t\treturn true;\n\t}\n\n\t/**\n    * @dev Function to check whether _address is active admin or not\n\t* @param _address address\n\t* @return returns bool as active or non-active admin/owner\n    */\n\tfunction isActiveAdmin(address _address) public view returns (bool) {\n\t    return owners[_address];\n\t}\n\n\t/**\n    * @dev Function to return list of all admins\n\t* @return returns the list\n    */\n\tfunction getAllAdmins() public view returns (address[]) {\n\t\treturn admins;\n\t}\n\n\t/**\n    * @dev Function to check current voting status. It checks validity of msg.sender with isOwner modifier\n\t* @param _address address\n\t* @return returns the bool\n    */\n\tfunction checkVotes(address _address) public view isOwner returns (uint32[2]) {\n\t\treturn internalCheckVotes(_address);\n\t}\n\n\t/**\n    * @dev Function to check current proposal for the _address. It checks validity of msg.sender with isOwner modifier\n\t* @param _address address\n\t* @return returns the array of no of votes FOR and AGAINST\n    */\n\tfunction checkProposal(address _address) public view isOwner returns (string) {\n\t\treturn internalCheckProposal(_address);\n\t}\n\n\t/**\n    * @dev Function to get who all have voted for current proposal. It checks validity of msg.sender with isOwner modifier\n\t* @return returns the array of no of votes FOR and AGAINST\n    */\n\tfunction getVoted(address _address) public view isOwner returns (address[]) {\n\t    return internalGetVoted(_address);\n\t}\n\t\n\t/**\n    * @dev Function to get total active admin\n\t* @return returns the number\n    */\n\tfunction getTotalActiveCount() public view returns (uint32) {\n\t    return totalActiveCount;\n\t}\n\n\t/**\n    * @dev Function to clear votes/proposal for the given address\n\t* @param _address address of the admin\n\t* @return returns the status true/false\n    */\n\tfunction clearProposal(address _address) public isOwner isInitalised returns (bool) {\n\t    if(_address==address(0))\n\t\t\treturn false;\n\t\treturn clearVotes(_address);\n\t}\n\n\t/**\n    * @dev Function to retrieve the proposer for the given address\n\t* @param _address address of the admin\n\t* @return returns the address of the proposer\n    */\n\tfunction getProposer(address _address) public view isOwner isInitalised returns (address) {\n\t    if(_address==address(0))\n\t\t\treturn address(0);\n\t\treturn votes[_address].proposer;\n\t}\n}\n",
  "sourcePath": "/Users/rahulgolash/Rahul/Ledgerium/CoreLedgerium/governanceApp/contracts/AdminValidatorSet.sol",
  "compiler": {
    "name": "solc",
    "version": "0.4.24+commit.e67f0147.Emscripten.clang"
  },
  "schemaVersion": "2.0.1",
  "updatedAt": "2018-11-27T08:45:40.948Z"
}