{
  "contractName": "Greeter",
  "abi": [
    {
      "constant": true,
      "inputs": [],
      "name": "myNumber",
      "outputs": [
        {
          "name": "",
          "type": "uint32"
        }
      ],
      "payable": false,
      "stateMutability": "view",
      "type": "function"
    },
    {
      "constant": false,
      "inputs": [],
      "name": "kill",
      "outputs": [],
      "payable": false,
      "stateMutability": "nonpayable",
      "type": "function"
    },
    {
      "constant": true,
      "inputs": [],
      "name": "owner",
      "outputs": [
        {
          "name": "",
          "type": "address"
        }
      ],
      "payable": false,
      "stateMutability": "view",
      "type": "function"
    },
    {
      "constant": true,
      "inputs": [],
      "name": "greeting",
      "outputs": [
        {
          "name": "",
          "type": "string"
        }
      ],
      "payable": false,
      "stateMutability": "view",
      "type": "function"
    },
    {
      "inputs": [
        {
          "name": "_greeting",
          "type": "string"
        }
      ],
      "payable": false,
      "stateMutability": "nonpayable",
      "type": "constructor"
    },
    {
      "constant": true,
      "inputs": [],
      "name": "greet",
      "outputs": [
        {
          "name": "",
          "type": "string"
        }
      ],
      "payable": false,
      "stateMutability": "view",
      "type": "function"
    },
    {
      "constant": true,
      "inputs": [],
      "name": "getOwner",
      "outputs": [
        {
          "name": "",
          "type": "address"
        }
      ],
      "payable": false,
      "stateMutability": "view",
      "type": "function"
    },
    {
      "constant": false,
      "inputs": [
        {
          "name": "value",
          "type": "uint32"
        }
      ],
      "name": "setMyNumber",
      "outputs": [],
      "payable": false,
      "stateMutability": "nonpayable",
      "type": "function"
    },
    {
      "constant": true,
      "inputs": [],
      "name": "getMyNumber",
      "outputs": [
        {
          "name": "",
          "type": "uint32"
        }
      ],
      "payable": false,
      "stateMutability": "view",
      "type": "function"
    }
  ],
  "bytecode": "0x608060405234801561001057600080fd5b5060405161071e38038061071e83398101806040528101908080518201929190505050336000806101000a81548173ffffffffffffffffffffffffffffffffffffffff021916908373ffffffffffffffffffffffffffffffffffffffff16021790555080600190805190602001906100899291906100b2565b506000600260006101000a81548163ffffffff021916908363ffffffff16021790555050610157565b828054600181600116156101000203166002900490600052602060002090601f016020900481019282601f106100f357805160ff1916838001178555610121565b82800160010185558215610121579182015b82811115610120578251825591602001919060010190610105565b5b50905061012e9190610132565b5090565b61015491905b80821115610150576000816000905550600101610138565b5090565b90565b6105b8806101666000396000f30060806040526004361061008e576000357c0100000000000000000000000000000000000000000000000000000000900463ffffffff16806323fd0e401461009357806341c0e1b5146100ca5780637125a42c146100e1578063893d20e8146101145780638da5cb5b1461016b578063b32e737f146101c2578063cfae3217146101f9578063ef690cc014610289575b600080fd5b34801561009f57600080fd5b506100a8610319565b604051808263ffffffff1663ffffffff16815260200191505060405180910390f35b3480156100d657600080fd5b506100df61032f565b005b3480156100ed57600080fd5b50610112600480360381019080803563ffffffff1690602001909291905050506103c0565b005b34801561012057600080fd5b506101296103e4565b604051808273ffffffffffffffffffffffffffffffffffffffff1673ffffffffffffffffffffffffffffffffffffffff16815260200191505060405180910390f35b34801561017757600080fd5b5061018061040d565b604051808273ffffffffffffffffffffffffffffffffffffffff1673ffffffffffffffffffffffffffffffffffffffff16815260200191505060405180910390f35b3480156101ce57600080fd5b506101d7610432565b604051808263ffffffff1663ffffffff16815260200191505060405180910390f35b34801561020557600080fd5b5061020e61044c565b6040518080602001828103825283818151815260200191508051906020019080838360005b8381101561024e578082015181840152602081019050610233565b50505050905090810190601f16801561027b5780820380516001836020036101000a031916815260200191505b509250505060405180910390f35b34801561029557600080fd5b5061029e6104ee565b6040518080602001828103825283818151815260200191508051906020019080838360005b838110156102de5780820151818401526020810190506102c3565b50505050905090810190601f16801561030b5780820380516001836020036101000a031916815260200191505b509250505060405180910390f35b600260009054906101000a900463ffffffff1681565b6000809054906101000a900473ffffffffffffffffffffffffffffffffffffffff1673ffffffffffffffffffffffffffffffffffffffff163373ffffffffffffffffffffffffffffffffffffffff1614156103be576000809054906101000a900473ffffffffffffffffffffffffffffffffffffffff1673ffffffffffffffffffffffffffffffffffffffff16ff5b565b80600260006101000a81548163ffffffff021916908363ffffffff16021790555050565b60008060009054906101000a900473ffffffffffffffffffffffffffffffffffffffff16905090565b6000809054906101000a900473ffffffffffffffffffffffffffffffffffffffff1681565b6000600260009054906101000a900463ffffffff16905090565b606060018054600181600116156101000203166002900480601f0160208091040260200160405190810160405280929190818152602001828054600181600116156101000203166002900480156104e45780601f106104b9576101008083540402835291602001916104e4565b820191906000526020600020905b8154815290600101906020018083116104c757829003601f168201915b5050505050905090565b60018054600181600116156101000203166002900480601f0160208091040260200160405190810160405280929190818152602001828054600181600116156101000203166002900480156105845780601f1061055957610100808354040283529160200191610584565b820191906000526020600020905b81548152906001019060200180831161056757829003601f168201915b5050505050815600a165627a7a72305820934b9deac8b331ce8b7eac2c753a3d4a87d7a71ccb945592d2c2ab2dc9c34b200029",
  "source": "pragma solidity 0.4.24;\n\ncontract Mortal {\n    /* Define variable owner of the type address */\n    address public owner;\n\n    /* This function is executed at initialization and sets the owner of the contract */\n    constructor() public { owner = msg.sender; }\n\n    /* Function to recover the funds on the contract */\n    function kill() public { if (msg.sender == owner) selfdestruct(owner); }\n}\n\ncontract Greeter is Mortal {\n    /* Define variable greeting of the type string */\n    string public greeting;\n    uint32 public myNumber;\n\n    /* This runs when the contract is executed */\n    constructor(string _greeting) public {\n        greeting = _greeting;\n        myNumber = 0;\n    }\n\n    /* Main function */\n    function greet() public view returns (string) {\n        return greeting;\n    }\n\n    /* Main function */\n    function getOwner() public view returns (address) {\n        return owner;\n    }\n\n    /* Main function */\n    function setMyNumber(uint32 value) public {\n        myNumber = value;\n    }\n\n    /* Main function */\n    function getMyNumber() public view returns (uint32) {\n        return myNumber;\n    }\n}\n",
  "sourcePath": "/Users/rahulgolash/Rahul/Ledgerium/CoreLedgerium/goverananceApp/contracts/Greeter.sol",
  "compiler": {
    "name": "solc",
    "version": "0.4.24+commit.e67f0147.Emscripten.clang"
  },
  "schemaVersion": "2.0.0",
  "updatedAt": "2018-09-28T00:00:56.793Z"
}