{
  "contractName": "Mortal",
  "abi": [
    {
      "constant": true,
      "inputs": [],
      "name": "owner",
      "outputs": [
        {
          "name": "",
          "type": "address"
        }
      ],
      "payable": false,
      "stateMutability": "view",
      "type": "function"
    },
    {
      "inputs": [],
      "payable": false,
      "stateMutability": "nonpayable",
      "type": "constructor"
    },
    {
      "constant": false,
      "inputs": [],
      "name": "kill",
      "outputs": [],
      "payable": false,
      "stateMutability": "nonpayable",
      "type": "function"
    }
  ],
  "bytecode": "0x608060405234801561001057600080fd5b50336000806101000a81548173ffffffffffffffffffffffffffffffffffffffff021916908373ffffffffffffffffffffffffffffffffffffffff1602179055506101a1806100606000396000f30060806040526004361061004c576000357c0100000000000000000000000000000000000000000000000000000000900463ffffffff16806341c0e1b5146100515780638da5cb5b14610068575b600080fd5b34801561005d57600080fd5b506100666100bf565b005b34801561007457600080fd5b5061007d610150565b604051808273ffffffffffffffffffffffffffffffffffffffff1673ffffffffffffffffffffffffffffffffffffffff16815260200191505060405180910390f35b6000809054906101000a900473ffffffffffffffffffffffffffffffffffffffff1673ffffffffffffffffffffffffffffffffffffffff163373ffffffffffffffffffffffffffffffffffffffff16141561014e576000809054906101000a900473ffffffffffffffffffffffffffffffffffffffff1673ffffffffffffffffffffffffffffffffffffffff16ff5b565b6000809054906101000a900473ffffffffffffffffffffffffffffffffffffffff16815600a165627a7a7230582074d79a3c63bf33c8c1fccbed64e123f86aafb9ee214e9c0290b3f0b279f4ac7e0029",
  "source": "pragma solidity 0.4.24;\ncontract Mortal {\n    /* Define variable owner of the type address */\n    address public owner;\n\n    /* This function is executed at initialization and sets the owner of the contract */\n    constructor() public { owner = msg.sender; }\n\n    /* Function to recover the funds on the contract */\n    function kill() public { if (msg.sender == owner) selfdestruct(owner); }\n}\n\ncontract Greeter is Mortal {\n    /* Define variable greeting of the type string */\n    string public greeting;\n    uint32 public myNumber;\n\n    /* This runs when the contract is executed */\n    constructor(string _greeting) public {\n        greeting = _greeting;\n        myNumber = 0;\n    }\n\n    /* Main function */\n    function greet() public view returns (string) {\n        return greeting;\n    }\n\n    /* Main function */\n    function getOwner() public view returns (address) {\n        return owner;\n    }\n\n    /* Main function */\n    function setMyNumber(uint32 value) public {\n        myNumber = value;\n    }\n\n    /* Main function */\n    function getMyNumber() public view returns (uint32) {\n        return myNumber;\n    }\n}\n",
  "sourcePath": "/Users/rahulgolash/Rahul/Ledgerium/CoreLedgerium/goverananceApp/contracts/Greeter.sol",
  "compiler": {
    "name": "solc",
    "version": "0.4.24+commit.e67f0147.Emscripten.clang"
  },
  "schemaVersion": "2.0.0",
  "updatedAt": "2018-09-27T04:05:58.177Z"
}