{
  "contractName": "SimpleValidatorSet",
  "abi": [
    {
      "anonymous": false,
      "inputs": [
        {
          "indexed": true,
          "name": "proposer",
          "type": "address"
        },
        {
          "indexed": true,
          "name": "validator",
          "type": "address"
        }
      ],
      "name": "AddValidator",
      "type": "event"
    },
    {
      "anonymous": false,
      "inputs": [
        {
          "indexed": true,
          "name": "proposer",
          "type": "address"
        },
        {
          "indexed": true,
          "name": "validator",
          "type": "address"
        }
      ],
      "name": "RemoveValidator",
      "type": "event"
    },
    {
      "anonymous": false,
      "inputs": [
        {
          "indexed": true,
          "name": "_address",
          "type": "address"
        }
      ],
      "name": "AlreadyProposalForAddingValidator",
      "type": "event"
    },
    {
      "anonymous": false,
      "inputs": [
        {
          "indexed": true,
          "name": "_address",
          "type": "address"
        }
      ],
      "name": "AlreadyProposalForRemovingValidator",
      "type": "event"
    },
    {
      "anonymous": false,
      "inputs": [
        {
          "indexed": true,
          "name": "_address",
          "type": "address"
        }
      ],
      "name": "NoProposalForAddingValidator",
      "type": "event"
    },
    {
      "anonymous": false,
      "inputs": [
        {
          "indexed": true,
          "name": "_address",
          "type": "address"
        }
      ],
      "name": "NoProposalForRemovingValidator",
      "type": "event"
    },
    {
      "anonymous": false,
      "inputs": [
        {
          "indexed": true,
          "name": "_address",
          "type": "address"
        }
      ],
      "name": "AlreadyActiveValidator",
      "type": "event"
    },
    {
      "anonymous": false,
      "inputs": [
        {
          "indexed": true,
          "name": "_address",
          "type": "address"
        }
      ],
      "name": "AlreadyInActiveValidator",
      "type": "event"
    },
    {
      "anonymous": false,
      "inputs": [
        {
          "indexed": false,
          "name": "minNoOfValidator",
          "type": "uint8"
        }
      ],
      "name": "MinValidatorNeeded",
      "type": "event"
    },
    {
      "anonymous": false,
      "inputs": [
        {
          "indexed": true,
          "name": "admin",
          "type": "address"
        },
        {
          "indexed": true,
          "name": "voted",
          "type": "address"
        }
      ],
      "name": "VotedForAdd",
      "type": "event"
    },
    {
      "anonymous": false,
      "inputs": [
        {
          "indexed": true,
          "name": "admin",
          "type": "address"
        },
        {
          "indexed": true,
          "name": "voted",
          "type": "address"
        }
      ],
      "name": "VotedForRemove",
      "type": "event"
    },
    {
      "anonymous": false,
      "inputs": [
        {
          "indexed": true,
          "name": "admin",
          "type": "address"
        },
        {
          "indexed": true,
          "name": "voted",
          "type": "address"
        }
      ],
      "name": "VotedAgainstAdd",
      "type": "event"
    },
    {
      "anonymous": false,
      "inputs": [
        {
          "indexed": true,
          "name": "admin",
          "type": "address"
        },
        {
          "indexed": true,
          "name": "voted",
          "type": "address"
        }
      ],
      "name": "VotedAgainstRemove",
      "type": "event"
    },
    {
      "constant": false,
      "inputs": [],
      "name": "init",
      "outputs": [],
      "payable": false,
      "stateMutability": "nonpayable",
      "type": "function"
    },
    {
      "constant": false,
      "inputs": [
        {
          "name": "_address",
          "type": "address"
        }
      ],
      "name": "proposalToAddValidator",
      "outputs": [
        {
          "name": "",
          "type": "bool"
        }
      ],
      "payable": false,
      "stateMutability": "nonpayable",
      "type": "function"
    },
    {
      "constant": false,
      "inputs": [
        {
          "name": "_address",
          "type": "address"
        }
      ],
      "name": "voteForAddingValidator",
      "outputs": [
        {
          "name": "",
          "type": "bool"
        }
      ],
      "payable": false,
      "stateMutability": "nonpayable",
      "type": "function"
    },
    {
      "constant": false,
      "inputs": [
        {
          "name": "_address",
          "type": "address"
        }
      ],
      "name": "voteAgainstAddingValidator",
      "outputs": [
        {
          "name": "",
          "type": "bool"
        }
      ],
      "payable": false,
      "stateMutability": "nonpayable",
      "type": "function"
    },
    {
      "constant": false,
      "inputs": [
        {
          "name": "_address",
          "type": "address"
        }
      ],
      "name": "proposalToRemoveValidator",
      "outputs": [
        {
          "name": "",
          "type": "bool"
        }
      ],
      "payable": false,
      "stateMutability": "nonpayable",
      "type": "function"
    },
    {
      "constant": false,
      "inputs": [
        {
          "name": "_address",
          "type": "address"
        }
      ],
      "name": "voteForRemovingValidator",
      "outputs": [
        {
          "name": "",
          "type": "bool"
        }
      ],
      "payable": false,
      "stateMutability": "nonpayable",
      "type": "function"
    },
    {
      "constant": false,
      "inputs": [
        {
          "name": "_address",
          "type": "address"
        }
      ],
      "name": "voteAgainstRemovingValidator",
      "outputs": [
        {
          "name": "",
          "type": "bool"
        }
      ],
      "payable": false,
      "stateMutability": "nonpayable",
      "type": "function"
    },
    {
      "constant": true,
      "inputs": [
        {
          "name": "_address",
          "type": "address"
        }
      ],
      "name": "checkVotes",
      "outputs": [
        {
          "name": "",
          "type": "uint32[2]"
        }
      ],
      "payable": false,
      "stateMutability": "view",
      "type": "function"
    },
    {
      "constant": true,
      "inputs": [
        {
          "name": "_address",
          "type": "address"
        }
      ],
      "name": "checkProposal",
      "outputs": [
        {
          "name": "",
          "type": "string"
        }
      ],
      "payable": false,
      "stateMutability": "view",
      "type": "function"
    },
    {
      "constant": true,
      "inputs": [],
      "name": "getValidatorsForAdmin",
      "outputs": [
        {
          "name": "",
          "type": "address[]"
        }
      ],
      "payable": false,
      "stateMutability": "view",
      "type": "function"
    },
    {
      "constant": true,
      "inputs": [
        {
          "name": "_address",
          "type": "address"
        }
      ],
      "name": "isActiveValidator",
      "outputs": [
        {
          "name": "",
          "type": "bool"
        }
      ],
      "payable": false,
      "stateMutability": "view",
      "type": "function"
    },
    {
      "constant": true,
      "inputs": [],
      "name": "getAllValidators",
      "outputs": [
        {
          "name": "",
          "type": "address[]"
        }
      ],
      "payable": false,
      "stateMutability": "view",
      "type": "function"
    },
    {
      "constant": true,
      "inputs": [],
      "name": "getValidatorsCount",
      "outputs": [
        {
          "name": "",
          "type": "uint32"
        }
      ],
      "payable": false,
      "stateMutability": "view",
      "type": "function"
    },
    {
      "constant": true,
      "inputs": [],
      "name": "getActiveValidatorsCount",
      "outputs": [
        {
          "name": "",
          "type": "uint32"
        }
      ],
      "payable": false,
      "stateMutability": "view",
      "type": "function"
    },
    {
      "constant": false,
      "inputs": [
        {
          "name": "_address",
          "type": "address"
        }
      ],
      "name": "clearProposal",
      "outputs": [
        {
          "name": "",
          "type": "bool"
        }
      ],
      "payable": false,
      "stateMutability": "nonpayable",
      "type": "function"
    },
    {
      "constant": true,
      "inputs": [
        {
          "name": "_address",
          "type": "address"
        }
      ],
      "name": "getProposer",
      "outputs": [
        {
          "name": "",
          "type": "address"
        }
      ],
      "payable": false,
      "stateMutability": "view",
      "type": "function"
    }
  ],
  "bytecode": "0x608060405234801561001057600080fd5b50613b1f806100206000396000f3006080604052600436106100e6576000357c0100000000000000000000000000000000000000000000000000000000900463ffffffff16806312254fc4146100eb57806327498240146101465780632c9f55ed1461017d57806331147c301461023957806333ca17f81461027057806340550a1c146102cb5780635caea9cb14610326578063851a974c146103a55780638df1cab01461042857806390d6641b14610483578063b6e7d332146104de578063c162bc0314610539578063dd31863c14610594578063de0473d414610600578063e1c7392a1461065b578063f3513a3714610672575b600080fd5b3480156100f757600080fd5b5061012c600480360381019080803573ffffffffffffffffffffffffffffffffffffffff1690602001909291905050506106de565b604051808215151515815260200191505060405180910390f35b34801561015257600080fd5b5061015b610af4565b604051808263ffffffff1663ffffffff16815260200191505060405180910390f35b34801561018957600080fd5b506101be600480360381019080803573ffffffffffffffffffffffffffffffffffffffff169060200190929190505050610b69565b6040518080602001828103825283818151815260200191508051906020019080838360005b838110156101fe5780820151818401526020810190506101e3565b50505050905090810190601f16801561022b5780820380516001836020036101000a031916815260200191505b509250505060405180910390f35b34801561024557600080fd5b5061024e610bd6565b604051808263ffffffff1663ffffffff16815260200191505060405180910390f35b34801561027c57600080fd5b506102b1600480360381019080803573ffffffffffffffffffffffffffffffffffffffff169060200190929190505050610c4b565b604051808215151515815260200191505060405180910390f35b3480156102d757600080fd5b5061030c600480360381019080803573ffffffffffffffffffffffffffffffffffffffff169060200190929190505050610e35565b604051808215151515815260200191505060405180910390f35b34801561033257600080fd5b50610367600480360381019080803573ffffffffffffffffffffffffffffffffffffffff169060200190929190505050610e8e565b6040518082600260200280838360005b83811015610392578082015181840152602081019050610377565b5050505090500191505060405180910390f35b3480156103b157600080fd5b506103e6600480360381019080803573ffffffffffffffffffffffffffffffffffffffff169060200190929190505050610f01565b604051808273ffffffffffffffffffffffffffffffffffffffff1673ffffffffffffffffffffffffffffffffffffffff16815260200191505060405180910390f35b34801561043457600080fd5b50610469600480360381019080803573ffffffffffffffffffffffffffffffffffffffff16906020019092919050505061101c565b604051808215151515815260200191505060405180910390f35b34801561048f57600080fd5b506104c4600480360381019080803573ffffffffffffffffffffffffffffffffffffffff169060200190929190505050611473565b604051808215151515815260200191505060405180910390f35b3480156104ea57600080fd5b5061051f600480360381019080803573ffffffffffffffffffffffffffffffffffffffff169060200190929190505050611a27565b604051808215151515815260200191505060405180910390f35b34801561054557600080fd5b5061057a600480360381019080803573ffffffffffffffffffffffffffffffffffffffff169060200190929190505050611dda565b604051808215151515815260200191505060405180910390f35b3480156105a057600080fd5b506105a9611e9c565b6040518080602001828103825283818151815260200191508051906020019060200280838360005b838110156105ec5780820151818401526020810190506105d1565b505050509050019250505060405180910390f35b34801561060c57600080fd5b50610641600480360381019080803573ffffffffffffffffffffffffffffffffffffffff16906020019092919050505061206a565b604051808215151515815260200191505060405180910390f35b34801561066757600080fd5b50610670612255565b005b34801561067e57600080fd5b506106876129bf565b6040518080602001828103825283818151815260200191508051906020019060200280838360005b838110156106ca5780820151818401526020810190506106af565b505050509050019250505060405180910390f35b6000600260003373ffffffffffffffffffffffffffffffffffffffff1673ffffffffffffffffffffffffffffffffffffffff16815260200190815260200160002060000160009054906101000a900460ff16151561073b57600080fd5b600660009054906101000a900460ff1615610aef5761075982610e35565b15156107ab578173ffffffffffffffffffffffffffffffffffffffff167ff09e7c548195a69304659a28ee14522d288e8ab1f0356f1bd1a2ba1a60a2a72560405160405180910390a260009050610aee565b6003600660059054906101000a900463ffffffff1663ffffffff16111515610811577ff11fc1218dcdb5bc0fda44eeb867f57ab2961264b2ef688c15a8182de0d3c0f06003604051808260ff16815260200191505060405180910390a160009050610aee565b6000600281111561081e57fe5b6000808473ffffffffffffffffffffffffffffffffffffffff1673ffffffffffffffffffffffffffffffffffffffff16815260200190815260200160002060000160009054906101000a900460ff16600281111561087857fe5b1415156109f1576001600281111561088c57fe5b6000808473ffffffffffffffffffffffffffffffffffffffff1673ffffffffffffffffffffffffffffffffffffffff16815260200190815260200160002060000160009054906101000a900460ff1660028111156108e657fe5b1415610938578173ffffffffffffffffffffffffffffffffffffffff167f0a1cbb2458f0dbc6da57bf792e9f5223622e83255de68e3533279779d45dce7b60405160405180910390a260009050610aee565b60028081111561094457fe5b6000808473ffffffffffffffffffffffffffffffffffffffff1673ffffffffffffffffffffffffffffffffffffffff16815260200190815260200160002060000160009054906101000a900460ff16600281111561099e57fe5b14156109f0578173ffffffffffffffffffffffffffffffffffffffff167fc2059d980ca667e0446af840831c5fcb1185ca1f2c05681e59da84d8d44331c760405160405180910390a260009050610aee565b5b60026000808473ffffffffffffffffffffffffffffffffffffffff1673ffffffffffffffffffffffffffffffffffffffff16815260200190815260200160002060000160006101000a81548160ff02191690836002811115610a4f57fe5b0217905550610a5e8233612aa8565b1515610a6957600080fd5b336000808473ffffffffffffffffffffffffffffffffffffffff1673ffffffffffffffffffffffffffffffffffffffff16815260200190815260200160002060000160016101000a81548173ffffffffffffffffffffffffffffffffffffffff021916908373ffffffffffffffffffffffffffffffffffffffff160217905550600190505b5b919050565b6000600260003373ffffffffffffffffffffffffffffffffffffffff1673ffffffffffffffffffffffffffffffffffffffff16815260200190815260200160002060000160009054906101000a900460ff161515610b5157600080fd5b600660019054906101000a900463ffffffff16905090565b6060600260003373ffffffffffffffffffffffffffffffffffffffff1673ffffffffffffffffffffffffffffffffffffffff16815260200190815260200160002060000160009054906101000a900460ff161515610bc657600080fd5b610bcf82612f0c565b9050919050565b6000600260003373ffffffffffffffffffffffffffffffffffffffff1673ffffffffffffffffffffffffffffffffffffffff16815260200190815260200160002060000160009054906101000a900460ff161515610c3357600080fd5b600660059054906101000a900463ffffffff16905090565b6000600260003373ffffffffffffffffffffffffffffffffffffffff1673ffffffffffffffffffffffffffffffffffffffff16815260200190815260200160002060000160009054906101000a900460ff161515610ca857600080fd5b600660009054906101000a900460ff1615610e3057600280811115610cc957fe5b6000808473ffffffffffffffffffffffffffffffffffffffff1673ffffffffffffffffffffffffffffffffffffffff16815260200190815260200160002060000160009054906101000a900460ff166002811115610d2357fe5b141515610d76578173ffffffffffffffffffffffffffffffffffffffff167f438ce0fc63bab2dbce27a5cd9268d6f74909cc0e2b96c1da89d308d25afa90b860405160405180910390a260009050610e2f565b610d80823361309f565b1515610d8b57600080fd5b60016002600660059054906101000a900463ffffffff1663ffffffff16811515610db157fe5b040163ffffffff166000808473ffffffffffffffffffffffffffffffffffffffff1673ffffffffffffffffffffffffffffffffffffffff16815260200190815260200160002060000160199054906101000a900463ffffffff1663ffffffff16101515610e2a57610e2182613503565b1515610e2957fe5b5b600190505b5b919050565b6000600260008373ffffffffffffffffffffffffffffffffffffffff1673ffffffffffffffffffffffffffffffffffffffff16815260200190815260200160002060000160009054906101000a900460ff169050919050565b610e96613a04565b600260003373ffffffffffffffffffffffffffffffffffffffff1673ffffffffffffffffffffffffffffffffffffffff16815260200190815260200160002060000160009054906101000a900460ff161515610ef157600080fd5b610efa826138ac565b9050919050565b6000600260003373ffffffffffffffffffffffffffffffffffffffff1673ffffffffffffffffffffffffffffffffffffffff16815260200190815260200160002060000160009054906101000a900460ff161515610f5e57600080fd5b600660009054906101000a900460ff161561101757600073ffffffffffffffffffffffffffffffffffffffff168273ffffffffffffffffffffffffffffffffffffffff161415610fb15760009050611016565b6000808373ffffffffffffffffffffffffffffffffffffffff1673ffffffffffffffffffffffffffffffffffffffff16815260200190815260200160002060000160019054906101000a900473ffffffffffffffffffffffffffffffffffffffff1690505b5b919050565b6000600160009054906101000a900473ffffffffffffffffffffffffffffffffffffffff1673ffffffffffffffffffffffffffffffffffffffff1663a06a2060336040518263ffffffff167c0100000000000000000000000000000000000000000000000000000000028152600401808273ffffffffffffffffffffffffffffffffffffffff1673ffffffffffffffffffffffffffffffffffffffff168152602001915050602060405180830381600087803b1580156110db57600080fd5b505af11580156110ef573d6000803e3d6000fd5b505050506040513d602081101561110557600080fd5b8101908080519060200190929190505050151561112157600080fd5b600660009054906101000a900460ff161561146e5761113f82610e35565b15611190578173ffffffffffffffffffffffffffffffffffffffff167f163c7ee42795efa28e56de979b74d198b9d5794dea168e97743cf626cd406dd460405160405180910390a26000905061146d565b6000600281111561119d57fe5b6000808473ffffffffffffffffffffffffffffffffffffffff1673ffffffffffffffffffffffffffffffffffffffff16815260200190815260200160002060000160009054906101000a900460ff1660028111156111f757fe5b141515611370576001600281111561120b57fe5b6000808473ffffffffffffffffffffffffffffffffffffffff1673ffffffffffffffffffffffffffffffffffffffff16815260200190815260200160002060000160009054906101000a900460ff16600281111561126557fe5b14156112b7578173ffffffffffffffffffffffffffffffffffffffff167f0a1cbb2458f0dbc6da57bf792e9f5223622e83255de68e3533279779d45dce7b60405160405180910390a26000905061146d565b6002808111156112c357fe5b6000808473ffffffffffffffffffffffffffffffffffffffff1673ffffffffffffffffffffffffffffffffffffffff16815260200190815260200160002060000160009054906101000a900460ff16600281111561131d57fe5b141561136f578173ffffffffffffffffffffffffffffffffffffffff167fc2059d980ca667e0446af840831c5fcb1185ca1f2c05681e59da84d8d44331c760405160405180910390a26000905061146d565b5b60016000808473ffffffffffffffffffffffffffffffffffffffff1673ffffffffffffffffffffffffffffffffffffffff16815260200190815260200160002060000160006101000a81548160ff021916908360028111156113ce57fe5b02179055506113dd8233612aa8565b15156113e857600080fd5b336000808473ffffffffffffffffffffffffffffffffffffffff1673ffffffffffffffffffffffffffffffffffffffff16815260200190815260200160002060000160016101000a81548173ffffffffffffffffffffffffffffffffffffffff021916908373ffffffffffffffffffffffffffffffffffffffff160217905550600190505b5b919050565b6000600260003373ffffffffffffffffffffffffffffffffffffffff1673ffffffffffffffffffffffffffffffffffffffff16815260200190815260200160002060000160009054906101000a900460ff1615156114d057600080fd5b600660009054906101000a900460ff1615611a2257600160028111156114f257fe5b6000808473ffffffffffffffffffffffffffffffffffffffff1673ffffffffffffffffffffffffffffffffffffffff16815260200190815260200160002060000160009054906101000a900460ff16600281111561154c57fe5b14151561159f578173ffffffffffffffffffffffffffffffffffffffff167fb175d253b8b3e153a3bc1037cd0a88ba518e6b0a2ce8f078ea6e6fefbf72cca860405160405180910390a260009050611a21565b6115a98233612aa8565b15156115b457600080fd5b60016002600660059054906101000a900463ffffffff1663ffffffff168115156115da57fe5b040163ffffffff166000808473ffffffffffffffffffffffffffffffffffffffff1673ffffffffffffffffffffffffffffffffffffffff16815260200190815260200160002060000160159054906101000a900463ffffffff1663ffffffff16101515611a1c57600560008373ffffffffffffffffffffffffffffffffffffffff1673ffffffffffffffffffffffffffffffffffffffff16815260200190815260200160002060009054906101000a900460ff1615156117ea57600360003373ffffffffffffffffffffffffffffffffffffffff1673ffffffffffffffffffffffffffffffffffffffff1681526020019081526020016000208290806001815401808255809150509060018203906000526020600020016000909192909190916101000a81548173ffffffffffffffffffffffffffffffffffffffff021916908373ffffffffffffffffffffffffffffffffffffffff1602179055505060048290806001815401808255809150509060018203906000526020600020016000909192909190916101000a81548173ffffffffffffffffffffffffffffffffffffffff021916908373ffffffffffffffffffffffffffffffffffffffff160217905550506117c96001600660019054906101000a900463ffffffff1663ffffffff166139b590919063ffffffff16565b600660016101000a81548163ffffffff021916908363ffffffff1602179055505b6001600560008473ffffffffffffffffffffffffffffffffffffffff1673ffffffffffffffffffffffffffffffffffffffff16815260200190815260200160002060006101000a81548160ff0219169083151502179055506001600260008473ffffffffffffffffffffffffffffffffffffffff1673ffffffffffffffffffffffffffffffffffffffff16815260200190815260200160002060000160006101000a81548160ff02191690831515021790555060028060008473ffffffffffffffffffffffffffffffffffffffff1673ffffffffffffffffffffffffffffffffffffffff16815260200190815260200160002060000160016101000a81548160ff021916908360028111156118fb57fe5b021790555061192c6001600660059054906101000a900463ffffffff1663ffffffff166139b590919063ffffffff16565b600660056101000a81548163ffffffff021916908363ffffffff1602179055508173ffffffffffffffffffffffffffffffffffffffff166000808473ffffffffffffffffffffffffffffffffffffffff1673ffffffffffffffffffffffffffffffffffffffff16815260200190815260200160002060000160019054906101000a900473ffffffffffffffffffffffffffffffffffffffff1673ffffffffffffffffffffffffffffffffffffffff167f1ab57f2e2a6e4069160cc6501d8012d93ed435770b1ed646f82482a2f7234ff460405160405180910390a3611a1082613503565b1515611a1b57600080fd5b5b600190505b5b919050565b6000600260003373ffffffffffffffffffffffffffffffffffffffff1673ffffffffffffffffffffffffffffffffffffffff16815260200190815260200160002060000160009054906101000a900460ff161515611a8457600080fd5b600660009054906101000a900460ff1615611dd557600280811115611aa557fe5b6000808473ffffffffffffffffffffffffffffffffffffffff1673ffffffffffffffffffffffffffffffffffffffff16815260200190815260200160002060000160009054906101000a900460ff166002811115611aff57fe5b141515611b52578173ffffffffffffffffffffffffffffffffffffffff167f438ce0fc63bab2dbce27a5cd9268d6f74909cc0e2b96c1da89d308d25afa90b860405160405180910390a260009050611dd4565b611b5c8233612aa8565b1515611b6757600080fd5b60016002600660059054906101000a900463ffffffff1663ffffffff16811515611b8d57fe5b040163ffffffff166000808473ffffffffffffffffffffffffffffffffffffffff1673ffffffffffffffffffffffffffffffffffffffff16815260200190815260200160002060000160159054906101000a900463ffffffff1663ffffffff16101515611dcf576000600260008473ffffffffffffffffffffffffffffffffffffffff1673ffffffffffffffffffffffffffffffffffffffff16815260200190815260200160002060000160006101000a81548160ff0219169083151502179055506000600260008473ffffffffffffffffffffffffffffffffffffffff1673ffffffffffffffffffffffffffffffffffffffff16815260200190815260200160002060000160016101000a81548160ff02191690836002811115611cae57fe5b0217905550611cdf6001600660059054906101000a900463ffffffff1663ffffffff166139df90919063ffffffff16565b600660056101000a81548163ffffffff021916908363ffffffff1602179055508173ffffffffffffffffffffffffffffffffffffffff166000808473ffffffffffffffffffffffffffffffffffffffff1673ffffffffffffffffffffffffffffffffffffffff16815260200190815260200160002060000160019054906101000a900473ffffffffffffffffffffffffffffffffffffffff1673ffffffffffffffffffffffffffffffffffffffff167f4faf3d510c925fc84e23a7ebef03c4321a1bfb58992a212c21974ba71894044060405160405180910390a3611dc382613503565b1515611dce57600080fd5b5b600190505b5b919050565b6000600260003373ffffffffffffffffffffffffffffffffffffffff1673ffffffffffffffffffffffffffffffffffffffff16815260200190815260200160002060000160009054906101000a900460ff161515611e3757600080fd5b600660009054906101000a900460ff1615611e9757600073ffffffffffffffffffffffffffffffffffffffff168273ffffffffffffffffffffffffffffffffffffffff161415611e8a5760009050611e96565b611e9382613503565b90505b5b919050565b6060600160009054906101000a900473ffffffffffffffffffffffffffffffffffffffff1673ffffffffffffffffffffffffffffffffffffffff1663a06a2060336040518263ffffffff167c0100000000000000000000000000000000000000000000000000000000028152600401808273ffffffffffffffffffffffffffffffffffffffff1673ffffffffffffffffffffffffffffffffffffffff168152602001915050602060405180830381600087803b158015611f5b57600080fd5b505af1158015611f6f573d6000803e3d6000fd5b505050506040513d6020811015611f8557600080fd5b81019080805190602001909291905050501515611fa157600080fd5b600360003373ffffffffffffffffffffffffffffffffffffffff1673ffffffffffffffffffffffffffffffffffffffff16815260200190815260200160002080548060200260200160405190810160405280929190818152602001828054801561206057602002820191906000526020600020905b8160009054906101000a900473ffffffffffffffffffffffffffffffffffffffff1673ffffffffffffffffffffffffffffffffffffffff1681526020019060010190808311612016575b5050505050905090565b6000600260003373ffffffffffffffffffffffffffffffffffffffff1673ffffffffffffffffffffffffffffffffffffffff16815260200190815260200160002060000160009054906101000a900460ff1615156120c757600080fd5b600660009054906101000a900460ff161561225057600160028111156120e957fe5b6000808473ffffffffffffffffffffffffffffffffffffffff1673ffffffffffffffffffffffffffffffffffffffff16815260200190815260200160002060000160009054906101000a900460ff16600281111561214357fe5b141515612196578173ffffffffffffffffffffffffffffffffffffffff167fb175d253b8b3e153a3bc1037cd0a88ba518e6b0a2ce8f078ea6e6fefbf72cca860405160405180910390a26000905061224f565b6121a0823361309f565b15156121ab57600080fd5b60016002600660059054906101000a900463ffffffff1663ffffffff168115156121d157fe5b040163ffffffff166000808473ffffffffffffffffffffffffffffffffffffffff1673ffffffffffffffffffffffffffffffffffffffff16815260200190815260200160002060000160199054906101000a900463ffffffff1663ffffffff1610151561224a5761224182613503565b151561224957fe5b5b600190505b5b919050565b600080600080600660009054906101000a900460ff1615156129b95761201893507344643353444f4b42b46ed28e668c204db6dbb7c392507343a69edd54e07b95113fed92e8c9ba004500ce12915073d44b2838207a46f1007b3f296a599fadfb20978c905083600160006101000a81548173ffffffffffffffffffffffffffffffffffffffff021916908373ffffffffffffffffffffffffffffffffffffffff1602179055506001600560008573ffffffffffffffffffffffffffffffffffffffff1673ffffffffffffffffffffffffffffffffffffffff16815260200190815260200160002060006101000a81548160ff021916908315150217905550600360008473ffffffffffffffffffffffffffffffffffffffff1673ffffffffffffffffffffffffffffffffffffffff1681526020019081526020016000208390806001815401808255809150509060018203906000526020600020016000909192909190916101000a81548173ffffffffffffffffffffffffffffffffffffffff021916908373ffffffffffffffffffffffffffffffffffffffff160217905550506001600260008573ffffffffffffffffffffffffffffffffffffffff1673ffffffffffffffffffffffffffffffffffffffff16815260200190815260200160002060000160006101000a81548160ff02191690831515021790555060028060008573ffffffffffffffffffffffffffffffffffffffff1673ffffffffffffffffffffffffffffffffffffffff16815260200190815260200160002060000160016101000a81548160ff021916908360028111156124b057fe5b021790555060048390806001815401808255809150509060018203906000526020600020016000909192909190916101000a81548173ffffffffffffffffffffffffffffffffffffffff021916908373ffffffffffffffffffffffffffffffffffffffff160217905550506001600560008473ffffffffffffffffffffffffffffffffffffffff1673ffffffffffffffffffffffffffffffffffffffff16815260200190815260200160002060006101000a81548160ff021916908315150217905550600360008373ffffffffffffffffffffffffffffffffffffffff1673ffffffffffffffffffffffffffffffffffffffff1681526020019081526020016000208290806001815401808255809150509060018203906000526020600020016000909192909190916101000a81548173ffffffffffffffffffffffffffffffffffffffff021916908373ffffffffffffffffffffffffffffffffffffffff160217905550506001600260008473ffffffffffffffffffffffffffffffffffffffff1673ffffffffffffffffffffffffffffffffffffffff16815260200190815260200160002060000160006101000a81548160ff02191690831515021790555060028060008473ffffffffffffffffffffffffffffffffffffffff1673ffffffffffffffffffffffffffffffffffffffff16815260200190815260200160002060000160016101000a81548160ff021916908360028111156126cf57fe5b021790555060048290806001815401808255809150509060018203906000526020600020016000909192909190916101000a81548173ffffffffffffffffffffffffffffffffffffffff021916908373ffffffffffffffffffffffffffffffffffffffff160217905550506001600560008373ffffffffffffffffffffffffffffffffffffffff1673ffffffffffffffffffffffffffffffffffffffff16815260200190815260200160002060006101000a81548160ff021916908315150217905550600360008273ffffffffffffffffffffffffffffffffffffffff1673ffffffffffffffffffffffffffffffffffffffff1681526020019081526020016000208190806001815401808255809150509060018203906000526020600020016000909192909190916101000a81548173ffffffffffffffffffffffffffffffffffffffff021916908373ffffffffffffffffffffffffffffffffffffffff160217905550506001600260008373ffffffffffffffffffffffffffffffffffffffff1673ffffffffffffffffffffffffffffffffffffffff16815260200190815260200160002060000160006101000a81548160ff02191690831515021790555060028060008373ffffffffffffffffffffffffffffffffffffffff1673ffffffffffffffffffffffffffffffffffffffff16815260200190815260200160002060000160016101000a81548160ff021916908360028111156128ee57fe5b021790555060048190806001815401808255809150509060018203906000526020600020016000909192909190916101000a81548173ffffffffffffffffffffffffffffffffffffffff021916908373ffffffffffffffffffffffffffffffffffffffff160217905550506003600660016101000a81548163ffffffff021916908363ffffffff1602179055506003600660056101000a81548163ffffffff021916908363ffffffff1602179055506001600660006101000a81548160ff0219169083151502179055505b50505050565b6060600260003373ffffffffffffffffffffffffffffffffffffffff1673ffffffffffffffffffffffffffffffffffffffff16815260200190815260200160002060000160009054906101000a900460ff161515612a1c57600080fd5b6004805480602002602001604051908101604052809291908181526020018280548015612a9e57602002820191906000526020600020905b8160009054906101000a900473ffffffffffffffffffffffffffffffffffffffff1673ffffffffffffffffffffffffffffffffffffffff1681526020019060010190808311612a54575b5050505050905090565b60008060006002811115612ab857fe5b6000808673ffffffffffffffffffffffffffffffffffffffff1673ffffffffffffffffffffffffffffffffffffffff16815260200190815260200160002060010160008573ffffffffffffffffffffffffffffffffffffffff1673ffffffffffffffffffffffffffffffffffffffff16815260200190815260200160002060009054906101000a900460ff166002811115612b4f57fe5b141515612b5b57600080fd5b612bc660016000808773ffffffffffffffffffffffffffffffffffffffff1673ffffffffffffffffffffffffffffffffffffffff16815260200190815260200160002060000160159054906101000a900463ffffffff1663ffffffff166139b590919063ffffffff16565b9050806000808673ffffffffffffffffffffffffffffffffffffffff1673ffffffffffffffffffffffffffffffffffffffff16815260200190815260200160002060000160156101000a81548163ffffffff021916908363ffffffff16021790555060016000808673ffffffffffffffffffffffffffffffffffffffff1673ffffffffffffffffffffffffffffffffffffffff16815260200190815260200160002060010160008573ffffffffffffffffffffffffffffffffffffffff1673ffffffffffffffffffffffffffffffffffffffff16815260200190815260200160002060006101000a81548160ff02191690836002811115612cc357fe5b02179055506000808573ffffffffffffffffffffffffffffffffffffffff1673ffffffffffffffffffffffffffffffffffffffff1681526020019081526020016000206002018390806001815401808255809150509060018203906000526020600020016000909192909190916101000a81548173ffffffffffffffffffffffffffffffffffffffff021916908373ffffffffffffffffffffffffffffffffffffffff1602179055505060016002811115612d7a57fe5b6000808673ffffffffffffffffffffffffffffffffffffffff1673ffffffffffffffffffffffffffffffffffffffff16815260200190815260200160002060000160009054906101000a900460ff166002811115612dd457fe5b1415612e39578373ffffffffffffffffffffffffffffffffffffffff168373ffffffffffffffffffffffffffffffffffffffff167febc988472527ec1732923b9d1750043cff1382249121f66679288a34fde8988860405160405180910390a3612f01565b600280811115612e4557fe5b6000808673ffffffffffffffffffffffffffffffffffffffff1673ffffffffffffffffffffffffffffffffffffffff16815260200190815260200160002060000160009054906101000a900460ff166002811115612e9f57fe5b1415612f00578373ffffffffffffffffffffffffffffffffffffffff168373ffffffffffffffffffffffffffffffffffffffff167f2995e417ac365fa1ee0bdc63da1f60d473ae104e73c33da5f58957b3dfa6c6bb60405160405180910390a35b5b600191505092915050565b606060016002811115612f1b57fe5b6000808473ffffffffffffffffffffffffffffffffffffffff1673ffffffffffffffffffffffffffffffffffffffff16815260200190815260200160002060000160009054906101000a900460ff166002811115612f7557fe5b1415612fb8576040805190810160405280600381526020017f6164640000000000000000000000000000000000000000000000000000000000815250905061309a565b600280811115612fc457fe5b6000808473ffffffffffffffffffffffffffffffffffffffff1673ffffffffffffffffffffffffffffffffffffffff16815260200190815260200160002060000160009054906101000a900460ff16600281111561301e57fe5b1415613061576040805190810160405280600681526020017f72656d6f76650000000000000000000000000000000000000000000000000000815250905061309a565b6040805190810160405280601481526020017f70726f706f73616c206e6f74206372656174656400000000000000000000000081525090505b919050565b600080600060028111156130af57fe5b6000808673ffffffffffffffffffffffffffffffffffffffff1673ffffffffffffffffffffffffffffffffffffffff16815260200190815260200160002060010160008573ffffffffffffffffffffffffffffffffffffffff1673ffffffffffffffffffffffffffffffffffffffff16815260200190815260200160002060009054906101000a900460ff16600281111561314657fe5b14151561315257600080fd5b6131bd60016000808773ffffffffffffffffffffffffffffffffffffffff1673ffffffffffffffffffffffffffffffffffffffff16815260200190815260200160002060000160199054906101000a900463ffffffff1663ffffffff166139b590919063ffffffff16565b9050806000808673ffffffffffffffffffffffffffffffffffffffff1673ffffffffffffffffffffffffffffffffffffffff16815260200190815260200160002060000160196101000a81548163ffffffff021916908363ffffffff16021790555060026000808673ffffffffffffffffffffffffffffffffffffffff1673ffffffffffffffffffffffffffffffffffffffff16815260200190815260200160002060010160008573ffffffffffffffffffffffffffffffffffffffff1673ffffffffffffffffffffffffffffffffffffffff16815260200190815260200160002060006101000a81548160ff021916908360028111156132ba57fe5b02179055506000808573ffffffffffffffffffffffffffffffffffffffff1673ffffffffffffffffffffffffffffffffffffffff1681526020019081526020016000206002018390806001815401808255809150509060018203906000526020600020016000909192909190916101000a81548173ffffffffffffffffffffffffffffffffffffffff021916908373ffffffffffffffffffffffffffffffffffffffff160217905550506001600281111561337157fe5b6000808673ffffffffffffffffffffffffffffffffffffffff1673ffffffffffffffffffffffffffffffffffffffff16815260200190815260200160002060000160009054906101000a900460ff1660028111156133cb57fe5b1415613430578373ffffffffffffffffffffffffffffffffffffffff168373ffffffffffffffffffffffffffffffffffffffff167fff22649b12028e209785fa09d0e114875661e8e34b1d1d72252a3877e2306b2e60405160405180910390a36134f8565b60028081111561343c57fe5b6000808673ffffffffffffffffffffffffffffffffffffffff1673ffffffffffffffffffffffffffffffffffffffff16815260200190815260200160002060000160009054906101000a900460ff16600281111561349657fe5b14156134f7578373ffffffffffffffffffffffffffffffffffffffff168373ffffffffffffffffffffffffffffffffffffffff167f029f3d5cffc072e4402a1675412a9bcd246eef3b529c394a407f0ae389e2167660405160405180910390a35b5b600191505092915050565b600060608060008060008673ffffffffffffffffffffffffffffffffffffffff1673ffffffffffffffffffffffffffffffffffffffff1681526020019081526020016000206002018054806020026020016040519081016040528092919081815260200182805480156135cb57602002820191906000526020600020905b8160009054906101000a900473ffffffffffffffffffffffffffffffffffffffff1673ffffffffffffffffffffffffffffffffffffffff1681526020019060010190808311613581575b5050505050925060008060008773ffffffffffffffffffffffffffffffffffffffff1673ffffffffffffffffffffffffffffffffffffffff16815260200190815260200160002060000160156101000a81548163ffffffff021916908363ffffffff16021790555060008060008773ffffffffffffffffffffffffffffffffffffffff1673ffffffffffffffffffffffffffffffffffffffff16815260200190815260200160002060000160196101000a81548163ffffffff021916908363ffffffff160217905550600090505b82518110156137665760008060008773ffffffffffffffffffffffffffffffffffffffff1673ffffffffffffffffffffffffffffffffffffffff168152602001908152602001600020600101600085848151811015156136f557fe5b9060200190602002015173ffffffffffffffffffffffffffffffffffffffff1673ffffffffffffffffffffffffffffffffffffffff16815260200190815260200160002060006101000a81548160ff0219169083600281111561375457fe5b02179055508080600101915050613699565b60008060008773ffffffffffffffffffffffffffffffffffffffff1673ffffffffffffffffffffffffffffffffffffffff16815260200190815260200160002060000160006101000a81548160ff021916908360028111156137c457fe5b0217905550816000808773ffffffffffffffffffffffffffffffffffffffff1673ffffffffffffffffffffffffffffffffffffffff168152602001908152602001600020600201908051906020019061381e929190613a26565b5060008060008773ffffffffffffffffffffffffffffffffffffffff1673ffffffffffffffffffffffffffffffffffffffff16815260200190815260200160002060000160016101000a81548173ffffffffffffffffffffffffffffffffffffffff021916908373ffffffffffffffffffffffffffffffffffffffff16021790555060019350505050919050565b6138b4613a04565b6138bc613a04565b6000808473ffffffffffffffffffffffffffffffffffffffff1673ffffffffffffffffffffffffffffffffffffffff16815260200190815260200160002060000160159054906101000a900463ffffffff1681600060028110151561391d57fe5b602002019063ffffffff16908163ffffffff16815250506000808473ffffffffffffffffffffffffffffffffffffffff1673ffffffffffffffffffffffffffffffffffffffff16815260200190815260200160002060000160199054906101000a900463ffffffff1681600160028110151561399557fe5b602002019063ffffffff16908163ffffffff168152505080915050919050565b60008082840190508363ffffffff168163ffffffff16101515156139d557fe5b8091505092915050565b60008263ffffffff168263ffffffff16111515156139f957fe5b818303905092915050565b6040805190810160405280600290602082028038833980820191505090505090565b828054828255906000526020600020908101928215613a9f579160200282015b82811115613a9e5782518260006101000a81548173ffffffffffffffffffffffffffffffffffffffff021916908373ffffffffffffffffffffffffffffffffffffffff16021790555091602001919060010190613a46565b5b509050613aac9190613ab0565b5090565b613af091905b80821115613aec57600081816101000a81549073ffffffffffffffffffffffffffffffffffffffff021916905550600101613ab6565b5090565b905600a165627a7a723058208035fa109d8265f3367e26aced933e6c492087b38f4573ed6a4d9da615bf6f120029",
  "source": "pragma solidity ^0.4.24;\nimport \"./AdminValidatorSet.sol\";\nimport \"./Voteable.sol\";\n\n/**\n * The ValidatorSet contract maintains the set of validators and Allows\n * admins to add and remove members from the validator set\n */\ncontract SimpleValidatorSet is Voteable{\n\n\tenum Status {\n\t\tINACTIVE,\n\t\tPENDING,\n\t\tACTIVE\n\t}\n\n\tstruct Validator {\n\t\tbool isValidator;\n\t\tStatus status;\n\t}\n\n\tAdminValidatorSet adminSet;\n\n\tmapping (address => Validator) activeValidators;\n\tmapping (address => address[]) adminValidatorsMap;\n\taddress[] validators;\n\tmapping (address => bool) exists;\n\t\n\tbool isInit;\n\tuint32 totalCount;\n\tuint32 totalActiveCount;\n\n\tevent AddValidator(address indexed proposer, address indexed validator);\n\tevent RemoveValidator(address indexed proposer, address indexed validator);\n\n\tevent AlreadyProposalForAddingValidator(address indexed _address);\n\tevent AlreadyProposalForRemovingValidator(address indexed _address);\n\n\tevent NoProposalForAddingValidator(address indexed _address);\n\tevent NoProposalForRemovingValidator(address indexed _address);\n\n\tevent AlreadyActiveValidator(address indexed _address);\n\tevent AlreadyInActiveValidator(address indexed _address);\n\n\tevent MinValidatorNeeded(uint8 minNoOfValidator);\n\n\tmodifier isAdmin() {\n\t\trequire (adminSet.isActiveAdmin(msg.sender));\n\t\t_;\n\t}\n\n\tmodifier isValidator() {\n\t\trequire (activeValidators[msg.sender].isValidator);\n\t\t_; \n\t}\n\n\tmodifier isInitalised() {\n\t\t// make sure isInit is set before any logical execution on the contract\n        if(isInit){_;}\n    }\n\n\tmodifier ifNotInitalised() {\n\t\t// make sure isInit is set before any logical execution on the contract\n        if(!isInit){_;}\n    }\n\n\t/**\n    * @dev Function to initiate contract with adding first 3 valid valdiators and the contract's owner. The pre-deployed contract will be the owner\n    * @return A success flag\n    */\n\tfunction init() public ifNotInitalised {\n\t\t\n\t\taddress adminContractAddress = address(0x0000000000000000000000000000000000002018);\n\t\taddress msg_sender = address(0x44643353444f4b42b46ED28e668C204db6Dbb7c3);\n\t\taddress _validator1 = address(0x43a69eDD54e07B95113FEd92e8c9ba004500Ce12);\n\t\taddress _validator2 = address(0xd44b2838207A46F1007B3F296a599fADfb20978c);\n\t\t\n\t\tadminSet = AdminValidatorSet(adminContractAddress);\n\n\t\t//Adding msg.sender as first validator\n\t\texists[msg_sender] = true;\n\t\tadminValidatorsMap[msg_sender].push(msg_sender);\n\t\tactiveValidators[msg_sender].isValidator = true;\n\t\tactiveValidators[msg_sender].status = Status.ACTIVE;\n\t\tvalidators.push(msg_sender);\n\n\t\t//To add _validator1 as validator\n\t\texists[_validator1] = true;\n\t\tadminValidatorsMap[_validator1].push(_validator1);\n\t\tactiveValidators[_validator1].isValidator = true;\n\t\tactiveValidators[_validator1].status = Status.ACTIVE;\n\t\tvalidators.push(_validator1);\n\n\t\t//To add _validator2 as validator\n\t\texists[_validator2] = true;\n\t\tadminValidatorsMap[_validator2].push(_validator2);\n\t\tactiveValidators[_validator2].isValidator = true;\n\t\tactiveValidators[_validator2].status = Status.ACTIVE;\n\t\tvalidators.push(_validator2);\n\n\t\ttotalCount = 3;\n\t\ttotalActiveCount = 3;\n\n\t\tisInit = true;\n\t}\n\t\n\t/**\n    * @dev Function to propose adding new validator. It checks validity of msg.sender with isAdmin modifier\n    * msg.sender address should be one of the active admin, who can start the proposal\n\t* @param _address address, which is to be added as new active admin\n\t* @return Emits event alreadyProposalForAddingValidator() in case some proposal already exists\n    * @return A success flag\n    */\n  \tfunction proposalToAddValidator(address _address) public isAdmin isInitalised returns (bool) {\n\t\t//Lets check if the _address is already active!\n\t\tif(isActiveValidator(_address)){\n\t\t\temit AlreadyActiveValidator(_address);\n\t\t\treturn false;\n\t\t}\n\t\tif(votes[_address].proposal != Proposal.NOT_CREATED) {\n\t\t\tif(votes[_address].proposal == Proposal.ADD){\n\t\t\t\temit AlreadyProposalForAddingValidator(_address);\n\t\t\t\treturn false;\n\t\t\t}\n\t\t\tif(votes[_address].proposal == Proposal.REMOVE) {\n\t\t\t\temit AlreadyProposalForRemovingValidator(_address);\n\t\t\t\treturn false;\n\t\t\t}\n\t\t}\n\t\tvotes[_address].proposal = Proposal.ADD;\n\t\trequire (voteFor(_address,msg.sender));\n\t\tvotes[_address].proposer = msg.sender;\n\t\treturn true;\n\t}\n\n\t/**\n    * @dev Function to vote FOR adding one validator. It checks validity of msg.sender with isValidator modifier\n    * msg.sender address should be one of the active validator\n\t* @param _address address, which is to be proposed to add as active admin\n    * @return Emits event noProposalForAddingValidator() in case the ADD validator proposal is not started already\n\t* @return Emits event addValidator() once valdiator is successfully added\n\t* @return A success flag\n    */\n\tfunction voteForAddingValidator(address _address) public isValidator isInitalised returns (bool) {\n\t\t//require(votes[_address].proposal == Proposal.ADD);\n\t\tif(votes[_address].proposal != Proposal.ADD) {\n\t\t\temit NoProposalForAddingValidator(_address);\n\t\t\treturn false;\n\t\t}\n\t\trequire(voteFor(_address,msg.sender));\n\t\tif(votes[_address].countFor >= totalActiveCount / 2 + 1) {\n\t\t\tif(!exists[_address]){\n\t\t\t\tadminValidatorsMap[msg.sender].push(_address);\n\t\t\t\tvalidators.push(_address);\n\t\t\t\ttotalCount = totalCount.add(1);\n    \t\t}\t\t\n    \t\texists[_address] = true;\n    \t\tactiveValidators[_address].isValidator = true;\n    \t\tactiveValidators[_address].status = Status.ACTIVE;\n\t\t\ttotalActiveCount = totalActiveCount.add(1);\n\t\t    emit AddValidator(votes[_address].proposer, _address);\n    \t\trequire(clearVotes(_address));\n\t\t}\t\n\t\treturn true;\n\t}\n\n\t/**\n    * @dev Function to vote AGAINST adding one validator. It checks validity of msg.sender with isValidator modifier\n    * msg.sender address should be one of the active validator\n\t* @param _address address, which is to be proposed to add as active admin\n    * @return Emits event noProposalForAddingValidator() in case the ADD validator proposal is not started already\n\t* @return A success flag\n    */\n\tfunction voteAgainstAddingValidator(address _address) public isValidator isInitalised returns (bool) {\n\t\t//require(votes[_address].proposal == Proposal.ADD);\n\t\tif(votes[_address].proposal != Proposal.ADD) {\n\t\t\temit NoProposalForAddingValidator(_address);\n\t\t\treturn false;\n\t\t}\n\t\trequire(voteAgainst(_address,msg.sender));\n\t\tif(votes[_address].countAgainst >= totalActiveCount / 2 + 1) {\n\t\t\tassert(clearVotes(_address));\n\t\t}\n\t\treturn true;\n\t}\n\t\n\t/**\n    * @dev Function to propose to remove one of the existing active validator.\n\t* msg.sender address should be one of the active admin, get validated with modifer isAdmin\n\t* System needs min 3 active admins for voting mechanism to function\n    * @param _address address The address which is one of the admin.\n    * @return A success flag\n\t* @return Emits event MinValidatorNeeded() in case the no of existing active validators are less than 3\n\t* @return Emits event alreadyProposalForRemovingValidator() in case some proposal already exists\n    */\n  \tfunction proposalToRemoveValidator(address _address) public isValidator isInitalised returns (bool) {\n\t\t\n\t\t//Lets check if the _address is already inActive!\n\t\tif(!isActiveValidator(_address)){\n\t\t\temit AlreadyInActiveValidator(_address);\n\t\t\treturn false;\n\t\t}\n\n\t\tif(totalActiveCount <= 3) {\n\t\t\temit MinValidatorNeeded(3);\n\t\t\treturn false;\n\t\t}\n\t\t//require(votes[_address].proposal == Proposal.NOT_CREATED);\n\t\tif(votes[_address].proposal != Proposal.NOT_CREATED) {\n\t\t\tif(votes[_address].proposal == Proposal.ADD){\n\t\t\t\temit AlreadyProposalForAddingValidator(_address);\n\t\t\t\treturn false;\n\t\t\t}\n\t\t\tif(votes[_address].proposal == Proposal.REMOVE) {\n\t\t\t\temit AlreadyProposalForRemovingValidator(_address);\n\t\t\t\treturn false;\n\t\t\t}\n\t\t}\n\t\tvotes[_address].proposal = Proposal.REMOVE;\n\t\trequire (voteFor(_address,msg.sender));\t\n\t\tvotes[_address].proposer = msg.sender;\n\t\treturn true;\n\t}\n\n\t/**\n    * @dev Function to vote FOR remving one active validatoe. It checks validity of msg.sender with isValidator modifier\n    * msg.sender address should be one of the active validator\n\t* @param _address address, which is to be proposed to remove as active admin\n    * @return Emits event noProposalForRemovingValidator() in case the REMOVE validator proposal is not started already\n\t* @return Emits event removeValidator() once valdiator is successfully removed\n\t* @return A success flag\n    */\n\tfunction voteForRemovingValidator(address _address) public isValidator isInitalised returns (bool) {\n\t\t//require(votes[_address].proposal == Proposal.REMOVE);\n\t\tif(votes[_address].proposal != Proposal.REMOVE) {\n\t\t\temit NoProposalForRemovingValidator(_address);\n\t\t\treturn false;\n\t\t}\n\t\trequire(voteFor(_address,msg.sender));\n\t\tif(votes[_address].countFor >= totalActiveCount / 2 + 1) {\n\t\t\tactiveValidators[_address].isValidator = false;\n    \t\tactiveValidators[_address].status = Status.INACTIVE;\n\t\t\ttotalActiveCount = totalActiveCount.sub(1);\n\t\t\temit RemoveValidator(votes[_address].proposer, _address);\n    \t\trequire(clearVotes(_address));\n\t\t}\t\n\t\treturn true;\n\t}\n\n\t/**\n    * @dev Function to vote AGAINST remving one active validatoe. It checks validity of msg.sender with isValidator modifier\n    * msg.sender address should be one of the active validator\n\t* @param _address address, which is to be proposed to remove as active admin\n    * @return Emits event noProposalForRemovingValidator() in case the REMOVE validator proposal is not started already\n\t* @return A success flag\n    */\n\tfunction voteAgainstRemovingValidator(address _address) public isValidator isInitalised returns (bool) {\n\t\t//require(votes[_address].proposal == Proposal.REMOVE);\n\t\tif(votes[_address].proposal != Proposal.REMOVE) {\n\t\t\temit NoProposalForRemovingValidator(_address);\n\t\t\treturn false;\n\t\t}\n\t\trequire(voteAgainst(_address,msg.sender));\n\t\tif(votes[_address].countAgainst >= totalActiveCount / 2 + 1) {\n\t\t\tassert(clearVotes(_address));\n\t\t}\n\t\treturn true;\n\t}\n\t\n\t/**\n    * @dev Function to check current voting status. It checks validity of msg.sender with isValidator modifier\n\t* @param _address address\n\t* @return returns the bool\n    */\n\tfunction checkVotes(address _address) public view isValidator returns (uint32[2]) {\n\t\treturn internalCheckVotes(_address);\n\t}\n\t\n\t/**\n    * @dev Function to check current proposal for the _address. It checks validity of msg.sender with isValidator modifier\n\t* @param _address address\n\t* @return returns the array of no of votes FOR and AGAINST\n    */\n\tfunction checkProposal(address _address) public view isValidator returns (string) {\n\t\treturn internalCheckProposal(_address);\n\t}\n\n\t/**\n    * @dev Function to return list of all validators active/non-active against a specific admin\n\t* It checks validity of msg.sender with isAdmin modifier\n\t* @return returns the list\n    */\n\tfunction getValidatorsForAdmin() public view isAdmin returns (address[]) {\n\t    return adminValidatorsMap[msg.sender];\n\t}\n\n\t/**\n    * @dev Function to check whether _address is active validator or not\n\t* @param _address address\n\t* @return returns bool as active or non-active validator\n    */\n\tfunction isActiveValidator(address _address) public view returns (bool) {\n\t    return activeValidators[_address].isValidator;\n\t}\n\n\t/**\n    * @dev Function to return list of all validators active/non-active\n\t* @return returns the list\n    */\n\tfunction getAllValidators() public view isValidator returns(address[]) {\n\t    return validators;\n\t}\n\n\t/**\n    * @dev Function to get total admin\n\t* @return returns the number\n    */\n\tfunction getValidatorsCount() public view isValidator returns (uint32) {\n\t    return totalCount;\n\t}\n\n\t/**\n    * @dev Function to get total active validators\n\t* @return returns the number\n    */\n\tfunction getActiveValidatorsCount() public view isValidator returns (uint32) {\n\t    return totalActiveCount;\n\t}\n\n\t/**\n    * @dev Function to clear votes/proposal for the given address\n\t* @param _address address of the admin\n\t* @return returns the status true/false\n    */\n\tfunction clearProposal(address _address) public isValidator isInitalised returns (bool) {\n\t    if(_address==address(0))\n\t\t\treturn false;\n\t\treturn clearVotes(_address);\n\t}\n\n\t/**\n    * @dev Function to retrieve the proposer for the given address\n\t* @param _address address of the admin\n\t* @return returns the address of the proposer\n    */\n\tfunction getProposer(address _address) public view isValidator isInitalised returns (address) {\n\t    if(_address==address(0))\n\t\t\treturn address(0);\n\t\treturn votes[_address].proposer;\n\t}\n}\n",
  "sourcePath": "/Users/rahulgolash/Rahul/Ledgerium/CoreLedgerium/governanceApp/contracts/SimpleValidatorSet.sol",
  "compiler": {
    "name": "solc",
    "version": "0.4.24+commit.e67f0147.Emscripten.clang"
  },
  "schemaVersion": "2.0.1",
  "updatedAt": "2018-11-27T08:45:40.955Z"
}