{
  "contractName": "SimpleValidatorSet",
  "abi": [
    {
      "inputs": [
        {
          "name": "_address",
          "type": "address"
        }
      ],
      "payable": false,
      "stateMutability": "nonpayable",
      "type": "constructor"
    },
    {
      "anonymous": false,
      "inputs": [
        {
          "indexed": false,
          "name": "validator",
          "type": "address"
        },
        {
          "indexed": false,
          "name": "_admin",
          "type": "address"
        }
      ],
      "name": "addvalidator",
      "type": "event"
    },
    {
      "anonymous": false,
      "inputs": [
        {
          "indexed": false,
          "name": "validator",
          "type": "address"
        },
        {
          "indexed": false,
          "name": "_admin",
          "type": "address"
        }
      ],
      "name": "removevalidator",
      "type": "event"
    },
    {
      "anonymous": false,
      "inputs": [
        {
          "indexed": false,
          "name": "validator",
          "type": "address"
        },
        {
          "indexed": false,
          "name": "_admin",
          "type": "address"
        },
        {
          "indexed": false,
          "name": "_event",
          "type": "string"
        }
      ],
      "name": "finalizeEvent",
      "type": "event"
    },
    {
      "anonymous": false,
      "inputs": [
        {
          "indexed": false,
          "name": "by",
          "type": "address"
        },
        {
          "indexed": false,
          "name": "vfor",
          "type": "address"
        }
      ],
      "name": "votedfor",
      "type": "event"
    },
    {
      "anonymous": false,
      "inputs": [
        {
          "indexed": false,
          "name": "by",
          "type": "address"
        },
        {
          "indexed": false,
          "name": "vfor",
          "type": "address"
        }
      ],
      "name": "votedagainst",
      "type": "event"
    },
    {
      "constant": false,
      "inputs": [
        {
          "name": "_address",
          "type": "address"
        }
      ],
      "name": "addValidator",
      "outputs": [
        {
          "name": "res",
          "type": "bool"
        }
      ],
      "payable": false,
      "stateMutability": "nonpayable",
      "type": "function"
    },
    {
      "constant": false,
      "inputs": [
        {
          "name": "_address",
          "type": "address"
        }
      ],
      "name": "removeValidator",
      "outputs": [
        {
          "name": "res",
          "type": "bool"
        }
      ],
      "payable": false,
      "stateMutability": "nonpayable",
      "type": "function"
    },
    {
      "constant": true,
      "inputs": [],
      "name": "getValidatorsForAdmin",
      "outputs": [
        {
          "name": "a",
          "type": "address[]"
        }
      ],
      "payable": false,
      "stateMutability": "view",
      "type": "function"
    },
    {
      "constant": true,
      "inputs": [
        {
          "name": "_address",
          "type": "address"
        }
      ],
      "name": "isValidator",
      "outputs": [
        {
          "name": "a",
          "type": "bool"
        }
      ],
      "payable": false,
      "stateMutability": "view",
      "type": "function"
    },
    {
      "constant": true,
      "inputs": [],
      "name": "getAllValidators",
      "outputs": [
        {
          "name": "a",
          "type": "address[]"
        }
      ],
      "payable": false,
      "stateMutability": "view",
      "type": "function"
    }
  ],
  "bytecode": "0x608060405234801561001057600080fd5b50604051602080611cbe8339810180604052810190808051906020019092919050505080600160006101000a81548173ffffffffffffffffffffffffffffffffffffffff021916908373ffffffffffffffffffffffffffffffffffffffff16021790555050611c3a806100846000396000f30060806040526004361061006d576000357c0100000000000000000000000000000000000000000000000000000000900463ffffffff16806340a141ff146100725780634d238c8e146100cd578063dd31863c14610128578063f3513a3714610194578063facd743b14610200575b600080fd5b34801561007e57600080fd5b506100b3600480360381019080803573ffffffffffffffffffffffffffffffffffffffff16906020019092919050505061025b565b604051808215151515815260200191505060405180910390f35b3480156100d957600080fd5b5061010e600480360381019080803573ffffffffffffffffffffffffffffffffffffffff169060200190929190505050610839565b604051808215151515815260200191505060405180910390f35b34801561013457600080fd5b5061013d610fcd565b6040518080602001828103825283818151815260200191508051906020019060200280838360005b83811015610180578082015181840152602081019050610165565b505050509050019250505060405180910390f35b3480156101a057600080fd5b506101a961119b565b6040518080602001828103825283818151815260200191508051906020019060200280838360005b838110156101ec5780820151818401526020810190506101d1565b505050509050019250505060405180910390f35b34801561020c57600080fd5b50610241600480360381019080803573ffffffffffffffffffffffffffffffffffffffff16906020019092919050505061132c565b604051808215151515815260200191505060405180910390f35b6000600160009054906101000a900473ffffffffffffffffffffffffffffffffffffffff1673ffffffffffffffffffffffffffffffffffffffff16639026dee8336040518263ffffffff167c0100000000000000000000000000000000000000000000000000000000028152600401808273ffffffffffffffffffffffffffffffffffffffff1673ffffffffffffffffffffffffffffffffffffffff168152602001915050602060405180830381600087803b15801561031a57600080fd5b505af115801561032e573d6000803e3d6000fd5b505050506040513d602081101561034457600080fd5b8101908080519060200190929190505050151561036057600080fd5b600260008373ffffffffffffffffffffffffffffffffffffffff1673ffffffffffffffffffffffffffffffffffffffff16815260200190815260200160002060000160009054906101000a900460ff1615156103b857fe5b6002808111156103c457fe5b600260008473ffffffffffffffffffffffffffffffffffffffff1673ffffffffffffffffffffffffffffffffffffffff16815260200190815260200160002060000160019054906101000a900460ff16600281111561041f57fe5b14151561042857fe5b6104328233611488565b151561043a57fe5b60016002600160009054906101000a900473ffffffffffffffffffffffffffffffffffffffff1673ffffffffffffffffffffffffffffffffffffffff166356d42bb36040518163ffffffff167c0100000000000000000000000000000000000000000000000000000000028152600401602060405180830381600087803b1580156104c457600080fd5b505af11580156104d8573d6000803e3d6000fd5b505050506040513d60208110156104ee57600080fd5b810190808051906020019092919050505063ffffffff1681151561050e57fe5b040163ffffffff166000808473ffffffffffffffffffffffffffffffffffffffff1673ffffffffffffffffffffffffffffffffffffffff16815260200190815260200160002060000160019054906101000a900463ffffffff1663ffffffff161015156106e0576000600260008473ffffffffffffffffffffffffffffffffffffffff1673ffffffffffffffffffffffffffffffffffffffff16815260200190815260200160002060000160006101000a81548160ff0219169083151502179055506000600260008473ffffffffffffffffffffffffffffffffffffffff1673ffffffffffffffffffffffffffffffffffffffff16815260200190815260200160002060000160016101000a81548160ff0219169083600281111561062f57fe5b021790555061063d826117ef565b151561064857600080fd5b7f0e38f3f1f3951ab725aae659235f220f0047662c0cb8b69de232fcd2ecc373168233604051808373ffffffffffffffffffffffffffffffffffffffff1673ffffffffffffffffffffffffffffffffffffffff1681526020018273ffffffffffffffffffffffffffffffffffffffff1673ffffffffffffffffffffffffffffffffffffffff1681526020019250505060405180910390a15b60016002600160009054906101000a900473ffffffffffffffffffffffffffffffffffffffff1673ffffffffffffffffffffffffffffffffffffffff166356d42bb36040518163ffffffff167c0100000000000000000000000000000000000000000000000000000000028152600401602060405180830381600087803b15801561076a57600080fd5b505af115801561077e573d6000803e3d6000fd5b505050506040513d602081101561079457600080fd5b810190808051906020019092919050505063ffffffff168115156107b457fe5b040163ffffffff166000808473ffffffffffffffffffffffffffffffffffffffff1673ffffffffffffffffffffffffffffffffffffffff16815260200190815260200160002060000160059054906101000a900463ffffffff1663ffffffff1610151561083057610824826117ef565b151561082f57600080fd5b5b60019050919050565b6000600160009054906101000a900473ffffffffffffffffffffffffffffffffffffffff1673ffffffffffffffffffffffffffffffffffffffff16639026dee8336040518263ffffffff167c0100000000000000000000000000000000000000000000000000000000028152600401808273ffffffffffffffffffffffffffffffffffffffff1673ffffffffffffffffffffffffffffffffffffffff168152602001915050602060405180830381600087803b1580156108f857600080fd5b505af115801561090c573d6000803e3d6000fd5b505050506040513d602081101561092257600080fd5b8101908080519060200190929190505050151561093e57600080fd5b600260008373ffffffffffffffffffffffffffffffffffffffff1673ffffffffffffffffffffffffffffffffffffffff16815260200190815260200160002060000160009054906101000a900460ff1615151561099757fe5b600060028111156109a457fe5b600260008473ffffffffffffffffffffffffffffffffffffffff1673ffffffffffffffffffffffffffffffffffffffff16815260200190815260200160002060000160019054906101000a900460ff1660028111156109ff57fe5b141515610a0857fe5b610a128233611488565b1515610a1a57fe5b60016002600160009054906101000a900473ffffffffffffffffffffffffffffffffffffffff1673ffffffffffffffffffffffffffffffffffffffff166356d42bb36040518163ffffffff167c0100000000000000000000000000000000000000000000000000000000028152600401602060405180830381600087803b158015610aa457600080fd5b505af1158015610ab8573d6000803e3d6000fd5b505050506040513d6020811015610ace57600080fd5b810190808051906020019092919050505063ffffffff16811515610aee57fe5b040163ffffffff166000808473ffffffffffffffffffffffffffffffffffffffff1673ffffffffffffffffffffffffffffffffffffffff16815260200190815260200160002060000160019054906101000a900463ffffffff1663ffffffff16101515610e7457600560008373ffffffffffffffffffffffffffffffffffffffff1673ffffffffffffffffffffffffffffffffffffffff16815260200190815260200160002060009054906101000a900460ff161515610cb257600360003373ffffffffffffffffffffffffffffffffffffffff1673ffffffffffffffffffffffffffffffffffffffff1681526020019081526020016000208290806001815401808255809150509060018203906000526020600020016000909192909190916101000a81548173ffffffffffffffffffffffffffffffffffffffff021916908373ffffffffffffffffffffffffffffffffffffffff1602179055505060048290806001815401808255809150509060018203906000526020600020016000909192909190916101000a81548173ffffffffffffffffffffffffffffffffffffffff021916908373ffffffffffffffffffffffffffffffffffffffff160217905550505b6001600560008473ffffffffffffffffffffffffffffffffffffffff1673ffffffffffffffffffffffffffffffffffffffff16815260200190815260200160002060006101000a81548160ff0219169083151502179055506001600260008473ffffffffffffffffffffffffffffffffffffffff1673ffffffffffffffffffffffffffffffffffffffff16815260200190815260200160002060000160006101000a81548160ff02191690831515021790555060028060008473ffffffffffffffffffffffffffffffffffffffff1673ffffffffffffffffffffffffffffffffffffffff16815260200190815260200160002060000160016101000a81548160ff02191690836002811115610dc357fe5b0217905550610dd1826117ef565b1515610ddc57600080fd5b7f039da864d27cfcd2c69976e7bcbf44b3ca4a79a2f6ba32b27bcf51640040db518233604051808373ffffffffffffffffffffffffffffffffffffffff1673ffffffffffffffffffffffffffffffffffffffff1681526020018273ffffffffffffffffffffffffffffffffffffffff1673ffffffffffffffffffffffffffffffffffffffff1681526020019250505060405180910390a15b60016002600160009054906101000a900473ffffffffffffffffffffffffffffffffffffffff1673ffffffffffffffffffffffffffffffffffffffff166356d42bb36040518163ffffffff167c0100000000000000000000000000000000000000000000000000000000028152600401602060405180830381600087803b158015610efe57600080fd5b505af1158015610f12573d6000803e3d6000fd5b505050506040513d6020811015610f2857600080fd5b810190808051906020019092919050505063ffffffff16811515610f4857fe5b040163ffffffff166000808473ffffffffffffffffffffffffffffffffffffffff1673ffffffffffffffffffffffffffffffffffffffff16815260200190815260200160002060000160059054906101000a900463ffffffff1663ffffffff16101515610fc457610fb8826117ef565b1515610fc357600080fd5b5b60019050919050565b6060600160009054906101000a900473ffffffffffffffffffffffffffffffffffffffff1673ffffffffffffffffffffffffffffffffffffffff16639026dee8336040518263ffffffff167c0100000000000000000000000000000000000000000000000000000000028152600401808273ffffffffffffffffffffffffffffffffffffffff1673ffffffffffffffffffffffffffffffffffffffff168152602001915050602060405180830381600087803b15801561108c57600080fd5b505af11580156110a0573d6000803e3d6000fd5b505050506040513d60208110156110b657600080fd5b810190808051906020019092919050505015156110d257600080fd5b600360003373ffffffffffffffffffffffffffffffffffffffff1673ffffffffffffffffffffffffffffffffffffffff16815260200190815260200160002080548060200260200160405190810160405280929190818152602001828054801561119157602002820191906000526020600020905b8160009054906101000a900473ffffffffffffffffffffffffffffffffffffffff1673ffffffffffffffffffffffffffffffffffffffff1681526020019060010190808311611147575b5050505050905090565b6060600160009054906101000a900473ffffffffffffffffffffffffffffffffffffffff1673ffffffffffffffffffffffffffffffffffffffff16639026dee8336040518263ffffffff167c0100000000000000000000000000000000000000000000000000000000028152600401808273ffffffffffffffffffffffffffffffffffffffff1673ffffffffffffffffffffffffffffffffffffffff168152602001915050602060405180830381600087803b15801561125a57600080fd5b505af115801561126e573d6000803e3d6000fd5b505050506040513d602081101561128457600080fd5b810190808051906020019092919050505015156112a057600080fd5b600480548060200260200160405190810160405280929190818152602001828054801561132257602002820191906000526020600020905b8160009054906101000a900473ffffffffffffffffffffffffffffffffffffffff1673ffffffffffffffffffffffffffffffffffffffff16815260200190600101908083116112d8575b5050505050905090565b6000600160009054906101000a900473ffffffffffffffffffffffffffffffffffffffff1673ffffffffffffffffffffffffffffffffffffffff16639026dee8336040518263ffffffff167c0100000000000000000000000000000000000000000000000000000000028152600401808273ffffffffffffffffffffffffffffffffffffffff1673ffffffffffffffffffffffffffffffffffffffff168152602001915050602060405180830381600087803b1580156113eb57600080fd5b505af11580156113ff573d6000803e3d6000fd5b505050506040513d602081101561141557600080fd5b8101908080519060200190929190505050151561143157600080fd5b600260008373ffffffffffffffffffffffffffffffffffffffff1673ffffffffffffffffffffffffffffffffffffffff16815260200190815260200160002060000160009054906101000a900460ff169050919050565b6000806000600281111561149857fe5b6000808673ffffffffffffffffffffffffffffffffffffffff1673ffffffffffffffffffffffffffffffffffffffff16815260200190815260200160002060010160008573ffffffffffffffffffffffffffffffffffffffff1673ffffffffffffffffffffffffffffffffffffffff16815260200190815260200160002060009054906101000a900460ff16600281111561152f57fe5b14151561153b57600080fd5b6115a660016000808773ffffffffffffffffffffffffffffffffffffffff1673ffffffffffffffffffffffffffffffffffffffff16815260200190815260200160002060000160019054906101000a900463ffffffff1663ffffffff16611b1790919063ffffffff16565b9050806000808673ffffffffffffffffffffffffffffffffffffffff1673ffffffffffffffffffffffffffffffffffffffff16815260200190815260200160002060000160016101000a81548163ffffffff021916908363ffffffff16021790555060016000808673ffffffffffffffffffffffffffffffffffffffff1673ffffffffffffffffffffffffffffffffffffffff16815260200190815260200160002060010160008573ffffffffffffffffffffffffffffffffffffffff1673ffffffffffffffffffffffffffffffffffffffff16815260200190815260200160002060006101000a81548160ff021916908360028111156116a357fe5b02179055506000808573ffffffffffffffffffffffffffffffffffffffff1673ffffffffffffffffffffffffffffffffffffffff1681526020019081526020016000206002018390806001815401808255809150509060018203906000526020600020016000909192909190916101000a81548173ffffffffffffffffffffffffffffffffffffffff021916908373ffffffffffffffffffffffffffffffffffffffff160217905550507f7a189becc9d33281e69ff3784545bbabdf6de5b0c3dc9a1478ca39d8ebe2dd718385604051808373ffffffffffffffffffffffffffffffffffffffff1673ffffffffffffffffffffffffffffffffffffffff1681526020018273ffffffffffffffffffffffffffffffffffffffff1673ffffffffffffffffffffffffffffffffffffffff1681526020019250505060405180910390a1600191505092915050565b600060608060008060008673ffffffffffffffffffffffffffffffffffffffff1673ffffffffffffffffffffffffffffffffffffffff1681526020019081526020016000206002018054806020026020016040519081016040528092919081815260200182805480156118b757602002820191906000526020600020905b8160009054906101000a900473ffffffffffffffffffffffffffffffffffffffff1673ffffffffffffffffffffffffffffffffffffffff168152602001906001019080831161186d575b5050505050925060008060008773ffffffffffffffffffffffffffffffffffffffff1673ffffffffffffffffffffffffffffffffffffffff16815260200190815260200160002060000160016101000a81548163ffffffff021916908363ffffffff16021790555060008060008773ffffffffffffffffffffffffffffffffffffffff1673ffffffffffffffffffffffffffffffffffffffff16815260200190815260200160002060000160056101000a81548163ffffffff021916908363ffffffff160217905550600090505b8251811015611a525760008060008773ffffffffffffffffffffffffffffffffffffffff1673ffffffffffffffffffffffffffffffffffffffff168152602001908152602001600020600101600085848151811015156119e157fe5b9060200190602002015173ffffffffffffffffffffffffffffffffffffffff1673ffffffffffffffffffffffffffffffffffffffff16815260200190815260200160002060006101000a81548160ff02191690836002811115611a4057fe5b02179055508080600101915050611985565b60008060008773ffffffffffffffffffffffffffffffffffffffff1673ffffffffffffffffffffffffffffffffffffffff16815260200190815260200160002060000160006101000a81548160ff02191690836002811115611ab057fe5b0217905550816000808773ffffffffffffffffffffffffffffffffffffffff1673ffffffffffffffffffffffffffffffffffffffff1681526020019081526020016000206002019080519060200190611b0a929190611b41565b5060019350505050919050565b60008082840190508363ffffffff168163ffffffff1610151515611b3757fe5b8091505092915050565b828054828255906000526020600020908101928215611bba579160200282015b82811115611bb95782518260006101000a81548173ffffffffffffffffffffffffffffffffffffffff021916908373ffffffffffffffffffffffffffffffffffffffff16021790555091602001919060010190611b61565b5b509050611bc79190611bcb565b5090565b611c0b91905b80821115611c0757600081816101000a81549073ffffffffffffffffffffffffffffffffffffffff021916905550600101611bd1565b5090565b905600a165627a7a723058204c9c036a30e38eca2f138fd259f89f2907eec3ed0919081220f225652cef02670029",
  "source": "pragma solidity ^0.4.24;\nimport \"./AdminValidatorSet.sol\";\nimport \"./Voteable.sol\";\n\n/**\n * The ValidatorSet contract maintains the set of validators and Allows\n * admins to add and remove members from the validator set\n */\ncontract SimpleValidatorSet is Voteable{\n\n\tenum Status {\n\t\tINACTIVE,\n\t\tPENDING,\n\t\tACTIVE\n\t}\n\n\tstruct Validator {\n\t\tbool isValidator;\n\t\tStatus status;\n\t}\n\n\tAdminValidatorSet adminSet;\n\n\tmapping (address => Validator) activeValidators;\n\tmapping (address => address[]) adminValidatorsMap;\n\taddress[] validators;\n\tmapping (address => bool) exists;\n\t\n\tuint32 totalCount;\n\n\tconstructor (address _address)public {\n\t\tadminSet = AdminValidatorSet(_address);\n\t}\n\n\tmodifier isOwner() {\n\t\trequire (adminSet.checkAdmin(msg.sender));\n\t\t_;\n\t}\n\n\tevent addvalidator(address validator,address _admin);\n\tevent removevalidator(address validator,address _admin);\n\tevent finalizeEvent(address validator,address _admin,string _event);\n\n\tfunction addValidator (address _address)public isOwner returns(bool res)  {\n\t\tassert (!activeValidators[_address].isValidator);\n\t\tassert (activeValidators[_address].status == Status.INACTIVE);\n\t\tassert (voteFor(_address,msg.sender));\n\t\tif(votes[_address].countFor >= adminSet.getTotalCount() / 2 + 1){\n    \t\tif(!exists[_address]){\n    \t\t\t\tadminValidatorsMap[msg.sender].push(_address);\n    \t\t\t\tvalidators.push(_address);\n    \t\t}\t\t\n    \t\texists[_address] = true;\n    \t\tactiveValidators[_address].isValidator = true;\n    \t\t//activeValidators[_address].lop = LastOp.ADD;\n    \t\tactiveValidators[_address].status = Status.ACTIVE;\n    \t\trequire(clearVotes(_address));\n\t\t    emit addvalidator(_address,msg.sender);\n\t\t}\n\t\tif(votes[_address].countAgainst >= adminSet.getTotalCount() / 2 +1){\n\t\t    require(clearVotes(_address));\n\t\t}\n\t\treturn true;\n\t}\n\n\tfunction removeValidator (address _address)public isOwner returns(bool res)  {\n\t\tassert (activeValidators[_address].isValidator);\n\t\tassert (activeValidators[_address].status == Status.ACTIVE);\n\t\tassert (voteFor(_address,msg.sender));\n\t\tif(votes[_address].countFor >= adminSet.getTotalCount() / 2 + 1){\n    \t\tactiveValidators[_address].isValidator = false;\n    \t\t//activeValidators[_address].lop = LastOp.REMOVE;\n    \t\tactiveValidators[_address].status = Status.INACTIVE;\n    \t\trequire(clearVotes(_address));\n    \t\temit removevalidator(_address,msg.sender);\n\t\t}\n\t\tif(votes[_address].countAgainst >= adminSet.getTotalCount() / 2 +1){\n\t\t    require(clearVotes(_address));\n\t\t}\n\t\treturn true;\n\t}\n\n\n\t/*function lastOp (address _address)public view isOwner returns(string res){\n\t\tif(activeValidators[_address].lop == LastOp.ADD){\n\t\t\treturn \"add\";\n\t\t}\n\t\telse if(activeValidators[_address].lop == LastOp.REMOVE){\n\t\t\treturn \"remove\";\n\t\t}else{\n\t\t\treturn \"no op\";\n\t\t}\n\t}*/\n\n\tfunction getValidatorsForAdmin() public view isOwner returns (address[] a){\n\t    return adminValidatorsMap[msg.sender];\n\t}\n\n\tfunction isValidator(address _address) public view isOwner returns(bool a){\n\t    return activeValidators[_address].isValidator;\n\t}\n\n\tfunction getAllValidators()public view isOwner returns(address[] a){\n\t    return validators;\n\t}\n\n}\n",
  "sourcePath": "/Users/rahulgolash/Rahul/Ledgerium/CoreLedgerium/governanceApp/contracts/SimpleValidatorSet.sol",
  "compiler": {
    "name": "solc",
    "version": "0.4.24+commit.e67f0147.Emscripten.clang"
  },
  "schemaVersion": "2.0.0",
  "updatedAt": "2018-10-12T04:08:22.859Z"
}