{
  "contractName": "SimpleValidatorSet",
  "abi": [
    {
      "inputs": [
        {
          "name": "_address",
          "type": "address"
        }
      ],
      "payable": false,
      "stateMutability": "nonpayable",
      "type": "constructor"
    },
    {
      "anonymous": false,
      "inputs": [
        {
          "indexed": false,
          "name": "validator",
          "type": "address"
        },
        {
          "indexed": false,
          "name": "_admin",
          "type": "address"
        }
      ],
      "name": "addvalidator",
      "type": "event"
    },
    {
      "anonymous": false,
      "inputs": [
        {
          "indexed": false,
          "name": "validator",
          "type": "address"
        },
        {
          "indexed": false,
          "name": "_admin",
          "type": "address"
        }
      ],
      "name": "removevalidator",
      "type": "event"
    },
    {
      "anonymous": false,
      "inputs": [
        {
          "indexed": false,
          "name": "validator",
          "type": "address"
        },
        {
          "indexed": false,
          "name": "_admin",
          "type": "address"
        },
        {
          "indexed": false,
          "name": "_event",
          "type": "string"
        }
      ],
      "name": "finalizeEvent",
      "type": "event"
    },
    {
      "anonymous": false,
      "inputs": [
        {
          "indexed": false,
          "name": "by",
          "type": "address"
        },
        {
          "indexed": false,
          "name": "vfor",
          "type": "address"
        }
      ],
      "name": "votedfor",
      "type": "event"
    },
    {
      "anonymous": false,
      "inputs": [
        {
          "indexed": false,
          "name": "by",
          "type": "address"
        },
        {
          "indexed": false,
          "name": "vfor",
          "type": "address"
        }
      ],
      "name": "votedagainst",
      "type": "event"
    },
    {
      "constant": false,
      "inputs": [
        {
          "name": "_address",
          "type": "address"
        }
      ],
      "name": "addValidator",
      "outputs": [
        {
          "name": "res",
          "type": "bool"
        }
      ],
      "payable": false,
      "stateMutability": "nonpayable",
      "type": "function"
    },
    {
      "constant": false,
      "inputs": [
        {
          "name": "_address",
          "type": "address"
        }
      ],
      "name": "removeValidator",
      "outputs": [
        {
          "name": "res",
          "type": "bool"
        }
      ],
      "payable": false,
      "stateMutability": "nonpayable",
      "type": "function"
    },
    {
      "constant": true,
      "inputs": [
        {
          "name": "_address",
          "type": "address"
        }
      ],
      "name": "checkProposal",
      "outputs": [
        {
          "name": "res",
          "type": "string"
        }
      ],
      "payable": false,
      "stateMutability": "view",
      "type": "function"
    },
    {
      "constant": true,
      "inputs": [],
      "name": "getValidatorsForAdmin",
      "outputs": [
        {
          "name": "a",
          "type": "address[]"
        }
      ],
      "payable": false,
      "stateMutability": "view",
      "type": "function"
    },
    {
      "constant": true,
      "inputs": [
        {
          "name": "_address",
          "type": "address"
        }
      ],
      "name": "isValidator",
      "outputs": [
        {
          "name": "a",
          "type": "bool"
        }
      ],
      "payable": false,
      "stateMutability": "view",
      "type": "function"
    },
    {
      "constant": true,
      "inputs": [],
      "name": "getAllValidators",
      "outputs": [
        {
          "name": "a",
          "type": "address[]"
        }
      ],
      "payable": false,
      "stateMutability": "view",
      "type": "function"
    }
  ],
  "bytecode": "0x608060405234801561001057600080fd5b506040516020806121c38339810180604052810190808051906020019092919050505080600160006101000a81548173ffffffffffffffffffffffffffffffffffffffff021916908373ffffffffffffffffffffffffffffffffffffffff1602179055505061213f806100846000396000f300608060405260043610610078576000357c0100000000000000000000000000000000000000000000000000000000900463ffffffff1680632c9f55ed1461007d57806340a141ff146101395780634d238c8e14610194578063dd31863c146101ef578063f3513a371461025b578063facd743b146102c7575b600080fd5b34801561008957600080fd5b506100be600480360381019080803573ffffffffffffffffffffffffffffffffffffffff169060200190929190505050610322565b6040518080602001828103825283818151815260200191508051906020019080838360005b838110156100fe5780820151818401526020810190506100e3565b50505050905090810190601f16801561012b5780820380516001836020036101000a031916815260200191505b509250505060405180910390f35b34801561014557600080fd5b5061017a600480360381019080803573ffffffffffffffffffffffffffffffffffffffff169060200190929190505050610437565b604051808215151515815260200191505060405180910390f35b3480156101a057600080fd5b506101d5600480360381019080803573ffffffffffffffffffffffffffffffffffffffff169060200190929190505050610ae0565b604051808215151515815260200191505060405180910390f35b3480156101fb57600080fd5b5061020461133f565b6040518080602001828103825283818151815260200191508051906020019060200280838360005b8381101561024757808201518184015260208101905061022c565b505050509050019250505060405180910390f35b34801561026757600080fd5b5061027061150d565b6040518080602001828103825283818151815260200191508051906020019060200280838360005b838110156102b3578082015181840152602081019050610298565b505050509050019250505060405180910390f35b3480156102d357600080fd5b50610308600480360381019080803573ffffffffffffffffffffffffffffffffffffffff16906020019092919050505061169e565b604051808215151515815260200191505060405180910390f35b6060600160009054906101000a900473ffffffffffffffffffffffffffffffffffffffff1673ffffffffffffffffffffffffffffffffffffffff16639026dee8336040518263ffffffff167c0100000000000000000000000000000000000000000000000000000000028152600401808273ffffffffffffffffffffffffffffffffffffffff1673ffffffffffffffffffffffffffffffffffffffff168152602001915050602060405180830381600087803b1580156103e157600080fd5b505af11580156103f5573d6000803e3d6000fd5b505050506040513d602081101561040b57600080fd5b8101908080519060200190929190505050151561042757600080fd5b610430826117fa565b9050919050565b6000600160009054906101000a900473ffffffffffffffffffffffffffffffffffffffff1673ffffffffffffffffffffffffffffffffffffffff16639026dee8336040518263ffffffff167c0100000000000000000000000000000000000000000000000000000000028152600401808273ffffffffffffffffffffffffffffffffffffffff1673ffffffffffffffffffffffffffffffffffffffff168152602001915050602060405180830381600087803b1580156104f657600080fd5b505af115801561050a573d6000803e3d6000fd5b505050506040513d602081101561052057600080fd5b8101908080519060200190929190505050151561053c57600080fd5b600260008373ffffffffffffffffffffffffffffffffffffffff1673ffffffffffffffffffffffffffffffffffffffff16815260200190815260200160002060000160009054906101000a900460ff16151561059457fe5b6002808111156105a057fe5b600260008473ffffffffffffffffffffffffffffffffffffffff1673ffffffffffffffffffffffffffffffffffffffff16815260200190815260200160002060000160019054906101000a900460ff1660028111156105fb57fe5b14151561060457fe5b61060e823361198d565b151561061657fe5b60016002600160009054906101000a900473ffffffffffffffffffffffffffffffffffffffff1673ffffffffffffffffffffffffffffffffffffffff166356d42bb36040518163ffffffff167c0100000000000000000000000000000000000000000000000000000000028152600401602060405180830381600087803b1580156106a057600080fd5b505af11580156106b4573d6000803e3d6000fd5b505050506040513d60208110156106ca57600080fd5b810190808051906020019092919050505063ffffffff168115156106ea57fe5b040163ffffffff166000808473ffffffffffffffffffffffffffffffffffffffff1673ffffffffffffffffffffffffffffffffffffffff16815260200190815260200160002060000160019054906101000a900463ffffffff1663ffffffff16101515610923576000600260008473ffffffffffffffffffffffffffffffffffffffff1673ffffffffffffffffffffffffffffffffffffffff16815260200190815260200160002060000160006101000a81548160ff0219169083151502179055506000600260008473ffffffffffffffffffffffffffffffffffffffff1673ffffffffffffffffffffffffffffffffffffffff16815260200190815260200160002060000160016101000a81548160ff0219169083600281111561080b57fe5b021790555061081982611cf4565b151561082457600080fd5b60008060008473ffffffffffffffffffffffffffffffffffffffff1673ffffffffffffffffffffffffffffffffffffffff16815260200190815260200160002060000160006101000a81548160ff0219169083600281111561088257fe5b02179055507f0e38f3f1f3951ab725aae659235f220f0047662c0cb8b69de232fcd2ecc373168233604051808373ffffffffffffffffffffffffffffffffffffffff1673ffffffffffffffffffffffffffffffffffffffff1681526020018273ffffffffffffffffffffffffffffffffffffffff1673ffffffffffffffffffffffffffffffffffffffff1681526020019250505060405180910390a1610987565b60026000808473ffffffffffffffffffffffffffffffffffffffff1673ffffffffffffffffffffffffffffffffffffffff16815260200190815260200160002060000160006101000a81548160ff0219169083600281111561098157fe5b02179055505b60016002600160009054906101000a900473ffffffffffffffffffffffffffffffffffffffff1673ffffffffffffffffffffffffffffffffffffffff166356d42bb36040518163ffffffff167c0100000000000000000000000000000000000000000000000000000000028152600401602060405180830381600087803b158015610a1157600080fd5b505af1158015610a25573d6000803e3d6000fd5b505050506040513d6020811015610a3b57600080fd5b810190808051906020019092919050505063ffffffff16811515610a5b57fe5b040163ffffffff166000808473ffffffffffffffffffffffffffffffffffffffff1673ffffffffffffffffffffffffffffffffffffffff16815260200190815260200160002060000160059054906101000a900463ffffffff1663ffffffff16101515610ad757610acb82611cf4565b1515610ad657600080fd5b5b60019050919050565b6000600160009054906101000a900473ffffffffffffffffffffffffffffffffffffffff1673ffffffffffffffffffffffffffffffffffffffff16639026dee8336040518263ffffffff167c0100000000000000000000000000000000000000000000000000000000028152600401808273ffffffffffffffffffffffffffffffffffffffff1673ffffffffffffffffffffffffffffffffffffffff168152602001915050602060405180830381600087803b158015610b9f57600080fd5b505af1158015610bb3573d6000803e3d6000fd5b505050506040513d6020811015610bc957600080fd5b81019080805190602001909291905050501515610be557600080fd5b600260008373ffffffffffffffffffffffffffffffffffffffff1673ffffffffffffffffffffffffffffffffffffffff16815260200190815260200160002060000160009054906101000a900460ff16151515610c3e57fe5b60006002811115610c4b57fe5b600260008473ffffffffffffffffffffffffffffffffffffffff1673ffffffffffffffffffffffffffffffffffffffff16815260200190815260200160002060000160019054906101000a900460ff166002811115610ca657fe5b141515610caf57fe5b610cb9823361198d565b1515610cc157fe5b60016002600160009054906101000a900473ffffffffffffffffffffffffffffffffffffffff1673ffffffffffffffffffffffffffffffffffffffff166356d42bb36040518163ffffffff167c0100000000000000000000000000000000000000000000000000000000028152600401602060405180830381600087803b158015610d4b57600080fd5b505af1158015610d5f573d6000803e3d6000fd5b505050506040513d6020811015610d7557600080fd5b810190808051906020019092919050505063ffffffff16811515610d9557fe5b040163ffffffff166000808473ffffffffffffffffffffffffffffffffffffffff1673ffffffffffffffffffffffffffffffffffffffff16815260200190815260200160002060000160019054906101000a900463ffffffff1663ffffffff1610151561118257600560008373ffffffffffffffffffffffffffffffffffffffff1673ffffffffffffffffffffffffffffffffffffffff16815260200190815260200160002060009054906101000a900460ff161515610f5957600360003373ffffffffffffffffffffffffffffffffffffffff1673ffffffffffffffffffffffffffffffffffffffff1681526020019081526020016000208290806001815401808255809150509060018203906000526020600020016000909192909190916101000a81548173ffffffffffffffffffffffffffffffffffffffff021916908373ffffffffffffffffffffffffffffffffffffffff1602179055505060048290806001815401808255809150509060018203906000526020600020016000909192909190916101000a81548173ffffffffffffffffffffffffffffffffffffffff021916908373ffffffffffffffffffffffffffffffffffffffff160217905550505b6001600560008473ffffffffffffffffffffffffffffffffffffffff1673ffffffffffffffffffffffffffffffffffffffff16815260200190815260200160002060006101000a81548160ff0219169083151502179055506001600260008473ffffffffffffffffffffffffffffffffffffffff1673ffffffffffffffffffffffffffffffffffffffff16815260200190815260200160002060000160006101000a81548160ff02191690831515021790555060028060008473ffffffffffffffffffffffffffffffffffffffff1673ffffffffffffffffffffffffffffffffffffffff16815260200190815260200160002060000160016101000a81548160ff0219169083600281111561106a57fe5b021790555061107882611cf4565b151561108357600080fd5b60008060008473ffffffffffffffffffffffffffffffffffffffff1673ffffffffffffffffffffffffffffffffffffffff16815260200190815260200160002060000160006101000a81548160ff021916908360028111156110e157fe5b02179055507f039da864d27cfcd2c69976e7bcbf44b3ca4a79a2f6ba32b27bcf51640040db518233604051808373ffffffffffffffffffffffffffffffffffffffff1673ffffffffffffffffffffffffffffffffffffffff1681526020018273ffffffffffffffffffffffffffffffffffffffff1673ffffffffffffffffffffffffffffffffffffffff1681526020019250505060405180910390a16111e6565b60016000808473ffffffffffffffffffffffffffffffffffffffff1673ffffffffffffffffffffffffffffffffffffffff16815260200190815260200160002060000160006101000a81548160ff021916908360028111156111e057fe5b02179055505b60016002600160009054906101000a900473ffffffffffffffffffffffffffffffffffffffff1673ffffffffffffffffffffffffffffffffffffffff166356d42bb36040518163ffffffff167c0100000000000000000000000000000000000000000000000000000000028152600401602060405180830381600087803b15801561127057600080fd5b505af1158015611284573d6000803e3d6000fd5b505050506040513d602081101561129a57600080fd5b810190808051906020019092919050505063ffffffff168115156112ba57fe5b040163ffffffff166000808473ffffffffffffffffffffffffffffffffffffffff1673ffffffffffffffffffffffffffffffffffffffff16815260200190815260200160002060000160059054906101000a900463ffffffff1663ffffffff161015156113365761132a82611cf4565b151561133557600080fd5b5b60019050919050565b6060600160009054906101000a900473ffffffffffffffffffffffffffffffffffffffff1673ffffffffffffffffffffffffffffffffffffffff16639026dee8336040518263ffffffff167c0100000000000000000000000000000000000000000000000000000000028152600401808273ffffffffffffffffffffffffffffffffffffffff1673ffffffffffffffffffffffffffffffffffffffff168152602001915050602060405180830381600087803b1580156113fe57600080fd5b505af1158015611412573d6000803e3d6000fd5b505050506040513d602081101561142857600080fd5b8101908080519060200190929190505050151561144457600080fd5b600360003373ffffffffffffffffffffffffffffffffffffffff1673ffffffffffffffffffffffffffffffffffffffff16815260200190815260200160002080548060200260200160405190810160405280929190818152602001828054801561150357602002820191906000526020600020905b8160009054906101000a900473ffffffffffffffffffffffffffffffffffffffff1673ffffffffffffffffffffffffffffffffffffffff16815260200190600101908083116114b9575b5050505050905090565b6060600160009054906101000a900473ffffffffffffffffffffffffffffffffffffffff1673ffffffffffffffffffffffffffffffffffffffff16639026dee8336040518263ffffffff167c0100000000000000000000000000000000000000000000000000000000028152600401808273ffffffffffffffffffffffffffffffffffffffff1673ffffffffffffffffffffffffffffffffffffffff168152602001915050602060405180830381600087803b1580156115cc57600080fd5b505af11580156115e0573d6000803e3d6000fd5b505050506040513d60208110156115f657600080fd5b8101908080519060200190929190505050151561161257600080fd5b600480548060200260200160405190810160405280929190818152602001828054801561169457602002820191906000526020600020905b8160009054906101000a900473ffffffffffffffffffffffffffffffffffffffff1673ffffffffffffffffffffffffffffffffffffffff168152602001906001019080831161164a575b5050505050905090565b6000600160009054906101000a900473ffffffffffffffffffffffffffffffffffffffff1673ffffffffffffffffffffffffffffffffffffffff16639026dee8336040518263ffffffff167c0100000000000000000000000000000000000000000000000000000000028152600401808273ffffffffffffffffffffffffffffffffffffffff1673ffffffffffffffffffffffffffffffffffffffff168152602001915050602060405180830381600087803b15801561175d57600080fd5b505af1158015611771573d6000803e3d6000fd5b505050506040513d602081101561178757600080fd5b810190808051906020019092919050505015156117a357600080fd5b600260008373ffffffffffffffffffffffffffffffffffffffff1673ffffffffffffffffffffffffffffffffffffffff16815260200190815260200160002060000160009054906101000a900460ff169050919050565b60606001600281111561180957fe5b6000808473ffffffffffffffffffffffffffffffffffffffff1673ffffffffffffffffffffffffffffffffffffffff16815260200190815260200160002060000160009054906101000a900460ff16600281111561186357fe5b14156118a6576040805190810160405280600381526020017f61646400000000000000000000000000000000000000000000000000000000008152509050611988565b6002808111156118b257fe5b6000808473ffffffffffffffffffffffffffffffffffffffff1673ffffffffffffffffffffffffffffffffffffffff16815260200190815260200160002060000160009054906101000a900460ff16600281111561190c57fe5b141561194f576040805190810160405280600681526020017f72656d6f766500000000000000000000000000000000000000000000000000008152509050611988565b6040805190810160405280601481526020017f70726f706f73616c206e6f74206372656174656400000000000000000000000081525090505b919050565b6000806000600281111561199d57fe5b6000808673ffffffffffffffffffffffffffffffffffffffff1673ffffffffffffffffffffffffffffffffffffffff16815260200190815260200160002060010160008573ffffffffffffffffffffffffffffffffffffffff1673ffffffffffffffffffffffffffffffffffffffff16815260200190815260200160002060009054906101000a900460ff166002811115611a3457fe5b141515611a4057600080fd5b611aab60016000808773ffffffffffffffffffffffffffffffffffffffff1673ffffffffffffffffffffffffffffffffffffffff16815260200190815260200160002060000160019054906101000a900463ffffffff1663ffffffff1661201c90919063ffffffff16565b9050806000808673ffffffffffffffffffffffffffffffffffffffff1673ffffffffffffffffffffffffffffffffffffffff16815260200190815260200160002060000160016101000a81548163ffffffff021916908363ffffffff16021790555060016000808673ffffffffffffffffffffffffffffffffffffffff1673ffffffffffffffffffffffffffffffffffffffff16815260200190815260200160002060010160008573ffffffffffffffffffffffffffffffffffffffff1673ffffffffffffffffffffffffffffffffffffffff16815260200190815260200160002060006101000a81548160ff02191690836002811115611ba857fe5b02179055506000808573ffffffffffffffffffffffffffffffffffffffff1673ffffffffffffffffffffffffffffffffffffffff1681526020019081526020016000206002018390806001815401808255809150509060018203906000526020600020016000909192909190916101000a81548173ffffffffffffffffffffffffffffffffffffffff021916908373ffffffffffffffffffffffffffffffffffffffff160217905550507f7a189becc9d33281e69ff3784545bbabdf6de5b0c3dc9a1478ca39d8ebe2dd718385604051808373ffffffffffffffffffffffffffffffffffffffff1673ffffffffffffffffffffffffffffffffffffffff1681526020018273ffffffffffffffffffffffffffffffffffffffff1673ffffffffffffffffffffffffffffffffffffffff1681526020019250505060405180910390a1600191505092915050565b600060608060008060008673ffffffffffffffffffffffffffffffffffffffff1673ffffffffffffffffffffffffffffffffffffffff168152602001908152602001600020600201805480602002602001604051908101604052809291908181526020018280548015611dbc57602002820191906000526020600020905b8160009054906101000a900473ffffffffffffffffffffffffffffffffffffffff1673ffffffffffffffffffffffffffffffffffffffff1681526020019060010190808311611d72575b5050505050925060008060008773ffffffffffffffffffffffffffffffffffffffff1673ffffffffffffffffffffffffffffffffffffffff16815260200190815260200160002060000160016101000a81548163ffffffff021916908363ffffffff16021790555060008060008773ffffffffffffffffffffffffffffffffffffffff1673ffffffffffffffffffffffffffffffffffffffff16815260200190815260200160002060000160056101000a81548163ffffffff021916908363ffffffff160217905550600090505b8251811015611f575760008060008773ffffffffffffffffffffffffffffffffffffffff1673ffffffffffffffffffffffffffffffffffffffff16815260200190815260200160002060010160008584815181101515611ee657fe5b9060200190602002015173ffffffffffffffffffffffffffffffffffffffff1673ffffffffffffffffffffffffffffffffffffffff16815260200190815260200160002060006101000a81548160ff02191690836002811115611f4557fe5b02179055508080600101915050611e8a565b60008060008773ffffffffffffffffffffffffffffffffffffffff1673ffffffffffffffffffffffffffffffffffffffff16815260200190815260200160002060000160006101000a81548160ff02191690836002811115611fb557fe5b0217905550816000808773ffffffffffffffffffffffffffffffffffffffff1673ffffffffffffffffffffffffffffffffffffffff168152602001908152602001600020600201908051906020019061200f929190612046565b5060019350505050919050565b60008082840190508363ffffffff168163ffffffff161015151561203c57fe5b8091505092915050565b8280548282559060005260206000209081019282156120bf579160200282015b828111156120be5782518260006101000a81548173ffffffffffffffffffffffffffffffffffffffff021916908373ffffffffffffffffffffffffffffffffffffffff16021790555091602001919060010190612066565b5b5090506120cc91906120d0565b5090565b61211091905b8082111561210c57600081816101000a81549073ffffffffffffffffffffffffffffffffffffffff0219169055506001016120d6565b5090565b905600a165627a7a72305820a9629b7535a64dfc09ebf6f8fc6a9f946c8c3dd36aefc8b56ad2d24f0de7148c0029",
  "source": "pragma solidity ^0.4.24;\nimport \"./AdminValidatorSet.sol\";\nimport \"./Voteable.sol\";\n\n/**\n * The ValidatorSet contract maintains the set of validators and Allows\n * admins to add and remove members from the validator set\n */\ncontract SimpleValidatorSet is Voteable{\n\n\tenum Status {\n\t\tINACTIVE,\n\t\tPENDING,\n\t\tACTIVE\n\t}\n\n\tstruct Validator {\n\t\tbool isValidator;\n\t\tStatus status;\n\t}\n\n\tAdminValidatorSet adminSet;\n\n\tmapping (address => Validator) activeValidators;\n\tmapping (address => address[]) adminValidatorsMap;\n\taddress[] validators;\n\tmapping (address => bool) exists;\n\t\n\tuint32 totalCount;\n\n\tconstructor (address _address)public {\n\t\tadminSet = AdminValidatorSet(_address);\n\t}\n\n\tmodifier isOwner() {\n\t\trequire (adminSet.checkAdmin(msg.sender));\n\t\t_;\n\t}\n\n\tevent addvalidator(address validator,address _admin);\n\tevent removevalidator(address validator,address _admin);\n\tevent finalizeEvent(address validator,address _admin,string _event);\n\n\tfunction addValidator (address _address)public isOwner returns(bool res)  {\n\t\tassert (!activeValidators[_address].isValidator);\n\t\tassert (activeValidators[_address].status == Status.INACTIVE);\n\t\tassert (voteFor(_address,msg.sender));\n\t\tif(votes[_address].countFor >= adminSet.getTotalCount() / 2 + 1){\n    \t\tif(!exists[_address]){\n    \t\t\t\tadminValidatorsMap[msg.sender].push(_address);\n    \t\t\t\tvalidators.push(_address);\n    \t\t}\t\t\n    \t\texists[_address] = true;\n    \t\tactiveValidators[_address].isValidator = true;\n    \t\t//activeValidators[_address].lop = LastOp.ADD;\n    \t\tactiveValidators[_address].status = Status.ACTIVE;\n    \t\trequire(clearVotes(_address));\n\t\t\tvotes[_address].proposal = Proposal.NOT_CREATED;\n\t\t    emit addvalidator(_address,msg.sender);\n\t\t}\n\t\telse {\n\t\t\tvotes[_address].proposal = Proposal.ADD;\n\t\t}\n\t\tif(votes[_address].countAgainst >= adminSet.getTotalCount() / 2 +1){\n\t\t    require(clearVotes(_address));\n\t\t}\n\t\treturn true;\n\t}\n\n\tfunction removeValidator (address _address)public isOwner returns(bool res)  {\n\t\tassert (activeValidators[_address].isValidator);\n\t\tassert (activeValidators[_address].status == Status.ACTIVE);\n\t\tassert (voteFor(_address,msg.sender));\n\t\tif(votes[_address].countFor >= adminSet.getTotalCount() / 2 + 1){\n    \t\tactiveValidators[_address].isValidator = false;\n    \t\t//activeValidators[_address].lop = LastOp.REMOVE;\n    \t\tactiveValidators[_address].status = Status.INACTIVE;\n    \t\trequire(clearVotes(_address));\n\t\t\tvotes[_address].proposal = Proposal.NOT_CREATED;\n    \t\temit removevalidator(_address,msg.sender);\n\t\t}\n\t\telse {\n\t\t\tvotes[_address].proposal = Proposal.REMOVE;\n\t\t}\n\t\tif(votes[_address].countAgainst >= adminSet.getTotalCount() / 2 +1){\n\t\t    require(clearVotes(_address));\n\t\t}\n\t\treturn true;\n\t}\n\n\n\t/*function lastOp (address _address)public view isOwner returns(string res){\n\t\tif(activeValidators[_address].lop == LastOp.ADD){\n\t\t\treturn \"add\";\n\t\t}\n\t\telse if(activeValidators[_address].lop == LastOp.REMOVE){\n\t\t\treturn \"remove\";\n\t\t}else{\n\t\t\treturn \"no op\";\t\n\t\t}\n\t}*/\n\n\tfunction checkProposal (address _address) public view isOwner returns(string res){\n\t\treturn internalCheckProposal(_address);\n\t}\n\n\tfunction getValidatorsForAdmin() public view isOwner returns (address[] a){\n\t    return adminValidatorsMap[msg.sender];\n\t}\n\n\tfunction isValidator(address _address) public view isOwner returns(bool a){\n\t    return activeValidators[_address].isValidator;\n\t}\n\n\tfunction getAllValidators()public view isOwner returns(address[] a){\n\t    return validators;\n\t}\n\n}\n",
  "sourcePath": "/Users/rahulgolash/Rahul/Ledgerium/CoreLedgerium/governanceApp/contracts/SimpleValidatorSet.sol",
  "compiler": {
    "name": "solc",
    "version": "0.4.24+commit.e67f0147.Emscripten.clang"
  },
  "schemaVersion": "2.0.0",
  "updatedAt": "2018-10-15T02:31:59.592Z"
}