{
  "contractName": "SimpleValidatorSet",
  "abi": [
    {
      "inputs": [
        {
          "name": "_adminContractAddress",
          "type": "address"
        }
      ],
      "payable": false,
      "stateMutability": "nonpayable",
      "type": "constructor"
    },
    {
      "anonymous": false,
      "inputs": [
        {
          "indexed": false,
          "name": "minNoOfValidator",
          "type": "uint8"
        }
      ],
      "name": "minValidatorNeeded",
      "type": "event"
    },
    {
      "anonymous": false,
      "inputs": [
        {
          "indexed": true,
          "name": "validator",
          "type": "address"
        },
        {
          "indexed": false,
          "name": "_admin",
          "type": "address"
        }
      ],
      "name": "addValidator",
      "type": "event"
    },
    {
      "anonymous": false,
      "inputs": [
        {
          "indexed": true,
          "name": "validator",
          "type": "address"
        },
        {
          "indexed": false,
          "name": "_admin",
          "type": "address"
        }
      ],
      "name": "removeValidator",
      "type": "event"
    },
    {
      "anonymous": false,
      "inputs": [
        {
          "indexed": false,
          "name": "by",
          "type": "address"
        },
        {
          "indexed": false,
          "name": "vfor",
          "type": "address"
        }
      ],
      "name": "votedfor",
      "type": "event"
    },
    {
      "anonymous": false,
      "inputs": [
        {
          "indexed": false,
          "name": "by",
          "type": "address"
        },
        {
          "indexed": false,
          "name": "vfor",
          "type": "address"
        }
      ],
      "name": "votedagainst",
      "type": "event"
    },
    {
      "anonymous": false,
      "inputs": [
        {
          "indexed": true,
          "name": "_address",
          "type": "address"
        }
      ],
      "name": "alreadyProposalForAddingValidator",
      "type": "event"
    },
    {
      "anonymous": false,
      "inputs": [
        {
          "indexed": true,
          "name": "_address",
          "type": "address"
        }
      ],
      "name": "alreadyProposalForRemovingValidator",
      "type": "event"
    },
    {
      "anonymous": false,
      "inputs": [
        {
          "indexed": true,
          "name": "_address",
          "type": "address"
        }
      ],
      "name": "noProposalForAddingValidator",
      "type": "event"
    },
    {
      "anonymous": false,
      "inputs": [
        {
          "indexed": true,
          "name": "_address",
          "type": "address"
        }
      ],
      "name": "noProposalForRemovingValidator",
      "type": "event"
    },
    {
      "anonymous": false,
      "inputs": [
        {
          "indexed": true,
          "name": "_address",
          "type": "address"
        }
      ],
      "name": "alreadyActiveValidator",
      "type": "event"
    },
    {
      "anonymous": false,
      "inputs": [
        {
          "indexed": true,
          "name": "_address",
          "type": "address"
        }
      ],
      "name": "alreadyInActiveValidator",
      "type": "event"
    },
    {
      "constant": false,
      "inputs": [
        {
          "name": "_address",
          "type": "address"
        }
      ],
      "name": "proposalToAddValidator",
      "outputs": [
        {
          "name": "res",
          "type": "bool"
        }
      ],
      "payable": false,
      "stateMutability": "nonpayable",
      "type": "function"
    },
    {
      "constant": false,
      "inputs": [
        {
          "name": "_address",
          "type": "address"
        }
      ],
      "name": "voteForAddingValidator",
      "outputs": [
        {
          "name": "res",
          "type": "bool"
        }
      ],
      "payable": false,
      "stateMutability": "nonpayable",
      "type": "function"
    },
    {
      "constant": false,
      "inputs": [
        {
          "name": "_address",
          "type": "address"
        }
      ],
      "name": "voteAgainstAddingValidator",
      "outputs": [
        {
          "name": "res",
          "type": "bool"
        }
      ],
      "payable": false,
      "stateMutability": "nonpayable",
      "type": "function"
    },
    {
      "constant": false,
      "inputs": [
        {
          "name": "_address",
          "type": "address"
        }
      ],
      "name": "proposalToRemoveValidator",
      "outputs": [
        {
          "name": "res",
          "type": "bool"
        }
      ],
      "payable": false,
      "stateMutability": "nonpayable",
      "type": "function"
    },
    {
      "constant": false,
      "inputs": [
        {
          "name": "_address",
          "type": "address"
        }
      ],
      "name": "voteForRemovingValidator",
      "outputs": [
        {
          "name": "res",
          "type": "bool"
        }
      ],
      "payable": false,
      "stateMutability": "nonpayable",
      "type": "function"
    },
    {
      "constant": false,
      "inputs": [
        {
          "name": "_address",
          "type": "address"
        }
      ],
      "name": "voteAgainstRemovingValidator",
      "outputs": [
        {
          "name": "res",
          "type": "bool"
        }
      ],
      "payable": false,
      "stateMutability": "nonpayable",
      "type": "function"
    },
    {
      "constant": true,
      "inputs": [
        {
          "name": "_address",
          "type": "address"
        }
      ],
      "name": "checkVotes",
      "outputs": [
        {
          "name": "res",
          "type": "uint32[2]"
        }
      ],
      "payable": false,
      "stateMutability": "view",
      "type": "function"
    },
    {
      "constant": true,
      "inputs": [
        {
          "name": "_address",
          "type": "address"
        }
      ],
      "name": "checkProposal",
      "outputs": [
        {
          "name": "res",
          "type": "string"
        }
      ],
      "payable": false,
      "stateMutability": "view",
      "type": "function"
    },
    {
      "constant": true,
      "inputs": [],
      "name": "getValidatorsForAdmin",
      "outputs": [
        {
          "name": "a",
          "type": "address[]"
        }
      ],
      "payable": false,
      "stateMutability": "view",
      "type": "function"
    },
    {
      "constant": true,
      "inputs": [
        {
          "name": "_address",
          "type": "address"
        }
      ],
      "name": "isActiveValidator",
      "outputs": [
        {
          "name": "a",
          "type": "bool"
        }
      ],
      "payable": false,
      "stateMutability": "view",
      "type": "function"
    },
    {
      "constant": true,
      "inputs": [],
      "name": "getAllValidators",
      "outputs": [
        {
          "name": "a",
          "type": "address[]"
        }
      ],
      "payable": false,
      "stateMutability": "view",
      "type": "function"
    },
    {
      "constant": true,
      "inputs": [],
      "name": "getValidatorsCount",
      "outputs": [
        {
          "name": "",
          "type": "uint32"
        }
      ],
      "payable": false,
      "stateMutability": "view",
      "type": "function"
    },
    {
      "constant": true,
      "inputs": [],
      "name": "getActiveValidatorsCount",
      "outputs": [
        {
          "name": "",
          "type": "uint32"
        }
      ],
      "payable": false,
      "stateMutability": "view",
      "type": "function"
    },
    {
      "constant": false,
      "inputs": [
        {
          "name": "_address",
          "type": "address"
        }
      ],
      "name": "clearProposal",
      "outputs": [
        {
          "name": "res",
          "type": "bool"
        }
      ],
      "payable": false,
      "stateMutability": "nonpayable",
      "type": "function"
    }
  ],
  "bytecode": "0x608060405234801561001057600080fd5b5060405160208062003598833981018060405281019080805190602001909291905050506000806000808493507344643353444f4b42b46ed28e668c204db6dbb7c392507343a69edd54e07b95113fed92e8c9ba004500ce12915073d44b2838207a46f1007b3f296a599fadfb20978c905083600160006101000a81548173ffffffffffffffffffffffffffffffffffffffff021916908373ffffffffffffffffffffffffffffffffffffffff1602179055506001600560008573ffffffffffffffffffffffffffffffffffffffff1673ffffffffffffffffffffffffffffffffffffffff16815260200190815260200160002060006101000a81548160ff021916908315150217905550600360008473ffffffffffffffffffffffffffffffffffffffff1673ffffffffffffffffffffffffffffffffffffffff1681526020019081526020016000208390806001815401808255809150509060018203906000526020600020016000909192909190916101000a81548173ffffffffffffffffffffffffffffffffffffffff021916908373ffffffffffffffffffffffffffffffffffffffff160217905550506001600260008573ffffffffffffffffffffffffffffffffffffffff1673ffffffffffffffffffffffffffffffffffffffff16815260200190815260200160002060000160006101000a81548160ff02191690831515021790555060028060008573ffffffffffffffffffffffffffffffffffffffff1673ffffffffffffffffffffffffffffffffffffffff16815260200190815260200160002060000160016101000a81548160ff0219169083600281111561027757fe5b021790555060048390806001815401808255809150509060018203906000526020600020016000909192909190916101000a81548173ffffffffffffffffffffffffffffffffffffffff021916908373ffffffffffffffffffffffffffffffffffffffff160217905550506001600560008473ffffffffffffffffffffffffffffffffffffffff1673ffffffffffffffffffffffffffffffffffffffff16815260200190815260200160002060006101000a81548160ff021916908315150217905550600360008373ffffffffffffffffffffffffffffffffffffffff1673ffffffffffffffffffffffffffffffffffffffff1681526020019081526020016000208290806001815401808255809150509060018203906000526020600020016000909192909190916101000a81548173ffffffffffffffffffffffffffffffffffffffff021916908373ffffffffffffffffffffffffffffffffffffffff160217905550506001600260008473ffffffffffffffffffffffffffffffffffffffff1673ffffffffffffffffffffffffffffffffffffffff16815260200190815260200160002060000160006101000a81548160ff02191690831515021790555060028060008473ffffffffffffffffffffffffffffffffffffffff1673ffffffffffffffffffffffffffffffffffffffff16815260200190815260200160002060000160016101000a81548160ff0219169083600281111561049657fe5b021790555060048290806001815401808255809150509060018203906000526020600020016000909192909190916101000a81548173ffffffffffffffffffffffffffffffffffffffff021916908373ffffffffffffffffffffffffffffffffffffffff160217905550506001600560008373ffffffffffffffffffffffffffffffffffffffff1673ffffffffffffffffffffffffffffffffffffffff16815260200190815260200160002060006101000a81548160ff021916908315150217905550600360008273ffffffffffffffffffffffffffffffffffffffff1673ffffffffffffffffffffffffffffffffffffffff1681526020019081526020016000208190806001815401808255809150509060018203906000526020600020016000909192909190916101000a81548173ffffffffffffffffffffffffffffffffffffffff021916908373ffffffffffffffffffffffffffffffffffffffff160217905550506001600260008373ffffffffffffffffffffffffffffffffffffffff1673ffffffffffffffffffffffffffffffffffffffff16815260200190815260200160002060000160006101000a81548160ff02191690831515021790555060028060008373ffffffffffffffffffffffffffffffffffffffff1673ffffffffffffffffffffffffffffffffffffffff16815260200190815260200160002060000160016101000a81548160ff021916908360028111156106b557fe5b021790555060048190806001815401808255809150509060018203906000526020600020016000909192909190916101000a81548173ffffffffffffffffffffffffffffffffffffffff021916908373ffffffffffffffffffffffffffffffffffffffff160217905550506003600660006101000a81548163ffffffff021916908363ffffffff1602179055506003600660046101000a81548163ffffffff021916908363ffffffff1602179055505050505050612e1f80620007796000396000f3006080604052600436106100d0576000357c0100000000000000000000000000000000000000000000000000000000900463ffffffff16806312254fc4146100d557806327498240146101305780632c9f55ed1461016757806331147c301461022357806333ca17f81461025a57806340550a1c146102b55780635caea9cb146103105780638df1cab01461038f57806390d6641b146103ea578063b6e7d33214610445578063c162bc03146104a0578063dd31863c146104fb578063de0473d414610567578063f3513a37146105c2575b600080fd5b3480156100e157600080fd5b50610116600480360381019080803573ffffffffffffffffffffffffffffffffffffffff16906020019092919050505061062e565b604051808215151515815260200191505060405180910390f35b34801561013c57600080fd5b506101456109d3565b604051808263ffffffff1663ffffffff16815260200191505060405180910390f35b34801561017357600080fd5b506101a8600480360381019080803573ffffffffffffffffffffffffffffffffffffffff169060200190929190505050610a48565b6040518080602001828103825283818151815260200191508051906020019080838360005b838110156101e85780820151818401526020810190506101cd565b50505050905090810190601f1680156102155780820380516001836020036101000a031916815260200191505b509250505060405180910390f35b34801561022f57600080fd5b50610238610ab5565b604051808263ffffffff1663ffffffff16815260200191505060405180910390f35b34801561026657600080fd5b5061029b600480360381019080803573ffffffffffffffffffffffffffffffffffffffff169060200190929190505050610b2a565b604051808215151515815260200191505060405180910390f35b3480156102c157600080fd5b506102f6600480360381019080803573ffffffffffffffffffffffffffffffffffffffff169060200190929190505050610cfe565b604051808215151515815260200191505060405180910390f35b34801561031c57600080fd5b50610351600480360381019080803573ffffffffffffffffffffffffffffffffffffffff169060200190929190505050610d57565b6040518082600260200280838360005b8381101561037c578082015181840152602081019050610361565b5050505090500191505060405180910390f35b34801561039b57600080fd5b506103d0600480360381019080803573ffffffffffffffffffffffffffffffffffffffff169060200190929190505050610dca565b604051808215151515815260200191505060405180910390f35b3480156103f657600080fd5b5061042b600480360381019080803573ffffffffffffffffffffffffffffffffffffffff1690602001909291905050506111b1565b604051808215151515815260200191505060405180910390f35b34801561045157600080fd5b50610486600480360381019080803573ffffffffffffffffffffffffffffffffffffffff16906020019092919050505061170e565b604051808215151515815260200191505060405180910390f35b3480156104ac57600080fd5b506104e1600480360381019080803573ffffffffffffffffffffffffffffffffffffffff169060200190929190505050611a6a565b604051808215151515815260200191505060405180910390f35b34801561050757600080fd5b50610510611b16565b6040518080602001828103825283818151815260200191508051906020019060200280838360005b83811015610553578082015181840152602081019050610538565b505050509050019250505060405180910390f35b34801561057357600080fd5b506105a8600480360381019080803573ffffffffffffffffffffffffffffffffffffffff169060200190929190505050611ce4565b604051808215151515815260200191505060405180910390f35b3480156105ce57600080fd5b506105d7611eb9565b6040518080602001828103825283818151815260200191508051906020019060200280838360005b8381101561061a5780820151818401526020810190506105ff565b505050509050019250505060405180910390f35b6000600260003373ffffffffffffffffffffffffffffffffffffffff1673ffffffffffffffffffffffffffffffffffffffff16815260200190815260200160002060000160009054906101000a900460ff16151561068b57600080fd5b6003600660049054906101000a900463ffffffff1663ffffffff161115156106f1577fdc735d30ee4d592cfc16495bbeb50c4aff662dd9ef492df61e682d5eeb951acd6003604051808260ff16815260200191505060405180910390a1600090506109ce565b600060028111156106fe57fe5b6000808473ffffffffffffffffffffffffffffffffffffffff1673ffffffffffffffffffffffffffffffffffffffff16815260200190815260200160002060000160009054906101000a900460ff16600281111561075857fe5b1415156108d1576001600281111561076c57fe5b6000808473ffffffffffffffffffffffffffffffffffffffff1673ffffffffffffffffffffffffffffffffffffffff16815260200190815260200160002060000160009054906101000a900460ff1660028111156107c657fe5b1415610818578173ffffffffffffffffffffffffffffffffffffffff167ff3874d83cd2f9ff0b117ecf1a7349a65d95b7efee375cdc7ed3c2b07af9685f160405160405180910390a2600090506109ce565b60028081111561082457fe5b6000808473ffffffffffffffffffffffffffffffffffffffff1673ffffffffffffffffffffffffffffffffffffffff16815260200190815260200160002060000160009054906101000a900460ff16600281111561087e57fe5b14156108d0578173ffffffffffffffffffffffffffffffffffffffff167fb88f2d9e2e80b2f2a1a7cdd5ef418a02d58887ed1d167638ace8abe0aedc279860405160405180910390a2600090506109ce565b5b60026000808473ffffffffffffffffffffffffffffffffffffffff1673ffffffffffffffffffffffffffffffffffffffff16815260200190815260200160002060000160006101000a81548160ff0219169083600281111561092f57fe5b021790555061093e8233611fa2565b151561094957600080fd5b336000808473ffffffffffffffffffffffffffffffffffffffff1673ffffffffffffffffffffffffffffffffffffffff16815260200190815260200160002060000160016101000a81548173ffffffffffffffffffffffffffffffffffffffff021916908373ffffffffffffffffffffffffffffffffffffffff160217905550600190505b919050565b6000600260003373ffffffffffffffffffffffffffffffffffffffff1673ffffffffffffffffffffffffffffffffffffffff16815260200190815260200160002060000160009054906101000a900460ff161515610a3057600080fd5b600660009054906101000a900463ffffffff16905090565b6060600260003373ffffffffffffffffffffffffffffffffffffffff1673ffffffffffffffffffffffffffffffffffffffff16815260200190815260200160002060000160009054906101000a900460ff161515610aa557600080fd5b610aae82612309565b9050919050565b6000600260003373ffffffffffffffffffffffffffffffffffffffff1673ffffffffffffffffffffffffffffffffffffffff16815260200190815260200160002060000160009054906101000a900460ff161515610b1257600080fd5b600660049054906101000a900463ffffffff16905090565b6000600260003373ffffffffffffffffffffffffffffffffffffffff1673ffffffffffffffffffffffffffffffffffffffff16815260200190815260200160002060000160009054906101000a900460ff161515610b8757600080fd5b600280811115610b9357fe5b6000808473ffffffffffffffffffffffffffffffffffffffff1673ffffffffffffffffffffffffffffffffffffffff16815260200190815260200160002060000160009054906101000a900460ff166002811115610bed57fe5b141515610c40578173ffffffffffffffffffffffffffffffffffffffff167f28197290cad61005afa5d457926200dfea8d93058734906fcd9dd325fafdfeee60405160405180910390a260009050610cf9565b610c4a823361249c565b1515610c5557600080fd5b60016002600660049054906101000a900463ffffffff1663ffffffff16811515610c7b57fe5b040163ffffffff166000808473ffffffffffffffffffffffffffffffffffffffff1673ffffffffffffffffffffffffffffffffffffffff16815260200190815260200160002060000160199054906101000a900463ffffffff1663ffffffff16101515610cf457610ceb82612803565b1515610cf357fe5b5b600190505b919050565b6000600260008373ffffffffffffffffffffffffffffffffffffffff1673ffffffffffffffffffffffffffffffffffffffff16815260200190815260200160002060000160009054906101000a900460ff169050919050565b610d5f612d04565b600260003373ffffffffffffffffffffffffffffffffffffffff1673ffffffffffffffffffffffffffffffffffffffff16815260200190815260200160002060000160009054906101000a900460ff161515610dba57600080fd5b610dc382612bac565b9050919050565b6000600160009054906101000a900473ffffffffffffffffffffffffffffffffffffffff1673ffffffffffffffffffffffffffffffffffffffff1663a06a2060336040518263ffffffff167c0100000000000000000000000000000000000000000000000000000000028152600401808273ffffffffffffffffffffffffffffffffffffffff1673ffffffffffffffffffffffffffffffffffffffff168152602001915050602060405180830381600087803b158015610e8957600080fd5b505af1158015610e9d573d6000803e3d6000fd5b505050506040513d6020811015610eb357600080fd5b81019080805190602001909291905050501515610ecf57600080fd5b60006002811115610edc57fe5b6000808473ffffffffffffffffffffffffffffffffffffffff1673ffffffffffffffffffffffffffffffffffffffff16815260200190815260200160002060000160009054906101000a900460ff166002811115610f3657fe5b1415156110af5760016002811115610f4a57fe5b6000808473ffffffffffffffffffffffffffffffffffffffff1673ffffffffffffffffffffffffffffffffffffffff16815260200190815260200160002060000160009054906101000a900460ff166002811115610fa457fe5b1415610ff6578173ffffffffffffffffffffffffffffffffffffffff167ff3874d83cd2f9ff0b117ecf1a7349a65d95b7efee375cdc7ed3c2b07af9685f160405160405180910390a2600090506111ac565b60028081111561100257fe5b6000808473ffffffffffffffffffffffffffffffffffffffff1673ffffffffffffffffffffffffffffffffffffffff16815260200190815260200160002060000160009054906101000a900460ff16600281111561105c57fe5b14156110ae578173ffffffffffffffffffffffffffffffffffffffff167fb88f2d9e2e80b2f2a1a7cdd5ef418a02d58887ed1d167638ace8abe0aedc279860405160405180910390a2600090506111ac565b5b60016000808473ffffffffffffffffffffffffffffffffffffffff1673ffffffffffffffffffffffffffffffffffffffff16815260200190815260200160002060000160006101000a81548160ff0219169083600281111561110d57fe5b021790555061111c8233611fa2565b151561112757600080fd5b336000808473ffffffffffffffffffffffffffffffffffffffff1673ffffffffffffffffffffffffffffffffffffffff16815260200190815260200160002060000160016101000a81548173ffffffffffffffffffffffffffffffffffffffff021916908373ffffffffffffffffffffffffffffffffffffffff160217905550600190505b919050565b6000600260003373ffffffffffffffffffffffffffffffffffffffff1673ffffffffffffffffffffffffffffffffffffffff16815260200190815260200160002060000160009054906101000a900460ff16151561120e57600080fd5b6001600281111561121b57fe5b6000808473ffffffffffffffffffffffffffffffffffffffff1673ffffffffffffffffffffffffffffffffffffffff16815260200190815260200160002060000160009054906101000a900460ff16600281111561127557fe5b1415156112c8578173ffffffffffffffffffffffffffffffffffffffff167f1f4b9c7b059fc45279a27b2e2f60d2456d43681929af61c818aad0260d3d1c1060405160405180910390a260009050611709565b6112d28233611fa2565b15156112dd57600080fd5b60016002600660049054906101000a900463ffffffff1663ffffffff1681151561130357fe5b040163ffffffff166000808473ffffffffffffffffffffffffffffffffffffffff1673ffffffffffffffffffffffffffffffffffffffff16815260200190815260200160002060000160159054906101000a900463ffffffff1663ffffffff1610151561170457600560008373ffffffffffffffffffffffffffffffffffffffff1673ffffffffffffffffffffffffffffffffffffffff16815260200190815260200160002060009054906101000a900460ff16151561151357600360003373ffffffffffffffffffffffffffffffffffffffff1673ffffffffffffffffffffffffffffffffffffffff1681526020019081526020016000208290806001815401808255809150509060018203906000526020600020016000909192909190916101000a81548173ffffffffffffffffffffffffffffffffffffffff021916908373ffffffffffffffffffffffffffffffffffffffff1602179055505060048290806001815401808255809150509060018203906000526020600020016000909192909190916101000a81548173ffffffffffffffffffffffffffffffffffffffff021916908373ffffffffffffffffffffffffffffffffffffffff160217905550506114f26001600660009054906101000a900463ffffffff1663ffffffff16612cb590919063ffffffff16565b600660006101000a81548163ffffffff021916908363ffffffff1602179055505b6001600560008473ffffffffffffffffffffffffffffffffffffffff1673ffffffffffffffffffffffffffffffffffffffff16815260200190815260200160002060006101000a81548160ff0219169083151502179055506001600260008473ffffffffffffffffffffffffffffffffffffffff1673ffffffffffffffffffffffffffffffffffffffff16815260200190815260200160002060000160006101000a81548160ff02191690831515021790555060028060008473ffffffffffffffffffffffffffffffffffffffff1673ffffffffffffffffffffffffffffffffffffffff16815260200190815260200160002060000160016101000a81548160ff0219169083600281111561162457fe5b02179055506116556001600660049054906101000a900463ffffffff1663ffffffff16612cb590919063ffffffff16565b600660046101000a81548163ffffffff021916908363ffffffff16021790555061167e82612803565b151561168957600080fd5b8173ffffffffffffffffffffffffffffffffffffffff167fb1819c2b26dbd89c826c99326bb83e0331ac27f73e635a7c678e2444e3187fbd33604051808273ffffffffffffffffffffffffffffffffffffffff1673ffffffffffffffffffffffffffffffffffffffff16815260200191505060405180910390a25b600190505b919050565b6000600260003373ffffffffffffffffffffffffffffffffffffffff1673ffffffffffffffffffffffffffffffffffffffff16815260200190815260200160002060000160009054906101000a900460ff16151561176b57600080fd5b60028081111561177757fe5b6000808473ffffffffffffffffffffffffffffffffffffffff1673ffffffffffffffffffffffffffffffffffffffff16815260200190815260200160002060000160009054906101000a900460ff1660028111156117d157fe5b141515611824578173ffffffffffffffffffffffffffffffffffffffff167f28197290cad61005afa5d457926200dfea8d93058734906fcd9dd325fafdfeee60405160405180910390a260009050611a65565b61182e8233611fa2565b151561183957600080fd5b60016002600660049054906101000a900463ffffffff1663ffffffff1681151561185f57fe5b040163ffffffff166000808473ffffffffffffffffffffffffffffffffffffffff1673ffffffffffffffffffffffffffffffffffffffff16815260200190815260200160002060000160159054906101000a900463ffffffff1663ffffffff16101515611a60576000600260008473ffffffffffffffffffffffffffffffffffffffff1673ffffffffffffffffffffffffffffffffffffffff16815260200190815260200160002060000160006101000a81548160ff0219169083151502179055506000600260008473ffffffffffffffffffffffffffffffffffffffff1673ffffffffffffffffffffffffffffffffffffffff16815260200190815260200160002060000160016101000a81548160ff0219169083600281111561198057fe5b02179055506119b16001600660049054906101000a900463ffffffff1663ffffffff16612cdf90919063ffffffff16565b600660046101000a81548163ffffffff021916908363ffffffff1602179055506119da82612803565b15156119e557600080fd5b8173ffffffffffffffffffffffffffffffffffffffff167f96cb4c0dbc2c029725ba4b288e856204f004f4a5b38852686b2a4dbd3cf8458933604051808273ffffffffffffffffffffffffffffffffffffffff1673ffffffffffffffffffffffffffffffffffffffff16815260200191505060405180910390a25b600190505b919050565b6000600260003373ffffffffffffffffffffffffffffffffffffffff1673ffffffffffffffffffffffffffffffffffffffff16815260200190815260200160002060000160009054906101000a900460ff161515611ac757600080fd5b600073ffffffffffffffffffffffffffffffffffffffff168273ffffffffffffffffffffffffffffffffffffffff161415611b055760009050611b11565b611b0e82612803565b90505b919050565b6060600160009054906101000a900473ffffffffffffffffffffffffffffffffffffffff1673ffffffffffffffffffffffffffffffffffffffff1663a06a2060336040518263ffffffff167c0100000000000000000000000000000000000000000000000000000000028152600401808273ffffffffffffffffffffffffffffffffffffffff1673ffffffffffffffffffffffffffffffffffffffff168152602001915050602060405180830381600087803b158015611bd557600080fd5b505af1158015611be9573d6000803e3d6000fd5b505050506040513d6020811015611bff57600080fd5b81019080805190602001909291905050501515611c1b57600080fd5b600360003373ffffffffffffffffffffffffffffffffffffffff1673ffffffffffffffffffffffffffffffffffffffff168152602001908152602001600020805480602002602001604051908101604052809291908181526020018280548015611cda57602002820191906000526020600020905b8160009054906101000a900473ffffffffffffffffffffffffffffffffffffffff1673ffffffffffffffffffffffffffffffffffffffff1681526020019060010190808311611c90575b5050505050905090565b6000600260003373ffffffffffffffffffffffffffffffffffffffff1673ffffffffffffffffffffffffffffffffffffffff16815260200190815260200160002060000160009054906101000a900460ff161515611d4157600080fd5b60016002811115611d4e57fe5b6000808473ffffffffffffffffffffffffffffffffffffffff1673ffffffffffffffffffffffffffffffffffffffff16815260200190815260200160002060000160009054906101000a900460ff166002811115611da857fe5b141515611dfb578173ffffffffffffffffffffffffffffffffffffffff167f1f4b9c7b059fc45279a27b2e2f60d2456d43681929af61c818aad0260d3d1c1060405160405180910390a260009050611eb4565b611e05823361249c565b1515611e1057600080fd5b60016002600660049054906101000a900463ffffffff1663ffffffff16811515611e3657fe5b040163ffffffff166000808473ffffffffffffffffffffffffffffffffffffffff1673ffffffffffffffffffffffffffffffffffffffff16815260200190815260200160002060000160199054906101000a900463ffffffff1663ffffffff16101515611eaf57611ea682612803565b1515611eae57fe5b5b600190505b919050565b6060600260003373ffffffffffffffffffffffffffffffffffffffff1673ffffffffffffffffffffffffffffffffffffffff16815260200190815260200160002060000160009054906101000a900460ff161515611f1657600080fd5b6004805480602002602001604051908101604052809291908181526020018280548015611f9857602002820191906000526020600020905b8160009054906101000a900473ffffffffffffffffffffffffffffffffffffffff1673ffffffffffffffffffffffffffffffffffffffff1681526020019060010190808311611f4e575b5050505050905090565b60008060006002811115611fb257fe5b6000808673ffffffffffffffffffffffffffffffffffffffff1673ffffffffffffffffffffffffffffffffffffffff16815260200190815260200160002060010160008573ffffffffffffffffffffffffffffffffffffffff1673ffffffffffffffffffffffffffffffffffffffff16815260200190815260200160002060009054906101000a900460ff16600281111561204957fe5b14151561205557600080fd5b6120c060016000808773ffffffffffffffffffffffffffffffffffffffff1673ffffffffffffffffffffffffffffffffffffffff16815260200190815260200160002060000160159054906101000a900463ffffffff1663ffffffff16612cb590919063ffffffff16565b9050806000808673ffffffffffffffffffffffffffffffffffffffff1673ffffffffffffffffffffffffffffffffffffffff16815260200190815260200160002060000160156101000a81548163ffffffff021916908363ffffffff16021790555060016000808673ffffffffffffffffffffffffffffffffffffffff1673ffffffffffffffffffffffffffffffffffffffff16815260200190815260200160002060010160008573ffffffffffffffffffffffffffffffffffffffff1673ffffffffffffffffffffffffffffffffffffffff16815260200190815260200160002060006101000a81548160ff021916908360028111156121bd57fe5b02179055506000808573ffffffffffffffffffffffffffffffffffffffff1673ffffffffffffffffffffffffffffffffffffffff1681526020019081526020016000206002018390806001815401808255809150509060018203906000526020600020016000909192909190916101000a81548173ffffffffffffffffffffffffffffffffffffffff021916908373ffffffffffffffffffffffffffffffffffffffff160217905550507f7a189becc9d33281e69ff3784545bbabdf6de5b0c3dc9a1478ca39d8ebe2dd718385604051808373ffffffffffffffffffffffffffffffffffffffff1673ffffffffffffffffffffffffffffffffffffffff1681526020018273ffffffffffffffffffffffffffffffffffffffff1673ffffffffffffffffffffffffffffffffffffffff1681526020019250505060405180910390a1600191505092915050565b60606001600281111561231857fe5b6000808473ffffffffffffffffffffffffffffffffffffffff1673ffffffffffffffffffffffffffffffffffffffff16815260200190815260200160002060000160009054906101000a900460ff16600281111561237257fe5b14156123b5576040805190810160405280600381526020017f61646400000000000000000000000000000000000000000000000000000000008152509050612497565b6002808111156123c157fe5b6000808473ffffffffffffffffffffffffffffffffffffffff1673ffffffffffffffffffffffffffffffffffffffff16815260200190815260200160002060000160009054906101000a900460ff16600281111561241b57fe5b141561245e576040805190810160405280600681526020017f72656d6f766500000000000000000000000000000000000000000000000000008152509050612497565b6040805190810160405280601481526020017f70726f706f73616c206e6f74206372656174656400000000000000000000000081525090505b919050565b600080600060028111156124ac57fe5b6000808673ffffffffffffffffffffffffffffffffffffffff1673ffffffffffffffffffffffffffffffffffffffff16815260200190815260200160002060010160008573ffffffffffffffffffffffffffffffffffffffff1673ffffffffffffffffffffffffffffffffffffffff16815260200190815260200160002060009054906101000a900460ff16600281111561254357fe5b14151561254f57600080fd5b6125ba60016000808773ffffffffffffffffffffffffffffffffffffffff1673ffffffffffffffffffffffffffffffffffffffff16815260200190815260200160002060000160199054906101000a900463ffffffff1663ffffffff16612cb590919063ffffffff16565b9050806000808673ffffffffffffffffffffffffffffffffffffffff1673ffffffffffffffffffffffffffffffffffffffff16815260200190815260200160002060000160196101000a81548163ffffffff021916908363ffffffff16021790555060026000808673ffffffffffffffffffffffffffffffffffffffff1673ffffffffffffffffffffffffffffffffffffffff16815260200190815260200160002060010160008573ffffffffffffffffffffffffffffffffffffffff1673ffffffffffffffffffffffffffffffffffffffff16815260200190815260200160002060006101000a81548160ff021916908360028111156126b757fe5b02179055506000808573ffffffffffffffffffffffffffffffffffffffff1673ffffffffffffffffffffffffffffffffffffffff1681526020019081526020016000206002018390806001815401808255809150509060018203906000526020600020016000909192909190916101000a81548173ffffffffffffffffffffffffffffffffffffffff021916908373ffffffffffffffffffffffffffffffffffffffff160217905550507f7a6650c3cb47c42e983c1b1d41edba2961f4e6515feac915850cc410e6c716488385604051808373ffffffffffffffffffffffffffffffffffffffff1673ffffffffffffffffffffffffffffffffffffffff1681526020018273ffffffffffffffffffffffffffffffffffffffff1673ffffffffffffffffffffffffffffffffffffffff1681526020019250505060405180910390a1600191505092915050565b600060608060008060008673ffffffffffffffffffffffffffffffffffffffff1673ffffffffffffffffffffffffffffffffffffffff1681526020019081526020016000206002018054806020026020016040519081016040528092919081815260200182805480156128cb57602002820191906000526020600020905b8160009054906101000a900473ffffffffffffffffffffffffffffffffffffffff1673ffffffffffffffffffffffffffffffffffffffff1681526020019060010190808311612881575b5050505050925060008060008773ffffffffffffffffffffffffffffffffffffffff1673ffffffffffffffffffffffffffffffffffffffff16815260200190815260200160002060000160156101000a81548163ffffffff021916908363ffffffff16021790555060008060008773ffffffffffffffffffffffffffffffffffffffff1673ffffffffffffffffffffffffffffffffffffffff16815260200190815260200160002060000160196101000a81548163ffffffff021916908363ffffffff160217905550600090505b8251811015612a665760008060008773ffffffffffffffffffffffffffffffffffffffff1673ffffffffffffffffffffffffffffffffffffffff168152602001908152602001600020600101600085848151811015156129f557fe5b9060200190602002015173ffffffffffffffffffffffffffffffffffffffff1673ffffffffffffffffffffffffffffffffffffffff16815260200190815260200160002060006101000a81548160ff02191690836002811115612a5457fe5b02179055508080600101915050612999565b60008060008773ffffffffffffffffffffffffffffffffffffffff1673ffffffffffffffffffffffffffffffffffffffff16815260200190815260200160002060000160006101000a81548160ff02191690836002811115612ac457fe5b0217905550816000808773ffffffffffffffffffffffffffffffffffffffff1673ffffffffffffffffffffffffffffffffffffffff1681526020019081526020016000206002019080519060200190612b1e929190612d26565b5060008060008773ffffffffffffffffffffffffffffffffffffffff1673ffffffffffffffffffffffffffffffffffffffff16815260200190815260200160002060000160016101000a81548173ffffffffffffffffffffffffffffffffffffffff021916908373ffffffffffffffffffffffffffffffffffffffff16021790555060019350505050919050565b612bb4612d04565b612bbc612d04565b6000808473ffffffffffffffffffffffffffffffffffffffff1673ffffffffffffffffffffffffffffffffffffffff16815260200190815260200160002060000160159054906101000a900463ffffffff16816000600281101515612c1d57fe5b602002019063ffffffff16908163ffffffff16815250506000808473ffffffffffffffffffffffffffffffffffffffff1673ffffffffffffffffffffffffffffffffffffffff16815260200190815260200160002060000160199054906101000a900463ffffffff16816001600281101515612c9557fe5b602002019063ffffffff16908163ffffffff168152505080915050919050565b60008082840190508363ffffffff168163ffffffff1610151515612cd557fe5b8091505092915050565b60008263ffffffff168263ffffffff1611151515612cf957fe5b818303905092915050565b6040805190810160405280600290602082028038833980820191505090505090565b828054828255906000526020600020908101928215612d9f579160200282015b82811115612d9e5782518260006101000a81548173ffffffffffffffffffffffffffffffffffffffff021916908373ffffffffffffffffffffffffffffffffffffffff16021790555091602001919060010190612d46565b5b509050612dac9190612db0565b5090565b612df091905b80821115612dec57600081816101000a81549073ffffffffffffffffffffffffffffffffffffffff021916905550600101612db6565b5090565b905600a165627a7a72305820ef2829133af89a8591604a763e6c4a6f6f3e60e5def815d0d506037f2c06f1bc0029",
  "source": "pragma solidity ^0.4.24;\nimport \"./AdminValidatorSet.sol\";\nimport \"./Voteable.sol\";\n\n/**\n * The ValidatorSet contract maintains the set of validators and Allows\n * admins to add and remove members from the validator set\n */\ncontract SimpleValidatorSet is Voteable{\n\n\tenum Status {\n\t\tINACTIVE,\n\t\tPENDING,\n\t\tACTIVE\n\t}\n\n\tstruct Validator {\n\t\tbool isValidator;\n\t\tStatus status;\n\t}\n\n\tAdminValidatorSet adminSet;\n\n\tmapping (address => Validator) activeValidators;\n\tmapping (address => address[]) adminValidatorsMap;\n\taddress[] validators;\n\tmapping (address => bool) exists;\n\t\n\tuint32 totalCount;\n\tuint32 totalActiveCount;\n\n\t/**\n    * @dev Function to deploy and construct simplevalidatorset. These addresses are hardcoded\n    */\n\tconstructor (address _adminContractAddress) public {\n\t\t\n\t\taddress adminContractAddress = _adminContractAddress; //address(0x0000000000000000000000000000000000002018);\n\t\taddress msg_sender = address(0x44643353444f4b42b46ed28e668c204db6dbb7c3);\n\t\taddress _validator1 = address(0x43a69edd54e07b95113fed92e8c9ba004500ce12);\n\t\taddress _validator2 = address(0xd44b2838207a46f1007b3f296a599fadfb20978c);\n\t\t\n\t\tadminSet = AdminValidatorSet(adminContractAddress);\n\n\t\t//Adding msg.sender as first validator\n\t\texists[msg_sender] = true;\n\t\tadminValidatorsMap[msg_sender].push(msg_sender);\n\t\tactiveValidators[msg_sender].isValidator = true;\n\t\tactiveValidators[msg_sender].status = Status.ACTIVE;\n\t\tvalidators.push(msg_sender);\n\n\t\t//To add _validator1 as validator\n\t\texists[_validator1] = true;\n\t\tadminValidatorsMap[_validator1].push(_validator1);\n\t\tactiveValidators[_validator1].isValidator = true;\n\t\tactiveValidators[_validator1].status = Status.ACTIVE;\n\t\tvalidators.push(_validator1);\n\n\t\t//To add _validator2 as validator\n\t\texists[_validator2] = true;\n\t\tadminValidatorsMap[_validator2].push(_validator2);\n\t\tactiveValidators[_validator2].isValidator = true;\n\t\tactiveValidators[_validator2].status = Status.ACTIVE;\n\t\tvalidators.push(_validator2);\n\n\t\ttotalCount = 3;\n\t\ttotalActiveCount = 3;\n\t}\n\n\tmodifier isAdmin() {\n\t\trequire (adminSet.isActiveAdmin(msg.sender));\n\t\t_;\n\t}\n\n\tmodifier isValidator() {\n\t\trequire (activeValidators[msg.sender].isValidator);\n\t\t_; \n\t}\n\n\tevent minValidatorNeeded(uint8 minNoOfValidator);\n\n\tevent addValidator(address indexed validator,address _admin);\n\tevent removeValidator(address indexed validator,address _admin);\n\n\tevent votedfor(address by,address vfor);\n\tevent votedagainst(address by,address vfor);\n\n\tevent alreadyProposalForAddingValidator(address indexed _address);\n\tevent alreadyProposalForRemovingValidator(address indexed _address);\n\n\tevent noProposalForAddingValidator(address indexed _address);\n\tevent noProposalForRemovingValidator(address indexed _address);\n\n\tevent alreadyActiveValidator(address indexed _address);\n\tevent alreadyInActiveValidator(address indexed _address);\n\n\t/**\n    * @dev Function to propose adding new validator. It checks validity of msg.sender with isAdmin modifier\n    * msg.sender address should be one of the active admin, who can start the proposal\n\t* @param _address address, which is to be added as new active admin\n\t* @return Emits event alreadyProposalForAddingValidator() in case some proposal already exists\n    * @return A success flag\n    */\n  \tfunction proposalToAddValidator (address _address) public isAdmin returns(bool res){\n\t\t//require(votes[_address].proposal == Proposal.NOT_CREATED);\n\t\tif(votes[_address].proposal != Proposal.NOT_CREATED){\n\t\t\tif(votes[_address].proposal == Proposal.ADD){\n\t\t\t\temit alreadyProposalForAddingValidator(_address);\n\t\t\t\treturn false;\n\t\t\t}\n\t\t\tif(votes[_address].proposal == Proposal.REMOVE){\n\t\t\t\temit alreadyProposalForRemovingValidator(_address);\n\t\t\t\treturn false;\n\t\t\t}\n\t\t}\n\t\tvotes[_address].proposal = Proposal.ADD;\n\t\trequire (voteFor(_address,msg.sender));\n\t\tvotes[_address].proposer = msg.sender;\n\t\treturn true;\n\t}\n\n\t/**\n    * @dev Function to vote FOR adding one validator. It checks validity of msg.sender with isValidator modifier\n    * msg.sender address should be one of the active validator\n\t* @param _address address, which is to be proposed to add as active admin\n    * @return Emits event noProposalForAddingValidator() in case the ADD validator proposal is not started already\n\t* @return Emits event addValidator() once valdiator is successfully added\n\t* @return A success flag\n    */\n\tfunction voteForAddingValidator (address _address) public isValidator returns(bool res){\n\t\t//require(votes[_address].proposal == Proposal.ADD);\n\t\tif(votes[_address].proposal != Proposal.ADD){\n\t\t\temit noProposalForAddingValidator(_address);\n\t\t\treturn false;\n\t\t}\n\t\trequire(voteFor(_address,msg.sender));\n\t\tif(votes[_address].countFor >= totalActiveCount / 2 + 1){\n\t\t\tif(!exists[_address]){\n\t\t\t\tadminValidatorsMap[msg.sender].push(_address);\n\t\t\t\tvalidators.push(_address);\n\t\t\t\ttotalCount = totalCount.add(1);\n    \t\t}\t\t\n    \t\texists[_address] = true;\n    \t\tactiveValidators[_address].isValidator = true;\n    \t\tactiveValidators[_address].status = Status.ACTIVE;\n\t\t\ttotalActiveCount = totalActiveCount.add(1);\n    \t\trequire(clearVotes(_address));\n\t\t    emit addValidator(_address,msg.sender);\n\t\t}\t\n\t\treturn true;\n\t}\n\n\t/**\n    * @dev Function to vote AGAINST adding one validator. It checks validity of msg.sender with isValidator modifier\n    * msg.sender address should be one of the active validator\n\t* @param _address address, which is to be proposed to add as active admin\n    * @return Emits event noProposalForAddingValidator() in case the ADD validator proposal is not started already\n\t* @return A success flag\n    */\n\tfunction voteAgainstAddingValidator (address _address) public isValidator returns(bool res){\n\t\t//require(votes[_address].proposal == Proposal.ADD);\n\t\tif(votes[_address].proposal != Proposal.ADD){\n\t\t\temit noProposalForAddingValidator(_address);\n\t\t\treturn false;\n\t\t}\n\t\trequire(voteAgainst(_address,msg.sender));\n\t\tif(votes[_address].countAgainst >= totalActiveCount / 2 + 1){\n\t\t\tassert(clearVotes(_address));\n\t\t}\n\t\treturn true;\n\t}\n\t\n\t/**\n    * @dev Function to propose to remove one of the existing active validator.\n\t* msg.sender address should be one of the active admin, get validated with modifer isAdmin\n\t* System needs min 3 active admins for voting mechanism to function\n    * @param _address address The address which is one of the admin.\n    * @return A success flag\n\t* @return Emits event minValidatorNeeded() in case the no of existing active validators are less than 3\n\t* @return Emits event alreadyProposalForRemovingValidator() in case some proposal already exists\n    */\n  \tfunction proposalToRemoveValidator (address _address) public isValidator returns(bool res){\n\t\tif(totalActiveCount <= 3){\n\t\t\temit minValidatorNeeded(3);\n\t\t\treturn false;\n\t\t}\n\t\t//require(votes[_address].proposal == Proposal.NOT_CREATED);\n\t\tif(votes[_address].proposal != Proposal.NOT_CREATED){\n\t\t\tif(votes[_address].proposal == Proposal.ADD){\n\t\t\t\temit alreadyProposalForAddingValidator(_address);\n\t\t\t\treturn false;\n\t\t\t}\n\t\t\tif(votes[_address].proposal == Proposal.REMOVE){\n\t\t\t\temit alreadyProposalForRemovingValidator(_address);\n\t\t\t\treturn false;\n\t\t\t}\n\t\t}\n\t\tvotes[_address].proposal = Proposal.REMOVE;\n\t\trequire (voteFor(_address,msg.sender));\t\n\t\tvotes[_address].proposer = msg.sender;\n\t\treturn true;\n\t}\n\n\t/**\n    * @dev Function to vote FOR remving one active validatoe. It checks validity of msg.sender with isValidator modifier\n    * msg.sender address should be one of the active validator\n\t* @param _address address, which is to be proposed to remove as active admin\n    * @return Emits event noProposalForRemovingValidator() in case the REMOVE validator proposal is not started already\n\t* @return Emits event removeValidator() once valdiator is successfully removed\n\t* @return A success flag\n    */\n\tfunction voteForRemovingValidator (address _address) public isValidator returns(bool res){\n\t\t//require(votes[_address].proposal == Proposal.REMOVE);\n\t\tif(votes[_address].proposal != Proposal.REMOVE){\n\t\t\temit noProposalForRemovingValidator(_address);\n\t\t\treturn false;\n\t\t}\n\t\trequire(voteFor(_address,msg.sender));\n\t\tif(votes[_address].countFor >= totalActiveCount / 2 + 1){\n\t\t\tactiveValidators[_address].isValidator = false;\n    \t\tactiveValidators[_address].status = Status.INACTIVE;\n\t\t\ttotalActiveCount = totalActiveCount.sub(1);\n    \t\trequire(clearVotes(_address));\n    \t\temit removeValidator(_address,msg.sender);\n\t\t}\t\n\t\treturn true;\n\t}\n\n\t/**\n    * @dev Function to vote AGAINST remving one active validatoe. It checks validity of msg.sender with isValidator modifier\n    * msg.sender address should be one of the active validator\n\t* @param _address address, which is to be proposed to remove as active admin\n    * @return Emits event noProposalForRemovingValidator() in case the REMOVE validator proposal is not started already\n\t* @return A success flag\n    */\n\tfunction voteAgainstRemovingValidator (address _address) public isValidator returns(bool res){\n\t\t//require(votes[_address].proposal == Proposal.REMOVE);\n\t\tif(votes[_address].proposal != Proposal.REMOVE){\n\t\t\temit noProposalForRemovingValidator(_address);\n\t\t\treturn false;\n\t\t}\n\t\trequire(voteAgainst(_address,msg.sender));\n\t\tif(votes[_address].countAgainst >= totalActiveCount / 2 + 1){\n\t\t\tassert(clearVotes(_address));\n\t\t}\n\t\treturn true;\n\t}\n\t\n\t// function addValidator (address _address) public isValidator returns(bool res)  {\n\t// \tassert (!activeValidators[_address].isValidator);\n\t// \tassert (activeValidators[_address].status == Status.INACTIVE);\n\t// \tassert (voteFor(_address,msg.sender));\n\t// \tif(votes[_address].countFor >= totalActiveCount / 2 + 1){\n    // \t\tif(!exists[_address]){\n\t// \t\t\tadminValidatorsMap[msg.sender].push(_address);\n\t// \t\t\tvalidators.push(_address);\n\t// \t\t\ttotalCount = totalCount.add(1);\n    // \t\t}\t\t\n    // \t\texists[_address] = true;\n    // \t\tactiveValidators[_address].isValidator = true;\n\t// \t\ttotalActiveCount = totalActiveCount.add(1);\n    // \t\t//activeValidators[_address].lop = LastOp.ADD;\n    // \t\tactiveValidators[_address].status = Status.ACTIVE;\n    // \t\trequire(clearVotes(_address));\n\t// \t\tvotes[_address].proposal = Proposal.NOT_CREATED;\n\t// \t    emit addvalidator(_address,msg.sender);\n\t// \t}\n\t// \telse {\n\t// \t\tvotes[_address].proposal = Proposal.ADD;\n\t// \t}\n\t// \tif(votes[_address].countAgainst >= totalActiveCount / 2 +1){\n\t// \t    require(clearVotes(_address));\n\t// \t}\n\t// \treturn true;\n\t// }\n\n\t// function removeValidator (address _address) public isValidator returns(bool res)  {\n\t// \tassert (activeValidators[_address].isValidator);\n\t// \tassert (activeValidators[_address].status == Status.ACTIVE);\n\t// \tassert (voteFor(_address,msg.sender));\n\t// \tif(votes[_address].countFor >= totalActiveCount / 2 + 1){\n    // \t\tactiveValidators[_address].isValidator = false;\n    // \t\t//activeValidators[_address].lop = LastOp.REMOVE;\n    // \t\tactiveValidators[_address].status = Status.INACTIVE;\n\t// \t\ttotalActiveCount = totalActiveCount.sub(1);\n    // \t\trequire(clearVotes(_address));\n\t// \t\tvotes[_address].proposal = Proposal.NOT_CREATED;\n    // \t\temit removevalidator(_address,msg.sender);\n\t// \t}\n\t// \telse {\n\t// \t\tvotes[_address].proposal = Proposal.REMOVE;\n\t// \t}\n\t// \tif(votes[_address].countAgainst >= totalActiveCount / 2 +1){\n\t// \t    require(clearVotes(_address));\n\t// \t}\n\t// \treturn true;\n\t// }\n\n\t/*function lastOp (address _address)public view isAdmin returns(string res){\n\t\tif(activeValidators[_address].lop == LastOp.ADD){\n\t\t\treturn \"add\";\n\t\t}\n\t\telse if(activeValidators[_address].lop == LastOp.REMOVE){\n\t\t\treturn \"remove\";\n\t\t}else{\n\t\t\treturn \"no op\";\t\n\t\t}\n\t}*/\n\n\t/**\n    * @dev Function to check current voting status. It checks validity of msg.sender with isValidator modifier\n\t* @param _address address\n\t* @return returns the bool\n    */\n\tfunction checkVotes (address _address) public view isValidator returns(uint32[2] res){\n\t\treturn internalCheckVotes(_address);\n\t}\n\t\n\t/**\n    * @dev Function to check current proposal for the _address. It checks validity of msg.sender with isValidator modifier\n\t* @param _address address\n\t* @return returns the array of no of votes FOR and AGAINST\n    */\n\tfunction checkProposal (address _address) public view isValidator returns(string res){\n\t\treturn internalCheckProposal(_address);\n\t}\n\n\t/**\n    * @dev Function to return list of all validators active/non-active against a specific admin\n\t* It checks validity of msg.sender with isAdmin modifier\n\t* @return returns the list\n    */\n\tfunction getValidatorsForAdmin() public view isAdmin returns (address[] a){\n\t    return adminValidatorsMap[msg.sender];\n\t}\n\n\t/**\n    * @dev Function to check whether _address is active validator or not\n\t* @param _address address\n\t* @return returns bool as active or non-active validator\n    */\n\tfunction isActiveValidator(address _address) public view returns(bool a){\n\t    return activeValidators[_address].isValidator;\n\t}\n\n\t/**\n    * @dev Function to return list of all validators active/non-active\n\t* @return returns the list\n    */\n\tfunction getAllValidators()public view isValidator returns(address[] a){\n\t    return validators;\n\t}\n\n\t/**\n    * @dev Function to get total admin\n\t* @return returns the number\n    */\n\tfunction getValidatorsCount()public view isValidator returns(uint32){\n\t    return totalCount;\n\t}\n\n\t/**\n    * @dev Function to get total active validators\n\t* @return returns the number\n    */\n\tfunction getActiveValidatorsCount()public view isValidator returns(uint32){\n\t    return totalActiveCount;\n\t}\n\n\t/**\n    * @dev Function to clear votes/proposal for the given address\n\t* @param _address address of the admin\n\t* @return returns the status true/false\n    */\n\tfunction clearProposal(address _address)public isValidator returns(bool res){\n\t    if(_address==address(0))\n\t\t\treturn false;\n\t\treturn clearVotes(_address);\n\t}\n}\n",
  "sourcePath": "/Users/rahulgolash/Rahul/Ledgerium/CoreLedgerium/governanceApp/contracts/SimpleValidatorSet.sol",
  "compiler": {
    "name": "solc",
    "version": "0.4.24+commit.e67f0147.Emscripten.clang"
  },
  "schemaVersion": "2.0.1",
  "updatedAt": "2018-11-20T23:44:26.658Z"
}