{
  "contractName": "SimpleValidatorSet",
  "abi": [
    {
      "inputs": [],
      "payable": false,
      "stateMutability": "nonpayable",
      "type": "constructor"
    },
    {
      "anonymous": false,
      "inputs": [
        {
          "indexed": false,
          "name": "minNoOfValidator",
          "type": "uint8"
        }
      ],
      "name": "minValidatorNeeded",
      "type": "event"
    },
    {
      "anonymous": false,
      "inputs": [
        {
          "indexed": true,
          "name": "validator",
          "type": "address"
        },
        {
          "indexed": false,
          "name": "_admin",
          "type": "address"
        }
      ],
      "name": "addValidator",
      "type": "event"
    },
    {
      "anonymous": false,
      "inputs": [
        {
          "indexed": true,
          "name": "validator",
          "type": "address"
        },
        {
          "indexed": false,
          "name": "_admin",
          "type": "address"
        }
      ],
      "name": "removeValidator",
      "type": "event"
    },
    {
      "anonymous": false,
      "inputs": [
        {
          "indexed": false,
          "name": "by",
          "type": "address"
        },
        {
          "indexed": false,
          "name": "vfor",
          "type": "address"
        }
      ],
      "name": "votedfor",
      "type": "event"
    },
    {
      "anonymous": false,
      "inputs": [
        {
          "indexed": false,
          "name": "by",
          "type": "address"
        },
        {
          "indexed": false,
          "name": "vfor",
          "type": "address"
        }
      ],
      "name": "votedagainst",
      "type": "event"
    },
    {
      "anonymous": false,
      "inputs": [
        {
          "indexed": true,
          "name": "_address",
          "type": "address"
        }
      ],
      "name": "alreadyProposalForAddingValidator",
      "type": "event"
    },
    {
      "anonymous": false,
      "inputs": [
        {
          "indexed": true,
          "name": "_address",
          "type": "address"
        }
      ],
      "name": "alreadyProposalForRemovingValidator",
      "type": "event"
    },
    {
      "anonymous": false,
      "inputs": [
        {
          "indexed": true,
          "name": "_address",
          "type": "address"
        }
      ],
      "name": "noProposalForAddingValidator",
      "type": "event"
    },
    {
      "anonymous": false,
      "inputs": [
        {
          "indexed": true,
          "name": "_address",
          "type": "address"
        }
      ],
      "name": "noProposalForRemovingValidator",
      "type": "event"
    },
    {
      "anonymous": false,
      "inputs": [
        {
          "indexed": true,
          "name": "_address",
          "type": "address"
        }
      ],
      "name": "alreadyActiveValidator",
      "type": "event"
    },
    {
      "anonymous": false,
      "inputs": [
        {
          "indexed": true,
          "name": "_address",
          "type": "address"
        }
      ],
      "name": "alreadyInActiveValidator",
      "type": "event"
    },
    {
      "constant": false,
      "inputs": [
        {
          "name": "_adminContractAddress",
          "type": "address"
        }
      ],
      "name": "init",
      "outputs": [],
      "payable": false,
      "stateMutability": "nonpayable",
      "type": "function"
    },
    {
      "constant": false,
      "inputs": [
        {
          "name": "_address",
          "type": "address"
        }
      ],
      "name": "proposalToAddValidator",
      "outputs": [
        {
          "name": "res",
          "type": "bool"
        }
      ],
      "payable": false,
      "stateMutability": "nonpayable",
      "type": "function"
    },
    {
      "constant": false,
      "inputs": [
        {
          "name": "_address",
          "type": "address"
        }
      ],
      "name": "voteForAddingValidator",
      "outputs": [
        {
          "name": "res",
          "type": "bool"
        }
      ],
      "payable": false,
      "stateMutability": "nonpayable",
      "type": "function"
    },
    {
      "constant": false,
      "inputs": [
        {
          "name": "_address",
          "type": "address"
        }
      ],
      "name": "voteAgainstAddingValidator",
      "outputs": [
        {
          "name": "res",
          "type": "bool"
        }
      ],
      "payable": false,
      "stateMutability": "nonpayable",
      "type": "function"
    },
    {
      "constant": false,
      "inputs": [
        {
          "name": "_address",
          "type": "address"
        }
      ],
      "name": "proposalToRemoveValidator",
      "outputs": [
        {
          "name": "res",
          "type": "bool"
        }
      ],
      "payable": false,
      "stateMutability": "nonpayable",
      "type": "function"
    },
    {
      "constant": false,
      "inputs": [
        {
          "name": "_address",
          "type": "address"
        }
      ],
      "name": "voteForRemovingValidator",
      "outputs": [
        {
          "name": "res",
          "type": "bool"
        }
      ],
      "payable": false,
      "stateMutability": "nonpayable",
      "type": "function"
    },
    {
      "constant": false,
      "inputs": [
        {
          "name": "_address",
          "type": "address"
        }
      ],
      "name": "voteAgainstRemovingValidator",
      "outputs": [
        {
          "name": "res",
          "type": "bool"
        }
      ],
      "payable": false,
      "stateMutability": "nonpayable",
      "type": "function"
    },
    {
      "constant": true,
      "inputs": [
        {
          "name": "_address",
          "type": "address"
        }
      ],
      "name": "checkVotes",
      "outputs": [
        {
          "name": "res",
          "type": "uint32[2]"
        }
      ],
      "payable": false,
      "stateMutability": "view",
      "type": "function"
    },
    {
      "constant": true,
      "inputs": [
        {
          "name": "_address",
          "type": "address"
        }
      ],
      "name": "checkProposal",
      "outputs": [
        {
          "name": "res",
          "type": "string"
        }
      ],
      "payable": false,
      "stateMutability": "view",
      "type": "function"
    },
    {
      "constant": true,
      "inputs": [],
      "name": "getValidatorsForAdmin",
      "outputs": [
        {
          "name": "a",
          "type": "address[]"
        }
      ],
      "payable": false,
      "stateMutability": "view",
      "type": "function"
    },
    {
      "constant": true,
      "inputs": [
        {
          "name": "_address",
          "type": "address"
        }
      ],
      "name": "isActiveValidator",
      "outputs": [
        {
          "name": "a",
          "type": "bool"
        }
      ],
      "payable": false,
      "stateMutability": "view",
      "type": "function"
    },
    {
      "constant": true,
      "inputs": [],
      "name": "getAllValidators",
      "outputs": [
        {
          "name": "a",
          "type": "address[]"
        }
      ],
      "payable": false,
      "stateMutability": "view",
      "type": "function"
    },
    {
      "constant": true,
      "inputs": [],
      "name": "getValidatorsCount",
      "outputs": [
        {
          "name": "",
          "type": "uint32"
        }
      ],
      "payable": false,
      "stateMutability": "view",
      "type": "function"
    },
    {
      "constant": true,
      "inputs": [],
      "name": "getActiveValidatorsCount",
      "outputs": [
        {
          "name": "",
          "type": "uint32"
        }
      ],
      "payable": false,
      "stateMutability": "view",
      "type": "function"
    },
    {
      "constant": false,
      "inputs": [
        {
          "name": "_address",
          "type": "address"
        }
      ],
      "name": "clearProposal",
      "outputs": [
        {
          "name": "res",
          "type": "bool"
        }
      ],
      "payable": false,
      "stateMutability": "nonpayable",
      "type": "function"
    }
  ],
  "bytecode": "0x608060405234801561001057600080fd5b5061369a806100206000396000f3006080604052600436106100db576000357c0100000000000000000000000000000000000000000000000000000000900463ffffffff16806312254fc4146100e057806319ab453c1461013b578063274982401461017e5780632c9f55ed146101b557806331147c301461027157806333ca17f8146102a857806340550a1c146103035780635caea9cb1461035e5780638df1cab0146103dd57806390d6641b14610438578063b6e7d33214610493578063c162bc03146104ee578063dd31863c14610549578063de0473d4146105b5578063f3513a3714610610575b600080fd5b3480156100ec57600080fd5b50610121600480360381019080803573ffffffffffffffffffffffffffffffffffffffff16906020019092919050505061067c565b604051808215151515815260200191505060405180910390f35b34801561014757600080fd5b5061017c600480360381019080803573ffffffffffffffffffffffffffffffffffffffff169060200190929190505050610a3c565b005b34801561018a57600080fd5b506101936111ac565b604051808263ffffffff1663ffffffff16815260200191505060405180910390f35b3480156101c157600080fd5b506101f6600480360381019080803573ffffffffffffffffffffffffffffffffffffffff169060200190929190505050611221565b6040518080602001828103825283818151815260200191508051906020019080838360005b8381101561023657808201518184015260208101905061021b565b50505050905090810190601f1680156102635780820380516001836020036101000a031916815260200191505b509250505060405180910390f35b34801561027d57600080fd5b5061028661128e565b604051808263ffffffff1663ffffffff16815260200191505060405180910390f35b3480156102b457600080fd5b506102e9600480360381019080803573ffffffffffffffffffffffffffffffffffffffff169060200190929190505050611303565b604051808215151515815260200191505060405180910390f35b34801561030f57600080fd5b50610344600480360381019080803573ffffffffffffffffffffffffffffffffffffffff1690602001909291905050506114f2565b604051808215151515815260200191505060405180910390f35b34801561036a57600080fd5b5061039f600480360381019080803573ffffffffffffffffffffffffffffffffffffffff16906020019092919050505061154b565b6040518082600260200280838360005b838110156103ca5780820151818401526020810190506103af565b5050505090500191505060405180910390f35b3480156103e957600080fd5b5061041e600480360381019080803573ffffffffffffffffffffffffffffffffffffffff1690602001909291905050506115be565b604051808215151515815260200191505060405180910390f35b34801561044457600080fd5b50610479600480360381019080803573ffffffffffffffffffffffffffffffffffffffff1690602001909291905050506119c0565b604051808215151515815260200191505060405180910390f35b34801561049f57600080fd5b506104d4600480360381019080803573ffffffffffffffffffffffffffffffffffffffff169060200190929190505050611f38565b604051808215151515815260200191505060405180910390f35b3480156104fa57600080fd5b5061052f600480360381019080803573ffffffffffffffffffffffffffffffffffffffff1690602001909291905050506122af565b604051808215151515815260200191505060405180910390f35b34801561055557600080fd5b5061055e612376565b6040518080602001828103825283818151815260200191508051906020019060200280838360005b838110156105a1578082015181840152602081019050610586565b505050509050019250505060405180910390f35b3480156105c157600080fd5b506105f6600480360381019080803573ffffffffffffffffffffffffffffffffffffffff169060200190929190505050612544565b604051808215151515815260200191505060405180910390f35b34801561061c57600080fd5b50610625612734565b6040518080602001828103825283818151815260200191508051906020019060200280838360005b8381101561066857808201518184015260208101905061064d565b505050509050019250505060405180910390f35b6000600260003373ffffffffffffffffffffffffffffffffffffffff1673ffffffffffffffffffffffffffffffffffffffff16815260200190815260200160002060000160009054906101000a900460ff1615156106d957600080fd5b600660009054906101000a900460ff1615156106f457600080fd5b6003600660059054906101000a900463ffffffff1663ffffffff1611151561075a577fdc735d30ee4d592cfc16495bbeb50c4aff662dd9ef492df61e682d5eeb951acd6003604051808260ff16815260200191505060405180910390a160009050610a37565b6000600281111561076757fe5b6000808473ffffffffffffffffffffffffffffffffffffffff1673ffffffffffffffffffffffffffffffffffffffff16815260200190815260200160002060000160009054906101000a900460ff1660028111156107c157fe5b14151561093a57600160028111156107d557fe5b6000808473ffffffffffffffffffffffffffffffffffffffff1673ffffffffffffffffffffffffffffffffffffffff16815260200190815260200160002060000160009054906101000a900460ff16600281111561082f57fe5b1415610881578173ffffffffffffffffffffffffffffffffffffffff167ff3874d83cd2f9ff0b117ecf1a7349a65d95b7efee375cdc7ed3c2b07af9685f160405160405180910390a260009050610a37565b60028081111561088d57fe5b6000808473ffffffffffffffffffffffffffffffffffffffff1673ffffffffffffffffffffffffffffffffffffffff16815260200190815260200160002060000160009054906101000a900460ff1660028111156108e757fe5b1415610939578173ffffffffffffffffffffffffffffffffffffffff167fb88f2d9e2e80b2f2a1a7cdd5ef418a02d58887ed1d167638ace8abe0aedc279860405160405180910390a260009050610a37565b5b60026000808473ffffffffffffffffffffffffffffffffffffffff1673ffffffffffffffffffffffffffffffffffffffff16815260200190815260200160002060000160006101000a81548160ff0219169083600281111561099857fe5b02179055506109a7823361281d565b15156109b257600080fd5b336000808473ffffffffffffffffffffffffffffffffffffffff1673ffffffffffffffffffffffffffffffffffffffff16815260200190815260200160002060000160016101000a81548173ffffffffffffffffffffffffffffffffffffffff021916908373ffffffffffffffffffffffffffffffffffffffff160217905550600190505b919050565b600080600080600660009054906101000a900460ff16151515610a5e57600080fd5b61201893507344643353444f4b42b46ed28e668c204db6dbb7c392507343a69edd54e07b95113fed92e8c9ba004500ce12915073d44b2838207a46f1007b3f296a599fadfb20978c905083600160006101000a81548173ffffffffffffffffffffffffffffffffffffffff021916908373ffffffffffffffffffffffffffffffffffffffff1602179055506001600560008573ffffffffffffffffffffffffffffffffffffffff1673ffffffffffffffffffffffffffffffffffffffff16815260200190815260200160002060006101000a81548160ff021916908315150217905550600360008473ffffffffffffffffffffffffffffffffffffffff1673ffffffffffffffffffffffffffffffffffffffff1681526020019081526020016000208390806001815401808255809150509060018203906000526020600020016000909192909190916101000a81548173ffffffffffffffffffffffffffffffffffffffff021916908373ffffffffffffffffffffffffffffffffffffffff160217905550506001600260008573ffffffffffffffffffffffffffffffffffffffff1673ffffffffffffffffffffffffffffffffffffffff16815260200190815260200160002060000160006101000a81548160ff02191690831515021790555060028060008573ffffffffffffffffffffffffffffffffffffffff1673ffffffffffffffffffffffffffffffffffffffff16815260200190815260200160002060000160016101000a81548160ff02191690836002811115610c9d57fe5b021790555060048390806001815401808255809150509060018203906000526020600020016000909192909190916101000a81548173ffffffffffffffffffffffffffffffffffffffff021916908373ffffffffffffffffffffffffffffffffffffffff160217905550506001600560008473ffffffffffffffffffffffffffffffffffffffff1673ffffffffffffffffffffffffffffffffffffffff16815260200190815260200160002060006101000a81548160ff021916908315150217905550600360008373ffffffffffffffffffffffffffffffffffffffff1673ffffffffffffffffffffffffffffffffffffffff1681526020019081526020016000208290806001815401808255809150509060018203906000526020600020016000909192909190916101000a81548173ffffffffffffffffffffffffffffffffffffffff021916908373ffffffffffffffffffffffffffffffffffffffff160217905550506001600260008473ffffffffffffffffffffffffffffffffffffffff1673ffffffffffffffffffffffffffffffffffffffff16815260200190815260200160002060000160006101000a81548160ff02191690831515021790555060028060008473ffffffffffffffffffffffffffffffffffffffff1673ffffffffffffffffffffffffffffffffffffffff16815260200190815260200160002060000160016101000a81548160ff02191690836002811115610ebc57fe5b021790555060048290806001815401808255809150509060018203906000526020600020016000909192909190916101000a81548173ffffffffffffffffffffffffffffffffffffffff021916908373ffffffffffffffffffffffffffffffffffffffff160217905550506001600560008373ffffffffffffffffffffffffffffffffffffffff1673ffffffffffffffffffffffffffffffffffffffff16815260200190815260200160002060006101000a81548160ff021916908315150217905550600360008273ffffffffffffffffffffffffffffffffffffffff1673ffffffffffffffffffffffffffffffffffffffff1681526020019081526020016000208190806001815401808255809150509060018203906000526020600020016000909192909190916101000a81548173ffffffffffffffffffffffffffffffffffffffff021916908373ffffffffffffffffffffffffffffffffffffffff160217905550506001600260008373ffffffffffffffffffffffffffffffffffffffff1673ffffffffffffffffffffffffffffffffffffffff16815260200190815260200160002060000160006101000a81548160ff02191690831515021790555060028060008373ffffffffffffffffffffffffffffffffffffffff1673ffffffffffffffffffffffffffffffffffffffff16815260200190815260200160002060000160016101000a81548160ff021916908360028111156110db57fe5b021790555060048190806001815401808255809150509060018203906000526020600020016000909192909190916101000a81548173ffffffffffffffffffffffffffffffffffffffff021916908373ffffffffffffffffffffffffffffffffffffffff160217905550506003600660016101000a81548163ffffffff021916908363ffffffff1602179055506003600660056101000a81548163ffffffff021916908363ffffffff1602179055506001600660006101000a81548160ff0219169083151502179055505050505050565b6000600260003373ffffffffffffffffffffffffffffffffffffffff1673ffffffffffffffffffffffffffffffffffffffff16815260200190815260200160002060000160009054906101000a900460ff16151561120957600080fd5b600660019054906101000a900463ffffffff16905090565b6060600260003373ffffffffffffffffffffffffffffffffffffffff1673ffffffffffffffffffffffffffffffffffffffff16815260200190815260200160002060000160009054906101000a900460ff16151561127e57600080fd5b61128782612b84565b9050919050565b6000600260003373ffffffffffffffffffffffffffffffffffffffff1673ffffffffffffffffffffffffffffffffffffffff16815260200190815260200160002060000160009054906101000a900460ff1615156112eb57600080fd5b600660059054906101000a900463ffffffff16905090565b6000600260003373ffffffffffffffffffffffffffffffffffffffff1673ffffffffffffffffffffffffffffffffffffffff16815260200190815260200160002060000160009054906101000a900460ff16151561136057600080fd5b600660009054906101000a900460ff16151561137b57600080fd5b60028081111561138757fe5b6000808473ffffffffffffffffffffffffffffffffffffffff1673ffffffffffffffffffffffffffffffffffffffff16815260200190815260200160002060000160009054906101000a900460ff1660028111156113e157fe5b141515611434578173ffffffffffffffffffffffffffffffffffffffff167f28197290cad61005afa5d457926200dfea8d93058734906fcd9dd325fafdfeee60405160405180910390a2600090506114ed565b61143e8233612d17565b151561144957600080fd5b60016002600660059054906101000a900463ffffffff1663ffffffff1681151561146f57fe5b040163ffffffff166000808473ffffffffffffffffffffffffffffffffffffffff1673ffffffffffffffffffffffffffffffffffffffff16815260200190815260200160002060000160199054906101000a900463ffffffff1663ffffffff161015156114e8576114df8261307e565b15156114e757fe5b5b600190505b919050565b6000600260008373ffffffffffffffffffffffffffffffffffffffff1673ffffffffffffffffffffffffffffffffffffffff16815260200190815260200160002060000160009054906101000a900460ff169050919050565b61155361357f565b600260003373ffffffffffffffffffffffffffffffffffffffff1673ffffffffffffffffffffffffffffffffffffffff16815260200190815260200160002060000160009054906101000a900460ff1615156115ae57600080fd5b6115b782613427565b9050919050565b6000600160009054906101000a900473ffffffffffffffffffffffffffffffffffffffff1673ffffffffffffffffffffffffffffffffffffffff1663a06a2060336040518263ffffffff167c0100000000000000000000000000000000000000000000000000000000028152600401808273ffffffffffffffffffffffffffffffffffffffff1673ffffffffffffffffffffffffffffffffffffffff168152602001915050602060405180830381600087803b15801561167d57600080fd5b505af1158015611691573d6000803e3d6000fd5b505050506040513d60208110156116a757600080fd5b810190808051906020019092919050505015156116c357600080fd5b600660009054906101000a900460ff1615156116de57600080fd5b600060028111156116eb57fe5b6000808473ffffffffffffffffffffffffffffffffffffffff1673ffffffffffffffffffffffffffffffffffffffff16815260200190815260200160002060000160009054906101000a900460ff16600281111561174557fe5b1415156118be576001600281111561175957fe5b6000808473ffffffffffffffffffffffffffffffffffffffff1673ffffffffffffffffffffffffffffffffffffffff16815260200190815260200160002060000160009054906101000a900460ff1660028111156117b357fe5b1415611805578173ffffffffffffffffffffffffffffffffffffffff167ff3874d83cd2f9ff0b117ecf1a7349a65d95b7efee375cdc7ed3c2b07af9685f160405160405180910390a2600090506119bb565b60028081111561181157fe5b6000808473ffffffffffffffffffffffffffffffffffffffff1673ffffffffffffffffffffffffffffffffffffffff16815260200190815260200160002060000160009054906101000a900460ff16600281111561186b57fe5b14156118bd578173ffffffffffffffffffffffffffffffffffffffff167fb88f2d9e2e80b2f2a1a7cdd5ef418a02d58887ed1d167638ace8abe0aedc279860405160405180910390a2600090506119bb565b5b60016000808473ffffffffffffffffffffffffffffffffffffffff1673ffffffffffffffffffffffffffffffffffffffff16815260200190815260200160002060000160006101000a81548160ff0219169083600281111561191c57fe5b021790555061192b823361281d565b151561193657600080fd5b336000808473ffffffffffffffffffffffffffffffffffffffff1673ffffffffffffffffffffffffffffffffffffffff16815260200190815260200160002060000160016101000a81548173ffffffffffffffffffffffffffffffffffffffff021916908373ffffffffffffffffffffffffffffffffffffffff160217905550600190505b919050565b6000600260003373ffffffffffffffffffffffffffffffffffffffff1673ffffffffffffffffffffffffffffffffffffffff16815260200190815260200160002060000160009054906101000a900460ff161515611a1d57600080fd5b600660009054906101000a900460ff161515611a3857600080fd5b60016002811115611a4557fe5b6000808473ffffffffffffffffffffffffffffffffffffffff1673ffffffffffffffffffffffffffffffffffffffff16815260200190815260200160002060000160009054906101000a900460ff166002811115611a9f57fe5b141515611af2578173ffffffffffffffffffffffffffffffffffffffff167f1f4b9c7b059fc45279a27b2e2f60d2456d43681929af61c818aad0260d3d1c1060405160405180910390a260009050611f33565b611afc823361281d565b1515611b0757600080fd5b60016002600660059054906101000a900463ffffffff1663ffffffff16811515611b2d57fe5b040163ffffffff166000808473ffffffffffffffffffffffffffffffffffffffff1673ffffffffffffffffffffffffffffffffffffffff16815260200190815260200160002060000160159054906101000a900463ffffffff1663ffffffff16101515611f2e57600560008373ffffffffffffffffffffffffffffffffffffffff1673ffffffffffffffffffffffffffffffffffffffff16815260200190815260200160002060009054906101000a900460ff161515611d3d57600360003373ffffffffffffffffffffffffffffffffffffffff1673ffffffffffffffffffffffffffffffffffffffff1681526020019081526020016000208290806001815401808255809150509060018203906000526020600020016000909192909190916101000a81548173ffffffffffffffffffffffffffffffffffffffff021916908373ffffffffffffffffffffffffffffffffffffffff1602179055505060048290806001815401808255809150509060018203906000526020600020016000909192909190916101000a81548173ffffffffffffffffffffffffffffffffffffffff021916908373ffffffffffffffffffffffffffffffffffffffff16021790555050611d1c6001600660019054906101000a900463ffffffff1663ffffffff1661353090919063ffffffff16565b600660016101000a81548163ffffffff021916908363ffffffff1602179055505b6001600560008473ffffffffffffffffffffffffffffffffffffffff1673ffffffffffffffffffffffffffffffffffffffff16815260200190815260200160002060006101000a81548160ff0219169083151502179055506001600260008473ffffffffffffffffffffffffffffffffffffffff1673ffffffffffffffffffffffffffffffffffffffff16815260200190815260200160002060000160006101000a81548160ff02191690831515021790555060028060008473ffffffffffffffffffffffffffffffffffffffff1673ffffffffffffffffffffffffffffffffffffffff16815260200190815260200160002060000160016101000a81548160ff02191690836002811115611e4e57fe5b0217905550611e7f6001600660059054906101000a900463ffffffff1663ffffffff1661353090919063ffffffff16565b600660056101000a81548163ffffffff021916908363ffffffff160217905550611ea88261307e565b1515611eb357600080fd5b8173ffffffffffffffffffffffffffffffffffffffff167fb1819c2b26dbd89c826c99326bb83e0331ac27f73e635a7c678e2444e3187fbd33604051808273ffffffffffffffffffffffffffffffffffffffff1673ffffffffffffffffffffffffffffffffffffffff16815260200191505060405180910390a25b600190505b919050565b6000600260003373ffffffffffffffffffffffffffffffffffffffff1673ffffffffffffffffffffffffffffffffffffffff16815260200190815260200160002060000160009054906101000a900460ff161515611f9557600080fd5b600660009054906101000a900460ff161515611fb057600080fd5b600280811115611fbc57fe5b6000808473ffffffffffffffffffffffffffffffffffffffff1673ffffffffffffffffffffffffffffffffffffffff16815260200190815260200160002060000160009054906101000a900460ff16600281111561201657fe5b141515612069578173ffffffffffffffffffffffffffffffffffffffff167f28197290cad61005afa5d457926200dfea8d93058734906fcd9dd325fafdfeee60405160405180910390a2600090506122aa565b612073823361281d565b151561207e57600080fd5b60016002600660059054906101000a900463ffffffff1663ffffffff168115156120a457fe5b040163ffffffff166000808473ffffffffffffffffffffffffffffffffffffffff1673ffffffffffffffffffffffffffffffffffffffff16815260200190815260200160002060000160159054906101000a900463ffffffff1663ffffffff161015156122a5576000600260008473ffffffffffffffffffffffffffffffffffffffff1673ffffffffffffffffffffffffffffffffffffffff16815260200190815260200160002060000160006101000a81548160ff0219169083151502179055506000600260008473ffffffffffffffffffffffffffffffffffffffff1673ffffffffffffffffffffffffffffffffffffffff16815260200190815260200160002060000160016101000a81548160ff021916908360028111156121c557fe5b02179055506121f66001600660059054906101000a900463ffffffff1663ffffffff1661355a90919063ffffffff16565b600660056101000a81548163ffffffff021916908363ffffffff16021790555061221f8261307e565b151561222a57600080fd5b8173ffffffffffffffffffffffffffffffffffffffff167f96cb4c0dbc2c029725ba4b288e856204f004f4a5b38852686b2a4dbd3cf8458933604051808273ffffffffffffffffffffffffffffffffffffffff1673ffffffffffffffffffffffffffffffffffffffff16815260200191505060405180910390a25b600190505b919050565b6000600260003373ffffffffffffffffffffffffffffffffffffffff1673ffffffffffffffffffffffffffffffffffffffff16815260200190815260200160002060000160009054906101000a900460ff16151561230c57600080fd5b600660009054906101000a900460ff16151561232757600080fd5b600073ffffffffffffffffffffffffffffffffffffffff168273ffffffffffffffffffffffffffffffffffffffff1614156123655760009050612371565b61236e8261307e565b90505b919050565b6060600160009054906101000a900473ffffffffffffffffffffffffffffffffffffffff1673ffffffffffffffffffffffffffffffffffffffff1663a06a2060336040518263ffffffff167c0100000000000000000000000000000000000000000000000000000000028152600401808273ffffffffffffffffffffffffffffffffffffffff1673ffffffffffffffffffffffffffffffffffffffff168152602001915050602060405180830381600087803b15801561243557600080fd5b505af1158015612449573d6000803e3d6000fd5b505050506040513d602081101561245f57600080fd5b8101908080519060200190929190505050151561247b57600080fd5b600360003373ffffffffffffffffffffffffffffffffffffffff1673ffffffffffffffffffffffffffffffffffffffff16815260200190815260200160002080548060200260200160405190810160405280929190818152602001828054801561253a57602002820191906000526020600020905b8160009054906101000a900473ffffffffffffffffffffffffffffffffffffffff1673ffffffffffffffffffffffffffffffffffffffff16815260200190600101908083116124f0575b5050505050905090565b6000600260003373ffffffffffffffffffffffffffffffffffffffff1673ffffffffffffffffffffffffffffffffffffffff16815260200190815260200160002060000160009054906101000a900460ff1615156125a157600080fd5b600660009054906101000a900460ff1615156125bc57600080fd5b600160028111156125c957fe5b6000808473ffffffffffffffffffffffffffffffffffffffff1673ffffffffffffffffffffffffffffffffffffffff16815260200190815260200160002060000160009054906101000a900460ff16600281111561262357fe5b141515612676578173ffffffffffffffffffffffffffffffffffffffff167f1f4b9c7b059fc45279a27b2e2f60d2456d43681929af61c818aad0260d3d1c1060405160405180910390a26000905061272f565b6126808233612d17565b151561268b57600080fd5b60016002600660059054906101000a900463ffffffff1663ffffffff168115156126b157fe5b040163ffffffff166000808473ffffffffffffffffffffffffffffffffffffffff1673ffffffffffffffffffffffffffffffffffffffff16815260200190815260200160002060000160199054906101000a900463ffffffff1663ffffffff1610151561272a576127218261307e565b151561272957fe5b5b600190505b919050565b6060600260003373ffffffffffffffffffffffffffffffffffffffff1673ffffffffffffffffffffffffffffffffffffffff16815260200190815260200160002060000160009054906101000a900460ff16151561279157600080fd5b600480548060200260200160405190810160405280929190818152602001828054801561281357602002820191906000526020600020905b8160009054906101000a900473ffffffffffffffffffffffffffffffffffffffff1673ffffffffffffffffffffffffffffffffffffffff16815260200190600101908083116127c9575b5050505050905090565b6000806000600281111561282d57fe5b6000808673ffffffffffffffffffffffffffffffffffffffff1673ffffffffffffffffffffffffffffffffffffffff16815260200190815260200160002060010160008573ffffffffffffffffffffffffffffffffffffffff1673ffffffffffffffffffffffffffffffffffffffff16815260200190815260200160002060009054906101000a900460ff1660028111156128c457fe5b1415156128d057600080fd5b61293b60016000808773ffffffffffffffffffffffffffffffffffffffff1673ffffffffffffffffffffffffffffffffffffffff16815260200190815260200160002060000160159054906101000a900463ffffffff1663ffffffff1661353090919063ffffffff16565b9050806000808673ffffffffffffffffffffffffffffffffffffffff1673ffffffffffffffffffffffffffffffffffffffff16815260200190815260200160002060000160156101000a81548163ffffffff021916908363ffffffff16021790555060016000808673ffffffffffffffffffffffffffffffffffffffff1673ffffffffffffffffffffffffffffffffffffffff16815260200190815260200160002060010160008573ffffffffffffffffffffffffffffffffffffffff1673ffffffffffffffffffffffffffffffffffffffff16815260200190815260200160002060006101000a81548160ff02191690836002811115612a3857fe5b02179055506000808573ffffffffffffffffffffffffffffffffffffffff1673ffffffffffffffffffffffffffffffffffffffff1681526020019081526020016000206002018390806001815401808255809150509060018203906000526020600020016000909192909190916101000a81548173ffffffffffffffffffffffffffffffffffffffff021916908373ffffffffffffffffffffffffffffffffffffffff160217905550507f7a189becc9d33281e69ff3784545bbabdf6de5b0c3dc9a1478ca39d8ebe2dd718385604051808373ffffffffffffffffffffffffffffffffffffffff1673ffffffffffffffffffffffffffffffffffffffff1681526020018273ffffffffffffffffffffffffffffffffffffffff1673ffffffffffffffffffffffffffffffffffffffff1681526020019250505060405180910390a1600191505092915050565b606060016002811115612b9357fe5b6000808473ffffffffffffffffffffffffffffffffffffffff1673ffffffffffffffffffffffffffffffffffffffff16815260200190815260200160002060000160009054906101000a900460ff166002811115612bed57fe5b1415612c30576040805190810160405280600381526020017f61646400000000000000000000000000000000000000000000000000000000008152509050612d12565b600280811115612c3c57fe5b6000808473ffffffffffffffffffffffffffffffffffffffff1673ffffffffffffffffffffffffffffffffffffffff16815260200190815260200160002060000160009054906101000a900460ff166002811115612c9657fe5b1415612cd9576040805190810160405280600681526020017f72656d6f766500000000000000000000000000000000000000000000000000008152509050612d12565b6040805190810160405280601481526020017f70726f706f73616c206e6f74206372656174656400000000000000000000000081525090505b919050565b60008060006002811115612d2757fe5b6000808673ffffffffffffffffffffffffffffffffffffffff1673ffffffffffffffffffffffffffffffffffffffff16815260200190815260200160002060010160008573ffffffffffffffffffffffffffffffffffffffff1673ffffffffffffffffffffffffffffffffffffffff16815260200190815260200160002060009054906101000a900460ff166002811115612dbe57fe5b141515612dca57600080fd5b612e3560016000808773ffffffffffffffffffffffffffffffffffffffff1673ffffffffffffffffffffffffffffffffffffffff16815260200190815260200160002060000160199054906101000a900463ffffffff1663ffffffff1661353090919063ffffffff16565b9050806000808673ffffffffffffffffffffffffffffffffffffffff1673ffffffffffffffffffffffffffffffffffffffff16815260200190815260200160002060000160196101000a81548163ffffffff021916908363ffffffff16021790555060026000808673ffffffffffffffffffffffffffffffffffffffff1673ffffffffffffffffffffffffffffffffffffffff16815260200190815260200160002060010160008573ffffffffffffffffffffffffffffffffffffffff1673ffffffffffffffffffffffffffffffffffffffff16815260200190815260200160002060006101000a81548160ff02191690836002811115612f3257fe5b02179055506000808573ffffffffffffffffffffffffffffffffffffffff1673ffffffffffffffffffffffffffffffffffffffff1681526020019081526020016000206002018390806001815401808255809150509060018203906000526020600020016000909192909190916101000a81548173ffffffffffffffffffffffffffffffffffffffff021916908373ffffffffffffffffffffffffffffffffffffffff160217905550507f7a6650c3cb47c42e983c1b1d41edba2961f4e6515feac915850cc410e6c716488385604051808373ffffffffffffffffffffffffffffffffffffffff1673ffffffffffffffffffffffffffffffffffffffff1681526020018273ffffffffffffffffffffffffffffffffffffffff1673ffffffffffffffffffffffffffffffffffffffff1681526020019250505060405180910390a1600191505092915050565b600060608060008060008673ffffffffffffffffffffffffffffffffffffffff1673ffffffffffffffffffffffffffffffffffffffff16815260200190815260200160002060020180548060200260200160405190810160405280929190818152602001828054801561314657602002820191906000526020600020905b8160009054906101000a900473ffffffffffffffffffffffffffffffffffffffff1673ffffffffffffffffffffffffffffffffffffffff16815260200190600101908083116130fc575b5050505050925060008060008773ffffffffffffffffffffffffffffffffffffffff1673ffffffffffffffffffffffffffffffffffffffff16815260200190815260200160002060000160156101000a81548163ffffffff021916908363ffffffff16021790555060008060008773ffffffffffffffffffffffffffffffffffffffff1673ffffffffffffffffffffffffffffffffffffffff16815260200190815260200160002060000160196101000a81548163ffffffff021916908363ffffffff160217905550600090505b82518110156132e15760008060008773ffffffffffffffffffffffffffffffffffffffff1673ffffffffffffffffffffffffffffffffffffffff1681526020019081526020016000206001016000858481518110151561327057fe5b9060200190602002015173ffffffffffffffffffffffffffffffffffffffff1673ffffffffffffffffffffffffffffffffffffffff16815260200190815260200160002060006101000a81548160ff021916908360028111156132cf57fe5b02179055508080600101915050613214565b60008060008773ffffffffffffffffffffffffffffffffffffffff1673ffffffffffffffffffffffffffffffffffffffff16815260200190815260200160002060000160006101000a81548160ff0219169083600281111561333f57fe5b0217905550816000808773ffffffffffffffffffffffffffffffffffffffff1673ffffffffffffffffffffffffffffffffffffffff16815260200190815260200160002060020190805190602001906133999291906135a1565b5060008060008773ffffffffffffffffffffffffffffffffffffffff1673ffffffffffffffffffffffffffffffffffffffff16815260200190815260200160002060000160016101000a81548173ffffffffffffffffffffffffffffffffffffffff021916908373ffffffffffffffffffffffffffffffffffffffff16021790555060019350505050919050565b61342f61357f565b61343761357f565b6000808473ffffffffffffffffffffffffffffffffffffffff1673ffffffffffffffffffffffffffffffffffffffff16815260200190815260200160002060000160159054906101000a900463ffffffff1681600060028110151561349857fe5b602002019063ffffffff16908163ffffffff16815250506000808473ffffffffffffffffffffffffffffffffffffffff1673ffffffffffffffffffffffffffffffffffffffff16815260200190815260200160002060000160199054906101000a900463ffffffff1681600160028110151561351057fe5b602002019063ffffffff16908163ffffffff168152505080915050919050565b60008082840190508363ffffffff168163ffffffff161015151561355057fe5b8091505092915050565b60008263ffffffff168263ffffffff161115151561357457fe5b818303905092915050565b6040805190810160405280600290602082028038833980820191505090505090565b82805482825590600052602060002090810192821561361a579160200282015b828111156136195782518260006101000a81548173ffffffffffffffffffffffffffffffffffffffff021916908373ffffffffffffffffffffffffffffffffffffffff160217905550916020019190600101906135c1565b5b509050613627919061362b565b5090565b61366b91905b8082111561366757600081816101000a81549073ffffffffffffffffffffffffffffffffffffffff021916905550600101613631565b5090565b905600a165627a7a72305820baf05ee0e2b593831bd5a9aea24c4b073b0407194a194870c283927b3210c4d00029",
  "source": "pragma solidity ^0.4.24;\nimport \"./AdminValidatorSet.sol\";\nimport \"./Voteable.sol\";\n\n/**\n * The ValidatorSet contract maintains the set of validators and Allows\n * admins to add and remove members from the validator set\n */\ncontract SimpleValidatorSet is Voteable{\n\n\tenum Status {\n\t\tINACTIVE,\n\t\tPENDING,\n\t\tACTIVE\n\t}\n\n\tstruct Validator {\n\t\tbool isValidator;\n\t\tStatus status;\n\t}\n\n\tAdminValidatorSet adminSet;\n\n\tmapping (address => Validator) activeValidators;\n\tmapping (address => address[]) adminValidatorsMap;\n\taddress[] validators;\n\tmapping (address => bool) exists;\n\t\n\tbool isInit;\n\tuint32 totalCount;\n\tuint32 totalActiveCount;\n\n\tmodifier isAdmin() {\n\t\trequire (adminSet.isActiveAdmin(msg.sender));\n\t\t_;\n\t}\n\n\tmodifier isValidator() {\n\t\trequire (activeValidators[msg.sender].isValidator);\n\t\t_; \n\t}\n\n\tmodifier isInitalised() {\n\t\t// make sure isInit is set before any logical execution on the contract\n        require(isInit);\n        _;\n    }\n\n\tmodifier ifNotInitalised() {\n\t\t// make sure isInit is set before any logical execution on the contract\n        require(!isInit);\n        _;\n    }\n\n\t/**\n    * @dev Function to deploy and construct simplevalidatorset. These addresses are hardcoded\n    */\n\tconstructor () public {\n\t}\n\n\tfunction init (address _adminContractAddress) public ifNotInitalised{\n\t\t\n\t\taddress adminContractAddress = address(0x0000000000000000000000000000000000002018);\n\t\taddress msg_sender = address(0x44643353444f4b42b46ed28e668c204db6dbb7c3);\n\t\taddress _validator1 = address(0x43a69edd54e07b95113fed92e8c9ba004500ce12);\n\t\taddress _validator2 = address(0xd44b2838207a46f1007b3f296a599fadfb20978c);\n\t\t\n\t\tadminSet = AdminValidatorSet(adminContractAddress);\n\n\t\t//Adding msg.sender as first validator\n\t\texists[msg_sender] = true;\n\t\tadminValidatorsMap[msg_sender].push(msg_sender);\n\t\tactiveValidators[msg_sender].isValidator = true;\n\t\tactiveValidators[msg_sender].status = Status.ACTIVE;\n\t\tvalidators.push(msg_sender);\n\n\t\t//To add _validator1 as validator\n\t\texists[_validator1] = true;\n\t\tadminValidatorsMap[_validator1].push(_validator1);\n\t\tactiveValidators[_validator1].isValidator = true;\n\t\tactiveValidators[_validator1].status = Status.ACTIVE;\n\t\tvalidators.push(_validator1);\n\n\t\t//To add _validator2 as validator\n\t\texists[_validator2] = true;\n\t\tadminValidatorsMap[_validator2].push(_validator2);\n\t\tactiveValidators[_validator2].isValidator = true;\n\t\tactiveValidators[_validator2].status = Status.ACTIVE;\n\t\tvalidators.push(_validator2);\n\n\t\ttotalCount = 3;\n\t\ttotalActiveCount = 3;\n\n\t\tisInit = true;\n\t}\n\t\n\tevent minValidatorNeeded(uint8 minNoOfValidator);\n\n\tevent addValidator(address indexed validator,address _admin);\n\tevent removeValidator(address indexed validator,address _admin);\n\n\tevent votedfor(address by,address vfor);\n\tevent votedagainst(address by,address vfor);\n\n\tevent alreadyProposalForAddingValidator(address indexed _address);\n\tevent alreadyProposalForRemovingValidator(address indexed _address);\n\n\tevent noProposalForAddingValidator(address indexed _address);\n\tevent noProposalForRemovingValidator(address indexed _address);\n\n\tevent alreadyActiveValidator(address indexed _address);\n\tevent alreadyInActiveValidator(address indexed _address);\n\n\t/**\n    * @dev Function to propose adding new validator. It checks validity of msg.sender with isAdmin modifier\n    * msg.sender address should be one of the active admin, who can start the proposal\n\t* @param _address address, which is to be added as new active admin\n\t* @return Emits event alreadyProposalForAddingValidator() in case some proposal already exists\n    * @return A success flag\n    */\n  \tfunction proposalToAddValidator (address _address) public isAdmin isInitalised returns(bool res){\n\t\t//require(votes[_address].proposal == Proposal.NOT_CREATED);\n\t\tif(votes[_address].proposal != Proposal.NOT_CREATED){\n\t\t\tif(votes[_address].proposal == Proposal.ADD){\n\t\t\t\temit alreadyProposalForAddingValidator(_address);\n\t\t\t\treturn false;\n\t\t\t}\n\t\t\tif(votes[_address].proposal == Proposal.REMOVE){\n\t\t\t\temit alreadyProposalForRemovingValidator(_address);\n\t\t\t\treturn false;\n\t\t\t}\n\t\t}\n\t\tvotes[_address].proposal = Proposal.ADD;\n\t\trequire (voteFor(_address,msg.sender));\n\t\tvotes[_address].proposer = msg.sender;\n\t\treturn true;\n\t}\n\n\t/**\n    * @dev Function to vote FOR adding one validator. It checks validity of msg.sender with isValidator modifier\n    * msg.sender address should be one of the active validator\n\t* @param _address address, which is to be proposed to add as active admin\n    * @return Emits event noProposalForAddingValidator() in case the ADD validator proposal is not started already\n\t* @return Emits event addValidator() once valdiator is successfully added\n\t* @return A success flag\n    */\n\tfunction voteForAddingValidator (address _address) public isValidator isInitalised returns(bool res){\n\t\t//require(votes[_address].proposal == Proposal.ADD);\n\t\tif(votes[_address].proposal != Proposal.ADD){\n\t\t\temit noProposalForAddingValidator(_address);\n\t\t\treturn false;\n\t\t}\n\t\trequire(voteFor(_address,msg.sender));\n\t\tif(votes[_address].countFor >= totalActiveCount / 2 + 1){\n\t\t\tif(!exists[_address]){\n\t\t\t\tadminValidatorsMap[msg.sender].push(_address);\n\t\t\t\tvalidators.push(_address);\n\t\t\t\ttotalCount = totalCount.add(1);\n    \t\t}\t\t\n    \t\texists[_address] = true;\n    \t\tactiveValidators[_address].isValidator = true;\n    \t\tactiveValidators[_address].status = Status.ACTIVE;\n\t\t\ttotalActiveCount = totalActiveCount.add(1);\n    \t\trequire(clearVotes(_address));\n\t\t    emit addValidator(_address,msg.sender);\n\t\t}\t\n\t\treturn true;\n\t}\n\n\t/**\n    * @dev Function to vote AGAINST adding one validator. It checks validity of msg.sender with isValidator modifier\n    * msg.sender address should be one of the active validator\n\t* @param _address address, which is to be proposed to add as active admin\n    * @return Emits event noProposalForAddingValidator() in case the ADD validator proposal is not started already\n\t* @return A success flag\n    */\n\tfunction voteAgainstAddingValidator (address _address) public isValidator isInitalised returns(bool res){\n\t\t//require(votes[_address].proposal == Proposal.ADD);\n\t\tif(votes[_address].proposal != Proposal.ADD){\n\t\t\temit noProposalForAddingValidator(_address);\n\t\t\treturn false;\n\t\t}\n\t\trequire(voteAgainst(_address,msg.sender));\n\t\tif(votes[_address].countAgainst >= totalActiveCount / 2 + 1){\n\t\t\tassert(clearVotes(_address));\n\t\t}\n\t\treturn true;\n\t}\n\t\n\t/**\n    * @dev Function to propose to remove one of the existing active validator.\n\t* msg.sender address should be one of the active admin, get validated with modifer isAdmin\n\t* System needs min 3 active admins for voting mechanism to function\n    * @param _address address The address which is one of the admin.\n    * @return A success flag\n\t* @return Emits event minValidatorNeeded() in case the no of existing active validators are less than 3\n\t* @return Emits event alreadyProposalForRemovingValidator() in case some proposal already exists\n    */\n  \tfunction proposalToRemoveValidator (address _address) public isValidator isInitalised returns(bool res){\n\t\tif(totalActiveCount <= 3){\n\t\t\temit minValidatorNeeded(3);\n\t\t\treturn false;\n\t\t}\n\t\t//require(votes[_address].proposal == Proposal.NOT_CREATED);\n\t\tif(votes[_address].proposal != Proposal.NOT_CREATED){\n\t\t\tif(votes[_address].proposal == Proposal.ADD){\n\t\t\t\temit alreadyProposalForAddingValidator(_address);\n\t\t\t\treturn false;\n\t\t\t}\n\t\t\tif(votes[_address].proposal == Proposal.REMOVE){\n\t\t\t\temit alreadyProposalForRemovingValidator(_address);\n\t\t\t\treturn false;\n\t\t\t}\n\t\t}\n\t\tvotes[_address].proposal = Proposal.REMOVE;\n\t\trequire (voteFor(_address,msg.sender));\t\n\t\tvotes[_address].proposer = msg.sender;\n\t\treturn true;\n\t}\n\n\t/**\n    * @dev Function to vote FOR remving one active validatoe. It checks validity of msg.sender with isValidator modifier\n    * msg.sender address should be one of the active validator\n\t* @param _address address, which is to be proposed to remove as active admin\n    * @return Emits event noProposalForRemovingValidator() in case the REMOVE validator proposal is not started already\n\t* @return Emits event removeValidator() once valdiator is successfully removed\n\t* @return A success flag\n    */\n\tfunction voteForRemovingValidator (address _address) public isValidator isInitalised returns(bool res){\n\t\t//require(votes[_address].proposal == Proposal.REMOVE);\n\t\tif(votes[_address].proposal != Proposal.REMOVE){\n\t\t\temit noProposalForRemovingValidator(_address);\n\t\t\treturn false;\n\t\t}\n\t\trequire(voteFor(_address,msg.sender));\n\t\tif(votes[_address].countFor >= totalActiveCount / 2 + 1){\n\t\t\tactiveValidators[_address].isValidator = false;\n    \t\tactiveValidators[_address].status = Status.INACTIVE;\n\t\t\ttotalActiveCount = totalActiveCount.sub(1);\n    \t\trequire(clearVotes(_address));\n    \t\temit removeValidator(_address,msg.sender);\n\t\t}\t\n\t\treturn true;\n\t}\n\n\t/**\n    * @dev Function to vote AGAINST remving one active validatoe. It checks validity of msg.sender with isValidator modifier\n    * msg.sender address should be one of the active validator\n\t* @param _address address, which is to be proposed to remove as active admin\n    * @return Emits event noProposalForRemovingValidator() in case the REMOVE validator proposal is not started already\n\t* @return A success flag\n    */\n\tfunction voteAgainstRemovingValidator (address _address) public isValidator isInitalised returns(bool res){\n\t\t//require(votes[_address].proposal == Proposal.REMOVE);\n\t\tif(votes[_address].proposal != Proposal.REMOVE){\n\t\t\temit noProposalForRemovingValidator(_address);\n\t\t\treturn false;\n\t\t}\n\t\trequire(voteAgainst(_address,msg.sender));\n\t\tif(votes[_address].countAgainst >= totalActiveCount / 2 + 1){\n\t\t\tassert(clearVotes(_address));\n\t\t}\n\t\treturn true;\n\t}\n\t\n\t// function addValidator (address _address) public isValidator returns(bool res)  {\n\t// \tassert (!activeValidators[_address].isValidator);\n\t// \tassert (activeValidators[_address].status == Status.INACTIVE);\n\t// \tassert (voteFor(_address,msg.sender));\n\t// \tif(votes[_address].countFor >= totalActiveCount / 2 + 1){\n    // \t\tif(!exists[_address]){\n\t// \t\t\tadminValidatorsMap[msg.sender].push(_address);\n\t// \t\t\tvalidators.push(_address);\n\t// \t\t\ttotalCount = totalCount.add(1);\n    // \t\t}\t\t\n    // \t\texists[_address] = true;\n    // \t\tactiveValidators[_address].isValidator = true;\n\t// \t\ttotalActiveCount = totalActiveCount.add(1);\n    // \t\t//activeValidators[_address].lop = LastOp.ADD;\n    // \t\tactiveValidators[_address].status = Status.ACTIVE;\n    // \t\trequire(clearVotes(_address));\n\t// \t\tvotes[_address].proposal = Proposal.NOT_CREATED;\n\t// \t    emit addvalidator(_address,msg.sender);\n\t// \t}\n\t// \telse {\n\t// \t\tvotes[_address].proposal = Proposal.ADD;\n\t// \t}\n\t// \tif(votes[_address].countAgainst >= totalActiveCount / 2 +1){\n\t// \t    require(clearVotes(_address));\n\t// \t}\n\t// \treturn true;\n\t// }\n\n\t// function removeValidator (address _address) public isValidator returns(bool res)  {\n\t// \tassert (activeValidators[_address].isValidator);\n\t// \tassert (activeValidators[_address].status == Status.ACTIVE);\n\t// \tassert (voteFor(_address,msg.sender));\n\t// \tif(votes[_address].countFor >= totalActiveCount / 2 + 1){\n    // \t\tactiveValidators[_address].isValidator = false;\n    // \t\t//activeValidators[_address].lop = LastOp.REMOVE;\n    // \t\tactiveValidators[_address].status = Status.INACTIVE;\n\t// \t\ttotalActiveCount = totalActiveCount.sub(1);\n    // \t\trequire(clearVotes(_address));\n\t// \t\tvotes[_address].proposal = Proposal.NOT_CREATED;\n    // \t\temit removevalidator(_address,msg.sender);\n\t// \t}\n\t// \telse {\n\t// \t\tvotes[_address].proposal = Proposal.REMOVE;\n\t// \t}\n\t// \tif(votes[_address].countAgainst >= totalActiveCount / 2 +1){\n\t// \t    require(clearVotes(_address));\n\t// \t}\n\t// \treturn true;\n\t// }\n\n\t/*function lastOp (address _address)public view isAdmin returns(string res){\n\t\tif(activeValidators[_address].lop == LastOp.ADD){\n\t\t\treturn \"add\";\n\t\t}\n\t\telse if(activeValidators[_address].lop == LastOp.REMOVE){\n\t\t\treturn \"remove\";\n\t\t}else{\n\t\t\treturn \"no op\";\t\n\t\t}\n\t}*/\n\n\t/**\n    * @dev Function to check current voting status. It checks validity of msg.sender with isValidator modifier\n\t* @param _address address\n\t* @return returns the bool\n    */\n\tfunction checkVotes (address _address) public view isValidator returns(uint32[2] res){\n\t\treturn internalCheckVotes(_address);\n\t}\n\t\n\t/**\n    * @dev Function to check current proposal for the _address. It checks validity of msg.sender with isValidator modifier\n\t* @param _address address\n\t* @return returns the array of no of votes FOR and AGAINST\n    */\n\tfunction checkProposal (address _address) public view isValidator returns(string res){\n\t\treturn internalCheckProposal(_address);\n\t}\n\n\t/**\n    * @dev Function to return list of all validators active/non-active against a specific admin\n\t* It checks validity of msg.sender with isAdmin modifier\n\t* @return returns the list\n    */\n\tfunction getValidatorsForAdmin() public view isAdmin returns (address[] a){\n\t    return adminValidatorsMap[msg.sender];\n\t}\n\n\t/**\n    * @dev Function to check whether _address is active validator or not\n\t* @param _address address\n\t* @return returns bool as active or non-active validator\n    */\n\tfunction isActiveValidator(address _address) public view returns(bool a){\n\t    return activeValidators[_address].isValidator;\n\t}\n\n\t/**\n    * @dev Function to return list of all validators active/non-active\n\t* @return returns the list\n    */\n\tfunction getAllValidators()public view isValidator returns(address[] a){\n\t    return validators;\n\t}\n\n\t/**\n    * @dev Function to get total admin\n\t* @return returns the number\n    */\n\tfunction getValidatorsCount()public view isValidator returns(uint32){\n\t    return totalCount;\n\t}\n\n\t/**\n    * @dev Function to get total active validators\n\t* @return returns the number\n    */\n\tfunction getActiveValidatorsCount()public view isValidator returns(uint32){\n\t    return totalActiveCount;\n\t}\n\n\t/**\n    * @dev Function to clear votes/proposal for the given address\n\t* @param _address address of the admin\n\t* @return returns the status true/false\n    */\n\tfunction clearProposal(address _address)public isValidator isInitalised returns(bool res){\n\t    if(_address==address(0))\n\t\t\treturn false;\n\t\treturn clearVotes(_address);\n\t}\n}\n",
  "sourcePath": "/Users/rahulgolash/Rahul/Ledgerium/CoreLedgerium/governanceApp/contracts/SimpleValidatorSet.sol",
  "compiler": {
    "name": "solc",
    "version": "0.4.24+commit.e67f0147.Emscripten.clang"
  },
  "schemaVersion": "2.0.1",
  "updatedAt": "2018-11-22T03:24:45.878Z"
}