{
  "contractName": "SimpleValidatorSet",
  "abi": [
    {
      "inputs": [
        {
          "name": "_address",
          "type": "address"
        },
        {
          "name": "_validator1",
          "type": "address"
        },
        {
          "name": "_validator2",
          "type": "address"
        }
      ],
      "payable": false,
      "stateMutability": "nonpayable",
      "type": "constructor"
    },
    {
      "anonymous": false,
      "inputs": [
        {
          "indexed": false,
          "name": "minNoOfValidator",
          "type": "uint8"
        }
      ],
      "name": "minValidatorNeeded",
      "type": "event"
    },
    {
      "anonymous": false,
      "inputs": [
        {
          "indexed": true,
          "name": "validator",
          "type": "address"
        },
        {
          "indexed": false,
          "name": "_admin",
          "type": "address"
        }
      ],
      "name": "addValidator",
      "type": "event"
    },
    {
      "anonymous": false,
      "inputs": [
        {
          "indexed": true,
          "name": "validator",
          "type": "address"
        },
        {
          "indexed": false,
          "name": "_admin",
          "type": "address"
        }
      ],
      "name": "removeValidator",
      "type": "event"
    },
    {
      "anonymous": false,
      "inputs": [
        {
          "indexed": false,
          "name": "by",
          "type": "address"
        },
        {
          "indexed": false,
          "name": "vfor",
          "type": "address"
        }
      ],
      "name": "votedfor",
      "type": "event"
    },
    {
      "anonymous": false,
      "inputs": [
        {
          "indexed": false,
          "name": "by",
          "type": "address"
        },
        {
          "indexed": false,
          "name": "vfor",
          "type": "address"
        }
      ],
      "name": "votedagainst",
      "type": "event"
    },
    {
      "anonymous": false,
      "inputs": [
        {
          "indexed": true,
          "name": "_address",
          "type": "address"
        }
      ],
      "name": "alreadyProposalForAddingValidator",
      "type": "event"
    },
    {
      "anonymous": false,
      "inputs": [
        {
          "indexed": true,
          "name": "_address",
          "type": "address"
        }
      ],
      "name": "alreadyProposalForRemovingValidator",
      "type": "event"
    },
    {
      "anonymous": false,
      "inputs": [
        {
          "indexed": true,
          "name": "_address",
          "type": "address"
        }
      ],
      "name": "noProposalForAddingValidator",
      "type": "event"
    },
    {
      "anonymous": false,
      "inputs": [
        {
          "indexed": true,
          "name": "_address",
          "type": "address"
        }
      ],
      "name": "noProposalForRemovingValidator",
      "type": "event"
    },
    {
      "anonymous": false,
      "inputs": [
        {
          "indexed": true,
          "name": "_address",
          "type": "address"
        }
      ],
      "name": "alreadyActiveValidator",
      "type": "event"
    },
    {
      "anonymous": false,
      "inputs": [
        {
          "indexed": true,
          "name": "_address",
          "type": "address"
        }
      ],
      "name": "alreadyInActiveValidator",
      "type": "event"
    },
    {
      "constant": false,
      "inputs": [
        {
          "name": "_address",
          "type": "address"
        }
      ],
      "name": "proposalToAddValidator",
      "outputs": [
        {
          "name": "res",
          "type": "bool"
        }
      ],
      "payable": false,
      "stateMutability": "nonpayable",
      "type": "function"
    },
    {
      "constant": false,
      "inputs": [
        {
          "name": "_address",
          "type": "address"
        }
      ],
      "name": "voteForAddingValidator",
      "outputs": [
        {
          "name": "res",
          "type": "bool"
        }
      ],
      "payable": false,
      "stateMutability": "nonpayable",
      "type": "function"
    },
    {
      "constant": false,
      "inputs": [
        {
          "name": "_address",
          "type": "address"
        }
      ],
      "name": "voteAgainstAddingValidator",
      "outputs": [
        {
          "name": "res",
          "type": "bool"
        }
      ],
      "payable": false,
      "stateMutability": "nonpayable",
      "type": "function"
    },
    {
      "constant": false,
      "inputs": [
        {
          "name": "_address",
          "type": "address"
        }
      ],
      "name": "proposalToRemoveValidator",
      "outputs": [
        {
          "name": "res",
          "type": "bool"
        }
      ],
      "payable": false,
      "stateMutability": "nonpayable",
      "type": "function"
    },
    {
      "constant": false,
      "inputs": [
        {
          "name": "_address",
          "type": "address"
        }
      ],
      "name": "voteForRemovingValidator",
      "outputs": [
        {
          "name": "res",
          "type": "bool"
        }
      ],
      "payable": false,
      "stateMutability": "nonpayable",
      "type": "function"
    },
    {
      "constant": false,
      "inputs": [
        {
          "name": "_address",
          "type": "address"
        }
      ],
      "name": "voteAgainstRemovingValidator",
      "outputs": [
        {
          "name": "res",
          "type": "bool"
        }
      ],
      "payable": false,
      "stateMutability": "nonpayable",
      "type": "function"
    },
    {
      "constant": true,
      "inputs": [
        {
          "name": "_address",
          "type": "address"
        }
      ],
      "name": "checkVotes",
      "outputs": [
        {
          "name": "res",
          "type": "uint32[2]"
        }
      ],
      "payable": false,
      "stateMutability": "view",
      "type": "function"
    },
    {
      "constant": true,
      "inputs": [
        {
          "name": "_address",
          "type": "address"
        }
      ],
      "name": "checkProposal",
      "outputs": [
        {
          "name": "res",
          "type": "string"
        }
      ],
      "payable": false,
      "stateMutability": "view",
      "type": "function"
    },
    {
      "constant": true,
      "inputs": [],
      "name": "getValidatorsForAdmin",
      "outputs": [
        {
          "name": "a",
          "type": "address[]"
        }
      ],
      "payable": false,
      "stateMutability": "view",
      "type": "function"
    },
    {
      "constant": true,
      "inputs": [
        {
          "name": "_address",
          "type": "address"
        }
      ],
      "name": "isActiveValidator",
      "outputs": [
        {
          "name": "a",
          "type": "bool"
        }
      ],
      "payable": false,
      "stateMutability": "view",
      "type": "function"
    },
    {
      "constant": true,
      "inputs": [],
      "name": "getAllValidators",
      "outputs": [
        {
          "name": "a",
          "type": "address[]"
        }
      ],
      "payable": false,
      "stateMutability": "view",
      "type": "function"
    },
    {
      "constant": true,
      "inputs": [],
      "name": "getValidatorsCount",
      "outputs": [
        {
          "name": "",
          "type": "uint32"
        }
      ],
      "payable": false,
      "stateMutability": "view",
      "type": "function"
    },
    {
      "constant": true,
      "inputs": [],
      "name": "getActiveValidatorsCount",
      "outputs": [
        {
          "name": "",
          "type": "uint32"
        }
      ],
      "payable": false,
      "stateMutability": "view",
      "type": "function"
    }
  ],
  "bytecode": "0x608060405234801561001057600080fd5b506040516060806200337183398101806040528101908080519060200190929190805190602001909291908051906020019092919050505082600160006101000a81548173ffffffffffffffffffffffffffffffffffffffff021916908373ffffffffffffffffffffffffffffffffffffffff1602179055506001600560003373ffffffffffffffffffffffffffffffffffffffff1673ffffffffffffffffffffffffffffffffffffffff16815260200190815260200160002060006101000a81548160ff021916908315150217905550600360003373ffffffffffffffffffffffffffffffffffffffff1673ffffffffffffffffffffffffffffffffffffffff1681526020019081526020016000203390806001815401808255809150509060018203906000526020600020016000909192909190916101000a81548173ffffffffffffffffffffffffffffffffffffffff021916908373ffffffffffffffffffffffffffffffffffffffff160217905550506001600260003373ffffffffffffffffffffffffffffffffffffffff1673ffffffffffffffffffffffffffffffffffffffff16815260200190815260200160002060000160006101000a81548160ff02191690831515021790555060028060003373ffffffffffffffffffffffffffffffffffffffff1673ffffffffffffffffffffffffffffffffffffffff16815260200190815260200160002060000160016101000a81548160ff0219169083600281111561023d57fe5b021790555060043390806001815401808255809150509060018203906000526020600020016000909192909190916101000a81548173ffffffffffffffffffffffffffffffffffffffff021916908373ffffffffffffffffffffffffffffffffffffffff160217905550506001600560008473ffffffffffffffffffffffffffffffffffffffff1673ffffffffffffffffffffffffffffffffffffffff16815260200190815260200160002060006101000a81548160ff021916908315150217905550600360008373ffffffffffffffffffffffffffffffffffffffff1673ffffffffffffffffffffffffffffffffffffffff1681526020019081526020016000208290806001815401808255809150509060018203906000526020600020016000909192909190916101000a81548173ffffffffffffffffffffffffffffffffffffffff021916908373ffffffffffffffffffffffffffffffffffffffff160217905550506001600260008473ffffffffffffffffffffffffffffffffffffffff1673ffffffffffffffffffffffffffffffffffffffff16815260200190815260200160002060000160006101000a81548160ff02191690831515021790555060028060008473ffffffffffffffffffffffffffffffffffffffff1673ffffffffffffffffffffffffffffffffffffffff16815260200190815260200160002060000160016101000a81548160ff0219169083600281111561045c57fe5b021790555060048290806001815401808255809150509060018203906000526020600020016000909192909190916101000a81548173ffffffffffffffffffffffffffffffffffffffff021916908373ffffffffffffffffffffffffffffffffffffffff160217905550506001600560008373ffffffffffffffffffffffffffffffffffffffff1673ffffffffffffffffffffffffffffffffffffffff16815260200190815260200160002060006101000a81548160ff021916908315150217905550600360008273ffffffffffffffffffffffffffffffffffffffff1673ffffffffffffffffffffffffffffffffffffffff1681526020019081526020016000208190806001815401808255809150509060018203906000526020600020016000909192909190916101000a81548173ffffffffffffffffffffffffffffffffffffffff021916908373ffffffffffffffffffffffffffffffffffffffff160217905550506001600260008373ffffffffffffffffffffffffffffffffffffffff1673ffffffffffffffffffffffffffffffffffffffff16815260200190815260200160002060000160006101000a81548160ff02191690831515021790555060028060008373ffffffffffffffffffffffffffffffffffffffff1673ffffffffffffffffffffffffffffffffffffffff16815260200190815260200160002060000160016101000a81548160ff0219169083600281111561067b57fe5b021790555060048190806001815401808255809150509060018203906000526020600020016000909192909190916101000a81548173ffffffffffffffffffffffffffffffffffffffff021916908373ffffffffffffffffffffffffffffffffffffffff160217905550506003600660006101000a81548163ffffffff021916908363ffffffff1602179055506003600660046101000a81548163ffffffff021916908363ffffffff160217905550505050612c34806200073d6000396000f3006080604052600436106100c5576000357c0100000000000000000000000000000000000000000000000000000000900463ffffffff16806312254fc4146100ca57806327498240146101255780632c9f55ed1461015c57806331147c301461021857806333ca17f81461024f57806340550a1c146102aa5780635caea9cb146103055780638df1cab01461038457806390d6641b146103df578063b6e7d3321461043a578063dd31863c14610495578063de0473d414610501578063f3513a371461055c575b600080fd5b3480156100d657600080fd5b5061010b600480360381019080803573ffffffffffffffffffffffffffffffffffffffff1690602001909291905050506105c8565b604051808215151515815260200191505060405180910390f35b34801561013157600080fd5b5061013a610995565b604051808263ffffffff1663ffffffff16815260200191505060405180910390f35b34801561016857600080fd5b5061019d600480360381019080803573ffffffffffffffffffffffffffffffffffffffff169060200190929190505050610a0a565b6040518080602001828103825283818151815260200191508051906020019080838360005b838110156101dd5780820151818401526020810190506101c2565b50505050905090810190601f16801561020a5780820380516001836020036101000a031916815260200191505b509250505060405180910390f35b34801561022457600080fd5b5061022d610a77565b604051808263ffffffff1663ffffffff16815260200191505060405180910390f35b34801561025b57600080fd5b50610290600480360381019080803573ffffffffffffffffffffffffffffffffffffffff169060200190929190505050610aec565b604051808215151515815260200191505060405180910390f35b3480156102b657600080fd5b506102eb600480360381019080803573ffffffffffffffffffffffffffffffffffffffff169060200190929190505050610cc0565b604051808215151515815260200191505060405180910390f35b34801561031157600080fd5b50610346600480360381019080803573ffffffffffffffffffffffffffffffffffffffff169060200190929190505050610d19565b6040518082600260200280838360005b83811015610371578082015181840152602081019050610356565b5050505090500191505060405180910390f35b34801561039057600080fd5b506103c5600480360381019080803573ffffffffffffffffffffffffffffffffffffffff169060200190929190505050610d8c565b604051808215151515815260200191505060405180910390f35b3480156103eb57600080fd5b50610420600480360381019080803573ffffffffffffffffffffffffffffffffffffffff1690602001909291905050506110f3565b604051808215151515815260200191505060405180910390f35b34801561044657600080fd5b5061047b600480360381019080803573ffffffffffffffffffffffffffffffffffffffff169060200190929190505050611650565b604051808215151515815260200191505060405180910390f35b3480156104a157600080fd5b506104aa6119ac565b6040518080602001828103825283818151815260200191508051906020019060200280838360005b838110156104ed5780820151818401526020810190506104d2565b505050509050019250505060405180910390f35b34801561050d57600080fd5b50610542600480360381019080803573ffffffffffffffffffffffffffffffffffffffff169060200190929190505050611b7a565b604051808215151515815260200191505060405180910390f35b34801561056857600080fd5b50610571611d4f565b6040518080602001828103825283818151815260200191508051906020019060200280838360005b838110156105b4578082015181840152602081019050610599565b505050509050019250505060405180910390f35b6000600160009054906101000a900473ffffffffffffffffffffffffffffffffffffffff1673ffffffffffffffffffffffffffffffffffffffff1663a06a2060336040518263ffffffff167c0100000000000000000000000000000000000000000000000000000000028152600401808273ffffffffffffffffffffffffffffffffffffffff1673ffffffffffffffffffffffffffffffffffffffff168152602001915050602060405180830381600087803b15801561068757600080fd5b505af115801561069b573d6000803e3d6000fd5b505050506040513d60208110156106b157600080fd5b810190808051906020019092919050505015156106cd57600080fd5b6003600660049054906101000a900463ffffffff1663ffffffff16111515610733577fdc735d30ee4d592cfc16495bbeb50c4aff662dd9ef492df61e682d5eeb951acd6003604051808260ff16815260200191505060405180910390a160009050610990565b6000600281111561074057fe5b6000808473ffffffffffffffffffffffffffffffffffffffff1673ffffffffffffffffffffffffffffffffffffffff16815260200190815260200160002060000160009054906101000a900460ff16600281111561079a57fe5b14151561091357600160028111156107ae57fe5b6000808473ffffffffffffffffffffffffffffffffffffffff1673ffffffffffffffffffffffffffffffffffffffff16815260200190815260200160002060000160009054906101000a900460ff16600281111561080857fe5b141561085a578173ffffffffffffffffffffffffffffffffffffffff167ff3874d83cd2f9ff0b117ecf1a7349a65d95b7efee375cdc7ed3c2b07af9685f160405160405180910390a260009050610990565b60028081111561086657fe5b6000808473ffffffffffffffffffffffffffffffffffffffff1673ffffffffffffffffffffffffffffffffffffffff16815260200190815260200160002060000160009054906101000a900460ff1660028111156108c057fe5b1415610912578173ffffffffffffffffffffffffffffffffffffffff167fb88f2d9e2e80b2f2a1a7cdd5ef418a02d58887ed1d167638ace8abe0aedc279860405160405180910390a260009050610990565b5b60026000808473ffffffffffffffffffffffffffffffffffffffff1673ffffffffffffffffffffffffffffffffffffffff16815260200190815260200160002060000160006101000a81548160ff0219169083600281111561097157fe5b02179055506109808233611e38565b151561098b57600080fd5b600190505b919050565b6000600260003373ffffffffffffffffffffffffffffffffffffffff1673ffffffffffffffffffffffffffffffffffffffff16815260200190815260200160002060000160009054906101000a900460ff1615156109f257600080fd5b600660009054906101000a900463ffffffff16905090565b6060600260003373ffffffffffffffffffffffffffffffffffffffff1673ffffffffffffffffffffffffffffffffffffffff16815260200190815260200160002060000160009054906101000a900460ff161515610a6757600080fd5b610a708261219f565b9050919050565b6000600260003373ffffffffffffffffffffffffffffffffffffffff1673ffffffffffffffffffffffffffffffffffffffff16815260200190815260200160002060000160009054906101000a900460ff161515610ad457600080fd5b600660049054906101000a900463ffffffff16905090565b6000600260003373ffffffffffffffffffffffffffffffffffffffff1673ffffffffffffffffffffffffffffffffffffffff16815260200190815260200160002060000160009054906101000a900460ff161515610b4957600080fd5b600280811115610b5557fe5b6000808473ffffffffffffffffffffffffffffffffffffffff1673ffffffffffffffffffffffffffffffffffffffff16815260200190815260200160002060000160009054906101000a900460ff166002811115610baf57fe5b141515610c02578173ffffffffffffffffffffffffffffffffffffffff167f28197290cad61005afa5d457926200dfea8d93058734906fcd9dd325fafdfeee60405160405180910390a260009050610cbb565b610c0c8233612332565b1515610c1757600080fd5b60016002600660049054906101000a900463ffffffff1663ffffffff16811515610c3d57fe5b040163ffffffff166000808473ffffffffffffffffffffffffffffffffffffffff1673ffffffffffffffffffffffffffffffffffffffff16815260200190815260200160002060000160059054906101000a900463ffffffff1663ffffffff16101515610cb657610cad82612699565b1515610cb557fe5b5b600190505b919050565b6000600260008373ffffffffffffffffffffffffffffffffffffffff1673ffffffffffffffffffffffffffffffffffffffff16815260200190815260200160002060000160009054906101000a900460ff169050919050565b610d21612b19565b600260003373ffffffffffffffffffffffffffffffffffffffff1673ffffffffffffffffffffffffffffffffffffffff16815260200190815260200160002060000160009054906101000a900460ff161515610d7c57600080fd5b610d85826129c1565b9050919050565b6000600160009054906101000a900473ffffffffffffffffffffffffffffffffffffffff1673ffffffffffffffffffffffffffffffffffffffff1663a06a2060336040518263ffffffff167c0100000000000000000000000000000000000000000000000000000000028152600401808273ffffffffffffffffffffffffffffffffffffffff1673ffffffffffffffffffffffffffffffffffffffff168152602001915050602060405180830381600087803b158015610e4b57600080fd5b505af1158015610e5f573d6000803e3d6000fd5b505050506040513d6020811015610e7557600080fd5b81019080805190602001909291905050501515610e9157600080fd5b60006002811115610e9e57fe5b6000808473ffffffffffffffffffffffffffffffffffffffff1673ffffffffffffffffffffffffffffffffffffffff16815260200190815260200160002060000160009054906101000a900460ff166002811115610ef857fe5b1415156110715760016002811115610f0c57fe5b6000808473ffffffffffffffffffffffffffffffffffffffff1673ffffffffffffffffffffffffffffffffffffffff16815260200190815260200160002060000160009054906101000a900460ff166002811115610f6657fe5b1415610fb8578173ffffffffffffffffffffffffffffffffffffffff167ff3874d83cd2f9ff0b117ecf1a7349a65d95b7efee375cdc7ed3c2b07af9685f160405160405180910390a2600090506110ee565b600280811115610fc457fe5b6000808473ffffffffffffffffffffffffffffffffffffffff1673ffffffffffffffffffffffffffffffffffffffff16815260200190815260200160002060000160009054906101000a900460ff16600281111561101e57fe5b1415611070578173ffffffffffffffffffffffffffffffffffffffff167fb88f2d9e2e80b2f2a1a7cdd5ef418a02d58887ed1d167638ace8abe0aedc279860405160405180910390a2600090506110ee565b5b60016000808473ffffffffffffffffffffffffffffffffffffffff1673ffffffffffffffffffffffffffffffffffffffff16815260200190815260200160002060000160006101000a81548160ff021916908360028111156110cf57fe5b02179055506110de8233611e38565b15156110e957600080fd5b600190505b919050565b6000600260003373ffffffffffffffffffffffffffffffffffffffff1673ffffffffffffffffffffffffffffffffffffffff16815260200190815260200160002060000160009054906101000a900460ff16151561115057600080fd5b6001600281111561115d57fe5b6000808473ffffffffffffffffffffffffffffffffffffffff1673ffffffffffffffffffffffffffffffffffffffff16815260200190815260200160002060000160009054906101000a900460ff1660028111156111b757fe5b14151561120a578173ffffffffffffffffffffffffffffffffffffffff167f1f4b9c7b059fc45279a27b2e2f60d2456d43681929af61c818aad0260d3d1c1060405160405180910390a26000905061164b565b6112148233611e38565b151561121f57600080fd5b60016002600660049054906101000a900463ffffffff1663ffffffff1681151561124557fe5b040163ffffffff166000808473ffffffffffffffffffffffffffffffffffffffff1673ffffffffffffffffffffffffffffffffffffffff16815260200190815260200160002060000160019054906101000a900463ffffffff1663ffffffff1610151561164657600560008373ffffffffffffffffffffffffffffffffffffffff1673ffffffffffffffffffffffffffffffffffffffff16815260200190815260200160002060009054906101000a900460ff16151561145557600360003373ffffffffffffffffffffffffffffffffffffffff1673ffffffffffffffffffffffffffffffffffffffff1681526020019081526020016000208290806001815401808255809150509060018203906000526020600020016000909192909190916101000a81548173ffffffffffffffffffffffffffffffffffffffff021916908373ffffffffffffffffffffffffffffffffffffffff1602179055505060048290806001815401808255809150509060018203906000526020600020016000909192909190916101000a81548173ffffffffffffffffffffffffffffffffffffffff021916908373ffffffffffffffffffffffffffffffffffffffff160217905550506114346001600660009054906101000a900463ffffffff1663ffffffff16612aca90919063ffffffff16565b600660006101000a81548163ffffffff021916908363ffffffff1602179055505b6001600560008473ffffffffffffffffffffffffffffffffffffffff1673ffffffffffffffffffffffffffffffffffffffff16815260200190815260200160002060006101000a81548160ff0219169083151502179055506001600260008473ffffffffffffffffffffffffffffffffffffffff1673ffffffffffffffffffffffffffffffffffffffff16815260200190815260200160002060000160006101000a81548160ff02191690831515021790555060028060008473ffffffffffffffffffffffffffffffffffffffff1673ffffffffffffffffffffffffffffffffffffffff16815260200190815260200160002060000160016101000a81548160ff0219169083600281111561156657fe5b02179055506115976001600660049054906101000a900463ffffffff1663ffffffff16612aca90919063ffffffff16565b600660046101000a81548163ffffffff021916908363ffffffff1602179055506115c082612699565b15156115cb57600080fd5b8173ffffffffffffffffffffffffffffffffffffffff167fb1819c2b26dbd89c826c99326bb83e0331ac27f73e635a7c678e2444e3187fbd33604051808273ffffffffffffffffffffffffffffffffffffffff1673ffffffffffffffffffffffffffffffffffffffff16815260200191505060405180910390a25b600190505b919050565b6000600260003373ffffffffffffffffffffffffffffffffffffffff1673ffffffffffffffffffffffffffffffffffffffff16815260200190815260200160002060000160009054906101000a900460ff1615156116ad57600080fd5b6002808111156116b957fe5b6000808473ffffffffffffffffffffffffffffffffffffffff1673ffffffffffffffffffffffffffffffffffffffff16815260200190815260200160002060000160009054906101000a900460ff16600281111561171357fe5b141515611766578173ffffffffffffffffffffffffffffffffffffffff167f28197290cad61005afa5d457926200dfea8d93058734906fcd9dd325fafdfeee60405160405180910390a2600090506119a7565b6117708233611e38565b151561177b57600080fd5b60016002600660049054906101000a900463ffffffff1663ffffffff168115156117a157fe5b040163ffffffff166000808473ffffffffffffffffffffffffffffffffffffffff1673ffffffffffffffffffffffffffffffffffffffff16815260200190815260200160002060000160019054906101000a900463ffffffff1663ffffffff161015156119a2576000600260008473ffffffffffffffffffffffffffffffffffffffff1673ffffffffffffffffffffffffffffffffffffffff16815260200190815260200160002060000160006101000a81548160ff0219169083151502179055506000600260008473ffffffffffffffffffffffffffffffffffffffff1673ffffffffffffffffffffffffffffffffffffffff16815260200190815260200160002060000160016101000a81548160ff021916908360028111156118c257fe5b02179055506118f36001600660049054906101000a900463ffffffff1663ffffffff16612af490919063ffffffff16565b600660046101000a81548163ffffffff021916908363ffffffff16021790555061191c82612699565b151561192757600080fd5b8173ffffffffffffffffffffffffffffffffffffffff167f96cb4c0dbc2c029725ba4b288e856204f004f4a5b38852686b2a4dbd3cf8458933604051808273ffffffffffffffffffffffffffffffffffffffff1673ffffffffffffffffffffffffffffffffffffffff16815260200191505060405180910390a25b600190505b919050565b6060600160009054906101000a900473ffffffffffffffffffffffffffffffffffffffff1673ffffffffffffffffffffffffffffffffffffffff1663a06a2060336040518263ffffffff167c0100000000000000000000000000000000000000000000000000000000028152600401808273ffffffffffffffffffffffffffffffffffffffff1673ffffffffffffffffffffffffffffffffffffffff168152602001915050602060405180830381600087803b158015611a6b57600080fd5b505af1158015611a7f573d6000803e3d6000fd5b505050506040513d6020811015611a9557600080fd5b81019080805190602001909291905050501515611ab157600080fd5b600360003373ffffffffffffffffffffffffffffffffffffffff1673ffffffffffffffffffffffffffffffffffffffff168152602001908152602001600020805480602002602001604051908101604052809291908181526020018280548015611b7057602002820191906000526020600020905b8160009054906101000a900473ffffffffffffffffffffffffffffffffffffffff1673ffffffffffffffffffffffffffffffffffffffff1681526020019060010190808311611b26575b5050505050905090565b6000600260003373ffffffffffffffffffffffffffffffffffffffff1673ffffffffffffffffffffffffffffffffffffffff16815260200190815260200160002060000160009054906101000a900460ff161515611bd757600080fd5b60016002811115611be457fe5b6000808473ffffffffffffffffffffffffffffffffffffffff1673ffffffffffffffffffffffffffffffffffffffff16815260200190815260200160002060000160009054906101000a900460ff166002811115611c3e57fe5b141515611c91578173ffffffffffffffffffffffffffffffffffffffff167f1f4b9c7b059fc45279a27b2e2f60d2456d43681929af61c818aad0260d3d1c1060405160405180910390a260009050611d4a565b611c9b8233612332565b1515611ca657600080fd5b60016002600660049054906101000a900463ffffffff1663ffffffff16811515611ccc57fe5b040163ffffffff166000808473ffffffffffffffffffffffffffffffffffffffff1673ffffffffffffffffffffffffffffffffffffffff16815260200190815260200160002060000160059054906101000a900463ffffffff1663ffffffff16101515611d4557611d3c82612699565b1515611d4457fe5b5b600190505b919050565b6060600260003373ffffffffffffffffffffffffffffffffffffffff1673ffffffffffffffffffffffffffffffffffffffff16815260200190815260200160002060000160009054906101000a900460ff161515611dac57600080fd5b6004805480602002602001604051908101604052809291908181526020018280548015611e2e57602002820191906000526020600020905b8160009054906101000a900473ffffffffffffffffffffffffffffffffffffffff1673ffffffffffffffffffffffffffffffffffffffff1681526020019060010190808311611de4575b5050505050905090565b60008060006002811115611e4857fe5b6000808673ffffffffffffffffffffffffffffffffffffffff1673ffffffffffffffffffffffffffffffffffffffff16815260200190815260200160002060010160008573ffffffffffffffffffffffffffffffffffffffff1673ffffffffffffffffffffffffffffffffffffffff16815260200190815260200160002060009054906101000a900460ff166002811115611edf57fe5b141515611eeb57600080fd5b611f5660016000808773ffffffffffffffffffffffffffffffffffffffff1673ffffffffffffffffffffffffffffffffffffffff16815260200190815260200160002060000160019054906101000a900463ffffffff1663ffffffff16612aca90919063ffffffff16565b9050806000808673ffffffffffffffffffffffffffffffffffffffff1673ffffffffffffffffffffffffffffffffffffffff16815260200190815260200160002060000160016101000a81548163ffffffff021916908363ffffffff16021790555060016000808673ffffffffffffffffffffffffffffffffffffffff1673ffffffffffffffffffffffffffffffffffffffff16815260200190815260200160002060010160008573ffffffffffffffffffffffffffffffffffffffff1673ffffffffffffffffffffffffffffffffffffffff16815260200190815260200160002060006101000a81548160ff0219169083600281111561205357fe5b02179055506000808573ffffffffffffffffffffffffffffffffffffffff1673ffffffffffffffffffffffffffffffffffffffff1681526020019081526020016000206002018390806001815401808255809150509060018203906000526020600020016000909192909190916101000a81548173ffffffffffffffffffffffffffffffffffffffff021916908373ffffffffffffffffffffffffffffffffffffffff160217905550507f7a189becc9d33281e69ff3784545bbabdf6de5b0c3dc9a1478ca39d8ebe2dd718385604051808373ffffffffffffffffffffffffffffffffffffffff1673ffffffffffffffffffffffffffffffffffffffff1681526020018273ffffffffffffffffffffffffffffffffffffffff1673ffffffffffffffffffffffffffffffffffffffff1681526020019250505060405180910390a1600191505092915050565b6060600160028111156121ae57fe5b6000808473ffffffffffffffffffffffffffffffffffffffff1673ffffffffffffffffffffffffffffffffffffffff16815260200190815260200160002060000160009054906101000a900460ff16600281111561220857fe5b141561224b576040805190810160405280600381526020017f6164640000000000000000000000000000000000000000000000000000000000815250905061232d565b60028081111561225757fe5b6000808473ffffffffffffffffffffffffffffffffffffffff1673ffffffffffffffffffffffffffffffffffffffff16815260200190815260200160002060000160009054906101000a900460ff1660028111156122b157fe5b14156122f4576040805190810160405280600681526020017f72656d6f76650000000000000000000000000000000000000000000000000000815250905061232d565b6040805190810160405280601481526020017f70726f706f73616c206e6f74206372656174656400000000000000000000000081525090505b919050565b6000806000600281111561234257fe5b6000808673ffffffffffffffffffffffffffffffffffffffff1673ffffffffffffffffffffffffffffffffffffffff16815260200190815260200160002060010160008573ffffffffffffffffffffffffffffffffffffffff1673ffffffffffffffffffffffffffffffffffffffff16815260200190815260200160002060009054906101000a900460ff1660028111156123d957fe5b1415156123e557600080fd5b61245060016000808773ffffffffffffffffffffffffffffffffffffffff1673ffffffffffffffffffffffffffffffffffffffff16815260200190815260200160002060000160059054906101000a900463ffffffff1663ffffffff16612aca90919063ffffffff16565b9050806000808673ffffffffffffffffffffffffffffffffffffffff1673ffffffffffffffffffffffffffffffffffffffff16815260200190815260200160002060000160056101000a81548163ffffffff021916908363ffffffff16021790555060026000808673ffffffffffffffffffffffffffffffffffffffff1673ffffffffffffffffffffffffffffffffffffffff16815260200190815260200160002060010160008573ffffffffffffffffffffffffffffffffffffffff1673ffffffffffffffffffffffffffffffffffffffff16815260200190815260200160002060006101000a81548160ff0219169083600281111561254d57fe5b02179055506000808573ffffffffffffffffffffffffffffffffffffffff1673ffffffffffffffffffffffffffffffffffffffff1681526020019081526020016000206002018390806001815401808255809150509060018203906000526020600020016000909192909190916101000a81548173ffffffffffffffffffffffffffffffffffffffff021916908373ffffffffffffffffffffffffffffffffffffffff160217905550507f7a6650c3cb47c42e983c1b1d41edba2961f4e6515feac915850cc410e6c716488385604051808373ffffffffffffffffffffffffffffffffffffffff1673ffffffffffffffffffffffffffffffffffffffff1681526020018273ffffffffffffffffffffffffffffffffffffffff1673ffffffffffffffffffffffffffffffffffffffff1681526020019250505060405180910390a1600191505092915050565b600060608060008060008673ffffffffffffffffffffffffffffffffffffffff1673ffffffffffffffffffffffffffffffffffffffff16815260200190815260200160002060020180548060200260200160405190810160405280929190818152602001828054801561276157602002820191906000526020600020905b8160009054906101000a900473ffffffffffffffffffffffffffffffffffffffff1673ffffffffffffffffffffffffffffffffffffffff1681526020019060010190808311612717575b5050505050925060008060008773ffffffffffffffffffffffffffffffffffffffff1673ffffffffffffffffffffffffffffffffffffffff16815260200190815260200160002060000160016101000a81548163ffffffff021916908363ffffffff16021790555060008060008773ffffffffffffffffffffffffffffffffffffffff1673ffffffffffffffffffffffffffffffffffffffff16815260200190815260200160002060000160056101000a81548163ffffffff021916908363ffffffff160217905550600090505b82518110156128fc5760008060008773ffffffffffffffffffffffffffffffffffffffff1673ffffffffffffffffffffffffffffffffffffffff1681526020019081526020016000206001016000858481518110151561288b57fe5b9060200190602002015173ffffffffffffffffffffffffffffffffffffffff1673ffffffffffffffffffffffffffffffffffffffff16815260200190815260200160002060006101000a81548160ff021916908360028111156128ea57fe5b0217905550808060010191505061282f565b60008060008773ffffffffffffffffffffffffffffffffffffffff1673ffffffffffffffffffffffffffffffffffffffff16815260200190815260200160002060000160006101000a81548160ff0219169083600281111561295a57fe5b0217905550816000808773ffffffffffffffffffffffffffffffffffffffff1673ffffffffffffffffffffffffffffffffffffffff16815260200190815260200160002060020190805190602001906129b4929190612b3b565b5060019350505050919050565b6129c9612b19565b6129d1612b19565b6000808473ffffffffffffffffffffffffffffffffffffffff1673ffffffffffffffffffffffffffffffffffffffff16815260200190815260200160002060000160019054906101000a900463ffffffff16816000600281101515612a3257fe5b602002019063ffffffff16908163ffffffff16815250506000808473ffffffffffffffffffffffffffffffffffffffff1673ffffffffffffffffffffffffffffffffffffffff16815260200190815260200160002060000160059054906101000a900463ffffffff16816001600281101515612aaa57fe5b602002019063ffffffff16908163ffffffff168152505080915050919050565b60008082840190508363ffffffff168163ffffffff1610151515612aea57fe5b8091505092915050565b60008263ffffffff168263ffffffff1611151515612b0e57fe5b818303905092915050565b6040805190810160405280600290602082028038833980820191505090505090565b828054828255906000526020600020908101928215612bb4579160200282015b82811115612bb35782518260006101000a81548173ffffffffffffffffffffffffffffffffffffffff021916908373ffffffffffffffffffffffffffffffffffffffff16021790555091602001919060010190612b5b565b5b509050612bc19190612bc5565b5090565b612c0591905b80821115612c0157600081816101000a81549073ffffffffffffffffffffffffffffffffffffffff021916905550600101612bcb565b5090565b905600a165627a7a723058200556804d79136f799aafb4b68bc141c66216dafa4330f39b948f012441beb44e0029",
  "source": "pragma solidity ^0.4.24;\nimport \"./AdminValidatorSet.sol\";\nimport \"./Voteable.sol\";\n\n/**\n * The ValidatorSet contract maintains the set of validators and Allows\n * admins to add and remove members from the validator set\n */\ncontract SimpleValidatorSet is Voteable{\n\n\tenum Status {\n\t\tINACTIVE,\n\t\tPENDING,\n\t\tACTIVE\n\t}\n\n\tstruct Validator {\n\t\tbool isValidator;\n\t\tStatus status;\n\t}\n\n\tAdminValidatorSet adminSet;\n\n\tmapping (address => Validator) activeValidators;\n\tmapping (address => address[]) adminValidatorsMap;\n\taddress[] validators;\n\tmapping (address => bool) exists;\n\t\n\tuint32 totalCount;\n\tuint32 totalActiveCount;\n\n\t/**\n    * @dev Function to deploy and construct simplevalidatorset. msg.sender will be added as one of validator too\n\t* @param _address _address, address of adminValidatorSet contract\n\t* @param _validator1 _validator1, which is to be added as active admin\n\t* @param _validator2 _validator2, which is to be added as active admin\n    * @return A success flag\n    */\n\tconstructor (address _address, address _validator1, address _validator2)public {\n\t\tadminSet = AdminValidatorSet(_address);\n\n\t\t//Adding msg.sender as first validator\n\t\texists[msg.sender] = true;\n\t\tadminValidatorsMap[msg.sender].push(msg.sender);\n\t\tactiveValidators[msg.sender].isValidator = true;\n\t\tactiveValidators[msg.sender].status = Status.ACTIVE;\n\t\tvalidators.push(msg.sender);\n\n\t\t//To add _validator1 as validator\n\t\texists[_validator1] = true;\n\t\tadminValidatorsMap[_validator1].push(_validator1);\n\t\tactiveValidators[_validator1].isValidator = true;\n\t\tactiveValidators[_validator1].status = Status.ACTIVE;\n\t\tvalidators.push(_validator1);\n\n\t\t//To add _validator2 as validator\n\t\texists[_validator2] = true;\n\t\tadminValidatorsMap[_validator2].push(_validator2);\n\t\tactiveValidators[_validator2].isValidator = true;\n\t\tactiveValidators[_validator2].status = Status.ACTIVE;\n\t\tvalidators.push(_validator2);\n\n\t\ttotalCount = 3;\n\t\ttotalActiveCount = 3;\n\t}\n\n\tmodifier isAdmin() {\n\t\trequire (adminSet.isActiveAdmin(msg.sender));\n\t\t_;\n\t}\n\n\tmodifier isValidator() {\n\t\trequire (activeValidators[msg.sender].isValidator);\n\t\t_;\n\t}\n\n\tevent minValidatorNeeded(uint8 minNoOfValidator);\n\n\tevent addValidator(address indexed validator,address _admin);\n\tevent removeValidator(address indexed validator,address _admin);\n\n\tevent votedfor(address by,address vfor);\n\tevent votedagainst(address by,address vfor);\n\n\tevent alreadyProposalForAddingValidator(address indexed _address);\n\tevent alreadyProposalForRemovingValidator(address indexed _address);\n\n\tevent noProposalForAddingValidator(address indexed _address);\n\tevent noProposalForRemovingValidator(address indexed _address);\n\n\tevent alreadyActiveValidator(address indexed _address);\n\tevent alreadyInActiveValidator(address indexed _address);\n\n\t/**\n    * @dev Function to propose adding new validator. It checks validity of msg.sender with isAdmin modifier\n    * msg.sender address should be one of the active admin, who can start the proposal\n\t* @param _address address, which is to be added as new active admin\n\t* @return Emits event alreadyProposalForAddingValidator() in case some proposal already exists\n    * @return A success flag\n    */\n  \tfunction proposalToAddValidator (address _address) public isAdmin returns(bool res){\n\t\t//require(votes[_address].proposal == Proposal.NOT_CREATED);\n\t\tif(votes[_address].proposal != Proposal.NOT_CREATED){\n\t\t\tif(votes[_address].proposal == Proposal.ADD){\n\t\t\t\temit alreadyProposalForAddingValidator(_address);\n\t\t\t\treturn false;\n\t\t\t}\n\t\t\tif(votes[_address].proposal == Proposal.REMOVE){\n\t\t\t\temit alreadyProposalForRemovingValidator(_address);\n\t\t\t\treturn false;\n\t\t\t}\n\t\t}\n\t\tvotes[_address].proposal = Proposal.ADD;\n\t\trequire (voteFor(_address,msg.sender));\n\t\treturn true;\n\t}\n\n\t/**\n    * @dev Function to vote FOR adding one validator. It checks validity of msg.sender with isValidator modifier\n    * msg.sender address should be one of the active validator\n\t* @param _address address, which is to be proposed to add as active admin\n    * @return Emits event noProposalForAddingValidator() in case the ADD validator proposal is not started already\n\t* @return Emits event addValidator() once valdiator is successfully added\n\t* @return A success flag\n    */\n\tfunction voteForAddingValidator (address _address) public isValidator returns(bool res){\n\t\t//require(votes[_address].proposal == Proposal.ADD);\n\t\tif(votes[_address].proposal != Proposal.ADD){\n\t\t\temit noProposalForAddingValidator(_address);\n\t\t\treturn false;\n\t\t}\n\t\trequire(voteFor(_address,msg.sender));\n\t\tif(votes[_address].countFor >= totalActiveCount / 2 + 1){\n\t\t\tif(!exists[_address]){\n\t\t\t\tadminValidatorsMap[msg.sender].push(_address);\n\t\t\t\tvalidators.push(_address);\n\t\t\t\ttotalCount = totalCount.add(1);\n    \t\t}\t\t\n    \t\texists[_address] = true;\n    \t\tactiveValidators[_address].isValidator = true;\n    \t\tactiveValidators[_address].status = Status.ACTIVE;\n\t\t\ttotalActiveCount = totalActiveCount.add(1);\n    \t\trequire(clearVotes(_address));\n\t\t    emit addValidator(_address,msg.sender);\n\t\t}\t\n\t\treturn true;\n\t}\n\n\t/**\n    * @dev Function to vote AGAINST adding one validator. It checks validity of msg.sender with isValidator modifier\n    * msg.sender address should be one of the active validator\n\t* @param _address address, which is to be proposed to add as active admin\n    * @return Emits event noProposalForAddingValidator() in case the ADD validator proposal is not started already\n\t* @return A success flag\n    */\n\tfunction voteAgainstAddingValidator (address _address) public isValidator returns(bool res){\n\t\t//require(votes[_address].proposal == Proposal.ADD);\n\t\tif(votes[_address].proposal != Proposal.ADD){\n\t\t\temit noProposalForAddingValidator(_address);\n\t\t\treturn false;\n\t\t}\n\t\trequire(voteAgainst(_address,msg.sender));\n\t\tif(votes[_address].countAgainst >= totalActiveCount / 2 + 1){\n\t\t\tassert(clearVotes(_address));\n\t\t}\n\t\treturn true;\n\t}\n\t\n\t/**\n    * @dev Function to propose to remove one of the existing active validator.\n\t* msg.sender address should be one of the active admin, get validated with modifer isAdmin\n\t* System needs min 3 active admins for voting mechanism to function\n    * @param _address address The address which is one of the admin.\n    * @return A success flag\n\t* @return Emits event minValidatorNeeded() in case the no of existing active validators are less than 3\n\t* @return Emits event alreadyProposalForRemovingValidator() in case some proposal already exists\n    */\n  \tfunction proposalToRemoveValidator (address _address) public isAdmin returns(bool res){\n\t\tif(totalActiveCount <= 3){\n\t\t\temit minValidatorNeeded(3);\n\t\t\treturn false;\n\t\t}\n\t\t//require(votes[_address].proposal == Proposal.NOT_CREATED);\n\t\tif(votes[_address].proposal != Proposal.NOT_CREATED){\n\t\t\tif(votes[_address].proposal == Proposal.ADD){\n\t\t\t\temit alreadyProposalForAddingValidator(_address);\n\t\t\t\treturn false;\n\t\t\t}\n\t\t\tif(votes[_address].proposal == Proposal.REMOVE){\n\t\t\t\temit alreadyProposalForRemovingValidator(_address);\n\t\t\t\treturn false;\n\t\t\t}\n\t\t}\n\t\tvotes[_address].proposal = Proposal.REMOVE;\n\t\trequire (voteFor(_address,msg.sender));\t\n\t\treturn true;\n\t}\n\n\t/**\n    * @dev Function to vote FOR remving one active validatoe. It checks validity of msg.sender with isValidator modifier\n    * msg.sender address should be one of the active validator\n\t* @param _address address, which is to be proposed to remove as active admin\n    * @return Emits event noProposalForRemovingValidator() in case the REMOVE validator proposal is not started already\n\t* @return Emits event removeValidator() once valdiator is successfully removed\n\t* @return A success flag\n    */\n\tfunction voteForRemovingValidator (address _address) public isValidator returns(bool res){\n\t\t//require(votes[_address].proposal == Proposal.REMOVE);\n\t\tif(votes[_address].proposal != Proposal.REMOVE){\n\t\t\temit noProposalForRemovingValidator(_address);\n\t\t\treturn false;\n\t\t}\n\t\trequire(voteFor(_address,msg.sender));\n\t\tif(votes[_address].countFor >= totalActiveCount / 2 + 1){\n\t\t\tactiveValidators[_address].isValidator = false;\n    \t\tactiveValidators[_address].status = Status.INACTIVE;\n\t\t\ttotalActiveCount = totalActiveCount.sub(1);\n    \t\trequire(clearVotes(_address));\n    \t\temit removeValidator(_address,msg.sender);\n\t\t}\t\n\t\treturn true;\n\t}\n\n\t/**\n    * @dev Function to vote AGAINST remving one active validatoe. It checks validity of msg.sender with isValidator modifier\n    * msg.sender address should be one of the active validator\n\t* @param _address address, which is to be proposed to remove as active admin\n    * @return Emits event noProposalForRemovingValidator() in case the REMOVE validator proposal is not started already\n\t* @return A success flag\n    */\n\tfunction voteAgainstRemovingValidator (address _address) public isValidator returns(bool res){\n\t\t//require(votes[_address].proposal == Proposal.REMOVE);\n\t\tif(votes[_address].proposal != Proposal.REMOVE){\n\t\t\temit noProposalForRemovingValidator(_address);\n\t\t\treturn false;\n\t\t}\n\t\trequire(voteAgainst(_address,msg.sender));\n\t\tif(votes[_address].countAgainst >= totalActiveCount / 2 + 1){\n\t\t\tassert(clearVotes(_address));\n\t\t}\n\t\treturn true;\n\t}\n\t\n\t// function addValidator (address _address) public isValidator returns(bool res)  {\n\t// \tassert (!activeValidators[_address].isValidator);\n\t// \tassert (activeValidators[_address].status == Status.INACTIVE);\n\t// \tassert (voteFor(_address,msg.sender));\n\t// \tif(votes[_address].countFor >= totalActiveCount / 2 + 1){\n    // \t\tif(!exists[_address]){\n\t// \t\t\tadminValidatorsMap[msg.sender].push(_address);\n\t// \t\t\tvalidators.push(_address);\n\t// \t\t\ttotalCount = totalCount.add(1);\n    // \t\t}\t\t\n    // \t\texists[_address] = true;\n    // \t\tactiveValidators[_address].isValidator = true;\n\t// \t\ttotalActiveCount = totalActiveCount.add(1);\n    // \t\t//activeValidators[_address].lop = LastOp.ADD;\n    // \t\tactiveValidators[_address].status = Status.ACTIVE;\n    // \t\trequire(clearVotes(_address));\n\t// \t\tvotes[_address].proposal = Proposal.NOT_CREATED;\n\t// \t    emit addvalidator(_address,msg.sender);\n\t// \t}\n\t// \telse {\n\t// \t\tvotes[_address].proposal = Proposal.ADD;\n\t// \t}\n\t// \tif(votes[_address].countAgainst >= totalActiveCount / 2 +1){\n\t// \t    require(clearVotes(_address));\n\t// \t}\n\t// \treturn true;\n\t// }\n\n\t// function removeValidator (address _address) public isValidator returns(bool res)  {\n\t// \tassert (activeValidators[_address].isValidator);\n\t// \tassert (activeValidators[_address].status == Status.ACTIVE);\n\t// \tassert (voteFor(_address,msg.sender));\n\t// \tif(votes[_address].countFor >= totalActiveCount / 2 + 1){\n    // \t\tactiveValidators[_address].isValidator = false;\n    // \t\t//activeValidators[_address].lop = LastOp.REMOVE;\n    // \t\tactiveValidators[_address].status = Status.INACTIVE;\n\t// \t\ttotalActiveCount = totalActiveCount.sub(1);\n    // \t\trequire(clearVotes(_address));\n\t// \t\tvotes[_address].proposal = Proposal.NOT_CREATED;\n    // \t\temit removevalidator(_address,msg.sender);\n\t// \t}\n\t// \telse {\n\t// \t\tvotes[_address].proposal = Proposal.REMOVE;\n\t// \t}\n\t// \tif(votes[_address].countAgainst >= totalActiveCount / 2 +1){\n\t// \t    require(clearVotes(_address));\n\t// \t}\n\t// \treturn true;\n\t// }\n\n\t/*function lastOp (address _address)public view isAdmin returns(string res){\n\t\tif(activeValidators[_address].lop == LastOp.ADD){\n\t\t\treturn \"add\";\n\t\t}\n\t\telse if(activeValidators[_address].lop == LastOp.REMOVE){\n\t\t\treturn \"remove\";\n\t\t}else{\n\t\t\treturn \"no op\";\t\n\t\t}\n\t}*/\n\n\t/**\n    * @dev Function to check current voting status. It checks validity of msg.sender with isValidator modifier\n\t* @param _address address\n\t* @return returns the bool\n    */\n\tfunction checkVotes (address _address) public view isValidator returns(uint32[2] res){\n\t\treturn internalCheckVotes(_address);\n\t}\n\t\n\t/**\n    * @dev Function to check current proposal for the _address. It checks validity of msg.sender with isValidator modifier\n\t* @param _address address\n\t* @return returns the array of no of votes FOR and AGAINST\n    */\n\tfunction checkProposal (address _address) public view isValidator returns(string res){\n\t\treturn internalCheckProposal(_address);\n\t}\n\n\t/**\n    * @dev Function to return list of all validators active/non-active against a specific admin\n\t* It checks validity of msg.sender with isAdmin modifier\n\t* @return returns the list\n    */\n\tfunction getValidatorsForAdmin() public view isAdmin returns (address[] a){\n\t    return adminValidatorsMap[msg.sender];\n\t}\n\n\t/**\n    * @dev Function to check whether _address is active validator or not\n\t* @param _address address\n\t* @return returns bool as active or non-active validator\n    */\n\tfunction isActiveValidator(address _address) public view returns(bool a){\n\t    return activeValidators[_address].isValidator;\n\t}\n\n\t/**\n    * @dev Function to return list of all validators active/non-active\n\t* @return returns the list\n    */\n\tfunction getAllValidators()public view isValidator returns(address[] a){\n\t    return validators;\n\t}\n\n\t/**\n    * @dev Function to get total admin\n\t* @return returns the number\n    */\n\tfunction getValidatorsCount()public view isValidator returns(uint32){\n\t    return totalCount;\n\t}\n\n\t/**\n    * @dev Function to get total active validators\n\t* @return returns the number\n    */\n\tfunction getActiveValidatorsCount()public view isValidator returns(uint32){\n\t    return totalActiveCount;\n\t}\n}\n",
  "sourcePath": "/Users/rahulgolash/Rahul/Ledgerium/CoreLedgerium/governanceApp/contracts/SimpleValidatorSet.sol",
  "compiler": {
    "name": "solc",
    "version": "0.4.24+commit.e67f0147.Emscripten.clang"
  },
  "schemaVersion": "2.0.0",
  "updatedAt": "2018-11-12T01:53:56.616Z"
}