{
  "contractName": "SimpleValidatorSet",
  "abi": [
    {
      "inputs": [
        {
          "name": "_address",
          "type": "address"
        }
      ],
      "payable": false,
      "stateMutability": "nonpayable",
      "type": "constructor"
    },
    {
      "anonymous": false,
      "inputs": [
        {
          "indexed": false,
          "name": "validator",
          "type": "address"
        },
        {
          "indexed": false,
          "name": "_admin",
          "type": "address"
        }
      ],
      "name": "addvalidator",
      "type": "event"
    },
    {
      "anonymous": false,
      "inputs": [
        {
          "indexed": false,
          "name": "validator",
          "type": "address"
        },
        {
          "indexed": false,
          "name": "_admin",
          "type": "address"
        }
      ],
      "name": "removevalidator",
      "type": "event"
    },
    {
      "anonymous": false,
      "inputs": [
        {
          "indexed": false,
          "name": "validator",
          "type": "address"
        },
        {
          "indexed": false,
          "name": "_admin",
          "type": "address"
        },
        {
          "indexed": false,
          "name": "_event",
          "type": "string"
        }
      ],
      "name": "finalizeEvent",
      "type": "event"
    },
    {
      "constant": false,
      "inputs": [
        {
          "name": "_address",
          "type": "address"
        }
      ],
      "name": "addValidator",
      "outputs": [
        {
          "name": "res",
          "type": "bool"
        }
      ],
      "payable": false,
      "stateMutability": "nonpayable",
      "type": "function"
    },
    {
      "constant": false,
      "inputs": [
        {
          "name": "_address",
          "type": "address"
        }
      ],
      "name": "removeValidator",
      "outputs": [
        {
          "name": "res",
          "type": "bool"
        }
      ],
      "payable": false,
      "stateMutability": "nonpayable",
      "type": "function"
    },
    {
      "constant": false,
      "inputs": [
        {
          "name": "_address",
          "type": "address"
        }
      ],
      "name": "finalize",
      "outputs": [
        {
          "name": "res",
          "type": "bool"
        }
      ],
      "payable": false,
      "stateMutability": "nonpayable",
      "type": "function"
    },
    {
      "constant": true,
      "inputs": [
        {
          "name": "_address",
          "type": "address"
        }
      ],
      "name": "lastOp",
      "outputs": [
        {
          "name": "res",
          "type": "string"
        }
      ],
      "payable": false,
      "stateMutability": "view",
      "type": "function"
    },
    {
      "constant": true,
      "inputs": [],
      "name": "getValidatorsForAdmin",
      "outputs": [
        {
          "name": "a",
          "type": "address[]"
        }
      ],
      "payable": false,
      "stateMutability": "view",
      "type": "function"
    },
    {
      "constant": true,
      "inputs": [
        {
          "name": "_address",
          "type": "address"
        }
      ],
      "name": "isValidator",
      "outputs": [
        {
          "name": "a",
          "type": "bool"
        }
      ],
      "payable": false,
      "stateMutability": "view",
      "type": "function"
    },
    {
      "constant": true,
      "inputs": [],
      "name": "getAllValidators",
      "outputs": [
        {
          "name": "a",
          "type": "address[]"
        }
      ],
      "payable": false,
      "stateMutability": "view",
      "type": "function"
    }
  ],
  "bytecode": "0x608060405234801561001057600080fd5b5060405160208061180483398101806040528101908080519060200190929190505050806000806101000a81548173ffffffffffffffffffffffffffffffffffffffff021916908373ffffffffffffffffffffffffffffffffffffffff16021790555050611781806100836000396000f300608060405260043610610083576000357c0100000000000000000000000000000000000000000000000000000000900463ffffffff16806340a141ff146100885780634d238c8e146100e35780634ef39b751461013e57806380ae02b814610199578063dd31863c14610255578063f3513a37146102c1578063facd743b1461032d575b600080fd5b34801561009457600080fd5b506100c9600480360381019080803573ffffffffffffffffffffffffffffffffffffffff169060200190929190505050610388565b604051808215151515815260200191505060405180910390f35b3480156100ef57600080fd5b50610124600480360381019080803573ffffffffffffffffffffffffffffffffffffffff169060200190929190505050610715565b604051808215151515815260200191505060405180910390f35b34801561014a57600080fd5b5061017f600480360381019080803573ffffffffffffffffffffffffffffffffffffffff169060200190929190505050610bad565b604051808215151515815260200191505060405180910390f35b3480156101a557600080fd5b506101da600480360381019080803573ffffffffffffffffffffffffffffffffffffffff169060200190929190505050611006565b6040518080602001828103825283818151815260200191508051906020019080838360005b8381101561021a5780820151818401526020810190506101ff565b50505050905090810190601f1680156102475780820380516001836020036101000a031916815260200191505b509250505060405180910390f35b34801561026157600080fd5b5061026a61129d565b6040518080602001828103825283818151815260200191508051906020019060200280838360005b838110156102ad578082015181840152602081019050610292565b505050509050019250505060405180910390f35b3480156102cd57600080fd5b506102d661146a565b6040518080602001828103825283818151815260200191508051906020019060200280838360005b838110156103195780820151818401526020810190506102fe565b505050509050019250505060405180910390f35b34801561033957600080fd5b5061036e600480360381019080803573ffffffffffffffffffffffffffffffffffffffff1690602001909291905050506115fa565b604051808215151515815260200191505060405180910390f35b60008060009054906101000a900473ffffffffffffffffffffffffffffffffffffffff1673ffffffffffffffffffffffffffffffffffffffff16639026dee8336040518263ffffffff167c0100000000000000000000000000000000000000000000000000000000028152600401808273ffffffffffffffffffffffffffffffffffffffff1673ffffffffffffffffffffffffffffffffffffffff168152602001915050602060405180830381600087803b15801561044657600080fd5b505af115801561045a573d6000803e3d6000fd5b505050506040513d602081101561047057600080fd5b8101908080519060200190929190505050151561048c57600080fd5b600160008373ffffffffffffffffffffffffffffffffffffffff1673ffffffffffffffffffffffffffffffffffffffff16815260200190815260200160002060000160009054906101000a900460ff1615156104e457fe5b6002808111156104f057fe5b600160008473ffffffffffffffffffffffffffffffffffffffff1673ffffffffffffffffffffffffffffffffffffffff16815260200190815260200160002060000160019054906101000a900460ff16600281111561054b57fe5b14151561055457fe5b6000600160008473ffffffffffffffffffffffffffffffffffffffff1673ffffffffffffffffffffffffffffffffffffffff16815260200190815260200160002060000160006101000a81548160ff02191690831515021790555060018060008473ffffffffffffffffffffffffffffffffffffffff1673ffffffffffffffffffffffffffffffffffffffff16815260200190815260200160002060000160026101000a81548160ff0219169083600281111561060d57fe5b021790555060018060008473ffffffffffffffffffffffffffffffffffffffff1673ffffffffffffffffffffffffffffffffffffffff16815260200190815260200160002060000160016101000a81548160ff0219169083600281111561067057fe5b02179055507f0e38f3f1f3951ab725aae659235f220f0047662c0cb8b69de232fcd2ecc373168233604051808373ffffffffffffffffffffffffffffffffffffffff1673ffffffffffffffffffffffffffffffffffffffff1681526020018273ffffffffffffffffffffffffffffffffffffffff1673ffffffffffffffffffffffffffffffffffffffff1681526020019250505060405180910390a160019050919050565b60008060009054906101000a900473ffffffffffffffffffffffffffffffffffffffff1673ffffffffffffffffffffffffffffffffffffffff16639026dee8336040518263ffffffff167c0100000000000000000000000000000000000000000000000000000000028152600401808273ffffffffffffffffffffffffffffffffffffffff1673ffffffffffffffffffffffffffffffffffffffff168152602001915050602060405180830381600087803b1580156107d357600080fd5b505af11580156107e7573d6000803e3d6000fd5b505050506040513d60208110156107fd57600080fd5b8101908080519060200190929190505050151561081957600080fd5b600160008373ffffffffffffffffffffffffffffffffffffffff1673ffffffffffffffffffffffffffffffffffffffff16815260200190815260200160002060000160009054906101000a900460ff1615151561087257fe5b6000600281111561087f57fe5b600160008473ffffffffffffffffffffffffffffffffffffffff1673ffffffffffffffffffffffffffffffffffffffff16815260200190815260200160002060000160019054906101000a900460ff1660028111156108da57fe5b1415156108e357fe5b600260003373ffffffffffffffffffffffffffffffffffffffff1673ffffffffffffffffffffffffffffffffffffffff1681526020019081526020016000208290806001815401808255809150509060018203906000526020600020016000909192909190916101000a81548173ffffffffffffffffffffffffffffffffffffffff021916908373ffffffffffffffffffffffffffffffffffffffff1602179055505060038290806001815401808255809150509060018203906000526020600020016000909192909190916101000a81548173ffffffffffffffffffffffffffffffffffffffff021916908373ffffffffffffffffffffffffffffffffffffffff1602179055505060018060008473ffffffffffffffffffffffffffffffffffffffff1673ffffffffffffffffffffffffffffffffffffffff16815260200190815260200160002060000160006101000a81548160ff0219169083151502179055506002600160008473ffffffffffffffffffffffffffffffffffffffff1673ffffffffffffffffffffffffffffffffffffffff16815260200190815260200160002060000160026101000a81548160ff02191690836002811115610aa557fe5b021790555060018060008473ffffffffffffffffffffffffffffffffffffffff1673ffffffffffffffffffffffffffffffffffffffff16815260200190815260200160002060000160016101000a81548160ff02191690836002811115610b0857fe5b02179055507f039da864d27cfcd2c69976e7bcbf44b3ca4a79a2f6ba32b27bcf51640040db518233604051808373ffffffffffffffffffffffffffffffffffffffff1673ffffffffffffffffffffffffffffffffffffffff1681526020018273ffffffffffffffffffffffffffffffffffffffff1673ffffffffffffffffffffffffffffffffffffffff1681526020019250505060405180910390a160019050919050565b60008060009054906101000a900473ffffffffffffffffffffffffffffffffffffffff1673ffffffffffffffffffffffffffffffffffffffff16639026dee8336040518263ffffffff167c0100000000000000000000000000000000000000000000000000000000028152600401808273ffffffffffffffffffffffffffffffffffffffff1673ffffffffffffffffffffffffffffffffffffffff168152602001915050602060405180830381600087803b158015610c6b57600080fd5b505af1158015610c7f573d6000803e3d6000fd5b505050506040513d6020811015610c9557600080fd5b81019080805190602001909291905050501515610cb157600080fd5b60016002811115610cbe57fe5b600160008473ffffffffffffffffffffffffffffffffffffffff1673ffffffffffffffffffffffffffffffffffffffff16815260200190815260200160002060000160019054906101000a900460ff166002811115610d1957fe5b141515610d2257fe5b600280811115610d2e57fe5b600160008473ffffffffffffffffffffffffffffffffffffffff1673ffffffffffffffffffffffffffffffffffffffff16815260200190815260200160002060000160029054906101000a900460ff166002811115610d8957fe5b1415610ec8576002600160008473ffffffffffffffffffffffffffffffffffffffff1673ffffffffffffffffffffffffffffffffffffffff16815260200190815260200160002060000160016101000a81548160ff02191690836002811115610dee57fe5b02179055507fb2ea81c953f59e312ac1cd1896cab12fc1836354a2296b3745c420bfd9e57ab08233604051808373ffffffffffffffffffffffffffffffffffffffff1673ffffffffffffffffffffffffffffffffffffffff1681526020018273ffffffffffffffffffffffffffffffffffffffff1673ffffffffffffffffffffffffffffffffffffffff16815260200180602001828103825260038152602001807f6164640000000000000000000000000000000000000000000000000000000000815250602001935050505060405180910390a1610ffd565b6000600160008473ffffffffffffffffffffffffffffffffffffffff1673ffffffffffffffffffffffffffffffffffffffff16815260200190815260200160002060000160016101000a81548160ff02191690836002811115610f2757fe5b02179055507fb2ea81c953f59e312ac1cd1896cab12fc1836354a2296b3745c420bfd9e57ab08233604051808373ffffffffffffffffffffffffffffffffffffffff1673ffffffffffffffffffffffffffffffffffffffff1681526020018273ffffffffffffffffffffffffffffffffffffffff1673ffffffffffffffffffffffffffffffffffffffff16815260200180602001828103825260068152602001807f72656d6f76650000000000000000000000000000000000000000000000000000815250602001935050505060405180910390a15b60019050919050565b60606000809054906101000a900473ffffffffffffffffffffffffffffffffffffffff1673ffffffffffffffffffffffffffffffffffffffff16639026dee8336040518263ffffffff167c0100000000000000000000000000000000000000000000000000000000028152600401808273ffffffffffffffffffffffffffffffffffffffff1673ffffffffffffffffffffffffffffffffffffffff168152602001915050602060405180830381600087803b1580156110c457600080fd5b505af11580156110d8573d6000803e3d6000fd5b505050506040513d60208110156110ee57600080fd5b8101908080519060200190929190505050151561110a57600080fd5b60028081111561111657fe5b600160008473ffffffffffffffffffffffffffffffffffffffff1673ffffffffffffffffffffffffffffffffffffffff16815260200190815260200160002060000160029054906101000a900460ff16600281111561117157fe5b14156111b4576040805190810160405280600381526020017f61646400000000000000000000000000000000000000000000000000000000008152509050611298565b600160028111156111c157fe5b600160008473ffffffffffffffffffffffffffffffffffffffff1673ffffffffffffffffffffffffffffffffffffffff16815260200190815260200160002060000160029054906101000a900460ff16600281111561121c57fe5b141561125f576040805190810160405280600681526020017f72656d6f766500000000000000000000000000000000000000000000000000008152509050611298565b6040805190810160405280600581526020017f6e6f206f7000000000000000000000000000000000000000000000000000000081525090505b919050565b60606000809054906101000a900473ffffffffffffffffffffffffffffffffffffffff1673ffffffffffffffffffffffffffffffffffffffff16639026dee8336040518263ffffffff167c0100000000000000000000000000000000000000000000000000000000028152600401808273ffffffffffffffffffffffffffffffffffffffff1673ffffffffffffffffffffffffffffffffffffffff168152602001915050602060405180830381600087803b15801561135b57600080fd5b505af115801561136f573d6000803e3d6000fd5b505050506040513d602081101561138557600080fd5b810190808051906020019092919050505015156113a157600080fd5b600260003373ffffffffffffffffffffffffffffffffffffffff1673ffffffffffffffffffffffffffffffffffffffff16815260200190815260200160002080548060200260200160405190810160405280929190818152602001828054801561146057602002820191906000526020600020905b8160009054906101000a900473ffffffffffffffffffffffffffffffffffffffff1673ffffffffffffffffffffffffffffffffffffffff1681526020019060010190808311611416575b5050505050905090565b60606000809054906101000a900473ffffffffffffffffffffffffffffffffffffffff1673ffffffffffffffffffffffffffffffffffffffff16639026dee8336040518263ffffffff167c0100000000000000000000000000000000000000000000000000000000028152600401808273ffffffffffffffffffffffffffffffffffffffff1673ffffffffffffffffffffffffffffffffffffffff168152602001915050602060405180830381600087803b15801561152857600080fd5b505af115801561153c573d6000803e3d6000fd5b505050506040513d602081101561155257600080fd5b8101908080519060200190929190505050151561156e57600080fd5b60038054806020026020016040519081016040528092919081815260200182805480156115f057602002820191906000526020600020905b8160009054906101000a900473ffffffffffffffffffffffffffffffffffffffff1673ffffffffffffffffffffffffffffffffffffffff16815260200190600101908083116115a6575b5050505050905090565b60008060009054906101000a900473ffffffffffffffffffffffffffffffffffffffff1673ffffffffffffffffffffffffffffffffffffffff16639026dee8336040518263ffffffff167c0100000000000000000000000000000000000000000000000000000000028152600401808273ffffffffffffffffffffffffffffffffffffffff1673ffffffffffffffffffffffffffffffffffffffff168152602001915050602060405180830381600087803b1580156116b857600080fd5b505af11580156116cc573d6000803e3d6000fd5b505050506040513d60208110156116e257600080fd5b810190808051906020019092919050505015156116fe57600080fd5b600160008373ffffffffffffffffffffffffffffffffffffffff1673ffffffffffffffffffffffffffffffffffffffff16815260200190815260200160002060000160009054906101000a900460ff1690509190505600a165627a7a7230582053facfab3eca114fdf58437aad790f8bfb441ee5abb2726cc446a61dbdedd43f0029",
  "source": "pragma solidity ^0.4.24;\nimport \"./AdminValidatorSet.sol\";\n\n/**\n * The ValidatorSet contract maintains the set of validators and Allows\n * admins to add and remove members from the validator set\n */\ncontract SimpleValidatorSet {\n\n\tenum Status {\n\t\tDISABLED,\n\t\tPENDING,\n\t\tACTIVE\n\t}\n\n\tenum LastOp{\n\t\tNO_OP,\n\t\tREMOVE,\n\t\tADD\n\t}\n\n\tstruct Validator {\n\t\tbool isValidator;\n\t\tStatus status;\n\t\tLastOp lop;\n\t}\n\n\tAdminValidatorSet adminSet;\n\n\tmapping (address => Validator) activeValidators;\n\tmapping (address => address[]) adminValidatorsMap;\n\taddress[] validators;\n\n\tuint32 totalCount;\n\n\tconstructor (address _address)public {\n\t\tadminSet = AdminValidatorSet(_address);\n\t}\n\n\tmodifier isOwner() {\n\t\trequire (adminSet.checkAdmin(msg.sender));\n\t\t_;\n\t}\n\n\tevent addvalidator(address validator,address _admin);\n\tevent removevalidator(address validator,address _admin);\n\tevent finalizeEvent(address validator,address _admin,string _event);\n\n\tfunction addValidator (address _address)public isOwner returns(bool res)  {\n\t\tassert (!activeValidators[_address].isValidator);\n\t\tassert (activeValidators[_address].status == Status.DISABLED);\n\t\tadminValidatorsMap[msg.sender].push(_address);\n\t\tvalidators.push(_address);\n\t\tactiveValidators[_address].isValidator = true;\n\t\tactiveValidators[_address].lop = LastOp.ADD;\n\t\tactiveValidators[_address].status = Status.PENDING;\n\t\temit addvalidator(_address,msg.sender);\n\t\treturn true;\n\t}\n\n\tfunction removeValidator (address _address)public isOwner returns(bool res)  {\n\t\tassert (activeValidators[_address].isValidator);\n\t\tassert (activeValidators[_address].status == Status.ACTIVE);\n\t\tactiveValidators[_address].isValidator = false;\n\t\tactiveValidators[_address].lop = LastOp.REMOVE;\n\t\tactiveValidators[_address].status = Status.PENDING;\n\t\temit removevalidator(_address,msg.sender);\n\t\treturn true;\n\t}\n\n\tfunction finalize (address _address)public isOwner returns(bool res)  {\n\t\tassert (activeValidators[_address].status == Status.PENDING);\n\t\tif(activeValidators[_address].lop == LastOp.ADD){\n\t\t\tactiveValidators[_address].status = Status.ACTIVE;\n\t\t\temit finalizeEvent(_address,msg.sender,\"add\");\n\t\t}\n\t\telse{\n\t\t\tactiveValidators[_address].status = Status.DISABLED;\n\t\t\temit finalizeEvent(_address,msg.sender,\"remove\");\n\t\t}\n\t\treturn true;\n\t}\n\n\tfunction lastOp (address _address)public view isOwner returns(string res){\n\t\tif(activeValidators[_address].lop == LastOp.ADD){\n\t\t\treturn \"add\";\n\t\t}\n\t\telse if(activeValidators[_address].lop == LastOp.REMOVE){\n\t\t\treturn \"remove\";\n\t\t}else{\n\t\t\treturn \"no op\";\n\t\t}\n\t}\n\n\tfunction getValidatorsForAdmin() public view isOwner returns (address[] a){\n\t    return adminValidatorsMap[msg.sender];\n\t    /*address[10] memory temp;\n\t    address[] memory all = adminValidatorsMap[msg.sender];\n\t    uint j = 0;\n\t    for(uint i=0;i<all.length;i++){\n\t        if(activeValidators[all[i]].isValidator){\n\t            temp[i] = a[i];\n\t            j++;\n\t        }\n\t    }\n\t    return temp;*/\n\t}\n\n\tfunction isValidator(address _address) public view isOwner returns(bool a){\n\t    return activeValidators[_address].isValidator;\n\t}\n\n\tfunction getAllValidators()public view isOwner returns(address[] a){\n\t    return validators;\n\t    /*address[10] memory temp;\n\t    address[] memory all = validators;\n\t    uint j = 0;\n\t    for(uint i=0;i<all.length;i++){\n\t        if(activeValidators[all[i]].isValidator){\n\t            temp[j] = a[i];\n\t            j++;\n\t        }\n\t    }\n\t    return temp;*/\n\t}\n}\n",
  "sourcePath": "/Users/rahulgolash/Rahul/Ledgerium/CoreLedgerium/goverananceApp/contracts/SimpleValidatorSet.sol",
  "compiler": {
    "name": "solc",
    "version": "0.4.24+commit.e67f0147.Emscripten.clang"
  },
  "schemaVersion": "2.0.0",
  "updatedAt": "2018-09-20T10:50:31.338Z"
}