{
  "contractName": "TestGreeter",
  "abi": [
    {
      "inputs": [
        {
          "name": "_address",
          "type": "address"
        }
      ],
      "payable": false,
      "stateMutability": "nonpayable",
      "type": "constructor"
    },
    {
      "constant": false,
      "inputs": [
        {
          "name": "a",
          "type": "uint32"
        },
        {
          "name": "b",
          "type": "uint32"
        }
      ],
      "name": "add",
      "outputs": [],
      "payable": false,
      "stateMutability": "nonpayable",
      "type": "function"
    },
    {
      "constant": true,
      "inputs": [],
      "name": "result",
      "outputs": [
        {
          "name": "",
          "type": "uint32"
        }
      ],
      "payable": false,
      "stateMutability": "view",
      "type": "function"
    }
  ],
  "bytecode": "0x608060405234801561001057600080fd5b5060405160208061034f8339810180604052810190808051906020019092919050505060008060006101000a81548163ffffffff021916908363ffffffff16021790555080600060046101000a81548173ffffffffffffffffffffffffffffffffffffffff021916908373ffffffffffffffffffffffffffffffffffffffff160217905550506102aa806100a56000396000f30060806040526004361061004c576000357c0100000000000000000000000000000000000000000000000000000000900463ffffffff1680633ad14af3146100515780636537214714610094575b600080fd5b34801561005d57600080fd5b50610092600480360381019080803563ffffffff169060200190929190803563ffffffff1690602001909291905050506100cb565b005b3480156100a057600080fd5b506100a96101b7565b604051808263ffffffff1663ffffffff16815260200191505060405180910390f35b8082016000806101000a81548163ffffffff021916908363ffffffff160217905550600060049054906101000a900473ffffffffffffffffffffffffffffffffffffffff1673ffffffffffffffffffffffffffffffffffffffff16637125a42c6000809054906101000a900463ffffffff166040518263ffffffff167c0100000000000000000000000000000000000000000000000000000000028152600401808263ffffffff1663ffffffff168152602001915050600060405180830381600087803b15801561019b57600080fd5b505af11580156101af573d6000803e3d6000fd5b505050505050565b60008060049054906101000a900473ffffffffffffffffffffffffffffffffffffffff1673ffffffffffffffffffffffffffffffffffffffff1663b32e737f6040518163ffffffff167c0100000000000000000000000000000000000000000000000000000000028152600401602060405180830381600087803b15801561023e57600080fd5b505af1158015610252573d6000803e3d6000fd5b505050506040513d602081101561026857600080fd5b81019080805190602001909291905050509050905600a165627a7a723058208756a38adfacd75a3872d7f539589bf58b81032217d55a9d6844eb4d6520116d0029",
  "source": "pragma solidity 0.4.24;\nimport \"./Greeter.sol\";\n\ncontract TestGreeter {\n\n    uint32 myNumber;\n    Greeter greeter;\n    constructor (address _address) public\n    {\n        myNumber = 0;\n        greeter = Greeter(_address);\n    }\n    \n    function add(uint32 a, uint32 b) public \n    {\n        myNumber = a + b;\n        greeter.setMyNumber(myNumber);\n    }\n\n    function result() constant public returns (uint32) \n    {\n        return greeter.getMyNumber();\n    }\n}",
  "sourcePath": "/Users/rahulgolash/Rahul/Ledgerium/CoreLedgerium/governanceApp/contracts/TestGreeter.sol",
  "compiler": {
    "name": "solc",
    "version": "0.4.24+commit.e67f0147.Emscripten.clang"
  },
  "schemaVersion": "2.0.0",
  "updatedAt": "2018-10-12T02:40:48.648Z"
}